00000000000000000$e!tTgKDMRH@DRQ0000000000000000
0000000000000000Qd     =+<v=;=<]D000000000000000
0000000000000000Q$c/          .5R000000000000000
00000000000000000Qk\         ]GQ0000000000000000
000000000000000000B5        vKQ00000000000000000
000000000000000000QE        rQ000000000000000000
000000000000000000B#.       rQQ00000000000000000
0000000000000000QQ[         -LRQ0000000000000000
0000000000000000$n:           sKQ000000000000000
000000000000000QK'         .   [0000000000000000
00000000000000QQ7          l_   5Q00000000000000
0000000000000QRo           v'   =KQ0000000000000
0000000000000B?            --    ]Q0000000000000
0000000000000B>                  +H0000000000000
0000000000000Ql                 'wN0000000000000
00000000000000r                 ?QQ0000000000000