00000000000000000000000000000QRQQQQQ000000000000
000000000000000000000000000QQX}yp48MQQ0000000000
0000000000000000000000000QQb!.    _\7kQ000000000
000000000000QQQQQ0000000Wbm%         _JR00000000
00000000000WfV8&URQQQQQQ@T*           +DQ0000000
00000000000RGTtc=<xILq80QQQ#          y000000000
000000000000QQQR?     _iefET          JN00000000
00000000000000Q0< -;,.               _$Q00000000
000000000000000M#m&HKbqCas`          \MQ00000000
0000000000000000QQQQQQQQQJ.          /WQ00000000
00000000000000000000000Ro             XQ00000000
00000000000000000000000Ml.            uQ00000000
00000000000000000000000QX_            [Q00000000
0000000000000000000000Qgi             2Q00000000
0000000000000000000000$Ld-           =HQ00000000
0000000000000000000000RQA`         -`3Q000000000