0000000000000000000000000000000000000QNbpJTySbBQ
0000000000000000000000000000000000QQQd>`     `"7
0000000000000000000000000000000000KyL^          
0000000000000000000000000000000000Dz            
00000000000000000QQQQQ000000000000QR*`          
00000000000000000KkOgY0QQQQ00000000QMw          
00000000000000000w:.  <omGDQQQQQQQQQQQV))^      
00000000000000000B4J57{,  :%7mkH@&Y3jTfyf"      
00000000000000000QQQQQQKEf?"   _`               
00000000000000000000000QQQQMAFLoooojnJf[        
000000000000000000000000000QQQQQQQQQQQQ&.       
000000000000000000000000000000000000000Rt       
0000000000000000000000000000000000000000R2,     
00000000000000000000000000000000000000000QF.    
000000000000000000000000000000000000000000Qj    
000000000000000000000000000000000000000000Z\    