0000000000000000000000000QQQQB]     "5qGMQ000000
00000000000000000000000QQKqa%/,        `iXQ00000
0000000000000000000000QN#^               'AQ0000
0000000000000000000000W!                  iB0000
0000000000000000000000X                    oQ000
0000000000000000000000Wn/-                 _&Q00
00000000000000000000QQQQ$l                  yQ00
000000000000000000QQHZA&@w;                 ]Q00
00000000000000000R6s/```/X8x                lQ00
0000000000000000Q$`      aQ@+            .  \R00
00000000000000000Rt      "XQT            ']^"$Q0
000000000000000000RgI.    'u[          `: g6qO00
0000000000000000000Qu                  `y[gQMQ00
000000000000000000Q8_                   vD@QQQ00
000000000000000000Q[      ,              5QQD$R0
000000000000000000Q%     ]p .            <qerfR0