00000000000Q7                -PQ0000000000000000
000000000000&v).             CQ00000000000000000
000000000000QMT.           zVQ000000000000000000
0000000000000Mz           \KQ0000000000000000000
0000000000000Qf          %KQ00000000000000000000
0000000000000Qm.         JQQ00000000000000000000
0000000000000QG^         <yH00000000000000000000
000000000000Qk:            rQQ000000000000000000
00000000000RW5             .?2R00000000000000000
00000000000B!'               eQ00000000000000000
00000000000Qy   '=           )UQ0000000000000000
0000000000QNv   ^1            iHQ000000000000000
000000000QKr    -)             v@000000000000000
00000000Q&>                     {R00000000000000
00000000O"                      ]000000000000000
00000000H)     '                )WQ0000000000000