000000000QQQQQQQ00000000000000000000000000000000
00000000M8A8HNDMQ0000000000000000000000000000000
00000000M&Eyt):\pQQ00000000000000000000000000000
000000000QQQRko`.oAQQQQ0000000000000000000000000
0000000000000QQ4' -IL5&QQQ0000000000000000000000
000000000000000Q8#:   :yOD0QQQQQQQQQQQQQQQQQQQQQ
0000000000000000QQ87^   .^vrvtjzLJ5VYGhSggAXmfuo
000000000000000000QQK6|             .     `     
00000000000000000000QQDXX]                      
0000000000000000000000QQQMI                     
0000000000000000000000000QW]                    
00000000000000000000000000QR6^                  
000000000000000000000000000QW+                  
000000000000000000000000000Q@:                  
0000000000000000000000000000M\                  
0000000000000000000000000000Qx                  