00000000000000000000000000000Qku%,          `i#A
00000000000000000000000000000#'                '
00000000000000000000000000QQX                   
00000000000000000000000QQQqI+                   
0000000000000000000000QFxr                      
0000000000000000000000Qw*:                      
0000000000000000000QQQpvZDLv'                   
0000000000000000QQRDR4:uQQQQ4`                  
000000000000000NyI>^>:\RQ00QM"                  
000000000000000D}     }Q0000Qx  ":              
000000000000000Qd    /AQ0000Qc  >=              
0000000000000000D\   ,mQQQQQW"                  
0000000000000000Q$l    aFVAP%                   
00000000000000000QW[.     -                     
000000000000000000QX-                           
00000000000000000QA=                            