0000000000000000000000000QQQQQQQ0000000000000000
000000000000000000000000Q@mA8UHNQQQ0000000000000
0000000000000000000000006l -__,"cCH0000000000000
000000000000000000000QQ4          lQQ00000000000
000000000000000000000@4!          _XR00000000000
0000000000000000000008gP}_         <B00000000000
000000000000000000000QQQQF         :@Q0000000000
000000000000000000000000QD:         gQ0000000000
000000000000000000000000Qh-         oQ0000000000
0000000000000000000000QQG=          .qQ000000000
00000000000000000000QQKJ_            :YQ00000000
000000000000000000QQUL^               cM00000000
00000000000000000QOe,                 .AQ0000000
0000000000000000QU,     .             \W00000000
0000000000000000QE"w)  [\             1Q00000000
0000000000000000M#PQK!sB>             5Q00000000