0000000000000000000000000QQ@@QQQQQQ0000000000000
000000000000000000000000QKV1=*[7fdHQ000000000000
00000000000000000000000Qb+        =6Q00000000000
000000000000000000000RNK!          |RQ0000000000
000000000000000000000M5n}          .F00000000000
00000000000000000000000QM7          o00000000000
000000000000000000000000Q&`-'       jQ0000000000
000000000000000000000000Q@:`_       aQ0000000000
000000000000000000000000Q4.         c00000000000
00000000000000000000000QM}          .mQ000000000
0000000000000000000000Qkr            ^@Q00000000
000000000000000000000Qq^              LQ00000000
000000000000000000000Rr               %Q00000000
000000000000000000000MgL_             1Q00000000
00000000000000000000000Y\             !Q00000000
0000000000000000000000QM/             1Q00000000