0000000000000000000000000QQQQBMQQ000000000000000
00000000000000000000000QQHS#j*vFRQ00000000000000
0000000000000000000000MZF|      %yW0000000000000
0000000000000000000000D+         wM0000000000000
00000000000QQQQQQ000000Et`      =NQQ000000000000
00000000000$8$&HMQQQQQNDE.      -[hDQ00000000000
0000000000QS^'-;)c[Tz{/:_          ^200000000000
0000000000Qy         ,/            eH00000000000
00000000000ut#FVGkZZ&BY'`^         6Q00000000000
00000000000QQQQQQQQQQQY'y2      .?tb000000000000
000000000000000000000$3[&L       SQQ000000000000
000000000000000000000DRQQs       \B0000000000000
000000000000000000000Q0Q@,        SQ000000000000
00000000000000000000000QC         jQ000000000000
0000000000000000000000QO:         ?Q000000000000
0000000000000000000000R{          v0000000000000