00000000000000000Q$:             hQ00000000Qm   
0000000000000000000l           _T0000000000QS   
000000000000000000Qg           vp&000000000QS   
000000000000000000QB^            }Q00Q00000QS   
00000000000000000QQX`  ..       -dQQQDN0000QS   
0000000000000000QM#; ;ud/       #QQ@ezW0000Qg   
000000000000000QB?  ^b@\        \TC/ gQ0000Qg   
000000000000000&v  I&b=              #Q0000QS   
00000000000000QI  uQQr             .<4Q0000QS   
0000000000000QB/ :$QM%   )?Lm42TjT6YMQ00000QS   
0000000000000QS  r000&t?SWQQQQQQQQQQQ000000QS   
0000000000000N3 .hQ00QQQQQ00000000000000000QS   
0000000000000@u[[&Q000000000000000000000000QS   
00000000000000MBDN0000000000000000000000000QS   
000000000000000QQ00000000000000000000000000QS   
0000000000000000000000000000000000000000000QS   