000000000000000RZm#7zJdfT!:    gQ000000000000000
000000000000000Rt              fQ000000000000000
0000000000000000Mu-          \L80000000000000000
0000000000000000QQE_         'n00000000000000000
000000000000000000Q#         )W00000000000000000
000000000000000000Q[         eNQ0000000000000000
00000000000000000QMl         [OQ0000000000000000
0000000000000000QZ%           =DQ000000000000000
000000000000000Qy``-           tVR00000000000000
00000000000000Qy t[             %R00000000000000
0000000000000QA_<Qf          '.  nQ0000000000000
0000000000000QJ 5Y,               JQQ00000000000
0000000000000Qr j/                 LN00000000000
00000000000000L?}                   6Q0000000000
00000000000000QQr                  `OQ0000000000
000000000000000QG_                 |H00000000000