000000000000000000000000000000000R@Aw           
000000000000000000000000000000000W!'            
0000000000000000000000000000000000Wr            
0000000000000000000000000000000000Q&I           
00000000000000QQQ0RQQQ0000000000000QNt          
00000000000000Veex>TZW0QQQQQQQQQQQQQQQV![;      
0000000000000Rgai"_  ^<reJ64Y$K8kP2tt7n3e-      
00000000000000QRHM@Z4[v|,    .-                 
0000000000000000Q0QQQQQRBUPpL]][1aoL#wys        
000000000000000000000000QQQQQQQQQQQQQQQA.       
0000000000000000000000000000000000000000n       
0000000000000000000000000000000000000000QV\     
00000000000000000000000000000000000000000QP     
000000000000000000000000000000000000000000Q!    
00000000000000000000000000000000000000000Q$x    
00000000000000000000000000000000000000000A|     