0000000000Qm                 >H00000000000000000
00000000000D?%`             ^YQ00000000000000000
00000000000QKs            +LkQ000000000000000000
000000000000Hq\          `zQQ0000000000000000000
000000000000QQa          sR000000000000000000000
0000000000000QF.         +BQ00000000000000000000
000000000000QWS_         "KQ00000000000000000000
00000000000Q8|            >BQQ000000000000000000
00000000000Qg              {J$000000000000000000
0000000000W7\               .YQ00000000000000000
00000000000q                .7000000000000000000
0000000000QL                  uQ0000000000000000
00000000QQy_                   T0000000000000000
0000000QMe     -                #Q00000000000000
00000008l      ^                TQ00000000000000
000000QP;                       <W00000000000000