0000000000q,                '$Q00000000000000000
000000000b)                  3Q00000000000000000
00000000QPx_                 ;OQ0000000000000000
00000000As                    <DQ000000000000000
00000000REi                    *NQ00000000000000
000000000Q4Cs                   !R00000000000000
0000000000QQ]                    hQ0000000000000
00000000000QC                    }Q0000000000000
000000000000Ul                   !Q0000000000000
000000000000QT                   6Q0000000000000
000000000000Mmz                 _UQ0000000000000
0000000000000Qbc                .4Q0000000000000
00000000000000Qb+                7Q0000000000000
000000000000000Nyp,              TQ0000000000000
0000000000000000Qb              `XQ0000000000000
0000000000000000QYl.            ?000000000000000