0000000000000N!.   [RQ00000000000000000000000000
0000000000000QT     zD000QQQQQQQQ000000000000000
0000000000000Qw      cMQQDObgEXODQQ0000000000000
0000000000000Xy,     {0PI=.    `=!YQ000000000000
000000000000R7/>^    =z`          :qQ00000000000
0000000000000@kRP'   !a_           _bQ0000000000
0000000000000QQRS:   fQn            jQ0000000000
000000000000QQdi     `7P)           tQ0000000000
00000000000QMw_        ]b/;`        2Q0000000000
00000000QQQXc           c_          VQ0000000000
000000QQ@5l.                        dQ0000000000
000000$L^                          .bQ0000000000
00000R?                             SQ0000000000
000000S)_                           [Q0000000000
000000QN8bVw7etzt` -Tq1             iR0000000000
0000000QQQQQQQQQk_ %0Qb.            >MQ000000000