00000000000000000000000000000RhwgRQQQQ0000000000
000000000000000000000000000QQ$_  %hK@MQ000000000
0000000000000000000000000QRby1_    ::\wR00000000
000000000000000000000000Qdv.           JQ0000000
00000000000000000000000QX`             'GQ000000
00000000000000000000000Q4:              vM000000
000000000000000000000000QUo              XQ00000
0000000000000000000000000Qkv             wQ00000
00000000000000000000000000QN[          - IR00000
0000000000000QQQQQQ00000000Qk.         >[JB00000
000000000000086atekQ000000MBT.        roYD000000
000000000000W|    lNQQQQQQL^        `'TQMQ000000
0000000000000T'    "i{1T6u:         `;\RQ0000000
0000000000000Q&g5i                    .wy4000000
00000000000000QQK^                     c@M000000
000000000000000Ra          .           `uR000000