0000000000000000000000000000o           ,bQ00000
000000000000000000000000000Q6_           [Q00000
000000000000000000000000000Rj_           1Q00000
000000000000000000000000000Qe           )K000000
0000000000000000000000000000@S!         ?M000000
000000000000000000000000000QQK]          w000000
00000000000000000000000000MdI:      'a[!wO000000
0000000000000000000000000Qw          5Q0QQ000000
00000000000000QQQQQ000000k"         ^jQ000000000
0000000000000Q@FJjd00000Qt         I$M0000000000
0000000000000H)   xW0000QE`       +VQ00000000000
000000000000Q2   <DQQQQQQQc       ?Q000000000000
000000000000@/   'd@DD$ZSJ|       >M000000000000
00000000000Q7     .:^^_            TQQ0000000000
00000000000Q? `.      `_':.        _#NQ000000000
00000000000Qd"<     [ZO&UX_          {@000000000