0000000000000000000000000QQQQB!     "2mPNQ000000
00000000000000000000000QQKqa%/,        .igQ00000
0000000000000000000000QN#^               'kQ0000
0000000000000000000000W]                  )D0000
0000000000000000000000P                    eQ000
0000000000000000000000WT/-                 _&Q00
00000000000000000000QQQQ$r                  wQ00
000000000000000000QQHZA&@f;                 !Q00
000000000000000000m{/```/g$l                cQ00
0000000000000000Q$`      1QK/            .  \R00
00000000000000000Ra      "gQT            '[^"$Q0
000000000000000000Rg?`    _n1          `: gmSO00
0000000000000000000Qn.                 `y1XQMQ00
000000000000000000QU'                   vB@QQQ00
000000000000000000Qa      :              5QQD$R0
000000000000000000Qr     *F .            <qerwR0