00000000000000000000000000Q000000000000000000000
000000000000000000000000QRU0QQQQQQ00000000000000
00000000000000000000000QRh\%cc*tJPRQ000000000000
0000000000000000000000QN[         sH000000000000
000000000000000000000RBV'          YQ00000000000
000000000000000000000N6p*          1800000000000
0000000000000000000000QQMy         ]R00000000000
000000000000000000000000Qb         !Q00000000000
00000000000000000000QQQRO?         iR00000000000
0000000000000000QQQQ$dL>`          .pQ0000000000
00000000000000QQBPJl:               _EQ000000000
00000000000000$1^     /1v.           =8Q00000000
0000000000000Qj^)   ,JDQRv            [Q00000000
000000000000Qg1$O` IAQQQA_            {Q00000000
0000000000000D0QQpSQQ00Qd             oQ00000000
0000000000000Q000QQ0000Qw          :  eQ00000000