00000000M*                     mQ000000000000000
00000000RC^                   'UQ000000000000000
000000000Q#                   "WQ000000000000000
0000000000BL"                 vQQ000000000000000
0000000000QQ#                 'mQQ00000000000000
00000000000Q6                   ]HQ0000000000000
0000000000QP:                    <PQ000000000000
0000000000Qg                      -gQ00000000000
00000000000QS:                     mQ00000000000
0000000000QMw_                    }W000000000000
000000000R4%                     .ZQ000000000000
000000000Hz/                      >YQ00000000000
0000000000Q$i                      <MQ0000000000
00000000000QN#:                    !000000000000
000000000000QQq!-                 vD000000000000
00000000000000QQl                "8Q000000000000