0000000000000000000000000QQQQQQ00000000000000000
000000000000000000000000QWbgm4HQ0000000000000000
00000000000000000000000Qq/    +C0000000000000000
00000000000000000000000R)       6000000000000000
00000000000000000000000085^     "BQ0000000000000
0000000000000000000QQRQ0QQKn^  )d000000000000000
0000000000000000000YriOQ0W]'   =$Q00000000000000
000000000000000000Q# ,AQQ3    .7&000000000000000
000000000000000000Qc  ^)Ic    %QQ000000000000000
000000000000000000QT   ?w%    v0Q000000000000000
000000000000000000Rj   cQ8`    7NQ00000000000000
00000000000000000Q&>` -+WT      x$Q0000000000000
000000000000000000RRbLb@H^       >HQ000000000000
00000000000000000000QQQQm         lWQ00000000000
0000000000000000000000Q@"          l$Q0000000000
0000000000000000000000R?            )b0000000000