000000000000000R@OY&BQQQNDDN00000000000000000000
00000000000000QK"``'"c%{)==|u0000000000000000000
0000000000000000a^         _dQ000000000000000000
00000000000000000#.       [&Q0000000000000000000
0000000000000000Q!       c8Q00000000000000000000
00000000000000000t      -4Q000000000000000000000
0000000000000000Qe       ,tRQ0000000000000000000
000000000000000MO,         u80000000000000000000
000000000000000D) _/        dQ000000000000000000
00000000000000Q&: "V.       lWQ00000000000000000
0000000000000QO\  |4         }D00000000000000000
000000000000QG^   'c          FQ0000000000000000
000000000000Qh   .+          `hQ0000000000000000
000000000000Qh   >_          nR00000000000000000
000000000000Qy :L)           pQ00000000000000000
000000000000Q#iGe            =$Q0000000000000000