00000000000000000000000000000000000000QQQ4_     
0000000000000000000000000000000000QQQQ@6?^      
0000000000000000000000000000000000Z?r{,         
0000000000000000000000000QQQ0000QNi             
0000000000000000000000000ZJxgQ000Rois`          
00000000000000000000000QDj_-OQ00000QMye+        
0000000000000000000QQQQQP\ aQ00000000QQ8o??+    
0000000000000000QQMKkSfS! `YQ0000000000QQQQw.   
00000000000000008I\;.     'GQ0000000000000QP^   
000000000000000Q6/         TQ0000000000000QK%   
0000000000000000Q6        -YQ0000000000000QN]   
0000000000000000QA_      'gQ000000000000000Re   
0000000000000000007      `*XQQ00000000000QQM[   
000000000000000000Mf+      .*ZQQ0QQQQQQQRG7v_   
0000000000000000000QHJ=      `!kMD$HBkqjx`      
00000000000000000000QQU1.      'i/;=|-          