000000000000QE:;_                'F0000000000000
0000000000000R$q/               \gQ0000000000000
0000000000000Q4^               {WQ00000000000000
00000000000000B8x            `tbQ000000000000000
00000000000000Q0)            'kQ0000000000000000
00000000000000QBj-      ._    6Q0000000000000000
00000000000000QK5`       _   .gQ0000000000000000
0000000000000Qy=              iPQ000000000000000
00000000000QQ$_                _C0Q0000000000000
00000000000bba                   ]WQ000000000000
0000000000QJ                      ?M000000000000
0000000000R1                    !^ JQ00000000000
000000000Qu                ).   *# :&Q0000000000
0000000QQT                `C.    s: JQ0000000000
000000QWt                 .f_       %R0000000000
000000Hs                   o|       '$Q000000000