000000000000000000NgSGHQQQQQQQQ00000000000000000
00000000000000000Q2  `+!ofL1anSR0000000000000000
00000000000000000QJ^.         w00000000000000000
000000000000000000&c.       /EQ00000000000000000
000000000000000000NS       ^PQ000000000000000000
000000000000000000QH)    _ :DQ000000000000000000
00000000000000000Q@1;    . .#RQ00000000000000000
0000000000000000RDa          IB00000000000000000
00000000000000000r.       .  -!00000000000000000
000000000000000Q5.       _{  r-PQ000000000000000
00000000000000Qm`        ,z  - JQ000000000000000
0000000000000QF`         .L`   oQ000000000000000
0000000000000Qn           |>   I0000000000000000
0000000000000Q4            }\  jQ000000000000000
0000000000000Q@/           `t?.r0000000000000000
00000000000000QJ             u5m0000000000000000