000000000000000000RPFJnCVdF2l^` .gQ0000000000000
000000000000000000R}             hQ0000000000000
000000000000000000Q@i_         ;jW00000000000000
0000000000000000000QWq-        >gQ00000000000000
00000000000000000000QWc       _AQ000000000000000
00000000000000000000QW/       xQQ000000000000000
00000000000000000000QK=       _[Y000000000000000
0000000000000000000Wg?          !Q00000000000000
000000000000000000Q&_           ,zW0000000000000
00000000000000000QN?             tQ0000000000000
0000000000000000QB*           `  ^GQ000000000000
0000000000000000Kv           -r   ,VQ00000000000
000000000000000QG             :    _dQ0000000000
0000000000000000gv`                `GQ0000000000
0000000000000000QQ5`                EQ0000000000
000000000000000000QL            `"  fQ0000000000