0000000000000o                jQ0000000000000000
0000000000000@x^           `'iK00000000000000000
0000000000000QRS           /ABQ00000000000000000
00000000000000Qo           ]BQ000000000000000000
0000000000000Q@\         +FQQ0000000000000000000
0000000000000Q@"         rEQQ0000000000000000000
00000000000000MI          'IZQ000000000000000000
0000000000000Q8_            >QQ00000000000000000
000000000000RbT  `          `sm00000000000000000
000000000000RT   /:           EQ0000000000000000
000000000000Qy   7y           [Q0000000000000000
00000000000Q8/   zZ            nQ000000000000000
0000000000Q&)    6S             #R00000000000000
0000000000O)     S?             .EQ0000000000000
000000000M[     li              :8Q0000000000000
000000000Qw    "T.              =ZQ0000000000000