00000000000000000000000000000Q0WQQQQ000000000000
000000000000000000000000000QQA!?C2XKQQ0000000000
0000000000000QQ0000000000QQOa'     ,sS0Q00000000
000000000000WmDQQQQQQ000MVwl          ID00000000
000000000000WzreIwPADQQQMmL`          .PQ0000000
0000000000000Q@4]  `^xTZNQQg`         !R00000000
00000000000000QQn       "{uj          !B00000000
000000000000000Qs+st]>:               hQ00000000
00000000000000008BQQQR@Zqu:          .OQ00000000
0000000000000000QQ0000QQQj.          .EQ00000000
00000000000000000000000R?             1Q00000000
00000000000000000000000RI.            ^HQ0000000
0000000000000000000000QMw.             bQ0000000
0000000000000000000000@z<             _8Q0000000
0000000000000000000000VZd             cR00000000
0000000000000000000000QQP           `.qQ00000000