00000000000000000000QQ&Vhk0QQ0000000000000000000
00000000000000000000&?,  -l2K0000000000000000000
0000000000000000000Q&,      iN000000000000000000
0000000000000000000QQb%`   '<DQ00000000000000000
000000000000000000M2JPj-    .iYQ0000000000000000
000000000000000000BTzI        ,3M000000000000000
0000000000000000000QQQC         nQ00000000000000
000000000000000000000Qk`    '\)]Z000000000000000
00000000000000000000QRi     ,gQQQ000000000000000
00000000000000000QQQR2.      _#DQQQ0000000000000
000000000000000QQ@4ui          "ngKQ000000000000
00000000000000RAj;                ^PQ00000000000
0000000000000Wt                    )B00000000000
00000000000000$j"`               ,3kR00000000000
00000000000000QQWg_ ^)</^_'|)c{TI-yQ000000000000
0000000000000000QR< *KRBKO&WRQQQq lQ000000000000