000000000000000000Vl%x?3V4Z5JCFXR000000000000000
00000000000000000QC       `    [R000000000000000
000000000000000000$t,        -?B0000000000000000
000000000000000000QSi        eQQ0000000000000000
0000000000000000000QW)       [000000000000000000
0000000000000000000Q8r       /BQ0000000000000000
00000000000000000QQn:        ;kQ0000000000000000
00000000000000000Bd:       "+ \80000000000000000
0000000000000000QU'        tl  7Q000000000000000
0000000000000000QT        '@T  cQ000000000000000
000000000000000Q3.        _HC  .yQ00000000000000
00000000000000Qf          .dh   `S00000000000000
00000000000000Qz           ;X/   vW0000000000000
00000000000000Qd'           *g-  \D0000000000000
000000000000000Qz            og^ ,$Q000000000000
000000000000000M{             JOi mQ000000000000