000000000000000000000000QQQQ00000000000000000000
0000000000000000000000QQW@@WQQQ00000000000000000
00000000000000000000RR8]"::"sJ@QQQQ0000000000000
00000000000000000000Ys=       +]fGBQQ00000000000
0000000000000000000001            "[X00000000000
0000000000000000QQ000H}         \#dkD00000000000
000000000000000RUK0QQQ$?x,  .   _"tGQQ0000000000
00000000000000Q3i+v2BQQQOv  '.     `aHQ000000000
000000000000000HBkl \&hl`            )SRQ0000000
000000000000000QQQB% '  '              lXQ000000
000000000000000000Q&s%zYC               -pQ00000
0000000000000000000QQQQQNy               oQ00000
000000000000000000000000QD=       --   >JB000000
0000000000000000000000000M)       +CI. 1QQ000000
000000000000000000000000Qj         :?-  JQ000000
00000000000000000000000QA_            `=7Q000000