0000000000000000000000000000Q8/           :$Q000
00000000000000000000000000000g\            kQ000
0000000000000000000000000000Q2           .jR0000
00000000000000000000000000000Uz%.        \0Q0000
00000000000000000000000000000QQg'         #00000
000000000000000000000000000QRE1'      _;;)#N0000
0000000000000000000000000008r         ;AABR00000
00000000000000000000000000Qf          ,YQQ000000
0000000000000000QQQ000000QZ.        _C&W00000000
00000000000000Q0WKBQ00000Q&:        sQQ000000000
0000000000000Qdi+,iK000000Q#        PQ0000000000
000000000000QN/   7H000QQQQg        dQ0000000000
000000000000Qh   `pQQQQWZJl:        )WQ000000000
000000000000H" :`  {1e*"             oWQ00000000
00000000000QS  l_        _+:          )ZQ0000000
00000000000QX.:y-    ;1yE&@<           :g0000000