000000000000000000000000QQQ0MMQQQ000000000000000
00000000000000000000000QM21v\\%aZQ00000000000000
00000000000000000000000Kc       -JQ0000000000000
0000000000000000000000QE'        ,DQ000000000000
00000000000000000000000Q$!        pQ000000000000
00000000000000000QQQ0000QBy?"    `pQ000000000000
0000000000000000QMKW00000RXt'  .?G00000000000000
000000000000000Qd\;*W000Qa      +@Q0000000000000
000000000000000Q!  JQQQQd`     _ok00000000000000
00000000000000QU;  /7CqOF      JQQ00000000000000
00000000000000Qg     `. ,.    .kQ000000000000000
000000000000000We'   *&2s`     uQQ00000000000000
000000000000000QP`   -YQQ)     -fRQ0000000000000
000000000000000N>     !Qd.       }HQ000000000000
000000000000000NpL):]z4M%         vKQ00000000000
0000000000000000QQBgRQQb.          *N00000000000