0000000000000000000000000000QPa)-          +[dRQ
00000000000000000000000000QQJ-               .xX
0000000000000000000000QQQR$h`                  -
0000000000000000000000BZ8I'                     
000000000000000000000Qt:`                      -
0000000000000000000QRR@AFv`                    '
000000000000000000Qf?KQQQWOl                    
00000000000000QQQ0R"IR000QQ4                    
00000000000000B6s){ t00000Qb.                   
0000000000000Rt     "BQ000Qk. .tr.              
00000000000000K%    *QQ000QP   e#`              
00000000000000Qb;   +F0QQQQg                   .
000000000000000Qkl    IGO8&*                   :
0000000000000000QRf'    `__                    +
00000000000000000QQ4`                          /
0000000000000000000o                           _