00000000000000000000QNl                         
00000000000000000000QNl                         
00000000000000000000QNl                         
00000000000000000000QNl                         
000000QQQ00000000000QNl                         
000QQ0BKBQQQ00000000QNl                         
000Bf%=,=c5W00000000QNl          ;[fp6w*-       
000o       nQ0000000QNl        "o$QQQQQQgt/     
000w`     _pQ0000000QNl        iJ8QQQQQ0Gw/     
0000GL*c}TYQ00000000QNl          :I#yfjx.       
0000QQQQQQQ000000000QNl                         
00000000000000000000QNl                         
00000000000000000000QNl                         
00000000000000000000QNl                         
00000000000000000000QNl                         
00000000000000000000QNl                         