00000000000000000000000000QQQQ000000000000000000
000000000000000000000000QQM@$WQQ0000000000000000
000000000000000000000000@1):'/o$Q000000000000000
00000000000000000000000Q7      cM000000000000000
000000000000000000000000AJ:     6Q00000000000000
00000000000000000000QMM0QQO]. .]$000000000000000
0000000000000000000Qg\?RQ@c`   oQ000000000000000
0000000000000000000Q[ iOD7    |E0000000000000000
0000000000000000000Ri  -)^    6Q0000000000000000
0000000000000000000QL  _bF    7QQ000000000000000
000000000000000000QY,   gb    .7WQ00000000000000
00000000000000000008mx\ob1      rBQ0000000000000
0000000000000000000QQM@QA_       ?RQ000000000000
0000000000000000000000QRs         tMQ00000000000
0000000000000000000000Q#           {$Q0000000000
000000000000000000000Q4`            iD0000000000