00000000000000000Yos<|>]l</     uQ00000000000000
00000000000000000O)           _,6Q00000000000000
00000000000000000QK!,         =6R000000000000000
000000000000000000QQh_        rEQ000000000000000
0000000000000000000QU:        aQ0000000000000000
0000000000000000000QP:`      .IRQ000000000000000
0000000000000000000QY;        :70Q00000000000000
000000000000000000Q&c          .bN00000000000000
00000000000000000Q8^            ^2Q0000000000000
0000000000000000QWc          )l  IQ0000000000000
0000000000000000Q1           "7   wQ000000000000
000000000000000Qp             !.   yQ00000000000
000000000000000D%.            '.    C00000000000
000000000000000Rh`                  j00000000000
0000000000000000NP1                 nQ0000000000
00000000000000000QH+                jQ0000000000