00MKB0QQQQQ0000000000000000000000000000000000000
00MO52#T6ZK0QQQQ00000000000000000000000000000000
000QQMAmor)v!C4UMQQQQQ00000000000000000000000000
000000QQQQKXf]v))?#V&WQQQQ0000000000000000000000
0000000000QQQQR$X3ar%l1wd&W00000000000000000000Q
000000000000000QQQQQKPgy#JgW00000000000000000QQB
000000000000000000QX}zZQRD$D0000000000000000QMpv
0000000000000000000${.iSRQQ0QQQ000000000000Q@a` 
0000000000000000000Q$w:^j@QQHg$00000000000Q@s   
000000000000000000Qu+i"  vPd/l@00000000000Q$/   
00000000000000000QE.      _.{MQ000000000000QY+  
00000000000000000Qt         *R00000000000000Qq= 
000000000000000000DV2"       nQ00000000000000QKf
000000000000000000QQQD2)     `hQ00000000000000QQ
000000000000000000000QQNe     :gQ000000000000000
00000000000000000000000QN?     ;bQ00000000000000