00000000000000000000000000000QQMH8c   `TQ0000000
0000000000000000000000000000Rd[\^'     ,60000000
000000000000000000000000000W}            tR00000
00000000000000000000000000Q&'             6Q0000
0000000000000000QQQQQQ00000Rf'            3QQQ00
000000000000000WZbkX48QQQ00Q5             gQbMQ0
000000000000000R@d+  _zG8BR0N?i|         .j]`lbQ
0000000000000000QQUp: ,GbZ80QQQh              -I
000000000000000000QB+ :KQQQQD4?:                
000000000000000000Qg  ,BQUol/                   
000000000000000000Qo  ^yc,                      
0000000000QQQ00000M)                       .    
000000000R4f&QQQ00ML<<szmX|          +"|r72".   
000000000#  _IhWQQ0QRRQQQQ#          ?MNQQHj_   
000000000DhI_  )nkQQQ0000QF         ){RQ00QP`   
000000000QQQP+   'eSU00RRMs         ==YQ000B1_  