00000000000000000000000000QQQQQQQ000000000000000
0000000000000000000000000QD6bU$DNQQQ000000000000
000000000000000000000000Rp{-._';|c#@Q00000000000
00000000000000000000000Qg          <WQ0000000000
0000000000000000000000WO!          .E00000000000
0000000000000000000000YJ#\          >K0000000000
0000000000000000000000QQQWe         )MQ000000000
0000000000000000000000000QX         /WQ000000000
000000000000000000000000QQn         +WQ000000000
000000000000000000000000Yo`         `XQ000000000
0000000000000000000000Qg_            *0000000000
00000000000000000000000j             .YQ00000000
000000000000000000000Q5               3Q00000000
00000000000000000000QO:              .EQ00000000
00000000000000000000Rl               [Q000000000
00000000000000000000Rvs],           `PQ000000000