00000000000000000000000000000UmmHQQQQ00000000000
00000000000000000000000000QQQ?  /T8U@0Q000000000
0000000000000000000000000QNPfi    __:%EQ00000000
0000000000000000000000000F\           _kQ0000000
0000000000000000000000002              vW0000000
000000000000000000000000T               wQ000000
000000000000000000000000MP*             <M000000
0000000000000000000000000QX)            ,KQ00000
00000000000000000000000000QD% -.      . .AQ00000
0000000000000QQR0QQ0000000QQh .       _[lYQ00000
000000000000047%i%EQQQ0000B@j        :aX@0000000
000000000000N/    >&HMQQQQ?'        ,,mQQ0000000
000000000000Qg<-   -;|x[T}.         -;%QQ0000000
0000000000000QM8P)                    `yfZ000000
00000000000000QQ5                      [KM000000
00000000000000QP,         ;i           :6Q000000