000000000000000000000000QM$gzo8QQ000000000000000
000000000000000000000QQQf<:-. ;?gW00000000000000
000000000000000000000DL!        ;UQ0000000000000
00000000000000000000QU^         iR00000000000000
000000000000000000000QH5.-      /MQ0000000000000
0000000QQQQQQQQQQQQQQRRZ`}.     _gDQQ00000000000
000000RPEC1anw26gggC!<"/ -        ^sd00000000000
0000000WAh-          _            .!800000000000
00000000Qb"i*oJFSmgP8k+           "HQ00000000000
000000000MW0QQQQQQQQQQV'          "bQ00000000000
0000000000Q0000000000BI`         "PQ000000000000
0000000000000000000008fl         tR0000000000000
000000000000000000000QQx         TQ0000000000000
000000000000000000000QA-         hQ0000000000000
000000000000000000000Qn          TQ0000000000000
00000000000000000000Q8,          r00000000000000