0000000000000000000000Qb-                       
00000000000000000000000Q]                       
00000000000000000000000QE                       
00000000000000000000000Q8_                      
00000000QQQ000000000000QU'                      
00000QQ0BDMQQ0000000000QY`                      
00000KTv+^)!gQ000000000Qy           v#qSwr.     
0000M%      .EQ00000000B\          [0QQQQQT     
0000RI      ;ZQ0000000Qf           {HQQQQWa     
00000Mq[xv{J8Q00000000M<            =!nT1|      
00000QQQQQQQQ00000000QA-                        
000000000000000000000QG                         
000000000000000000000QA_                        
000000000000000000000QN<                        
0000000000000000000000QJ                        
0000000000000000000000QK|                       