000000000000000000000000000000000M57r           
000000000000000000000000000000000MF=            
0000000000000000000000000000000000Q2            
00000000000000000000000000000000000Rh/          
0000000000000QQQQ0QQQ00000000000000QQX>         
0000000000000Poa}vfkMQQQQQQQQQQQQQQQQQWmp%      
0000000000000bul/-  "%l!7#2mdZZEgF7%xr*e[_      
0000000000000QRKN$E6o|+,-                       
000000000000000QQQQQQRMBK&ZV2wf325FmhEg2`       
0000000000000000000000QQQQQQQQQQQQQQQQQQI       
000000000000000000000000000000000000000QUv      
0000000000000000000000000000000000000000QNw'    
00000000000000000000000000000000000000000QQ}    
000000000000000000000000000000000000000000Qd    
00000000000000000000000000000000000000000QMn    
00000000000000000000000000000000000000000W[     