0000000000W!         `yR00000000000000Qg        
0000000000QH^        .f000000000000000Qg        
00000000000Qs        lBQ00000000000000QE        
00000000000QC        :\TMQQ00000000000QE        
00000000000QG          cQWD00000000000QE        
0000000000QK*         ;E3l&Q0000000000Qg        
000000000QWr          `^ /HQ0000000000Qg        
000000000R} <<          ;1D00000000000Qg        
00000000Qd `gS, ;1FVGdVGKQ000000000000QE        
00000000R? l0Q$G@QQQQQQQQ0000000000000QE        
000000000F-)@QQQQ000000000000000000000QE        
000000000HEgK0000000000000000000000000QE        
000000000QQQQ0000000000000000000000000QE        
00000000000000000000000000000000000000QE        
00000000000000000000000000000000000000QE        
00000000000000000000000000000000000000QE        