000000000000000000000000000000000ki_            
000000000000000000000000000000000RZ)            
0000000000000000000000000000000000Qp.           
00000000000QQQ000000000000000000000Qgr          
00000000000W&KRQQQ000000000000000000QOl         
0000000000MFl>\vJkRQQQQQ0000000000QQQQ0J"\\     
0000000000R&5I);  \TFdAD0QQQQQQQQQN&A&8KDk]     
00000000000QRMQBh7c    ;>*z24kPg2#%----')^      
000000000000000QQQQq#as)_                       
0000000000000000000QQQQRKb6L?}![tejTfFShz       
000000000000000000000000QQQQQQQQQQQQQQQQ&`      
0000000000000000000000000000000000000000R[      
00000000000000000000000000000000000000000NL'    
00000000000000000000000000000000000000000QQOv   
0000000000000000000000000000000000000000000Q5   
00000000000000000000000000000000000000000000Dl  