0000000000QA"+`              .F00000000000000000
000000000000@f'            .=pQ00000000000000000
00000000000QOl-            IDQ000000000000000000
0000000000000QT           cUQ0000000000000000000
0000000000000QY`          \BQ0000000000000000000
000000000000QQW)          -kQ0000000000000000000
000000000000WF*`          /HQ0000000000000000000
0000000000QQ5              tQQ000000000000000000
0000000000BD}               *pR00000000000000000
000000000Qq+.                ?Q00000000000000000
000000000Q&_  `I             =8Q0000000000000000
000000000Q1   -h'             *00000000000000000
00000000Q#.   ^S.              TQ000000000000000
000000QQL     cT                TR00000000000000
000000Ne      >/                }R00000000000000
00000Qy                         "k00000000000000