000000000000000000000000000000Q@fs/-       ^{FHQ
00000000000000000000000000QQQQ4+              "y
0000000000000000000000000Q$m6q/                 
00000000000000000000000004"                     
0000000000000000000000000Eo:                    
0000000000000000000000000QQY2^                  
000000000000000000000000000QQT                  
000000000000000000000QQQQQMk03                  
000000000000000000000$XXMb}m0m  *]:             
0000000000000000000QV:  \\gQQZ. '"_             
0000000000000000000Q2   \&QQQM"                 
0000000000000000000Q?   itwGBn_                 
00000000000000000000ks`    .|                   
00000000000000000000QQr                         
00000000000000000000QY'                         
00000000000000000000Qo <+                       