00000000000000000000000000QQD"    ,#dhbMQ0000000
000000000000000000000000QQAFo)        `vgQ000000
00000000000000000000000Qdl-             _bQ00000
0000000000000000000000Qw                 )$Q0000
000000000000000000000Q&:                  *00000
0000000000000000000000Wa_                  PQ000
00000000000000000000000QAj                 zQ000
00000000000000000QQQQQQQQE\                rQ000
0000000000000000QHPTJ#pB0QWn  ..           i0000
000000000000000Qm^     eQ0QB| '`        `" /NQ00
000000000000000QT      )DQQQw            n![kQ00
0000000000000000Be,`    )fKBe          )^pK$W000
0000000000000000QQK[      ;+           )XbQQ0000
00000000000000000QE-                    wQ0QQ000
00000000000000000Qt                     ^KNbgN00
00000000000000000N>       .,;            x{a6R00