000000000000000000000000QQQHi     +jzwGQQ0000000
0000000000000000000000QQWgT}|         `I$Q000000
000000000000000000000QMf|               vDQ00000
000000000000000000000MI                  cBQ0000
000000000000000000000m                    [00000
000000000000000000000Z+                   .XQ000
000000000000000000000Q@F}                  ]Q000
00000000000000000QQQQQQQF_                 "NQ00
0000000000000000QUgeII?FRb?.               _UQ00
000000000000000QP:      XQQr  ,          '  gQ00
000000000000000QP       zRQY_            1lvJ000
0000000000000000Q6\-     cXZ+           .}8EkR00
00000000000000000QNt      ..           .zLMQQ000
00000000000000000QO_                    <KR00QQ0
00000000000000000Qq      _+              3QQR&D0
00000000000000000Qe     'Va              'p5Isk0