00000000000000000000Q8]r)/)GQQ000000000000000000
00000000000000000000Qhi    '?KQ00000000000000000
0000000000000000000N[_`      %B00000000000000000
0000000000000000000Mf,       vD00000000000000000
00000000000000000000QO7/     fQ00000000000000000
000000000000000000000QR*     gQ00000000000000000
0000000000000000000000Hi`.  ^HQ00000000000000000
000000000000000000000QY'    -JBQ0000000000000000
00000000000000000000QQ1       )AQ000000000000000
000000000000000000QQ&t`        |YQ00000000000000
00000000000000000QKz:           ,mQ0000000000000
0000000000000000QG|              .hQ000000000000
000000000000000Qg`                ?0000000000000
0000000000000000@e'               >W000000000000
0000000000000000QQAJv'        `)16@0000000000000
000000000000000000QQMYf{;  ^e3GNQQQ0000000000000