00000000000000000000QQQQQQQ000000000000000000000
00000000000000000000B5rx]ENQ00000000000000000000
0000000000000000000Qp     \Z00000000000000000000
0000000000000000000Q0j,  'lqQ0000000000000000000
0000000000000000QQQBq?,   '!kQ000000000000000000
0000000000000000$[jr_t_     "8000000000000000000
0000000000000000Kh7aAQt    ` yQ00000000000000000
0000000000000000QQQQQQ]   `ui%R00000000000000000
00000000000000000000QA-    _1XQQ0000000000000000
0000000000000000000QBc      ^p&RQ000000000000000
000000000000000000Q$c         -vO000000000000000
00000000000000000QZ\            #Q00000000000000
0000000000000000Q8;        ')?pYW000000000000000
00000000000000000NEmz /TfVGUMQQQQQ00000000000000
000000000000000000Q0o !qpF5F53qEG8R0000000000000
00000000000000000M#<-)2m6F6p5w#w2hW0000000000000