00000000000000000000000000000000000000QQQQMHU8$$
0000000000000000000000000000000000000QB4Ls\^:',"
00000000000000000000000000000000000QM3"         
00000000000000000000000000000000000H]           
0000000000000000000000000000000000Q&|           
00000000000000000000000000000000000R2c.         
00000000000000000000000000000000000QUv          
0000000000000000000000000000000000000w.         
000000000000000000000000000000000000QD\ x).     
000000000000000000000000000000000000QK\i4n'     
0000000000000000000000000000000000000RoI-       
00000000000000000000000000000000000000X'        
0000000000000000000000000000000000000Qp         
000000000000000000000000000000000000RH7         
0000000000000000000000000000000000000p'         
000000000000000000000000000000000000Qb'         