00000000000000000000000000000000QQRkFor>\|.     
0000000000000000000000000000000QBw)_            
000000000000000000000000000QQQQDi               
00000000000000000000000000R$AXwv                
00000000000000000000000000Kx                    
000000000000000000000000000@6S%                 
000000000000000000000000000QQQWg7               
0000000000QQQQQQQQQQQQ00000000QQkc              
0000000000k#Jut1e#F4kBQQ00000000QBLI}a`     :`cI
0000000000$[.       ./JBQ00000QQQ0QQAe.   "LP4M0
0000000000QQpx;,^"-    \SQQQQQWDe>><`     .wQQQF
000000000000QQKKDNGv     *OMkql^           `&Qk=
00000000000000QQQQQNj.    :)`               la, 
0000000000000000000QQh/                         
000000000000000000000Q@L". .'"c:         )t]Ix+.
0000000000000000000000QQBGVX8WN/        :AQQQQDE