000000000000000000000000000000QByv_          .)L
00000000000000000000000000QQQQD%                
0000000000000000000000000Q@py5]                 
0000000000000000000000000ki                     
0000000000000000000000000Pt;                    
0000000000000000000000000QQby\                  
0000000000000000000000000QQQQV                  
000000000000000000000QQ0QOhMQm                  
0000000000000000000QR$KQg/FRQy  ?1:.            
000000000000000000RC<'^c_6Q0QJ  )f1"            
000000000000000000Ro    TQQ0Q5                  
000000000000000000Qo   )G$NQQ4                  
000000000000000000Q4^   `:)!mx                  
0000000000000000000Q@e`                         
00000000000000000000QA'                         
00000000000000000000Q1                          