0000000000000000QQQ0KQQQ000000000000000000000000
000000000000000QW5oI|{gWR00000000000000000000000
00000000000000Hn>      aM00000000000000000000000
000000000000000qv-     3QQ0000000000000000000000
000000000000000QQc     rdD0000000000000000000000
000000000000000Qg;       =SQ00000000000000000000
000000000000000Q*        IW000000000000000000000
0000000000000QQG^       lDQ000000000000000000000
0000000000000Bn_        wQ0000000000000000000000
000000000000QP_ .`      jQ0000000000000000000000
0000000000000084q_      pQ0000000000000000000000
00000000000000QQ5       zQ0000000000000000000000
000000000000000R%       iR0000000000000000000000
00000000000000Qk-       '$Q000000000000000000000
00000000000000Qf         XQ000000000000000000000
00000000000000Q]         VQ000000000000000000000