00000000000000000000000000QQ&,    \mEE&QQ0000000
000000000000000000000000QQ8qL"        '*AQ000000
00000000000000000000000QEs'             /@Q00000
0000000000000000000000Qy.                rW00000
000000000000000000000Q&:                  LQ0000
0000000000000000000000W1-                 :$Q000
000000000000000000000000Oz                 FQ000
00000000000000000QQQQQQQQE\                zQ000
0000000000000000QDGC22ER0QBu  `.           !Q000
0000000000000000f^     6Q0QB" :`        _/ xQ000
0000000000000000!      [0QQQJ           `#?aHQ00
0000000000000000$}_.    cm$D1          >/X$KM000
0000000000000000QQ&s      :=           lX8QQ0000
00000000000000000Qm`                    6QQQQ000
00000000000000000Qr                     \WKEgR00
0000000000000000QK=        ,,            v}jE000