000000000000000000000000000QQQQQQQ00000000000000
0000000000000000000000000Qk?FwymX$QQ000000000000
000000000000000000000000MS"      :rVR00000000000
000000000000000000000000S:          hQ0000000000
0000000000000000000000Ke\          .SM0000000000
0000000000000000000000RDUFv        _fU0000000000
000000000000000000000QQQQQb_       vQQ0000000000
00000000000000QQQQQQRNKAPqt.       LQ00000000000
0000000000000QDGgfo{>",.           1ER0000000000
000000000000QJ+        ,'          .p00000000000
00000000000RT\7   `%J4kA+          -OQ0000000000
0000000000Q8TWX.>TY0QQQ&=+.         uQ0000000000
000000000000QQ@GMQQ00@Fo`)`         ?Q0000000000
00000000000000QQQ0000$8M2"          pQ0000000000
000000000000000000000QQQM"         \D00000000000
00000000000000000000000Q@:         FQ00000000000