000000[      #Q000000000000000000Qg             
000000Ki   `.^m000000000000000000Qg             
000QQQQz      ,$Q0000000000000000Qg             
00RDUYE<      \NQ0000000000000000Qg             
00K>`;>rc^    I5O0000000000000000QE             
000X"'q5*^     '#0000000000000000QE             
000Q@/       `z6OR000000000000000QE             
0000QdeeT7)   :LB0000000000000000QE             
00000QQQQQWEFpgRQ0000000000000000Qg             
0000000000QQQQQ000000000000000000Qg             
000000000000000000000000000000000Qg             
000000000000000000000000000000000Qg        :mJym
000000000000000000000000000000000Qg        .ZQQQ
000000000000000000000000000000000Qg         JQ00
000000000000000000000000000000000Qg         uQ00
000000000000000000000000000000000Qg       _#M000