000000000000000000M[                            
000000000000000000M[                            
000000000000000000M[                            
000000000000000000M[                            
000QQQ000000000000M[                            
QQQBKD0QQ000000000M[                            
WFl+,=%wH000000000M[           >jF6y],          
u       tM00000000M[      .;vcJRQQQQQUw7n#>     
5:     `CR00000000M[      .\!1wWQQQQQNgmVmv     
0kT}c*LPR000000000M[           |twyn*"          
0QQQQQQQ0000000000M[                            
000000000000000000M[                            
000000000000000000M[                            
000000000000000000M[                            
000000000000000000M[                            
000000000000000000M[                            