00000000000000000000000000000000QD]+          5Q
00000000000000000000000000000000000Ac        -]@
00000000000000000000000000000000QMEI`        -{h
0000000000000000000000000000000RSi          IqkM
0000000000000000000000000000000m`          'ZQQ0
000000000000000000000000000000Rl         :gUM000
000000000000000000QQ00000000000r         oQQ0000
0000000000000000QQ&&RQ00000000QY'       .YQ00000
0000000000000000b*:-IK000000QQQE-        GQ00000
000000000000000Ql   ?WQ000QQNgr-         xNQ0000
00000000000000QN"   iwKQQQ$w\             C0Q000
00000000000000Qg  )-  "#nI,    -.          sAQ00
00000000000000Q?  #-        =IFg_           ,2QQ
00000000000000QJ /5`.     idDQQ1              [B
000000000000000DtgWT      "bQQh.               >
000000000000000QQQQf       ^YB"                 