000000000000000Bj`                _jB00000000000
000000000000000j:.               -tQQ00000000000
000000000000000BHp.              #B0000000000000
000000000000000QQQ{              cH0000000000000
00000000000000000QG:              pQ000000000000
000000000000000QQHI:              e0000000000000
00000000000000Q&j<.               gQ000000000000
0000000000000Q$^                  \YQ00000000000
000000000000QQh                    +OQ0000000000
00000000000Mg2l               -'    \80000000000
00000000000RL                 ``     {R000000000
00000000000QZ`               .6r     "WQ00000000
0000000000QRx                [Qr     `kQ00000000
000000000Q07                 4Qi      GQ00000000
000000000Me                  6Qc      n000000000
00000000Ma                   #Q[      .200000000