0000000000000000000QQRY%|2SODB000000000000000000
0000000000000000000A5l-    _+lN00000000000000000
0000000000000000000j,        500QQQQQ00000000000
0000000000000000000Mi        lQN$YEyY00000000000
R00000000000000QQQQQr       `!526EAHQQQQQQQ00000
00000000000000QkFf[c/       ^%}euCy6g2LInX8QQ000
0000000000000QZ;                /xla/    ))x1W00
00000000000000*             ..  ^et^  _%VNk6VN00
000000000000Q5   |[Tc       {OVt"  `rpAMQQQQQ000
0000000000000AJwGWQQc       tQQQWY4OQQQ000000000
0000000000000QQQQQQS.      lH000QQQQ000000000000
000000000000000000Qd:     -hQ0000000000000000000
000000000000000000Q2`      -u0Q00000000000000000
00000000000000000QW/         tMQ0000000000000000
00000000000000000QY`          sKQ000000000000000
00000000000000000Q3            vK000000000000000