00000000000000000000000000QQa   .%4@8HQQ00000000
000000000000000000000000QQWbT`    .;'^{PQ0000000
00000000000000000000000QOo/            -dQ000000
0000000000000000000000Qq:               /&Q00000
0000000000000000000000$^                 %M00000
0000000000000000000000BI                  qQ0000
0000000000000000000000QMGo                IQ0000
00000000000000000QQQQQ0QQE|               >R0000
000000000000000QQMGZb8Q00QD7  '           "NQ000
000000000000000H1|-  '2Q00Q@; ^.        / :HQ000
00000000000000Qg      x0QQQQo           [o!YQ000
000000000000000Mo_    .cqbP&%         :v2WKM0000
0000000000000000Q&5:     - _          .wOQQ00000
00000000000000000Q!                    "WQQQ0000
0000000000000000QO.                     fA65W000
0000000000000000Qy         >;           -i6bR000