000000000QUl                hQ000000000000000000
0000000008?`                vWQ00000000000000000
00000000Qbl:                 }WQ0000000000000000
0000000Nm).                   sDQ000000000000000
0000000ROr.                    %DQ00000000000000
00000000Q&}nl                   !R00000000000000
000000000M0QJ                   `AQ0000000000000
00000000000Qg                    dQ0000000000000
000000000000DI                   GQ0000000000000
000000000000QO_,                ,@Q0000000000000
0000000000000BZ}                )R00000000000000
0000000000000QQG!               >R00000000000000
000000000000000QJ;+             =BQ0000000000000
0000000000000000kk!             \MQ0000000000000
0000000000000000QM)             rQ00000000000000
00000000000000000W#^`     .`    2Q00000000000000