0000000000000000Qu``'+x#dSPP2JJ5E$00000000000000
0000000000000000Qy        .`     oQ0000000000000
00000000000000000@s)            )K00000000000000
00000000000000000QMs          spKQ00000000000000
000000000000000000RS-         TQQ000000000000000
0000000000000000000Qj         gQ0000000000000000
000000000000000000QN]        -YQ0000000000000000
00000000000000000QS\         .oMQ000000000000000
0000000000000000RWr            *YM00000000000000
0000000000000000Av`             _OQ0000000000000
0000000000000000Q%           I`  o0Q000000000000
000000000000000Qg`          -G+   eRQ00000000000
00000000000000Qg_            3v    ]WQ0000000000
00000000000000S_             %*     lW0000000000
0000000000000R1              :v     |W0000000000
0000000000000Qq               -`    =8Q000000000