0000000000000000000QQQQQQQQQD8OAM000000000000000
0000000000000000000k?lxr7a1s+'--EQ00000000000000
000000000000000000QU;         -|$Q00000000000000
0000000000000000000QYJ-       \OQ000000000000000
00000000000000000000QN}       TM0000000000000000
000000000000000000000Qp      .EQ0000000000000000
0000000000000000000QQU*      `z@Q000000000000000
0000000000000000000DC>         TM000000000000000
00000000000000000QQq           :qQ00000000000000
0000000000000000QMJ_  .         SQ00000000000000
0000000000000000k%              ,5Q0000000000000
000000000000000Q#            .    aM000000000000
00000000000000004"                r0000000000000
0000000000000000QV` .         ._  vQ000000000000
00000000000000000QZ?.          r?..4Q00000000000
00000000000000000Q$+           _ZV)2Q00000000000