00000000000000000000000000000000000000000QZ'    
00000000000000000000000000000000000000000QR?    
0000000000000000000000000000000000000000QMS%    
000000000000000000000000000000000000000QEl      
0000000000000000000000000000Q000000000Q5'       
000000000000000000000000000WYQ0000000QS:        
000000000000000000000000000MICQ0000000}         
00000000000000000000000000QQd`o0Q0000QG'        
0000000000000000000000000QBkU{ #MQ0000R#:       
000000000000000000000000Q6)`'-  >k00000Qk]s{{-  
000000000000000000000000Rz       yQ00000QQQB5:  
00000000000000000000000Q#.       I0000000000Go+ 
0000000000000000000000QA:      ad:5Q00000000QQ&5
0000000000000000000000Qf    .}EQQ4"OQ000QQQQQQQQ
0000000000000000000000Q3    .fQ00QdzR00RK8YGXha>
0000000000000000000000QU;    -GQ00QKMQNL":-.    