000000000000000000000000000000000000QQQQQQm'  ./
0000000000000000000000000000000000QQWkSwjos_    
000000000000000000000000000000000QGa".          
00000000000000000000000000000000Mj.             
0000000000000000000000000000000RC               
0000000000000000000000000000000Rm-              
00000000000000000000000000000000Mg1_            
00000000000000000000000000000000QMz             
0000000000000000000000000000000000D!  .         
0000000000000000000000000000000000R? 1%         
0000000000000000000000000000000000Mrt&{         
0000000000000000000000000000000000WwB@v         
0000000000000000000000000000000000MNQZ+         
0000000000000000000000000000000000000Mv         
0000000000000000000000000000000000000Mi         
000000000000000000000000000000000000QX          