00000000000000QQQ0000000000000000000000000000000
00000000000QQQWDNQQQ0000000000000000000000QQ0000
0000000000QKfl/^"ryHQ00000000000000000QQQMYVOR00
000000000QE/       \KQQQ000QQQQQQQQQQQHEziLOR000
000000000Q%         rfS@QQ0H8&KM&X@gJr+  ^dQ0000
0000000000g>           ^4$r;_-;|:`,:iTkX4&D00000
0000000000QNgwac^       tj        .s?r]YQQQ00000
00000000000QQ2\'."%;';%c_             `gQ0000000
000000000000KFr  wQD$HQNo.           %ZQ00000000
0000000000000Q6. !QQQQQDa         [FVMQ000000000
0000000000000QW+ ^Te!{%^         "BQQ00000000000
00000000000000QL)%%"             nQ0000000000000
00000000000000QSCQW\            .ZQ0000000000000
00000000000000QFwRP       ,2T`   ]&Q000000000000
00000000000000RwyQX      .4QQI    ,gQ00000000000
00000000000000RzhQA`      40B5     [Q00000000000