00000000000000000000000000000000000000000Q&]l}^ 
000000000000000000000000QQQ0000000000000000R0MI 
000000000000000000000000DkKM0000000000000000QDEm
000000000000000000000000r`*OQ00000000000000000QQ
00000000000000000000000R) )bQ0000000000000000000
00000000000000000000000R> "ZQ0000000000000000000
000000000000000000QQMMQQ< _4Q0000000000000000000
0000000000000000QQH]\<!J:  ]KQ000000000000000000
000000000000000QY[)         iDQ00000000000000000
000000000000000$)            yQ00000000000000000
00000000000000Q7             cQ00000000000000000
0000000000000008h#           1Q00000000000000000
000000000000000QQQj          VQQ0000000000000000
0000000000000000000o         ^oOQQ00000000000000
000000000000000000Q0n-         _?XRQ000000000000
00000000000000000000QEc.         .{P000000000000