000000000We.                 tQ00000000000000000
00000000Q4=                  )M00000000000000000
000000000P%`                  6Q0000000000000000
00000000BT                    /HQ000000000000000
000000000N5^                   10Q00000000000000
000000000QRh*                   1R00000000000000
0000000000QQi                    #Q0000000000000
00000000000Q?                    'UQ000000000000
000000000000A%                   '$Q000000000000
000000000000Wx                   }R0000000000000
00000000000QV*.                  qQ0000000000000
000000000000QQr-                 1R0000000000000
00000000000000N!                 _$Q000000000000
000000000000000g{x               ^DQ000000000000
000000000000000RQn               ]Q0000000000000
0000000000000000QJ'             =8Q0000000000000