0000000000000000Q]   ')1q5SXw7aoJSD0000000000000
0000000000000000Qw         .     .GQ000000000000
00000000000000000Kc/             L00000000000000
00000000000000000QRI          _#mR00000000000000
0000000000000000000S-         ,4Q000000000000000
0000000000000000000QL         >WQ000000000000000
000000000000000000QQj         1M0000000000000000
000000000000000000Y!-         \8QQ00000000000000
0000000000000000QQt            +gN00000000000000
000000000000000081^             `cMQ000000000000
0000000000000000N{           '\  'hQ000000000000
000000000000000QN<           IY`  `5Q00000000000
00000000000000QM!            )K+   .yQQ000000000
00000000000000Mt              Sc     LW000000000
0000000000000Qy               1t     .YQ00000000
0000000000000Qk:              _?.    'OQ00000000