0000000000000000000000000QQRWBMQQQ00000000000000
00000000000000000000000Q0S}i"/\s5MQ0000000000000
00000000000000000000000W}        lD0000000000000
0000000000000000000000QU\.        VQ000000000000
00000000000000000000000QW7        o0000000000000
000000000000000000Q00000QM5]|     eR000000000000
0000000000000000QRDM000000Zo:   lgW0000000000000
000000000000000Qp<^aR0000a      ;UQ0000000000000
000000000000000Q)  6QQQQd`     `!XQ0000000000000
00000000000000QG-  iCpg@2      eQQ00000000000000
00000000000000Qw .   . `/.     PQ000000000000000
000000000000000&c_   tXz\      uQ000000000000000
000000000000000QS.   ^KQN"     _FQQ0000000000000
000000000000000D/     zQg`       [BQ000000000000
000000000000000@or__v*mRc         cHQ00000000000
000000000000000QQQb5MQQb.          IM00000000000