0000000QO/                      "mW0000000000000
00000000QKql                   c8Q00000000000000
000000000QQ0d7x'              1WQ000000000000000
000000000000QQ@*             .dQ0000000000000000
000000000000QK\               T@QQ00000000000000
00000000000QM?                 :?gRQ000000000000
0000000000Mhv                     %VRQ0000000000
0000000000@/                        %U0000000000
0000000000Q@l                        VQ000000000
00000000QQAa;                      :VQ0000000000
00000QQQHj-                        _7@Q000000000
00000Dgn/                            =fW00000000
00000KI.                              )$00000000
00000QQ&u"                           oNQ00000000
0000000QQWgv                        iNQ000000000
000000000QQMS/                    .1KQ0000000000