000000000000000000000000000QQQQQQ000000000000000
0000000000000000000000000QRgP@@DNQQQ000000000000
000000000000000000000000Q4!; :';|xLAQ00000000000
00000000000000000000000Qk-         ,AQ0000000000
0000000000000000000000M@T           500000000000
0000000000000000000000&wLi.         +OQ000000000
0000000000000000000000QQQNu         ;HQ000000000
0000000000000000000000000Qb         ;HQ000000000
000000000000000000000000QQ2         /WQ000000000
000000000000000000000000Yz:         -YQ000000000
0000000000000000000000QE,            1Q000000000
0000000000000000000000QA+            :$Q00000000
0000000000000000000000M%              hQ00000000
000000000000000000000Qw              `ZQ00000000
00000000000000000000QA'              jQ000000000
00000000000000000000QG-l;           '8Q000000000