0000000000000000000000000000QPe<'         _%JAQQ
00000000000000000000000000QQu`               :eK
0000000000000000000000QQQM8m                   \
0000000000000000000000HY$*_                     
000000000000000000000R?,-                      +
000000000000000000Q00R@&q%_                    c
0000000000000000Qf?@Q0QQQN&)                   -
00000000000000QQQ5 GQ0000QQf                    
0000000000000Q8n?I eR00000Q2                    
000000000000Qh_     gQ0000Qf  +nv              `
0000000000000&j     gQ0000Qe  'qj              +
0000000000000QQ7    lZQQQQQx                   %
000000000000000QF/   -L&8$b:                   [
0000000000000000QKe.   -_'_                    u
00000000000000000QQS-                          n
000000000000000000Qw                           |