00000000000000000R4FqX@QQQQQQQQQ0000000000000000
0000000000000000Q&`  .^ls7?cr[JK0000000000000000
0000000000000000Q@)^          !D0000000000000000
00000000000000000QP\        +6QQ0000000000000000
000000000000000000H[       ,VQ000000000000000000
000000000000000000Qu       ,DQ000000000000000000
00000000000000000QAl       ;&Q000000000000000000
000000000000000000%         "XQ00000000000000000
000000000000000Q8l.          _SQ0000000000000000
000000000000000Qq  -      -.  'ZQ000000000000000
00000000000000Qg:  .      <_   %R000000000000000
0000000000000RS'          ;_    dQ00000000000000
000000000000Q8:           ..    oQ00000000000000
0000000000000Ri                _fQ00000000000000
0000000000000R)                oQ000000000000000
000000000000QB+              _=XQ000000000000000