0000000QF-                      *D00000000000000
00000000RYj"                   vHQ00000000000000
000000000QQB6{'               )$Q000000000000000
00000000000QQQo               gQ0000000000000000
000000000000Qk'               %40Q00000000000000
00000000000Q@%                  sPQQ000000000000
0000000000RS/                    `?GQ00000000000
0000000000H<                       `jQ0000000000
0000000000QNj                       rQ0000000000
000000000Q0d%                      IK00000000000
0000000QQXl                       .w0Q0000000000
000000WSr.                          cP0000000000
000000$r                             ;@Q00000000
000000QQZ['                         ,g0000000000
00000000QQ&n/                      ^gQ0000000000
0000000000QQKa.                   /bQ00000000000