00000000000000000000000000000000000000000QQQ$Vwo
0000000000000000000000000000000000000000QB2c,   
0000000000000000000000000000000000000000d)      
00000000000000000000000000000000000000QBr       
000000000000000000000000000000000000000ML"      
000000000000000000000000000000000000000M#;      
000000000000000000000000000000000000000Q5       
0000000000000000000000000000000000000000K% ..   
000000000000000000000000000000000000000QU|-oi   
00000000000000000000000000000000000QQ0Q0e .`    
0000000000000000000000000000000000QH&RRL        
000000000000000000000000000000QQQ0K!^*l         
000000000000000000000000000QQQN&Sjv.            
000000000000000000000000QQ0BAS7v:               
00000000000000000000000MHbmLs+.     r/          
00000000000000000000RDOhJ!>:        }n          