000000000000QQQQQQQQQQ00000000000000000000000000
00000000000QUTrnuaofP$QQ000000000000000000000000
00000000000Ki        '*DQ00QQQQQQ000000000000000
0000000000QG.          \dQ0KXP8KMQQQ000000000000
00000000000Q!           .q0\  -,|sa&000000000000
00000000000Mi          .^dy.      +4Q00000000000
00000000000W7]i`    _/xcLn        dQQQ0000000000
000000000000QQF`                  l3g@0Q00000000
0000000000QQOt/         `            `<y00000000
0000000000W2:           .       .*71!}I#R0000000
000000000Qm                     LMQQQQQQ00000000
0000000000W4s       %_    .    "NQ00000000000000
00000000000QL      !X;         `oK00000000000000
0000000000Qb/     _e:            lR0000000000000
000000000Qg'          :7_ `,     ^BQ000000000000
0000000000t          :Xh  :6+    _8Q000000000000