000000000000000000NgpfygOGY4#oeLq000000000000000
00000000000000000QU'    _.-     t000000000000000
000000000000000000QT^_        ;*@000000000000000
0000000000000000000QK<        v0Q000000000000000
000000000000000000000E"       iR0000000000000000
00000000000000000000QQj       )MQ000000000000000
0000000000000000000Q$!,       )&Q000000000000000
000000000000000000Mb?          1QR00000000000000
00000000000000000QN\         _ 'oN00000000000000
00000000000000000Qp-        }f  sQ00000000000000
0000000000000000Q3`         #6  `5Q0000000000000
0000000000000000T           *{   .JR000000000000
0000000000000000*           .^,    mQ00000000000
0000000000000000y/           _l    hQ00000000000
0000000000000000QP:           "]`  3Q00000000000
00000000000000000B|            !p; *R00000000000