000000000000000000000000000000000000000000000000000000000000000000000000000000000000000000000000000000000000NF:                                                                                                                                                                                                                                                                                                                                                                                
000000000000000000000000000000000000000000000000000000000000000000000000000000000000000000000000000000000000Ba                                                                                                                                                                                                                                                                                                                                                                                 
000000000000000000000000000000000000000000000000000000000000000000000000000000000000000000000000000000000R00Ox                                                                                                                                                                                                                                                                                                                                                                                 
00000000000000000000000000000000000000000000000000000000000000000000000000000000000000000000000000000000000N5`                                                                                                                                                                                                                                                                                                                                                                                 
00000000000000000000000000000000000000000000000000000000000000000000000000000000000000000000000000000000000Ht  .                                                                                                                                                                                                                                                                                                                                                                               
0000000000000000000000000000000000000000000000000000000000000000000000000000000000000000000000000000000RRQRg<                                                                                                                                                                                                                                                                                                                                                                                  
00000000000000000000000000000000000000000000000000000000000000000000000000000000000000000000000000000000RQWJ`                                                                                                                                                                                                                                                                                                                                                                                  
0000000000000000000000000000000000000000000000000000000000000000000000000000000000000000000000000000000000Ac                                                                                                                                                                                                                                                                                                                                                                                   
0000000000000000000000000000000000000000000000000000000000000000000000000000000000000000000000000000000QQMV\                                                                                                                                                                                                                                                                                                                                                                                   
00000000000000000000000000000000000000000000000000000000000000000000000000000000000000000000000000000000QBn_                                                                                                                                                                                                                                                                                                                                                                                   
000000000000000000000000000000000000000000000000000000000000000000000000000000000000000000000000000000000bv .                                                                                                                                                                                                                                                                                                                                                                                  
0000000000000000000000000000000000000000000000000000000000000000000000000000000000000000000000000000000QBw- .                                                                                                                                                                                                                                                                                                                                                                                  
0000000000000000000000000000000000000000000000000000000000000000000000000000000000000000000000000000000QB#`                                                                                                                                                                                                                                                                                                                                                                                    
0000000000000000000000000000000000000000000000000000000000000000000000000000000000000000000000000000000Q$%                                                                                                                                                                                                                                                                                                                                                                                     
00000000000000000000000000000000000000000000000000000000000000000000000000000000000000000000000000000R0Rh;                                                                                                                                                                                                                                                                                                                                                                                     
00000000000000000000000000000000000000000000000000000000000000000000000000000000000000000000000000000R0De                                                                                                                                                                                                                                                                                                                                                                                      
00000000000000000000000000000000000000000000000000000000000000000000000000000000000000000000000000000RQ$].                                                                                                                                                                                                                                                                                                                                                                                     
0000000000000000000000000000000000000000000000000000000000000000000000000000000000000000000000RR000000Rd^                                                                                                                                                                                                                                                                                                                                                                                      
0000000000000000000000000000000000000000000000000000000000000000000000000000000000000000000000RRR000RQDu`                                                                                                                                                                                                                                                                                                                                                                                      
000000000000000000000000000000000000000000000000000000000000000000000000000000000000000000000000R000MRKa                                                                                                                                                                                                                                                                                                                                                                                       
000000000000000000000000000000000000000000000000000000000000000000000000000000000000000000000000R0RQRNkc                                                                                                                                                                                                                                                                                                                                                                                       
000000000000000000000000000000000000000000000000000000000000000000000000000000000000000000000000R000QDf_                                                                                                                                                                                                                                                                                                                                                                                       
000000000000000000000000000000000000000000000000000000000000000000000000000000000000000000000000000R0H[                                                                                                                                                                                                                                                                                                                                                                                        
000000000000000000000000000000000000000000000000000000000000000000000000000000000000000000000000R0RR0&x  .                                                                                                                                                                                                                                                                                                                                                                                     
00000000000000000000000000000000000000000000000000000000000000000000000000000000000000000000000000000b/ ..                                                                                                                                                                                                                                                                                                                                                                                     
0000000000000000000000000000000000000000000000000000000000000000000000000000000000000000000000000R00Nh-..                                                                                                                                                                                                                                                                                                                                                                                      
0000000000000000000000000000000000000000000000000000000000000000000000000000000000000000000000000000Du                                                                                                                                                                                                                                                                                                                                                                                         
000000000000000000000000000000000000000000000000000000000000000000000000000000000000000000000000000QH]                                                                                                                                                                                                                                                                                                                                                                                         
0000000000000000000000000000000000000000000000000000000000000000000000000000000000000000000000000000Ui .                                                                                                                                                                                                                                                                                                                                                                                       
000000000000000000000000000000000000000000000000000000000000000000000000000000000000000000000000000NV|                                                                                                                                                                                                                                                                                                                                                                                         
00000000000000000000000000000000000000000000000000000000000000000000000000000000000000000000000000RWC-                                                                                                                                                                                                                                                                                                                                                                                         
0000000000000000000000000000000000000000000000000000000000000000000000000000000000000000000000000R0Ht.                                                                                                                                                                                                                                                                                                                                                                                         
00000000000000000000000000000000000000000000000000000000000000000000000000000000000000000000000000Q8%                                                                                                                                                                                                                                                                                                                                                                                          
0000000000000000000000000000000000000000000000000000000000000000000000000000000000000000000000000RME"                                                                                                                                                                                                                                                                                                                                                                                          
0000000000000000000000000000000000000000000000000000000000000000000000000000000000000000000000000QN2_                                                                                                                                                                                                                                                                                                                                                                                          
000000000000000000000000000000000000000000000000000000000000000000000000000000000000000000000000QQBL. .                                                                                                                                                                                                                                                                                                                                                                                        
0000000000000000000000000000000000000000000000000000000000000000000000000000000000000000000000000QBe                                                                                                                                                                                                                                                                                                                                                                                           
000000000000000000000000000000000000000000000000000000000000000000000000000000000000000000000000R0$a                                                                                                                                                                                                                                                                                                                                                                                           
000000000000000000000000000000000000000000000000000000000000000000000000000000000000000000000000RRkr                                                                                                                                                                                                                                                                                                                                                                                           
0000000000000000000000000000000000000000000000000000000000000000000000000000000000000000000000000RG>                                                                                                                                                                                                                                                                                                                                                                                           
00000000000000000000000000000000000000000000000000000000000000000000000000000000000000000000000000P+                                                                                                                                                                                                                                                                                                                                                                                           
000000000000000000000000000000000000000000000000000000000000000000000000000000000000000000000000QMm'                                                                                                                                                                                                                                                                                                                                                                                           
000000000000000000000000000000000000000000000000000000000000000000000000000000000000000000000000QWT                                                                                                                                                                                                                                                                                                                                                                                            
DR0R000000000000000000000000000000000000000000000000000000000000000000000000000000000000000000000U[`                                                                                                                                                                                                                                                                                                                                                                                           
8RQR000000000000000000000000000000000000000000000000000000000000000000000000000000000000000000000k}'                                                                                                                                                                                                                                                                                                                                                                                           
kNQR000R00000000000000000000000000000000000000000000000000000000000000000000000000000000000000000k}'                                                                                                                                                                                                                                                                                                                                                                                           
gUR0Q00R00000000000000000000000000000000000000000000000000000000000000000000000000000000000000000k}'                                                                                                                                                                                                                                                                                                                                                                                           
FAW0R0000000000000000000000000000000000000000000000000000000000000000000000000000000000000000000REv.                                                                                                                                                                                                                                                                                                                                                                                           
3bHRR0000000000000000000000000000000000000000000000000000000000000000000000000000000000000000000R4i.                                                                                                                                                                                                                                                                                                                                                                                           
Ld&M00R00000000000000000000000000000000000000000000000000000000000000000000000000000000000000000REi.                                                                                                                                                                                                                                                                                                                                                                                           
eS&M00R00000000000000000000000000000000000000000000000000000000000000000000000000000000000000000NF|                                                                                                                                                                                                                                                                                                                                                                                            
{yGD0R00000000000000000000000000000000000000000000000000000000000000000000000000000000000000000QD?                                                                                                                                                                                                                                                                                                                                                                                             
)7g$000R000000000000000000000000000000000000000000000000000000000000000000000000000000000000000QD!                                                                                                                                                                                                                                                                                                                                                                                             
:rCGBR00000000000000000000000000000000000000000000000000000000000000000000000000000000000000000QD!                                                                                                                                                                                                                                                                                                                                                                                             
_vTE@RQ0000000000000000000000000000000000000000000000000000000000000000000000000000000000000000QD!                                                                                                                                                                                                                                                                                                                                                                                             
_<ehK000000000000000000000000000000000000000000000000000000000000000000000000000000000000000000QD!                                                                                                                                                                                                                                                                                                                                                                                             
 .<JbD00000000000000000000000000000000000000000000000000000000000000000000000000000000000000000QD!                                                                                                                                                                                                                                                                                                                                                                                             
  ^1S&MQ000000000000000000000000000000000000000000000000000000000000000000000000000000000000000QD!                                                                                                                                                                                                                                                                                                                                                                                             
. -{pOWQ000000000000000000000000000000000000000000000000000000000000000000000000000000000000000QD!                                                                                                                                                                                                                                                                                                                                                                                             
  `>Ld@Q00R00RR00000000000000000000000000000000000000000000000000000000000000000000000000000000QD!                                                                                                                                                                                                                                                                                                                                                                                             
   ^I5ON0000000R0000000000000000000000000000000000000000000000000000000000000000000000000000000QD!                                                                                                                                                                                                                                                                                                                                                                                             
   _x#E$M00000000000000000000000000000000000000000000000000000000000000000000000000000000000000QD!                                                                                                                                                                                                                                                                                                                                                                                             
   `\a6kD000000R0000000000000000000000000000000000000000000000000000000000000000000000000000000QD!                                                                                                                                                                                                                                                                                                                                                                                             
   .^rwXKR00QR000000000000000000000000000000000000000000000000000000000000000000000000000000000QD!                                                                                                                                                                                                                                                                                                                                                                                             
     =1qOW0RQ0000000000000000000000000000000000000000000000000000000000000000000000000000000000QD!                                                                                                                                                                                                                                                                                                                                                                                             
     ,?FYKR00QR00000000000000000000000000000000000000000000000000000000000000000000000000000000QD!                                                                                                                                                                                                                                                                                                                                                                                             
     .)L4UMQ00R00000000000000000000000000000000000000000000000000000000000000000000000000000000QD!                                                                                                                                                                                                                                                                                                                                                                                             
      .%CXH000000000000000000000000000000000000000000000000000000000000000000000000000000000000QD!                                                                                                                                                                                                                                                                                                                                                                                             
      .<zh$0Q0000000000000000000000000000000000000000000000000000000000000000000000000000000000QD!                                                                                                                                                                                                                                                                                                                                                                                             
       =?5kN0R000000000000000000000000000000000000000000000000000000000000000000000000000000000QW#                                                                                                                                                                                                                                                                                                                                                                                             
     .  <u4UNR0000000000000000000000000000000000000000000000000000000000000000000000000000000000Rd'                                                                                                                                                                                                                                                                                                                                                                                            
        :s2GHR00000000000000000000000000000000000000000000000000000000000000000000000000000000R0RE=                                                                                                                                                                                                                                                                                                                                                                                            
..    . ."7S8MR00000000000000000000000000000000000000000000000000000000000000000000000000000000RHS=                                                                                                                                                                                                                                                                                                                                                                                            
.........^{28MR0RR00000000000000000000000000000000000000000000000000000000000000000000000000000RKm^                                                                                                                                                                                                                                                                                                                                                                                            
          ;1dUMR0000000000000000000000000000000000000000000000000000000000000000000000000000000RM&%                                                                                                                                                                                                                                                                                                                                                                                            
          'lwPB000000000000000000000000000000000000000000000000000000000000000000000000000000000R$*                                                                                                                                                                                                                                                                                                                                                                                            
           "egUR00000000000000000000000000000000000000000000000000000000000000000000000000000000QHt`                                                                                                                                                                                                                                                                                                                                                                                           
           :c#4$00000000000000000000000000000000000000000000000000000000000000000000000000000000QBT;                                                                                                                                                                                                                                                                                                                                                                                           
           `"[5bQ00000000000000000000000000000000000000000000000000000000000000000000000000000000Wy/                                                                                                                                                                                                                                                                                                                                                                                           
            _>LdWR00000000000000000000000000000000000000000000000000000000000000000000000000000RRNF=                                                                                                                                                                                                                                                                                                                                                                                           
             ;]6bDM000R000000000000000000000000000000000000000000000000000000000000000000000000RRWy,                                                                                                                                                                                                                                                                                                                                                                                           
             .\jgOBQQR0000000000000000000000000000000000000000000000000000000000000000000000000RRMS)                                                                                                                                                                                                                                                                                                                                                                                           
              -c#gKRQ0R000000000000000000000000000000000000000000000000000000000000000000000000RRRPv .                                                                                                                                                                                                                                                                                                                                                                                         
               ^?5YWQQ00000000000000000000000000000000000000000000000000000000000000000000000000008]                                                                                                                                                                                                                                                                                                                                                                                           
               _)Ld$R0R00000000000000000000000000000000000000000000000000000000000000000000000000R8o  .                                                                                                                                                                                                                                                                                                                                                                                        
                ,IFYHRR00000000000000000000000000000000000000000000000000000000000000000000000000RB2, .                                                                                                                                                                                                                                                                                                                                                                                        
                .)jVAM000000000000000000000000000000000000000000000000000000000000000000000000000RRE|                                                                                                                                                                                                                                                                                                                                                                                          
                 _cyGD0R000000000000000000000000000000000000000000000000000000000000000000000000RM0b<                                                                                                                                                                                                                                                                                                                                                                                          
                  '*yZB0000000000000000000000000000000000000000000000000000000000000000000000000RMQUv                                                                                                                                                                                                                                                                                                                                                                                          
                  .|zhUM0000000000000000000000000000000000000000000000000000000000000000000000000R0BT                                                                                                                                                                                                                                                                                                                                                                                          
                  .'x#X@0Q000R0000000000000000000000000000000000000000000000000000000000000000000R0MF.                                                                                                                                                                                                                                                                                                                                                                                         
                    ;?pPN00R00R00000000000000000000000000000000000000000000000000000000000000000R0RRg:                                                                                                                                                                                                                                                                                                                                                                                         
                     "jm&W0R0000000000000000000000000000000000000000000000000000000000000000000000R0Yv                                                                                                                                                                                                                                                                                                                                                                                         
                     'c#gUMQ0R00000000000000000000000000000000000000000000000000000000000000000000RQDL                                                                                                                                                                                                                                                                                                                                                                                         
                      ^!6YWQ000000000000000000000000000000000000000000000000000000000000000000000RRQBu                                                                                                                                                                                                                                                                                                                                                                                         
                      _<1mOW000000000000000000000000000000000000000000000000000000000000000000000Q0QMp`                                                                                                                                                                                                                                                                                                                                                                                        
                       ->jd$M0R0000000000000000000000000000000000000000000000000000000000000000000RQRX|                                                                                                                                                                                                                                                                                                                                                                                        
                        :lwGKRMQ0000000000000000000000000000000000000000000000000000000000000000000RQDe                                                                                                                                                                                                                                                                                                                                                                                        
                        .|oSbDR00000000000000000000000000000000000000000000000000000000000000000R0Q00Ny`                                                                                                                                                                                                                                                                                                                                                                                       
                         .>ugAMQ0000000000000000000000000000000000000000000000000000000000000000000RMRV; .                                                                                                                                                                                                                                                                                                                                                                                     
                          :cTg$R0R000000000000000000000000000000000000000000000000000000000000000RR0RRk{ ..                                                                                                                                                                                                                                                                                                                                                                                    
                           ;*yE$MR00000000000000000000000000000000000000000000000000000000000000RQRRRQDj ...                                                                                                                                                                                                                                                                                                                                                                                   
                           `\[ygKRQ0R0R0000000000000000000000000000000000000000000000000000000000R000QM6  .                                                                                                                                                                                                                                                                                                                                                                                    
                            _<tFkW00R0R0000000000000000000000000000000000000000000000000000000000R0R000Y+                                                                                                                                                                                                                                                                                                                                                                                      
                            .:vj6kWQR00R000000000000000000000000000000000000000000000000000000000R0RRRQ@{                                                                                                                                                                                                                                                                                                                                                                                      
                             `:xud@Q0R0000000000000000000000000000000000000000000000000000000000000000QN3                                                                                                                                                                                                                                                                                                                                                                                      
                               :lwZDRQ0R000000000000000000000000000000000000000000000000000000000000000R4^                                                                                                                                                                                                                                                                                                                                                                                     
                                =IfPKRR0000000000000000000000000000000000000000000000000000000000000000QU?                                                                                                                                                                                                                                                                                                                                                                                     
                                '>oqbDRQ000000000000000000000000000000000000000000000000000000000000000QBn.                                                                                                                                                                                                                                                                                                                                                                                    
                                 `<jfPB00QR00R0000000000000000000000000000000000000000000000000000000000Mh|                                                                                                                                                                                                                                                                                                                                                                                    
                                  '%LgkKQ0R00RQR00000000000000000000000000000000000000000000000000000000Rk}                                                                                                                                                                                                                                                                                                                                                                                    
                                  .:sfgZM00R00R0000000000000000000000000000000000000000000000000000000000B#-                                                                                                                                                                                                                                                                                                                                                                                   
                                    :*fg8R0000R0000000000000000000000000000000000000000000000000000000000Mg\                                                                                                                                                                                                                                                                                                                                                                                   
                                     ^I5V8MQQ0000000000000000000000000000000000000000000000000000000000000@1   .                                                                                                                                                                                                                                                                                                                                                                               
                                     ."[n4@00QR00000000000000000000000000000000000000000000000000000000000N6^                                                                                                                                                                                                                                                                                                                                                                                  
                                      ')*3GKRQ0000000000000000000000000000000000000000000000000000000000000Oi                                                                                                                                                                                                                                                                                                                                                                                  
                                       .;I5ZUR000000000000000000000000000000000000000000000000000000000000QBj. .                                                                                                                                                                                                                                                                                                                                                                               
                                         /tpXKM0000000000000000000000000000000000000000000000000000000000R0Mg+                                                                                                                                                                                                                                                                                                                                                                                 
                                          =!pkDRRRRRRRRR0000000000000000000000000000000000000000000000000RRQAr                                                                                                                                                                                                                                                                                                                                                                                 
                                           |e6kM00RRRRRR0000000000000000000000000000000000000000000000000R0QWy                                                                                                                                                                                                                                                                                                                                                                                 
                                           '<ogA@MQR0R0R00000000000000000000000000000000000000000000000000RRRd;                                                                                                                                                                                                                                                                                                                                                                                
                                            -)z5h$000RRR00000000000000000000000000000000000000000000000000R008I                                                                                                                                                                                                                                                                                                                                                                                
                                             ')7wgKR0RRR00000000000000000000000000000000000000000000000000RRQBC_                                                                                                                                                                                                                                                                                                                                                                               
                                              _x[fXK0R0R0000000000000000000000000000000000000000000000000R000R&!                                                                                                                                                                                                                                                                                                                                                                               
                                               :)[yPHR0R000000000000000000000000000000000000000000000000000000Ww:                                                                                                                                                                                                                                                                                                                                                                              
                                                _\]yg$M000000000000000000000000000000000000000000000000000R00RRP%                                                                                                                                                                                                                                                                                                                                                                              
                                                 _|Iw48M0Q00000000000000000000000000000000000000000000000R0R0RQDj. .                                                                                                                                                                                                                                                                                                                                                                           
                                                  `+IJdAD00000000000000000000000000000000000000000000000000000QRV/                                                                                                                                                                                                                                                                                                                                                                             
                                                   ./*TgkNQ0000000000000000000000000000000000000000000000000000Q&c                                                                                                                                                                                                                                                                                                                                                                             
                                                    `/{LpYD00R0000000000000000000000000000000000000000000000000QN2` .                                                                                                                                                                                                                                                                                                                                                                          
                                                     .=c76YB000Q0000000000000000000000000000000000000000000000000U[..                                                                                                                                                                                                                                                                                                                                                                          
                                                      .;%zmbKM000000000000000000000000000000000000000000000000000W4/ `                                                                                                                                                                                                                                                                                                                                                                         
                                                        _%oFP$0Q0000000000000000000000000000000000000000000000000R8a  .                                                                                                                                                                                                                                                                                                                                                                        
                                                         'ia2gKR000000000000000000000000000000000000000000000000R0Nh"                                                                                                                                                                                                                                                                                                                                                                          
                                                         .:i[J4UK00RRQ00000000000000000000000000000000000000000000QHz                                                                                                                                                                                                                                                                                                                                                                          
                                                           _|}JdXD0000R0000000000000000000000000000000000000000000QQG=                                                                                                                                                                                                                                                                                                                                                                         
                                                            .={TfX@RQR00000000000000000000000000000000000000000000QQHj.                                                                                                                                                                                                                                                                                                                                                                        
                                                            . 'vIwV8M0000000000000000000000000000000000000000000000QRP>                                                                                                                                                                                                                                                                                                                                                                        
                                                               -/}J48W0000000000000000000000000000000000000000000000QWy`                                                                                                                                                                                                                                                                                                                                                                       
                                                                .={TVYDQ00000000000000000000000000000000000000000000QQ@1                                                                                                                                                                                                                                                                                                                                                                       
                                                                 .=sLmYW0R00000000000000000000000000000000000000000RQQQb>   .                                                                                                                                                                                                                                                                                                                                                                  
                                                                 .;%T64UBQ0R0R000000000000000000000000000000000000000QQWy;                                                                                                                                                                                                                                                                                                                                                                     
                                                                 .^<1Lf4ZBMNMMR00000000000000000000000000000000000000QQ0Y{                                                                                                                                                                                                                                                                                                                                                                     
                                                                  `-`:>awSgY8KR00000000000000000000000000000000000000QQQR4/                                                                                                                                                                                                                                                                                                                                                                    
                                                                      .^c1umG&W0R0000000000000000000000000000000000R0QQQQKT"                                                                                                                                                                                                                                                                                                                                                                   
                                                                         :cz3hZDBR0R00R00000000000000000000000000000000000KL.                                                                                                                                                                                                                                                                                                                                                                  
                                                                         `'>Iu6bkD0QRR00000000000000000000000000000000000QQOl                                                                                                                                                                                                                                                                                                                                                                  
                                                                           .=lay5XDQQR00000000000000000000000000000000000QQWw-                                                                                                                                                                                                                                                                                                                                                                 
                                                                            .;|}eyP8KW000000000000000000000000000000000000Q0k*                                                                                                                                                                                                                                                                                                                                                                 
                                                                              _+%!TFXHQQQ0000000000000000000000000000000000QREv                                                                                                                                                                                                                                                                                                                                                                
                                                                               .:+cu64OB0QR0R0000000000000000000000000000R0QQMF,                                                                                                                                                                                                                                                                                                                                                               
                                                                                . 'con5E@R0QR00000000000000000000000000000R000Ua`                                                                                                                                                                                                                                                                                                                                                              
                                                                                  .-"{T6VZ@MM00000000000000000000000000000000Q0Uo-                                                                                                                                                                                                                                                                                                                                                             
                                                                                  . .,i[T5SGUBR0R00000000000000000000000000000Q0Zx                                                                                                                                                                                                                                                                                                                                                             
                                                                                    ..-^i!j34YKMQ000R00000000000000000000000000QBy,                                                                                                                                                                                                                                                                                                                                                            
                                                                                     . .-^>IT5hbWRQ000000000000000000000000000R0QK7:                                                                                                                                                                                                                                                                                                                                                           
                                                                                        ..-^%ewpVbKRR0R00000000000000000000000RR00Ko  .                                                                                                                                                                                                                                                                                                                                                        
                                                                                           ._)!nfFgGKR0Q000RRR0000000000000000R000Rg>                                                                                                                                                                                                                                                                                                                                                          
                                                                                             `:<IjwFXOKM0RRRRRRR000000000000000000QMm\.                                                                                                                                                                                                                                                                                                                                                        
                                                                                                '\{ofm4YKWMRMRRRRR000000000000000RQQBhc                                                                                                                                                                                                                                                                                                                                                        
                                                                                                 .'"ltJ6dbUBRMRRRR000000000000000000QRm;                                                                                                                                                                                                                                                                                                                                                       
                                                                                                    _|{7#5hGUDNMRRR000000000000000000M$n= .                                                                                                                                                                                                                                                                                                                                                    
                                                                                                     `=)}eT5gG&D00000000000000000R0QRNQk*                                                                                                                                                                                                                                                                                                                                                      