0000000000000000000000000000000000000000000000000000000000000000000000000000000000000000000000000000000000000000000000000000000000000000000000000000000000000000000000000000000000000000000000000000000000000000000000000000000000000000000000Qn                                                                                                                                                                                                                                               
0000000000000000000000000000000000000000000000000000000000000000000000000000000000000000000000000000000000000000000000000000000000000000000000000000000000000000000000000000000000000000000000000000000000000000000000000000000000000000000000Qn                                                                                                                                                                                                                                               
0000000000000000000000000000000000000000000000000000000000000000000000000000000000000000000000000000000000000000000000000000000000000000000000000000000000000000000000000000000000000000000000000000000000000000000000000000000000000000000000Qn                                                                                                                                                                                                                                               
0000000000000000000000000000000000000000000000000000000000000000000000000000000000000000000000000000000000000000000000000000000000000000000000000000000000000000000000000000000000000000000000000000000000000000000000000000000000000000000000Qn                                                                                                                                                                                                                                               
0000000000000000000000000000000000000000000000000000000000000000000000000000000000000000000000000000000000000000000000000000000000000000000000000000000000000000000000000000000000000000000000000000000000000000000000000000000000000000000000Qn                                                                                                                                                                                                                                               
0000000000000000000000000000000000000000000000000000000000000000000000000000000000000000000000000000000000000000000000000000000000000000000000000000000000000000000000000000000000000000000000000000000000000000000000000000000000000000000000Qn                                                                                                                                                                                                                                               
0000000000000000000000000000000000000000000000000000000000000000000000000000000000000000000000000000000000000000000000000000000000000000000000000000000000000000000000000000000000000000000000000000000000000000000000000000000000000000000000Qn                                                                                                                                                                                                                                               
0000000000000000000000000000000000000000000000000000000000000000000000000000000000000000000000000000000000000000000000000000000000000000000000000000000000000000000000000000000000000000000000000000000000000000000000000000000000000000000000Qn                                                                                                                                                                                                                                               
0000000000000000000000000000000000000000000000000000000000000000000000000000000000000000000000000000000000000000000000000000000000000000000000000000000000000000000000000000000000000000000000000000000000000000000000000000000000000000000000Qn                                                                                                                                                                                                                                               
0000000000000000000000000000000000000000000000000000000000000000000000000000000000000000000000000000000000000000000000000000000000000000000000000000000000000000000000000000000000000000000000000000000000000000000000000000000000000000000000Qn                                                                                                                                                                                                                                               
0000000000000000000000000000000000000000000000000000000000000000000000000000000000000000000000000000000000000000000000000000000000000000000000000000000000000000000000000000000000000000000000000000000000000000000000000000000000000000000000Qn                                                                                                                                                                                                                                               
0000000000000000000000000000000000000000000000000000000000000000000000000000000000000000000000000000000000000000000000000000000000000000000000000000000000000000000000000000000000000000000000000000000000000000000000000000000000000000000000Qn                                                                                                                                                                                                                                               
0000000000000000000000000000000000000000000000000000000000000000000000000000000000000000000000000000000000000000000000000000000000000000000000000000000000000000000000000000000000000000000000000000000000000000000000000000000000000000000000Qn                                                                                                                                                                                                                                               
000000000000000000000000000000000000000000000000000000000000000000000000000000000000000000000000000000000000000000000000000000000000000000000000000000000000000000000000000000000000000000000000000000000000000000000000000000000000000000000RQu                                                                                                                                                                                                                                               
0000000000000000000000000000000000000000000000000000000000000000000000000000000000000000000000000000000000000000000000000000000000000000000000000000000000000000000000000000000000000000000000000000000000000000000000000000000000000000000000Qn                                                                                                                                                                                                                                               
0000000000000000000000000000000000000000000000000000000000000000000000000000000000000000000000000000000000000000000000000000000000000000000000000000000000000000000000000000000000000000000000000000000000000000000000000000000000000000000000Qn                                                                                                                                                                                                                                               
000000000000000000000000000000000000000000000000000000000000000000000000000000000000000000000000000000000000000000000000000000000000000000000000000000000000000000000000000000000000000000000000000000000000000000000000000000000000000000000RQn                                                                                                                                                                                                                                               
0000000000000000000000000000000000000000000000000000000000000000000000000000000000000000000000000000000000000000000000000000000000000000000000000000000000000000000000000000000000000000000000000000000000000000000000000000000000000000000000Qn                                                                                                                                                                                                                                               
0000000000000000000000000000000000000000000000000000000000000000000000000000000000000000000000000000000000000000000000000000000000000000000000000000000000000000000000000000000000000000000000000000000000000000000000000000000000000000000000Qn                                                                                                                                                                                                                                               
0000000000000000000000000000000000000000000000000000000000000000000000000000000000000000000000000000000000000000000000000000000000000000000000000000000000000000000000000000000000000000000000000000000000000000000000000000000000000000000000Qn                                                                                                                                                                                                                                               
0000000000000000000000000000000000000000000000000000000000000000000000000000000000000000000000000000000000000000000000000000000000000000000000000000000000000000000000000000000000000000000000000000000000000000000000000000000000000000000000Qn                                                                                                                                                                                                                                               
0000000000000000000000000000000000000000000000000000000000000000000000000000000000000000000000000000000000000000000000000000000000000000000000000000000000000000000000000000000000000000000000000000000000000000000000000000000000000000000000Qn                                                                                                                                                                                                                                               
0000000000000000000000000000000000000000000000000000000000000000000000000000000000000000000000000000000000000000000000000000000000000000000000000000000000000000000000000000000000000000000000000000000000000000000000000000000000000000000000Qn                                                                                                                                                                                                                                               
0000000000000000000000000000000000000000000000000000000000000000000000000000000000000000000000000000000000000000000000000000000000000000000000000000000000000000000000000000000000000000000000000000000000000000000000000000000000000000000000Qn                                                                                                                                                                                                                                               
0000000000000000000000000000000000000000000000000000000000000000000000000000000000000000000000000000000000000000000000000000000000000000000000000000000000000000000000000000000000000000000000000000000000000000000000000000000000000000000000Qn                                                                                                                                                                                                                                               
0000000000000000000000000000000000000000000000000000000000000000000000000000000000000000000000000000000000000000000000000000000000000000000000000000000000000000000000000000000000000000000000000000000000000000000000000000000000000000000000Qn                                                                                                                                                                                                                                               
0000000000000000000000000000000000000000000000000000000000000000000000000000000000000000000000000000000000000000000000000000000000000000000000000000000000000000000000000000000000000000000000000000000000000000000000000000000000000000000000Qn                                                                                                                                                                                                                                               
0000000000000000000000000000000000000000000000000000000000000000000000000000000000000000000000000000000000000000000000000000000000000000000000000000000000000000000000000000000000000000000000000000000000000000000000000000000000000000000000Qn                                                                                                                                                                                                                                               
0000000000000000000000000000000000000000000000000000000000000000000000000000000000000000000000000000000000000000000000000000000000000000000000000000000000000000000000000000000000000000000000000000000000000000000000000000000000000000000000Qn                                                                                                                                                                                                                                               
0000000000000000000000000000000000000000000000000000000000000000000000000000000000000000000000000000000000000000000000000000000000000000000000000000000000000000000000000000000000000000000000000000000000000000000000000000000000000000000000Qn                                                                                                                                                                                                                                               
0000000000000000000000000000000000000000000000000000000000000000000000000000000000000000000000000000000000000000000000000000000000000000000000000000000000000000000000000000000000000000000000000000000000000000000000000000000000000000000000Qn                                                                                                                                                                                                                                               
0000000000000000000000000000000000000000000000000000000000000000000000000000000000000000000000000000000000000000000000000000000000000000000000000000000000000000000000000000000000000000000000000000000000000000000000000000000000000000000000Qn                                                                                                                                                                                                                                               
0000000000000000000000000000000000000000000000000000000000000000000000000000000000000000000000000000000000000000000000000000000000000000000000000000000000000000000000000000000000000000000000000000000000000000000000000000000000000000000000Qn                                                                                                                                                                                                                                               
0000000000000000000000000000000000000000000000000000000000000000000000000000000000000000000000000000000000000000000000000000000000000000000000000000000000000000000000000000000000000000000000000000000000000000000000000000000000000000000000Qn                                                                                                                                                                                                                                               
0000000000000000000000000000000000000000000000000000000000000000000000000000000000000000000000000000000000000000000000000000000000000000000000000000000000000000000000000000000000000000000000000000000000000000000000000000000000000000000000Qn                                                                                                                                                                                                                                               
0000000000000000000000000000000000000000000000000000000000000000000000000000000000000000000000000000000000000000000000000000000000000000000000000000000000000000000000000000000000000000000000000000000000000000000000000000000000000000000000Qn                                                                                                                                                                                                                                               
0000000000000000000000000000000000000000000000000000000000000000000000000000000000000000000000000000000000000000000000000000000000000000000000000000000000000000000000000000000000000000000000000000000000000000000000000000000000000000000000Qn                                                                                                                                                                                                                                               
0000000000000000000000000000000000000000000000000000000000000000000000000000000000000000000000000000000000000000000000000000000000000000000000000000000000000000000000000000000000000000000000000000000000000000000000000000000000000000000000Qn                                                                                                                                                                                                                                               
0000000000000000000000000000000000000000000000000000000000000000000000000000000000000000000000000000000000000000000000000000000000000000000000000000000000000000000000000000000000000000000000000000000000000000000000000000000000000000000000Qn                                                                                                                                                                                                                                               
0000000000000000000000000000000000000000000000000000000000000000000000000000000000000000000000000000000000000000000000000000000000000000000000000000000000000000000000000000000000000000000000000000000000000000000000000000000000000000000000Qn                                                                                                                                                                                                                                               
0000000000000000000000000000000000000000000000000000000000000000000000000000000000000000000000000000000000000000000000000000000000000000000000000000000000000000000000000000000000000000000000000000000000000000000000000000000000000000000000Qn                                                                                                                                                                                                                                               
0000000000000000000000000000000000000000000000000000000000000000000000000000000000000000000000000000000000000000000000000000000000000000000000000000000000000000000000000000000000000000000000000000000000000000000000000000000000000000000000Qn                                                                                                                                                                                                                                               
0000000000000000000000000000000000000000000000000000000000000000000000000000000000000000000000000000000000000000000000000000000000000000000000000000000000000000000000000000000000000000000000000000000000000000000000000000000000000000000000Qn                                                                                                                                                                                                                                               
0000000000000000000000000000000000000000000000000000000000000000000000000000000000000000000000000000000000000000000000000000000000000000000000000000000000000000000000000000000000000000000000000000000000000000000000000000000000000000000000Qn                                                                                                                                                                                                                                               
0000000000000000000000000000000000000000000000000000000000000000000000000000000000000000000000000000000000000000000000000000000000000000000000000000000000000000000000000000000000000000000000000000000000000000000000000000000000000000000000Qn                                                                                                                                                                                                                                               
0000000000000000000000000000000000000000000000000000000000000000000000000000000000000000000000000000000000000000000000000000000000000000000000000000000000000000000000000000000000000000000000000000000000000000000000000000000000000000000000Qn                                                                                                                                                                                                                                               
0000000000000000000000000000000000000000000000000000000000000000000000000000000000000000000000000000000000000000000000000000000000000000000000000000000000000000000000000000000000000000000000000000000000000000000000000000000000000000000000Qn                                                                                                                                                                                                                                               
0000000000000000000000000000000000000000000000000000000000000000000000000000000000000000000000000000000000000000000000000000000000000000000000000000000000000000000000000000000000000000000000000000000000000000000000000000000000000000000000Qn                                                                                                                                                                                                                                               
0000000000000000000000000000000000000000000000000000000000000000000000000000000000000000000000000000000000000000000000000000000000000000000000000000000000000000000000000000000000000000000000000000000000000000000000000000000000000000000000Qn                                                                                                                                                                                                                                               
0000000000000000000000000000000000000000000000000000000000000000000000000000000000000000000000000000000000000000000000000000000000000000000000000000000000000000000000000000000000000000000000000000000000000000000000000000000000000000000000Qn                                                                                                                                                                                                                                               
0000000000000000000000000000000000000000000000000000000000000000000000000000000000000000000000000000000000000000000000000000000000000000000000000000000000000000000000000000000000000000000000000000000000000000000000000000000000000000000000Qn                                                                                                                                                                                                                                               
0000000000000000000000000000000000000000000000000000000000000000000000000000000000000000000000000000000000000000000000000000000000000000000000000000000000000000000000000000000000000000000000000000000000000000000000000000000000000000000000Qn                                                                                                                                                                                                                                               
0000000000000000000000000000000000000000000000000000000000000000000000000000000000000000000000000000000000000000000000000000000000000000000000000000000000000000000000000000000000000000000000000000000000000000000000000000000000000000000000Qn                                                                                                                                                                                                                                               
0000000000000000000000000000000000000000000000000000000000000000000000000000000000000000000000000000000000000000000000000000000000000000000000000000000000000000000000000000000000000000000000000000000000000000000000000000000000000000000000Qn                                                                                                                                                                                                                                               
0000000000000000000000000000000000000000000000000000000000000000000000000000000000000000000000000000000000000000000000000000000000000000000000000000000000000000000000000000000000000000000000000000000000000000000000000000000000000000000000Qn                                                                                                                                                                                                                                               
0000000000000000000000000000000000000000000000000000000000000000000000000000000000000000000000000000000000000000000000000000000000000000000000000000000000000000000000000000000000000000000000000000000000000000000000000000000000000000000000Qn                                                                                                                                                                                                                                               
0000000000000000000000000000000000000000000000000000000000000000000000000000000000000000000000000000000000000000000000000000000000000000000000000000000000000000000000000000000000000000000000000000000000000000000000000000000000000000000000Qn                                                                                                                                                                                                                                               
0000000000000000000000000000000000000000000000000000000000000000000000000000000000000000000000000000000000000000000000000000000000000000000000000000000000000000000000000000000000000000000000000000000000000000000000000000000000000000000000Qn                                                                                                                                                                                                                                               
00000000000000000000000000000000000000000000000000000000000000000000000000RR0000000000R0RRRRR000R0RRRRRR0RRRRRRR000000000000000000000000000000000000000000000000000000000000000000000000000000000000000000000000000000000000000000000000000000Qn                                                                                                                                                                                                                                               
00000000000000000000000000000000000000000000000000000000000000000000000000000R0000Q0QQQQQQQQQQQQ0RRR0R0R0RRRRRRR000000000000000000000000000000000000000000000000000000000000000000000000000000000000000000000000000000000000000000000000000000Qn                                                                                                                                                                                                                                               
000000000000000000000000000000000000000000000000000000000000000000000000R000QQQQQQMWWWBDDHKKKKKDBWWMNRQQQ0000000000000000000000000000000000000000000000000000000000000000000000000000000000000000000000000000000000000000000000000000000000000Qn                                                                                                                                                                                                                                               
00000000000000000000000000000000000000000000000000000000000000000R00R0Q0QQQQRD&Gg2ue[Isx<)""""/"ics?jJFggkHRQQQQ000000000000000000000000000000000000000000000000000000000000000000000000000000000000000000000000000000000000000000000000000000Qn                                                                                                                                                                                                                                               
00000000000000000000000000000000000000000000000000000000000000RRR00QQQ0N@OE5a{)+:`                    `_;\{1wdYH0QQ0RR0R0000000000000000000000000000000000000000000000000000000000000000000000000000000000000000000000000000000000000000000000Qn                                                                                                                                                                                                                                               
00000000000000000000000000000000000000000000000000000000000R00RRRR0RW8hLI>='                               .-;>*#d$BRQQ00000000000000000000000000000000000000000000000000000000000000000000000000000000000000000000000000000000000000000000000Qn                                                                                                                                                                                                                                               
00000000000000000000000000000000000000000000000000000000000000QQQWYyav^-.                                       `;)16AB0Q0RR000000000000000000000000000000000000000000000000000000000000000000000000000000000000000000000000000000000000000000Qn                                                                                                                                           `_;=\>%s}III*{r%)\/,`                                                                               
00000000000000000000000000000000000000000000000000000000R0000QMKh7i'   ..                                          -^%7g8WRR0R0000000000000000000000000000000000000000000000000000000000000000000000000000000000000000000000000000000000000000Qn                                                                                                                                     .'"x!jfgbAU@HWMRRRRRWB@&AgSyu[v":                                                                         
000000000000000000000000000000000000000000000000000000RR00RQNOS1=`  .`.                                               _|?5&MRR0R00000000000000000000000000000000000000000000000000000000000000000000000000000000000000000000000000000000000000Qn                                                                                                                                  :>?TqY@DMWQQQQQQQQQQQQ0QQQQQQQQWK$Zm7s<^.                                                                    
000000000000000000000000000000000000000000000000RRRRRRRRRRWk5[|'                                                       .`^*p8MR000000000000000000000000000000000000000000000000000000000000000000000000000000000000000000000000000000000000000Qn                                                                                                                               ;x7hYKRQQQRRRRR00000000RRQ000000R0RRQQ0R@Ygo%;                                                                  
000000000000000000000000000000000000000000000000RRRRR0000Kh]/.                                                            `/]q$000000000000000000000000000000000000000000000000000000000000000000000000000000000000000000000000000000000000000Qn                                                                                                                          ..'i[g8NQQQ0RR0RRRRR000R00000000000000000RR00QQQB8g!|`                                                               
000000000000000000000000000000000000000000000000RRRRR0QBkJi_                                                                _>nkR000R0RR000000000000000000000000000000000000000000000000000000000000000000000000000000000000000000000000000000Qn                                                                                                                       .  :{fZBQQQ00RRRRRRRRRRR0000000000000000000000RRR0RQ0QDgJr=-                                                            
000000000000000000000000000000000000000000000000R0RMR0NP*=    .                                                               /oGNRRR00RRR0000000000000000000000000000000000000000000000000000000000000000000000000000000000000000000000000000Qn                                                                                                                      . :%w&RQR0QQ0000R0000000000000000000000000000000000R00R0RMYJx: .                                                         
0000000000000000000000000000000000000000000000000R000Wd}                                                                    .  ,*gBQ0RR0000000000000000000000000000000000000000000000000000000000000000000000000000000000000000000000000000000Qn                                                                                                                      .>ugW0QQR0000000000000000000000000000000000000000000R00RR00BXo"                                                          
000000000000000000000000000000000000000000000000R0QR@6l_                                                                        -chMQ000000000000000000000000000000000000000000000000000000000000000000000000000000000000000000000000000000000Qn                                                                                                                     _iq$M0R0Q0000000000000000000000000000000000000000000000000RRQRAf>.                                                        
000000000000000000000000000000000000000000000000RQ0KqI'                                                                          -*X0000Q00000000000000000000000000000000000000000000000000000000000000000000000000000000000000000000000000000Qn                                                                                                                .   :Iq$M0000000000000000000000000000000000000000000000000000000RRQQKm{_                                                       
00000000000000000000000000000000000000000000000000RG1:                                                                            ;oA0Q0Q00000000000000000000000000000000000000000000000000000000000000000000000000000000000000000000000000000Qn                                                                                                                  .;]dNRRR000RR000000000000000000000000000000000000000000000000R000RRBds`                                                      
00000000000000000000000000000000000000000000000000Df\`                                                                            .<5HQQ000000000000000000000000000000000000000000000000000000000000000000000000000000000000000000000000000000Qn                                                                                                                  _!EB0QR00RRRR00000000000000000000000000000000000000000000000000R0R0MKq%.                                                     
00000000000000000000000000000000000000000000000000O1:.                                                                             :1bQ0000000000000000000000000000000000000000000000000000000000000000000000000000000000000000000000000000000Qn                                                                                                                 _v6@RR00RRRRRR0000000000000000000000000000000000000000000000000000000QKf+                                                     
0000000000000000000000000000000000000000000000000Mm)`                                                                              .)mMQ000000000000000000000000000000000000000000000000000000000000000000000000000000000000000000000000000000Qn                                                                                                                 "7kNR00000000000000000000000000000000000000000000000000000000000000R0QQbI-                                                    
000000000000000000000000000000000000000000000000QDw=                                                                              ..+CB00RR0R0000000000000000000000000000000000000000000000000000000000000000000000000000000000000000000000000Qn                                                                                                                `cp@R0R00000000000000000000000000000000000000000000000000000000R00R0RR0QWy/                                                    
0000000000000000000000000000000000000000000000000D#:                                                                              . :uD0Q00000000000000000000000000000000000000000000000000000000000000000000000000000000000000000000000000000Qn                                                                                                                -}EN00QQ0000000000000000000000000000000000000000000000000000000000000000Qdx.                                                   
0000000000000000000000000000000000000000000000000KT'                                                                                :LDQQQ0000000000000000000000000000000000000000000000000000000000000000000000000000000000000000000000000000Qn                                                                                                                .]kRQ00Q0000000000000000000000000000000000000000000000000000000000000000M4r.                                                   
00000000000000000000000000000000000000000000000008n^                                                                                ^#DQ000000000000000000000000000000000000000000000000000000000000000000000000000000000000000000000000000000Qn                                                                                                                 ?kRQQ0000000000000000000000000000000000000000000000000000000000000000R0RZs.                                                   
0000000000000000000000000000000000000000000000000D2\  .                                                                             |2N0MR00R00R0000000000000000000000000000000000000000000000000000000000000000000000000000000000000000000000Qn                                                                                                                 }YRQQ0Q000000000000000000000000000000000000000000000000000000000000RRR0ME%.                                                   
000000000000000000000000000000000000000000000000QRg{- .                                                                            _*dM0R00000000000000000000000000000000000000000000000000000000000000000000000000000000000000000000000000000Qn                                                                                                                 %VDRQ00000000000000000000000000000000000000000000000000000000000000000QK2| .                                                  
000000000000000000000000000000000000000000000000R08u=                                                                           . .\J&00Q00000000000000000000000000000000000000000000000000000000000000000000000000000000000000000000000000000Qn                                                                                                                .+#@0RR000000000000000000000000000000000000000000000000000000000000QQRRNbj= .                                                  
000000000000000000000000000000000000000000000000N0Wgr_                                                                          . _IgMQR000000000000000000000000000000000000000000000000000000000000000000000000000000000000000000000000000000Qn                                                                                                                  rEM00000RRR0000000000000000000000000000000000000000000000000000QQQ0RN@Fl'                                                    
000000000000000000000000000000000000000000000000RRRUy<  .                                                                        'cF@0Q0000000000000000000000000000000000000000000000000000000000000000000000000000000000000000000000000000000Qn                                                                                                                  _1bMMR000RR000000000000000000000000000000000000000000000000000RQQ0QRDdI;...                                                  
00000000000000000000000000000000000000000000000000RWkn+.                                                                        `<J$00R0000000000000000000000000000000000000000000000000000000000000000000000000000000000000000000000000000000Qn                                                                                                                   ,okR0R000R000000000000000000000000000000000000000000000000000000RRMb1^  .                                                   
00000000000000000000000000000000000000000000000000RQ0AT<_                                                                      `\C8Q0R00000000000000000000000000000000000000000000000000000000000000000000000000000000000000000000000000000000Qn                                                                                                                    ,oAR0R0R0R0000000000000000000000000000000000000000000000000Q0QRQWE1=.  .                                                   
0000000000000000000000000000000000000000000000000R000R&yv-                                                                    '%FUR00R00000000000000000000000000000000000000000000000000000000000000000000000000000000000000000000000000000000Qn                                                                                                                     ;aPW00R0R000000000000000000000000000000000000000000000000RR0QBDg*_                                                        
000000000000000000000000000000000000000000000000000RQ0RKFs^`                                                                 ,?gBRRRRRR0000000000000000000000000000000000000000000000000000000000000000000000000000000000000000000000000000000Qn                                                                                                                      _lFU0Q000000R000000000000000000000000000000000000000000RR0RNZj)- .                                                       
000000000000000000000000000000000000000000000000000RR000NGz\_                                                              :l#ZMQ000R00R000000000000000000000000000000000000000000000000000000000000000000000000000000000000000000000000000000Qn                                                                                                                        "ah8WRRRR00R00000000000000000000000000000000000000R000QM&p}^.                                                          
00000000000000000000000000000000000000000000000000000000Q0@Eo)`                                                        . ./aZHR000000000000000000000000000000000000000000000000000000000000000000000000000000000000000000000000000000000000000Qn                                                                                                                         -<eVKRQ0RRR00000000000000000000000000000000000000QQQ0A5!"`                                                            
000000000000000000000000000000000000000000000000000000000000Khe<.                                                     -^iahKRQQ0R0000000000000000000000000000000000000000000000000000000000000000000000000000000000000000000000000000000000000Qn                                                                                                                           .=?FAWQ0R000000R0R00000000000000000000000QQQQ0Q0BZyc+`                                                              
00000000000000000000000000000000000000000000000000000000000RQ0BELl;.`.                                            .``/{#4$WR0R0000000000000000000000000000000000000000000000000000000000000000000000000000000000000000000000000000000000000000Qn                                                                                                                              `>12P$W0QQQ000000000R0000000R0000000RRQRRM&g2*/`                                                                 
000000000000000000000000000000000000000000000000000000000R0R0RQMBAqti^                                           `/cLm&RRMR0RR0R00000000000000000000000000000000000000000000000000000000000000000000000000000000000000000000000000000000000000Qn                                                                                                                                 _\}j5bKWRQQQQQQQ0000000Q0Q0QQQQQQWDUZF7l=_                                                                    
00000000000000000000000000000000000000000000000000000000000R00R0QQQD&gjs),` `.                               `;\?Td&DRQ0MR0RR0RR00000000000000000000000000000000000000000000000000000000000000000000000000000000000000000000000000000000000000Qn                                                                                                                                     _|ra#6GO&KWMR0QQQQQRRMNBD$GSFT?v+_      .                                                                 
0000000000000000000000000000000000000000000000000000000000R00R000R0QQRB&XFjs)/'`                        `:+<!L6GHRQQ000000RRRR0R00000000000000000000000000000000000000000000000000000000000000000000000000000000000000000000000000000000000000Qn                                                                                                                                          _=|>c{!ajuTTTTuze!{x>/:`                                                                             
000000000000000000000000000000000000000000000000000000000000000000000000Q0W@&gpC7Ili"=;'-`.`-__',=))vr[Lygb8HMQQQQQ000000000RRRR00000000000000000000000000000000000000000000000000000000000000000000000000000000000000000000000000000000000000Qn                                                                                                                                                                                                                                               
00000000000000000000000000000000000000000000000000000000000000000000000QQ0Q0QQQRWHUAkP4VgqmmqqSg4XZk8KBNRRR00000Q000R0000000000000000000000000000000000000000000000000000000000000000000000000000000000000000000000000000000000000000000000000Qn                                                                                                                                                                                                                                               
000000000000000000000000000000000000000000000000000000000000000000000R00000000000R0QQQQQQQQQQQQQQQQQQQ0QQ00000000000000R0000000000000000000000000000000000000000000000000000000000000000000000000000000000000000000000000000000000000000000000Qn                                                                                                                                                                                                                                               
00000000000000000000000000000000000000000000000000000000000000000000000000000000000000QQ000000R0RR0R000000000000000000000000000000000000000000000000000000000000000000000000000000000000000000000000000000000000000000000000000000000000000000Qu                                                                                                                                                                                                                                               
0000000000000000000000000000000000000000000000000000000000000000000000000000000000000000000000000000000000000000000000000000000000000000000000000000000000000000000000000000000000000000000000000000000000000000000000000000000000000000000000Qu                                                                                                                                                                                                                                               
0000000000000000000000000000000000000000000000000000000000000000000000000000000000000000000000000000000000000000000000000000000000000000000000000000000000000000000000000000000000000000000000000000000000000000000000000000000000000000000000Qu                                                                                                                                                                                                                                               
0000000000000000000000000000000000000000000000000000000000000000000000000000000000000000000000000000000000000000000000000000000000000000000000000000000000000000000000000000000000000000000000000000000000000000000000000000000000000000000000Qu                                                                                                                                                                                                                                               
0000000000000000000000000000000000000000000000000000000000000000000000000000000000000000000000000000000000000000000000000000000000000000000000000000000000000000000000000000000000000000000000000000000000000000000000000000000000000000000000Qu                                                                                                                                                                                                                                               
0000000000000000000000000000000000000000000000000000000000000000000000000000000000000000000000000000000000000000000000000000000000000000000000000000000000000000000000000000000000000000000000000000000000000000000000000000000000000000000000Qu                                                                                                                                                                                                                                               
0000000000000000000000000000000000000000000000000000000000000000000000000000000000000000000000000000000000000000000000000000000000000000000000000000000000000000000000000000000000000000000000000000000000000000000000000000000000000000000000Qu                                                                                                                                                                                                                                               
0000000000000000000000000000000000000000000000000000000000000000000000000000000000000000000000000000000000000000000000000000000000000000000000000000000000000000000000000000000000000000000000000000000000000000000000000000000000000000000000Qu                                                                                                                                                                                                                                               
0000000000000000000000000000000000000000000000000000000000000000000000000000000000000000000000000000000000000000000000000000000000000000000000000000000000000000000000000000000000000000000000000000000000000000000000000000000000000000000000Qn                                                                                                                                                                                                                                               
0000000000000000000000000000000000000000000000000000000000000000000000000000000000000000000000000000000000000000000000000000000000000000000000000000000000000000000000000000000000000000000000000000000000000000000000000000000000000000000000Qn                                                                                                                                                                                                                                               
0000000000000000000000000000000000000000000000000000000000000000000000000000000000000000000000000000000000000000000000000000000000000000000000000000000000000000000000000000000000000000000000000000000000000000000000000000000000000000000000Qn                                                                                                                                                                                                                                               
0000000000000000000000000000000000000000000000000000000000000000000000000000000000000000000000000000000000000000000000000000000000000000000000000000000000000000000000000000000000000000000000000000000000000000000000000000000000000000000000Qn                                                                                                                                                                                                                                               
0000000000000000000000000000000000000000000000000000000000000000000000000000000000000000000000000000000000000000000000000000000000000000000000000000000000000000000000000000000000000000000000000000000000000000000000000000000000000000000000Qn                                                                                                                                                                                                                                               
0000000000000000000000000000000000000000000000000000000000000000000000000000000000000000000000000000000000000000000000000000000000000000000000000000000000000000000000000000000000000000000000000000000000000000000000000000000000000000000000Qn                                                                                                                                                                                                                                               
0000000000000000000000000000000000000000000000000000000000000000000000000000000000000000000000000000000000000000000000000000000000000000000000000000000000000000000000000000000000000000000000000000000000000000000000000000000000000000000000Qn                                                                                                                                                                                                                                               
0000000000000000000000000000000000000000000000000000000000000000000000000000000000000000000000000000000000000000000000000000000000000000000000000000000000000000000000000000000000000000000000000000000000000000000000000000000000000000000000Qn                                                                                                                                                                                                                                               
0000000000000000000000000000000000000000000000000000000000000000000000000000000000000000000000000000000000000000000000000000000000000000000000000000000000000000000000000000000000000000000000000000000000000000000000000000000000000000000000Qn                                                                                                                                                                                                                                               
0000000000000000000000000000000000000000000000000000000000000000000000000000000000000000000000000000000000000000000000000000000000000000000000000000000000000000000000000000000000000000000000000000000000000000000000000000000000000000000000Qn                                                                                                                                                                                                                                               
0000000000000000000000000000000000000000000000000000000000000000000000000000000000000000000000000000000000000000000000000000000000000000000000000000000000000000000000000000000000000000000000000000000000000000000000000000000000000000000000Qn                                                                                                                                                                                                                                               
0000000000000000000000000000000000000000000000000000000000000000000000000000000000000000000000000000000000000000000000000000000000000000000000000000000000000000000000000000000000000000000000000000000000000000000000000000000000000000000000Qn                                                                                                                                                                                                                                               
0000000000000000000000000000000000000000000000000000000000000000000000000000000000000000000000000000000000000000000000000000000000000000000000000000000000000000000000000000000000000000000000000000000000000000000000000000000000000000000000Qn                                                                                                                                                                                                                                               
0000000000000000000000000000000000000000000000000000000000000000000000000000000000000000000000000000000000000000000000000000000000000000000000000000000000000000000000000000000000000000000000000000000000000000000000000000000000000000000000Qn                                                                                                                                                                                                                                               
000000000000000000000000000000000000000000000000000000000000000000000000000000000000000000000000000000000000000000000000000000000000000000000000000000000000000000000000000000000000000000000000000000000000000000000000000000000000000R000000QL                                                                                                                                                                                                                                               
0000000000000000000000000000000000000000000000000000000000000000000000000000000000000000000000000000000000000000000000000000000000000000000000000000000000000000000000000000000000000000000000000000000000000000000000000000000000000000000000QL                                                                                                                                                                                                                                               
00000000000000000000000000000000000000000000000000000000000000000000000000000000000000000000000000000000000000000000000000000000000000000000000000000000000000000000000000000000000000000000000000000000000000000000000000000000000000000000RRQL                                                                                                                                                                                                                                               
00000000000000000000000000000000000000000000000000000000000000000000000000000000000000000000000000000000000000000000000000000000000000000000000000000000000000000000000000000000000000000000000000000000000000000000000000000000000000000R00RRQu                                                                                                                                                                                                                                               
00000000000000000000000000000000000000000000000000000000000000000000000000000000000000000000000000000000000000000000000000000000000000000000000000000000000000000000000000000000000000000000000000000000000000000000000000000000000000000RR0RRQL                                                                                                                                                                                                                                               
00000000000000000000000000000000000000000000000000000000000000000000000000000000000000000000000000000000000000000000000000000000000000000000000000000000000000000000000000000000000000000000000000000000000000000000000000000000000000000R00R0Qu                                                                                                                                                                                                                                               
00000000000000000000000000000000000000000000000000000000000000000000000000000000000000000000000000000000000000000000000000000000000000000000000000000000000000000000000000000000000000000000000000000000000000000000000000000000000000000R00R0Qu                                                                                                                                                                                                                                               
0000000000000000000000000000000000000000000000000000000000000000000000000000000000000000000000000000000000000000000000000000000000000000000000000000000000000000000000000000000000000000000000000000000000000000000000000000000000000000000000Qu                                                                                                                                                                                                                                               
0000000000000000000000000000000000000000000000000000000000000000000000000000000000000000000000000000000000000000000000000000000000000000000000000000000000000000000000000000000000000000000000000000000000000000000000000000000000000000000000Qu                                                                                                                                                                                                                                               
0000000000000000000000000000000000000000000000000000000000000000000000000000000000000000000000000000000000000000000000000000000000000000000000000000000000000000000000000000000000000000000000000000000000000000000000000000000000000000000000Qu                                                                                                                                                                                                                                               
0000000000000000000000000000000000000000000000000000000000000000000000000000000000000000000000000000000000000000000000000000000000000000000000000000000000000000000000000000000000000000000000000000000000000000000000000000000000000000000000Qu                                                                                                                                                                                                                                               
0000000000000000000000000000000000000000000000000000000000000000000000000000000000000000000000000000000000000000000000000000000000000000000000000000000000000000000000000000000000000000000000000000000000000000000000000000000000000000000000Qu                                                                                                                                                                                                                                               
0000000000000000000000000000000000000000000000000000000000000000000000000000000000000000000000000000000000000000000000000000000000000000000000000000000000000000000000000000000000000000000000000000000000000000000000000000000000000000000000Qu                                                                                                                                                                                                                                               
0000000000000000000000000000000000000000000000000000000000000000000000000000000000000000000000000000000000000000000000000000000000000000000000000000000000000000000000000000000000000000000000000000000000000000000000000000000000000000000000Qu                                                                                                                                                                                                                                               
0000000000000000000000000000000000000000000000000000000000000000000000000000000000000000000000000000000000000000000000000000000000000000000000000000000000000000000000000000000000000000000000000000000000000000000000000000000000000000000000Qu                                                                                                                                                                                                                                               
0000000000000000000000000000000000000000000000000000000000000000000000000000000000000000000000000000000000000000000000000000000000000000000000000000000000000000000000000000000000000000000000000000000000000000000000000000000000000000000000Qu                                                                                                                                                                                                                                               
0000000000000000000000000000000000000000000000000000000000000000000000000000000000000000000000000000000000000000000000000000000000000000000000000000000000000000000000000000000000000000000000000000000000000000000000000000000000000000000000Qu                                                                                                                                                                                                                                               
0000000000000000000000000000000000000000000000000000000000000000000000000000000000000000000000000000000000000000000000000000000000000000000000000000000000000000000000000000000000000000000000000000000000000000000000000000000000000000000000Qu                                                                                                                                                                                                                                               
0000000000000000000000000000000000000000000000000000000000000000000000000000000000000000000000000000000000000000000000000000000000000000000000000000000000000000000000000000000000000000000000000000000000000000000000000000000000000000000000Qu                                                                                                                                                                                                                                               
0000000000000000000000000000000000000000000000000000000000000000000000000000000000000000000000000000000000000000000000000000000000000000000000000000000000000000000000000000000000000000000000000000000000000000000000000000000000000000000000Qu                                                                                                                                                                                                                                               
0000000000000000000000000000000000000000000000000000000000000000000000000000000000000000000000000000000000000000000000000000000000000000000000000000000000000000000000000000000000000000000000000000000000000000000000000000000000000000000000Qu                                                                                                                                                                                                                                               
0000000000000000000000000000000000000000000000000000000000000000000000000000000000000000000000000000000000000000000000000000000000000000000000000000000000000000000000000000000000000000000000000000000000000000000000000000000000000000000000Qu                                                                                                                                                                                                                                               
0000000000000000000000000000000000000000000000000000000000000000000000000000000000000000000000000000000000000000000000000000000000000000000000000000000000000000000000000000000000000000000000000000000000000000000000000000000000000000000000Qu                                                                                                                                                                                                                                               
0000000000000000000000000000000000000000000000000000000000000000000000000000000000000000000000000000000000000000000000000000000000000000000000000000000000000000000000000000000000000000000000000000000000000000000000000000000000000000000000Qu                                                                                                                                                                                                                                               
0000000000000000000000000000000000000000000000000000000000000000000000000000000000000000000000000000000000000000000000000000000000000000000000000000000000000000000000000000000000000000000000000000000000000000000000000000000000000000000000Qu                                                                                                                                                                                                                                               
0000000000000000000000000000000000000000000000000000000000000000000000000000000000000000000000000000000000000000000000000000000000000000000000000000000000000000000000000000000000000000000000000000000000000000000000000000000000000000000000Qu                                                                                                                                                                                                                                               
0000000000000000000000000000000000000000000000000000000000000000000000000000000000000000000000000000000000000000000000000000000000000000000000000000000000000000000000000000000000000000000000000000000000000000000000000000000000000000000000Qu                                                                                                                                                                                                                                               
0000000000000000000000000000000000000000000000000000000000000000000000000000000000000000000000000000000000000000000000000000000000000000000000000000000000000000000000000000000000000000000000000000000000000000000000000000000000000000000000Qu                                                                                                                                                                                                                                               
0000000000000000000000000000000000000000000000000000000000000000000000000000000000000000000000000000000000000000000000000000000000000000000000000000000000000000000000000000000000000000000000000000000000000000000000000000000000000000000000Qu                                                                                                                                                                                                                                               
0000000000000000000000000000000000000000000000000000000000000000000000000000000000000000000000000000000000000000000000000000000000000000000000000000000000000000000000000000000000000000000000000000000000000000000000000000000000000000000000Qu                                                                                                                                                                                                                                               
0000000000000000000000000000000000000000000000000000000000000000000000000000000000000000000000000000000000000000000000000000000000000000000000000000000000000000000000000000000000000000000000000000000000000000000000000000000000000000000000Qn                                                                                                                                                                                                                                               
0000000000000000000000000000000000000000000000000000000000000000000000000000000000000000000000000000000000000000000000000000000000000000000000000000000000000000000000000000000000000000000000000000000000000000000000000000000000000000000000Qn                                                                                                                                                                                                                                               
0000000000000000000000000000000000000000000000000000000000000000000000000000000000000000000000000000000000000000000000000000000000000000000000000000000000000000000000000000000000000000000000000000000000000000000000000000000000000000000000Qn                                                                                                                                                                                                                                               
0000000000000000000000000000000000000000000000000000000000000000000000000000000000000000000000000000000000000000000000000000000000000000000000000000000000000000000000000000000000000000000000000000000000000000000000000000000000000000000000Qn                                                                                                                                                                                                                                               
0000000000000000000000000000000000000000000000000000000000000000000000000000000000000000000000000000000000000000000000000000000000000000000000000000000000000000000000000000000000000000000000000000000000000000000000000000000000000000000000Qn                                                                                                                                                                                                                                               
0000000000000000000000000000000000000000000000000000000000000000000000000000000000000000000000000000000000000000000000000000000000000000000000000000000000000000000000000000000000000000000000000000000000000000000000000000000000000000000000Qn                                                                                                                                                                                                                                               
0000000000000000000000000000000000000000000000000000000000000000000000000000000000000000000000000000000000000000000000000000000000000000000000000000000000000000000000000000000000000000000000000000000000000000000000000000000000000000000000Qn                                                                                                                                                                                                                                               
0000000000000000000000000000000000000000000000000000000000000000000000000000000000000000000000000000000000000000000000000000000000000000000000000000000000000000000000000000000000000000000000000000000000000000000000000000000000000000000000Qn                                                                                                                                                                                                                                               
0000000000000000000000000000000000000000000000000000000000000000000000000000000000000000000000000000000000000000000000000000000000000000000000000000000000000000000000000000000000000000000000000000000000000000000000000000000000000000000000Qn                                                                                                                                                                                                                                               
0000000000000000000000000000000000000000000000000000000000000000000000000000000000000000000000000000000000000000000000000000000000000000000000000000000000000000000000000000000000000000000000000000000000000000000000000000000000000000000000Qn                                                                                                                                                                                                                                               