000000000000000000000000000000000000000000000000000000000000000000000000000000000000000000000000000000000000000000000000000000000000000000000000000000000000000000000000000000000000000000000000000000000000000000000000000000000000000RRNM&C\                                                                                                                                                                                                                                                 
000000000000000000000000000000000000000000000000000000000000000000000000000000000000000000000000000000000000000000000000000000000000000000000000000000000000000000000000000000000000000000000000000000000000000000000000000000000000000RRRR@pc`                                                                                                                                                                                                                                                
000000000000000000000000000000000000000000000000000000000000000000000000000000000000000000000000000000000000000000000000000000000000000000000000000000000000000000000000000000000000000000000000000000000000000000000000000000000000000RRRRHd[,                                                                                                                                                                                                                                                
0000000000000000000000000000000000000000000000000000000000000000000000000000000000000000000000000000000000000000000000000000000000000000000000000000000000000000000000000000000000000000000000000000000000000000000000000000000000000000RRRR&u=                                                                                                                                                                                                                                                
0000000000000000000000000000000000000000000000000000000000000000000000000000000000000000000000000000000000000000000000000000000000000000000000000000000000000000000000000000000000000000000000000000000000000000000000000000000000000000RRMRWq)                                                                                                                                                                                                                                                
000000000000000000000000000000000000000000000000000000000000000000000000000000000000000000000000000000000000000000000000000000000000000000000000000000000000000000000000000000000000000000000000000000000000000000000000000000000000000R0RRRDg]_                                                                                                                                                                                                                                               
0000000000000000000000000000000000000000000000000000000000000000000000000000000000000000000000000000000000000000000000000000000000000000000000000000000000000000000000000000000000000000000000000000000000000000000000000000000000000000R0RRNAn+                                                                                                                                                                                                                                               
000000000000000000000000000000000000000000000000000000000000000000000000000000000000000000000000000000000000000000000000000000000000000000000000000000000000000000000000000000000000000000000000000000000000000000000000000000000000000R000RMUC/                                                                                                                                                                                                                                               
0000000000000000000000000000000000000000000000000000000000000000000000000000000000000000000000000000000000000000000000000000000000000000000000000000000000000000000000000000000000000000000000000000000000000000000000000000000000000000000MMKSv                                                                                                                                                                                                                                               
0000000000000000000000000000000000000000000000000000000000000000000000000000000000000000000000000000000000000000000000000000000000000000000000000000000000000000000000000000000000000000000000000000000000000000000000000000000000000000000RRWAI                                                                                                                                                                                                                                               
00000000000000000000000000000000000000000000000000000000000000000000000000000000000000000000000000000000000000000000000000000000000000000000000000000000000000000000000000000000000000000000000000000000000000000000000000000000000000000R0R0MDt                                                                                                                                                                                                                                               
0000000000000000000000000000000000000000000000000000000000000000000000000000000000000000000000000000000000000000000000000000000000000000000000000000000000000000000000000000000000000000000000000000000000000000000000000000000000000000000R0NWz                                                                                                                                                                                                                                               
0000000000000000000000000000000000000000000000000000000000000000000000000000000000000000000000000000000000000000000000000000000000000000000000000000000000000000000000000000000000000000000000000000000000000000000000000000000000000000000RRM03'                                                                                                                                                                                                                                              
000000000000000000000000000000000000000000000000000000000000000000000000000000000000000000000000000000000000000000000000000000000000000000000000000000000000000000000000000000000000000000000000000000000000000000000000000000000000000000000R0E)                                                                                                                                                                                                                                              
000000000000000000000000000000000000000000000000000000000000000000000000000000000000000000000000000000000000000000000000000000000000000000000000000000000000000000000000000000000000000000000000000000000000000000000000000000000000000000RR000$?                                                                                                                                                                                                                                              
0000000000000000000000000000000000000000000000000000000000000000000000000000000000000000000000000000000000000000000000000000000000000000000000000000000000000000000000000000000000000000000000000000000000000000000000000000000000000000000000QD!                                                                                                                                                                                                                                              
0000000000000000000000000000000000000000000000000000000000000000000000000000000000000000000000000000000000000000000000000000000000000000000000000000000000000000000000000000000000000000000000000000000000000000000000000000000000000000000000QKL:                                                                                                                                                                                                                                             
0000000000000000000000000000000000000000000000000000000000000000000000000000000000000000000000000000000000000000000000000000000000000000000000000000000000000000000000000000000000000000000000000000000000000000000000000000000000000000000000QDy"                                                                                                                                                                                                                                             
0000000000000000000000000000000000000000000000000000000000000000000000000000000000000000000000000000000000000000000000000000000000000000000000000000000000000000000000000000000000000000000000000000000000000000000000000000000000000000000000QWh%                                                                                                                                                                                                                                             
00000000000000000000000000000000000000000000000000000000000000000000000000000000000000000000000000000000000000000000000000000000000000000000000000000000000000000000000000000000000000000000000000000000000000000000000000000000000000000000000NEc..                                                                                                                                                                                                                                           
00000000000000000000000000000000000000000000000000000000000000000000000000000000000000000000000000000000000000000000000000000000000000000000000000000000000000000000000000000000000000000000000000000000000000000000000000000000000000000000000MEl..                                                                                                                                                                                                                                           
00000000000000000000000000000000000000000000000000000000000000000000000000000000000000000000000000000000000000000000000000000000000000000000000000000000000000000000000000000000000000000000000000000000000000000000000000000000000000000000000MPI-                                                                                                                                                                                                                                            
00000000000000000000000000000000000000000000000000000000000000000000000000000000000000000000000000000000000000000000000000000000000000000000000000000000000000000000000000000000000000000000000000000000000000000000000000000000000000000000000Rkj^                                                                                                                                                                                                                                            
00000000000000000000000000000000000000000000000000000000000000000000000000000000000000000000000000000000000000000000000000000000000000000000000000000000000000000000000000000000000000000000000000000000000000000000000000000000000000000000000QU#/                                                                                                                                                                                                                                            
00000000000000000000000000000000000000000000000000000000000000000000000000000000000000000000000000000000000000000000000000000000000000000000000000000000000000000000000000000000000000000000000000000000000000000000000000000000000000000000000QKf)                                                                                                                                                                                                                                            
00000000000000000000000000000000000000000000000000000000000000000000000000000000000000000000000000000000000000000000000000000000000000000000000000000000000000000000000000000000000000000000000000000000000000000000000000000000000000000000000QK2i.                                                                                                                                                                                                                                           
00000000000000000000000000000000000000000000000000000000000000000000000000000000000000000000000000000000000000000000000000000000000000000000000000000000000000000000000000000000000000000000000000000000000000000000000000000000000000000000000RK6x`                                                                                                                                                                                                                                           
0000000000000000000000000000000000000000000000000000000000000000000000000000000000000000000000000000000000000000000000000000000000000000000000000000000000000000000000000000000000000000000000000000000000000000000000000000000000000000000000RMNP{`                                                                                                                                                                                                                                           
0000000000000000000000000000000000000000000000000000000000000000000000000000000000000000000000000000000000000000000000000000000000000000000000000000000000000000000000000000000000000000000000000000000000000000000000000000000000000000000000RRRY?`                                                                                                                                                                                                                                           
0000000000000000000000000000000000000000000000000000000000000000000000000000000000000000000000000000000000000000000000000000000000000000000000000000000000000000000000000000000000000000000000000000000000000000000000000000000000000000000000000k[_                                                                                                                                                                                                                                           
000000000000000000000000000000000000000000000000000000000000000000000000000000000000000000000000000000000000000000000000000000000000000000000000000000000000000000000000000000000000000000000000000000000000000000000000000000000000000000000000QA1_                                                                                                                                                                                                                                           
000000000000000000000000000000000000000000000000000000000000000000000000000000000000000000000000000000000000000000000000000000000000000000000000000000000000000000000000000000000000000000000000000000000000000000000000000000000000000000000000QA1_                                                                                                                                                                                                                                           
000000000000000000000000000000000000000000000000000000000000000000000000000000000000000000000000000000000000000000000000000000000000000000000000000000000000000000000000000000000000000000000000000000000000000000000000000000000000000000000000QA1_                                                                                                                                                                                                                                           
000000000000000000000000000000000000000000000000000000000000000000000000000000000000000000000000000000000000000000000000000000000000000000000000000000000000000000000000000000000000000000000000000000000000000000000000000000000000000000000000QA1_                                                                                                                                                                                                                                           
000000000000000000000000000000000000000000000000000000000000000000000000000000000000000000000000000000000000000000000000000000000000000000000000000000000000000000000000000000000000000000000000000000000000000000000000000000000000000000000000QA1_                                                                                                                                                                                                                                           
00000000000000000000000000000000000000000000000000000000000000000000000000000000000000000000000000000000000000000000000000000000000000000000000000000000000000000000000000000000000000000000000000000000000000000000000000000000000000000000000QQAt'                                                                                                                                                                                                                                           
00000000000000000000000000000000000000000000000000000000000000000000000000000000000000000000000000000000000000000000000000000000000000000000000000000000000000000000000000000000000000000000000000000000000000000000000000000000000000000000000QR$u,                                                                                                                                                                                                                                           
00000000000000000000000000000000000000000000000000000000000000000000000000000000000000000000000000000000000000000000000000000000000000000000000000000000000000000000000000000000000000000000000000000000000000000000000000000000000000000000000QR@#;                                                                                                                                                                                                                                           
00000000000000000000000000000000000000000000000000000000000000000000000000000000000000000000000000000000000000000000000000000000000000000000000000000000000000000000000000000000000000000000000000000000000000000000000000000000000000000000000QM@#;                                                                                                                                                                                                                                           
00000000000000000000000000000000000000000000000000000000000000000000000000000000000000000000000000000000000000000000000000000000000000000000000000000000000000000000000000000000000000000000000000000000000000000000000000000000000000000000000QM@#;                                                                                                                                                                                                                                           
00000000000000000000000000000000000000000000000000000000000000000000000000000000000000000000000000000000000000000000000000000000000000000000000000000000000000000000000000000000000000000000000000000000000000000000000000000000000000000000000QM$#;                                                                                                                                                                                                                                           
00000000000000000000000000000000000000000000000000000000000000000000000000000000000000000000000000000000000000000000000000000000000000000000000000000000000000000000000000000000000000000000000000000000000000000000000000000000000000000000000QM$#;                                                                                                                                                                                                                                           
00000000000000000000000000000000000000000000000000000000000000000000000000000000000000000000000000000000000000000000000000000000000000000000000000000000000000000000000000000000000000000000000000000000000000000000000000000000000000000000000QM$#;                                                                                                                                                                                                                                           
00000000000000000000000000000000000000000000000000000000000000000000000000000000000000000000000000000000000000000000000000000000000000000000000000000000000000000000000000000000000000000000000000000000000000000000000000000000000000000000000QM$T,                                                                                                                                                                                                                                           
00000000000000000000000000000000000000000000000000000000000000000000000000000000000000000000000000000000000000000000000000000000000000000000000000000000000000000000000000000000000000000000000000000000000000000000000000000000000000000000000QN8n,                                                                                                                                                                                                                                           
000000000000000000000000000000000000000000000000000000000000000000000000000000000000000000000000000000000000000000000000000000000000000000000000000000000000000000000000000000000000000000000000000000000000000000000000000000000000000000000000N8n,                                                                                                                                                                                                                                           
00000000000000000000000000000000000000000000000000000000000000000000000000000000000000000000000000000000000000000000000000000000000000000000000000000000000000000000000000000000000000000000000000000000000000000000000000000000000000000000000QN8n,                                                                                                                                                                                                                                           
00000000000000000000000000000000000000000000000000000000000000000000000000000000000000000000000000000000000000000000000000000000000000000000000000000000000000000000000000000000000000000000000000000000000000000000000000000000000000000000000QN8n,                                                                                                                                                                                                                                           
000000000000000000000000000000000000000000000000000000000000000000000000000000000000000000000000000000000000000000000000000000000000000000000000000000000000000000000000000000000000000000000000000000000000000000000000000000000000000000000000N8n,                                                                                                                                                                                                                                           
000000000000000000000000000000000000000000000000000000000000000000000000000000000000000000000000000000000000000000000000000000000000000000000000000000000000000000000000000000000000000000000000000000000000000000000000000000000000000000000000MUn,                                                                                                                                                                                                                                           
0000000000000000000000000000000000000000000000000000000000000000000000000000000000000000000000000000000000000000000000000000000000000000000000000000000000000000000000000000000000000000000000000000000000000000000000000000000000000000000000R0M&z:                                                                                                                                                                                                                                           
000000000000000000000000000000000000000000000000000000000000000000000000000000000000000000000000000000000000000000000000000000000000000000000000000000000000000000000000000000000000000000000000000000000000000000000000000000000000000000RR000RMk[_                                                                                                                                                                                                                                           
000000000000000000000000000000000000000000000000000000000000000000000000000000000000000000000000000000000000000000000000000000000000000000000000000000000000000000000000000000000000000000000000000000000000000000000000000000000000000000000RRMRZ{`                                                                                                                                                                                                                                           
000000000000000000000000000000000000000000000000000000000000000000000000000000000000000000000000000000000000000000000000000000000000000000000000000000000000000000000000000000000000000000000000000000000000000000000000000000000000000000000RMMQEv                                                                                                                                                                                                                                            
0000000000000000000000000000000000000000000000000000000000000000000000000000000000000000000000000000000000000000000000000000000000000000000000000000000000000000000000000000000000000000000000000000000000000000000000000000000000000000000000R0QS|                                                                                                                                                                                                                                            
00000000000000000000000000000000000000000000000000000000000000000000000000000000000000000000000000000000000000000000000000000000000000000000000000000000000000000000000000000000000000000000000000000000000000000000000000000000000000000000000006/ .                                                                                                                                                                                                                                          
000000000000000000000000000000000000000000000000000000000000000000000000000000000000000000000000000000000000000000000000000000000000000000000000000000000000000000000000000000000000000000000000000000000000000000000000000000000000000000000RMWMg|                                                                                                                                                                                                                                            
000000000000000000000000000000000000000000000000000000000000000000000000000000000000000000000000000000000000000000000000000000000000000000000000000000000000000000000000000000000000000000000000000000000000000000000000000000000000000000000RMBWh) .                                                                                                                                                                                                                                          
000000000000000000000000000000000000000000000000000000000000000000000000000000000RR0000000RRR00000R0RRRRRRRRRRRR00000000000000000000000000000000000000000000000000000000000000000000000000000000000000000000000000000000000000000000000000000RRWNS|                                                                                                                                                                                                                                            
0000000000000000000000000000000000000000000000000000000000000000000000000000000000QQQQQQQQQQQQQQQ00RQ00000RRRRRR00000000000000000000000000000000000000000000000000000000000000000000000000000000000000000000000000000000000000000000000000000RRMBF/                                                                                                                                                                                                                                            
0000000000000000000000000000000000000000000000000000000000000000000000000000QQQQQRWDHK@U8&AAAA&&$@KHBRRQQ00000000000000000000000000000000000000000000000000000000000000000000000000000000000000000000000000000000000000000000000000000000000000M@J;                                                                                                                                                                                                                                            
00000000000000000000000000000000000000000000000000000000000000000R0000QQQQQQMHOg2Tt?{ci</^;;;,,;">vl1j#2qPUW0QQQQQ00000000000000000000000000000000000000000000000000000000000000000000000000000000000000000000000000000000000000000000000000000M$#;                                                                                                                                                                                                                                            
00000000000000000000000000000000000000000000000000000000000000RR00Q0Q00W$Ydw[r<^-.                    .`'+v*jpXURQQ0RR0000000000000000000000000000000000000000000000000000000000000000000000000000000000000000000000000000000000000000000000000M@#;                                                                                                                                                                                                                                            
0000000000000000000000000000000000000000000000000000000000000RRRRQRRBk6o{\^-                                .'"cLS&DMQQ000000000000000000000000000000000000000000000000000000000000000000000000000000000000000000000000000000000000000000000000M@#;                                                                                                                                                                                                                                            
00000000000000000000000000000000000000000000000000000000000000QQQDXJ!>;`.                                       .:\IybDRQQ000000000000000000000000000000000000000000000000000000000000000000000000000000000000000000000000000000000000000000000R@T;                                                                                                                                         `';+"<v%xxc%v>)"=,_.                                                                               
00000000000000000000000000000000000000000000000000000000R0000QW&p1|-   ..                                          `,>1FkBRR0R0R000000000000000000000000000000000000000000000000000000000000000000000000000000000000000000000000000000000000000Q8e^`                                                                                                                                  _+vIoJmPOkAUKDBWWWBH$AbPS3u1{\^-                                                                         
00000000000000000000000000000000000000000000000000000RRR00RQWb5?;.  .`.                                               `=rJbN0R0R000000000000000000000000000000000000000000000000000000000000000000000000000000000000000000000000000000000000000QOI'`                                                                                                                              _){jFG$DMN0QQQQQQQQQQQQQQQQQQQRB$A4f]v/:                                                                     
000000000000000000000000000000000000000000000000RRRRRRRRRMBGC*+-                                                        .,cfkWR0000000000000000000000000000000000000000000000000000000000000000000000000000000000000000000000000000000000000000Qkr..                                                                                                                           :>t6b@MQQQRRRRRR00000000R00R0QR000RRQQ0N&X5!<'                                                                  
000000000000000000000000000000000000000000000000RRRRR000R@6*^.                                                            .=*5&RQR0000000000000000000000000000000000000000000000000000000000000000000000000000000000000000000000000000000000000QPi..                                                                                                                      .._\}FOWQQQ0RR0RRRR0R0000000000R0R0000R00RR00QQQHb2s=.                                                               
000000000000000000000000000000000000000000000000RR0RR0QBZL\`   .                                                            -)7ZMQRRR0R000000000000000000000000000000000000000000000000000000000000000000000000000000000000000000000000000000000m\_.                                                                                                                      -%TEKRQQ0R00RRRRRRRRR000000000000000000000000RRRQQ0@h7v;`                                                            
000000000000000000000000000000000000000000000000R0RM00B4c^                                                                    ^14BRRRR00R00000000000000000000000000000000000000000000000000000000000000000000000000000000000000000000000000000QBJ^..                                                                                                                  . `<jZMQ00QQ0000R000000000000000000000000000000000000000RWPLi' .                                                         
000000000000000000000000000000000000000000000000000Q0DSr                                                                       'l6DQ0R00000000000000000000000000000000000000000000000000000000000000000000000000000000000000000000000000000000Q@7:                                                                                                                     "ahH00Q00QQ0000000000000000000000000000000000000000000R00RHd[+                                                          
000000000000000000000000000000000000000000000000000RU5%`                                                                        `vmNQ0RQ0000000R0000000000000000000000000000000000000000000000000000000000000000000000000000000000000000000RR0QA[:                                                                                                                   -<58W00RQ0000000000000000000000000000000000000000000000000R0QMYT).                                                        
000000000000000000000000000000000000000000000000000@Fs_                                                                          `r4RQ000000000000000000000000000000000000000000000000000000000000000000000000000000000000000000000000000R0000QXx_-.                                                                                                                :IS$MQQ000000000000000000000000000000000000000000000000000000R0Q$2x-                                                       
00000000000000000000000000000000000000000000000000MP[' .                                                                          :tk0Q0000000000000000000000000000000000000000000000000000000000000000000000000000000000000000000000000000000Qh)_..                                                                                                              .;]dNRRR000RR0000000000000000000000000000000000000000000000000000RRHgc.                                                      
0000000000000000000000000000000000000000000000000QDJ|`                                                                             \yKQ000000R000000000000000000000000000000000000000000000000000000000000000000000000000000000000000000000RR0Q2;-                                                                                                                _!EB0QR00RRRR00000000000000000000000000000000000000000000000000R0R0M@F>                                                      
00000000000000000000000000000000000000000000000000Y['.                                                                           . '!G0QQ0000R00000000000000000000000000000000000000000000000000000000000000000000000000000000000000000000000Q0J:_                                                                                                               _%p@0000RRRRRR00000000000000000000000000000000000000000000000000000000K#^                                                     
00000000000000000000000000000000000000000000000Q0M6<.                                                                            . .>6MQ0R00R0000000000000000000000000000000000000000000000000000000000000000000000000000000000000000000000Q0QB7:_                                                                                                               "7kNR000000000000000000000000000000000000000000000000000000000000000RQQG{`                                                    
000000000000000000000000000000000000000000000000QDw=                                                                              ..=JBQ0000RR00000000000000000000000000000000000000000000000000000000000000000000000000000000000000000R00QQ0Rb}_`                                                                                                              `cF@RRRQ0000000000000000000000000000000000000000000000000000000R0000RR0QBw+                                                    
0000000000000000000000000000000000000000000000000DJ:                                                                                :uBQQ00Q000000000000000000000000000000000000000000000000000000000000000000000000000000000000000000000000QWm)..                                                                                                              `}gN000Q000000000000000000000000000000000000000000000000000000000000RR0QQd%.                                                   
0000000000000000000000000000000000000000000000000KT:                                                                                :uDQQ0000R0000000000000000000000000000000000000000000000000000000000000000000000000000000000000000000R00QWw^                                                                                                                .!kRQ000000000000000000000000000000000000000000000000000000000000000000QM4l.                                                   
00000000000000000000000000000000000000000000000008n=                                                                                ;#DQ000000000000000000000000000000000000000000000000000000000000000000000000000000000000000000000000RR0RQBn'                                                                                                                 ?k0QQQ0000000000000000000000000000000000000000000000000000000000000000QMGr.                                                   
0000000000000000000000000000000000000000000000000D5<  .                                                                             "3W0MR00R000000000000000000000000000000000000000000000000000000000000000000000000000000000000000000R000RQHe.                                                                                                                 *bMQQ0Q000000000000000000000000000000000000000000000000000000000000RRRQRXc.                                                   
0000000000000000000000000000000000000000000000000RPI_                                                                              _shMRR000000000000000000000000000000000000000000000000000000000000000000000000000000000000000000000000000Q@]                                                                                                                  vgHR000000000R00000000000000000000000000000000000000000000000000000000QH5) .                                                  
0000000000000000000000000000000000000000000000RRR0$n+                                                                             .)TA00QQ00000000000000000000000000000000000000000000000000000000000000000000000000000000000000000000000R00Q&{                                                                                                                 `;uU00RR0Q0RR000000000000000000000000000000000000000000000000000000QQ0RMYu+ .                                                  
0000000000000000000000000000000000000000000000RRRRMd}'                                                                            _*4NQ0000000000000000000000000000000000000000000000000000000000000000000000000000000000000000000000000RR00Mbl                                                                                                                   %hW00000RRR00000000000000000000000000000000000000000000000000Q0QQ0QRNKmr'.                                                   
00000000000000000000000000000000000000000000000R00R@2i  .                                                                        '%2@0Q0000000000000000000000000000000000000000000000000000000000000000000000000000000000000000000000000R00MHh%                                                                                                                   `?XWRR000RR0000000000000000000000000000000000000000000000000000QQ0Q0DE!=...                                                  
000000000000000000000000000000000000000000000000000N&C)...                                                                      `iy@Q00000000000000000000000000000000000000000000000000000000000000000000000000000000000000000000000000000R0BJ)'                                                                                                                   ,oYR0R0Q0RR00000000000000000000000000000000000000000000000000R0000Rko=                                                      
000000000000000000000000000000000000000000000000RQR0Q8fv'                                                                      `i3@QRR0000000000000000000000000000000000000000000000000000000000000000000000000000000000000000000000000000RQBn=-                                                                                                                    :oAR000R0R0000000000000000000000000000000000000000000000000Q000QWXz"`                                                      
0000000000000000000000000000000000000000000000000R00QR$Fl'                                                                    ,rS@000R0000000000000000000000000000000000000000000000000000000000000000000000000000000000000000000000000R00RQD7_.                                                                                                                     ;aPW00R0R0000000000000000000000000000000000000000000000000R0QWWE[:                                                        
0000000000000000000000000000000000000000000000000000Q0RDq?/`                                                                .=1EW0RRRR0000000000000000000000000000000000000000000000000000000000000000000000000000000000000000000000000000RQK1..                                                                                                                      _lFU0Q0000000000R0000000000000000000000000000000000R0000RRQMkJx_                                                         
00000000000000000000000000000000000000000000000000000000Mk#v:.                                                             ^}yORQ000RR000000000000000000000000000000000000000000000000000000000000000000000000000000000000000000000000000000&*                                                                                                                          "ah8WRR0R000R00000000000000000000000000000000000R00000Q0$g1+`                                                          
000000000000000000000000000000000000000000000000R000000000DZn)'.                                                      .. _<LOB000000000000000000000000000000000000000000000000000000000000000000000000000000000000000000000000000000000000RNZl                                                                                                                           -<eVKR00RRRR0000000000000000000000000000000000000Q0QQ$Se<-                                                            
000000000000000000000000000000000000000000000000R00000000000Dgnv.                                                     _+lugB0Q00R0000RR0000000000000000000000000000000000000000000000000000000000000000000000000000000000000000000000000R0NKd%                                                                                                                             .=?FUMQ00QR00000RR0000000000000000000000QQQQQQQQMA6})_                                                              
00000000000000000000000000000000000000000000000000000000000RQQMZC}/``.                                            `__\]3PKWR0R0R000000000000000000000000000000000000000000000000000000000000000000000000000000000000000000000000000000RRRRRK2| .                                                                                                                              'ljSYKMQQQQ0000000000000000R00000000RRQR00$YS1<'                                                                 
000000000000000000000000000000000000000000000000000000000R0R0RQRN@4Lr"`       .                                . _\*wd$QRRRRRR0R0000000000000000000000000000000000000000000000000000000000000000000000000000000000000000000000000000000RRR0Kw+                                                                                                                                   :%twg&BM0QQQQQQ0000000000Q0QQQQQQMWHAgJ?\,                                                                    
000000000000000000000000000000000000000000000000000000000R0R00000QQW@gw[i=_ -.                               _/vo2G@W0Q0RR0R00R000000000000000000000000000000000000000000000000000000000000000000000000000000000000000000000000000000000RRQKT;                                                                                                                                      `;)]n54O$@BMR0QQQQQQQ00RMWDAgV3os<;`                                                                       
000000000000000000000000000000000000000000000000000000000000RR0R0R0QQ0W$YhJ[l<;_.                      .'=\lowdOB0QQ00R000RRRRRR00000000000000000000000000000000000000000000000000000000000000000000000000000000000000000000000000000000RRQ@z'                                                                                                                                          .-;\vlI17Twy2552ywT71Ir>='-.                                                                           
0000000000000000000000000000000000000000000000000000000000000000000000QQQQRDKYdF#e?r)\|=,'':;;;;+)ic{]jfmgA@BRQQQQQ000000000RR000000000000000000000000000000000000000000000000000000000000000000000000000000000000000000000000000000000000Q8t-                                                                                                                                                       .``.                                                                                      
00000000000000000000000000000000000000000000000000000000000000000000000Q000Q0QQ0MBK$$OZGPg44EEEXbkAUKDWRR00R0000Q000R0000000000000000000000000000000000000000000000000000000000000000000000000000000000000000000000000000000000000000000R0QOI.                                                                                                                                                                                                                                                 
0000000000000000000000000000000000000000000000000000000000000000000000000R00RR00000QQQQQQQQQQQQQQQQQ0Q0Q000000000000000R000000000000000000000000000000000000000000000000000000000000000000000000000000000000000000000000000000000000000000QYr                                                                                                                                                                                                                                                  
000000000000000000000000000000000000000000000000000000000000000000000000000000000000000Q00000000R0RR00R00000000000000000000000000000000000000000000000000000000000000000000000000000000000000000000000000000000000000000000000000000000R0RQg)                                                                                                                                                                                                                                                  
0000000000000000000000000000000000000000000000000000000000000000000000000000000000000000000000000000000000000000000000000000000000000000000000000000000000000000000000000000000000000000000000000000000000000000000000000000000000000000RRQh" .                                                                                                                                                                                                                                                
0000000000000000000000000000000000000000000000000000000000000000000000000000000000000000000000000000000000000000000000000000000000000000000000000000000000000000000000000000000000000000000000000000000000000000000000000000000000000000R0M2^                                                                                                                                                                                                                                                  
000000000000000000000000000000000000000000000000000000000000000000000000000000000000000000000000000000000000000000000000000000000000000000000000000000000000000000000000000000000000000000000000000000000000000000000000000000000000000RRQWw;                                                                                                                                                                                                                                                  
000000000000000000000000000000000000000000000000000000000000000000000000000000000000000000000000000000000000000000000000000000000000000000000000000000000000000000000000000000000000000000000000000000000000000000000000000000000000000RRQWw;                                                                                                                                                                                                                                                  
0000000000000000000000000000000000000000000000000000000000000000000000000000000000000000000000000000000000000000000000000000000000000000000000000000000000000000000000000000000000000000000000000000000000000000000000000000000000000000RQNw;                                                                                                                                                                                                                                                  
0000000000000000000000000000000000000000000000000000000000000000000000000000000000000000000000000000000000000000000000000000000000000000000000000000000000000000000000000000000000000000000000000000000000000000000000000000000000000000RQWw,                                                                                                                                                                                                                                                  
0000000000000000000000000000000000000000000000000000000000000000000000000000000000000000000000000000000000000000000000000000000000000000000000000000000000000000000000000000000000000000000000000000000000000000000000000000000000000000RQNy+.                                                                                                                                                                                                                                                 
0000000000000000000000000000000000000000000000000000000000000000000000000000000000000000000000000000000000000000000000000000000000000000000000000000000000000000000000000000000000000000000000000000000000000000000000000000000000000000R0W5\.                                                                                                                                                                                                                                                 
000000000000000000000000000000000000000000000000000000000000000000000000000000000000000000000000000000000000000000000000000000000000000000000000000000000000000000000000000000000000000000000000000000000000000000000000000000000000000RRQWF)..                                                                                                                                                                                                                                                
0000000000000000000000000000000000000000000000000000000000000000000000000000000000000000000000000000000000000000000000000000000000000000000000000000000000000000000000000000000000000000000000000000000000000000000000000000000000000000RQW5\..                                                                                                                                                                                                                                                
0000000000000000000000000000000000000000000000000000000000000000000000000000000000000000000000000000000000000000000000000000000000000000000000000000000000000000000000000000000000000000000000000000000000000000000000000000000000000000RQWF)..                                                                                                                                                                                                                                                
0000000000000000000000000000000000000000000000000000000000000000000000000000000000000000000000000000000000000000000000000000000000000000000000000000000000000000000000000000000000000000000000000000000000000000000000000000000000000000RQWF)..                                                                                                                                                                                                                                                
0000000000000000000000000000000000000000000000000000000000000000000000000000000000000000000000000000000000000000000000000000000000000000000000000000000000000000000000000000000000000000000000000000000000000000000000000000000000000000RQWF)..                                                                                                                                                                                                                                                
0000000000000000000000000000000000000000000000000000000000000000000000000000000000000000000000000000000000000000000000000000000000000000000000000000000000000000000000000000000000000000000000000000000000000000000000000000000000000000RQWF)..                                                                                                                                                                                                                                                
0000000000000000000000000000000000000000000000000000000000000000000000000000000000000000000000000000000000000000000000000000000000000000000000000000000000000000000000000000000000000000000000000000000000000000000000000000000000000000RQWF)`.                                                                                                                                                                                                                                                
0000000000000000000000000000000000000000000000000000000000000000000000000000000000000000000000000000000000000000000000000000000000000000000000000000000000000000000000000000000000000000000000000000000000000000000000000000000000000000RQWF)..                                                                                                                                                                                                                                                
0000000000000000000000000000000000000000000000000000000000000000000000000000000000000000000000000000000000000000000000000000000000000000000000000000000000000000000000000000000000000000000000000000000000000000000000000000000000000000RQWF\..                                                                                                                                                                                                                                                
0000000000000000000000000000000000000000000000000000000000000000000000000000000000000000000000000000000000000000000000000000000000000000000000000000000000000000000000000000000000000000000000000000000000000000000000000000000000000000RQW6>.                                                                                                                                                                                                                                                 
0000000000000000000000000000000000000000000000000000000000000000000000000000000000000000000000000000000000000000000000000000000000000000000000000000000000000000000000000000000000000000000000000000000000000000000000000000000000000000RQWmi                                                                                                                                                                                                                                                  
0000000000000000000000000000000000000000000000000000000000000000000000000000000000000000000000000000000000000000000000000000000000000000000000000000000000000000000000000000000000000000000000000000000000000000000000000000000000000000R0WSi                                                                                                                                                                                                                                                  
0000000000000000000000000000000000000000000000000000000000000000000000000000000000000000000000000000000000000000000000000000000000000000000000000000000000000000000000000000000000000000000000000000000000000000000000000000000000000000R0Wgv                                                                                                                                                                                                                                                  
00000000000000000000000000000000000000000000000000000000000000000000000000000000000000000000000000000000000000000000000000000000000000000000000000000000000000000000000000000000000000000000000000000000000000000000000000000000000000RRRRRG{.                                                                                                                                                                                                                                                 
00000000000000000000000000000000000000000000000000000000000000000000000000000000000000000000000000000000000000000000000000000000000000000000000000000000000000000000000000000000000000000000000000000000000000000000000000000000000000RRRRQkI`                                                                                                                                                                                                                                                 
00000000000000000000000000000000000000000000000000000000000000000000000000000000000000000000000000000000000000000000000000000000000000000000000000000000000000000000000000000000000000000000000000000000000000000000000000000000000000RRRRQk}.                                                                                                                                                                                                                                                 
00000000000000000000000000000000000000000000000000000000000000000000000000000000000000000000000000000000000000000000000000000000000000000000000000000000000000000000000000000000000000000000000000000000000000000000000000000000000000RRRRQA[_                                                                                                                                                                                                                                                 
000000000000000000000000000000000000000000000000000000000000000000000000000000000000000000000000000000000000000000000000000000000000000000000000000000000000000000000000000000000000000000000000000000000000000000000000000000000000000RRR0@L;                                                                                                                                                                                                                                                 
0000000000000000000000000000000000000000000000000000000000000000000000000000000000000000000000000000000000000000000000000000000000000000000000000000000000000000000000000000000000000000000000000000000000000000000000000000000000000000RMWUu^.                                                                                                                                                                                                                                                
00000000000000000000000000000000000000000000000000000000000000000000000000000000000000000000000000000000000000000000000000000000000000000000000000000000000000000000000000000000000000000000000000000000000000000000000000000000000000QQRWH&n^.                                                                                                                                                                                                                                                
00000000000000000000000000000000000000000000000000000000000000000000000000000000000000000000000000000000000000000000000000000000000000000000000000000000000000000000000000000000000000000000000000000000000000000000000000000000000000QQ0NH&n^                                                                                                                                                                                                                                                 
00000000000000000000000000000000000000000000000000000000000000000000000000000000000000000000000000000000000000000000000000000000000000000000000000000000000000000000000000000000000000000000000000000000000000000000000000000000000000QQQNH8T=                                                                                                                                                                                                                                                 
00000000000000000000000000000000000000000000000000000000000000000000000000000000000000000000000000000000000000000000000000000000000000000000000000000000000000000000000000000000000000000000000000000000000000000000000000000000000000Q00W@&3<                                                                                                                                                                                                                                                 
00000000000000000000000000000000000000000000000000000000000000000000000000000000000000000000000000000000000000000000000000000000000000000000000000000000000000000000000000000000000000000000000000000000000000000000000000000000000000QQ0B@&Fi                                                                                                                                                                                                                                                 
00000000000000000000000000000000000000000000000000000000000000000000000000000000000000000000000000000000000000000000000000000000000000000000000000000000000000000000000000000000000000000000000000000000000000000000000000000000000000QQ0WK&pi                                                                                                                                                                                                                                                 
00000000000000000000000000000000000000000000000000000000000000000000000000000000000000000000000000000000000000000000000000000000000000000000000000000000000000000000000000000000000000000000000000000000000000000000000000000000000000QQ0WK8mv                                                                                                                                                                                                                                                 
0000000000000000000000000000000000000000000000000000000000000000000000000000000000000000000000000000000000000000000000000000000000000000000000000000000000000000000000000000000000000000000000000000000000000000000000000000000000000000RB@8Sx.                                                                                                                                                                                                                                                
000000000000000000000000000000000000000000000000000000000000000000000000000000000000000000000000000000000000000000000000000000000000000000000000000000000000000000000000000000000000000000000000000000000000000000000000000000000000000RMWK$V*_                                                                                                                                                                                                                                                
00000000000000000000000000000000000000000000000000000000000000000000000000000000000000000000000000000000000000000000000000000000000000000000000000000000000000000000000000000000000000000000000000000000000000000000000000000000000000RRMNNK41,                                                                                                                                                                                                                                                
00000000000000000000000000000000000000000000000000000000000000000000000000000000000000000000000000000000000000000000000000000000000000000000000000000000000000000000000000000000000000000000000000000000000000000000000000000000000000RRRMRHgo^                                                                                                                                                                                                                                                
00000000000000000000000000000000000000000000000000000000000000000000000000000000000000000000000000000000000000000000000000000000000000000000000000000000000000000000000000000000000000000000000000000000000000000000000000000000000000RRRRRHGn+                                                                                                                                                                                                                                                
000000000000000000000000000000000000000000000000000000000000000000000000000000000000000000000000000000000000000000000000000000000000000000000000000000000000000000000000000000000000000000000000000000000000000000000000000000000000000RRR0Kbf|                                                                                                                                                                                                                                                
0000000000000000000000000000000000000000000000000000000000000000000000000000000000000000000000000000000000000000000000000000000000000000000000000000000000000000000000000000000000000000000000000000000000000000000000000000000000000000RR0HOp>                                                                                                                                                                                                                                                
000000000000000000000000000000000000000000000000000000000000000000000000000000000000000000000000000000000000000000000000000000000000000000000000000000000000000000000000000000000000000000000000000000000000000000000000000000000000000R0RRD8Ss_                                                                                                                                                                                                                                               
00000000000000000000000000000000000000000000000000000000000000000000000000000000000000000000000000000000000000000000000000000000000000000000000000000000000000000000000000000000000000000000000000000000000000000000000000000000000000000RRDU4?'                                                                                                                                                                                                                                               
00000000000000000000000000000000000000000000000000000000000000000000000000000000000000000000000000000000000000000000000000000000000000000000000000000000000000000000000000000000000000000000000000000000000000000000000000000000000000000RQBAG7'                                                                                                                                                                                                                                               
000000000000000000000000000000000000000000000000000000000000000000000000000000000000000000000000000000000000000000000000000000000000000000000000000000000000000000000000000000000000000000000000000000000000000000000000000000000000000R00RN@OT,                                                                                                                                                                                                                                               
0000000000000000000000000000000000000000000000000000000000000000000000000000000000000000000000000000000000000000000000000000000000000000000000000000000000000000000000000000000000000000000000000000000000000000000000000000000000000000000RKYn^                                                                                                                                                                                                                                               
0000000000000000000000000000000000000000000000000000000000000000000000000000000000000000000000000000000000000000000000000000000000000000000000000000000000000000000000000000000000000000000000000000000000000000000000000000000000000000000MH8m>                                                                                                                                                                                                                                               
0000000000000000000000000000000000000000000000000000000000000000000000000000000000000000000000000000000000000000000000000000000000000000000000000000000000000000000000000000000000000000000000000000000000000000000000000000000000000000000RNU4r                                                                                                                                                                                                                                               
000000000000000000000000000000000000000000000000000000000000000000000000000000000000000000000000000000000000000000000000000000000000000000000000000000000000000000000000000000000000000000000000000000000000000000000000000000000000000000R00KZ?                                                                                                                                                                                                                                               
000000000000000000000000000000000000000000000000000000000000000000000000000000000000000000000000000000000000000000000000000000000000000000000000000000000000000000000000000000000000000000000000000000000000000000000000000000000000000000RRRW@L`                                                                                                                                                                                                                                              
00000000000000000000000000000000000000000000000000000000000000000000000000000000000000000000000000000000000000000000000000000000000000000000000000000000000000000000000000000000000000000000000000000000000000000000000000000000000000000RRRNB$m> .                                                                                                                                                                                                                                            
00000000000000000000000000000000000000000000000000000000000000000000000000000000000000000000000000000000000000000000000000000000000000000000000000000000000000000000000000000000000000000000000000000000000000000000000000000000000000000RRRNB$hx                                                                                                                                                                                                                                              
000000000000000000000000000000000000000000000000000000000000000000000000000000000000000000000000000000000000000000000000000000000000000000000000000000000000000000000000000000000000000000000000000000000000000000000000000000000000000000RRMW$G1-                                                                                                                                                                                                                                             
00000000000000000000000000000000000000000000000000000000000000000000000000000000000000000000000000000000000000000000000000000000000000000000000000000000000000000000000000000000000000000000000000000000000000000000000000000000000000000000RN@YL:                                                                                                                                                                                                                                             
0000000000000000000000000000000000000000000000000000000000000000000000000000000000000000000000000000000000000000000000000000000000000000000000000000000000000000000000000000000000000000000000000000000000000000000000000000000000000000RR00RMKU6|                                                                                                                                                                                                                                             
000000000000000000000000000000000000000000000000000000000000000000000000000000000000000000000000000000000000000000000000000000000000000000000000000000000000000000000000000000000000000000000000000000000000000000000000000000000000000000RR00BDV<                                                                                                                                                                                                                                             
000000000000000000000000000000000000000000000000000000000000000000000000000000000000000000000000000000000000000000000000000000000000000000000000000000000000000000000000000000000000000000000000000000000000000000000000000000000000000000RR0QMNEv .                                                                                                                                                                                                                                           
00000000000000000000000000000000000000000000000000000000000000000000000000000000000000000000000000000000000000000000000000000000000000000000000000000000000000000000000000000000000000000000000000000000000000000000000000000000000000000R0R00MBkL=.                                                                                                                                                                                                                                           
0000000000000000000000000000000000000000000000000000000000000000000000000000000000000000000000000000000000000000000000000000000000000000000000000000000000000000000000000000000000000000000000000000000000000000000000000000000000000000R0000RMD@S)                                                                                                                                                                                                                                            
0000000000000000000000000000000000000000000000000000000000000000000000000000000000000000000000000000000000000000000000000000000000000000000000000000000000000000000000000000000000000000000000000000000000000000000000000000000000000000000RR0RWHP]_                                                                                                                                                                                                                                           
00000000000000000000000000000000000000000000000000000000000000000000000000000000000000000000000000000000000000000000000000000000000000000000000000000000000000000000000000000000000000000000000000000000000000000000000000000000000000000000R00MDYo^.                                                                                                                                                                                                                                          