00000000000000000000000000000000000000000000000000000000000000000000000000000000000000000000000000000000QRRRRG<                                                                                                                                                                                                                                                                                                                                                                                
00000000000000000000000000000000000000000000000000000000000000000000000000000000000000000000000000000000000QK]                                                                                                                                                                                                                                                                                                                                                                                 
0000000000000000000000000000000000000000000000000000000000000000000000000000000000000000000000000000000000QNp-.                                                                                                                                                                                                                                                                                                                                                                                
00000000000000000000000000000000000000000000000000000000000000000000000000000000000000000000000000000000R00P)                                                                                                                                                                                                                                                                                                                                                                                  
0000000000000000000000000000000000000000000000000000000000000000000000000000000000000000000000000000000R0QDj. .                                                                                                                                                                                                                                                                                                                                                                                
0000000000000000000000000000000000000000000000000000000000000000000000000000000000000000000000000000000RQMq^                                                                                                                                                                                                                                                                                                                                                                                   
00000000000000000000000000000000000000000000000000000000000000000000000000000000000000000000000000000000Rb%                                                                                                                                                                                                                                                                                                                                                                                    
00000000000000000000000000000000000000000000000000000000000000000000000000000000000000000000000000000R0QN#`                                                                                                                                                                                                                                                                                                                                                                                    
000000000000000000000000000000000000000000000000000000000000000000000000000000000000000000000000R0R0R0QRd=                                                                                                                                                                                                                                                                                                                                                                                     
000000000000000000000000000000000000000000000000000000000000000000000000000000000000000000000000000R00Q@?                                                                                                                                                                                                                                                                                                                                                                                      
0000000000000000000000000000000000000000000000000000000000000000000000000000000000000000000000000R0000M6_                                                                                                                                                                                                                                                                                                                                                                                      
0000000000000000000000000000000000000000000000000000000000000000000000000000000000000000000000000Q00Q0bc                                                                                                                                                                                                                                                                                                                                                                                       
000000000000000000000000000000000000000000000000000000000000000000000000000000000000000000000000R00QQBz`                                                                                                                                                                                                                                                                                                                                                                                       
00000000000000000000000000000000000000000000000000000000000000000000000000000000000000000000000000000P|                                                                                                                                                                                                                                                                                                                                                                                        
0000000000000000000000000000000000000000000000000000000000000000000000000000000000000000000000000R0QH[                                                                                                                                                                                                                                                                                                                                                                                         
000000000000000000000000000000000000000000000000000000000000000000000000000000000000000000000000000Mp:                                                                                                                                                                                                                                                                                                                                                                                         
0000000000000000000000000000000000000000000000000000000000000000000000000000000000000000000000000Q0kl                                                                                                                                                                                                                                                                                                                                                                                          
00000000000000000000000000000000000000000000000000000000000000000000000000000000000000000000000000DJ-                                                                                                                                                                                                                                                                                                                                                                                          
000000000000000000000000000000000000000000000000000000000000000000000000000000000000000000000000QRg<                                                                                                                                                                                                                                                                                                                                                                                           
000000000000000000000000000000000000000000000000000000000000000000000000000000000000000000000000QK7                                                                                                                                                                                                                                                                                                                                                                                            
000000000000000000000000000000000000000000000000000000000000000000000000000000000000000000000000RE"                                                                                                                                                                                                                                                                                                                                                                                            
000000000000000000000000000000000000000000000000000000000000000000000000000000000000000000000R00Do.                                                                                                                                                                                                                                                                                                                                                                                            
0000000000000000000000000000000000000000000000000000000000000000000000000000000000000000000R000Mm=                                                                                                                                                                                                                                                                                                                                                                                             
0000000000000000000000000000000000000000000000000000000000000000000000000000000000000000R0R0RQ0$}                                                                                                                                                                                                                                                                                                                                                                                              
0000000000000000000000000000000000000000000000000000000000000000000000000000000000000000R0000QRg,                                                                                                                                                                                                                                                                                                                                                                                              
0000000000000000000000000000000000000000000000000000000000000000000000000000000000000000000R0Q$I                                                                                                                                                                                                                                                                                                                                                                                               
00000000000000000000000000000000000000000000000000000000000000000000000000000000000000000000QNF:                                                                                                                                                                                                                                                                                                                                                                                               
0000000000000000000000000000000000000000000000000000000000000000000000000000000000000000000Q0Yl                                                                                                                                                                                                                                                                                                                                                                                                
0000000000000000000000000000000000000000000000000000000000000000000000000000000000000000000QMF..                                                                                                                                                                                                                                                                                                                                                                                               
00000000000000000000000000000000000000000000000000000000000000000000000000000000000000000Q00&}                                                                                                                                                                                                                                                                                                                                                                                                 
000000000000000000000000000000000000000000000000000000000000000000000000000000000000000000QR6-.                                                                                                                                                                                                                                                                                                                                                                                                
000000000000000000000000000000000000000000000000000000000000000000000000000000000000000000Mbs .                                                                                                                                                                                                                                                                                                                                                                                                
00000000000000000000000000000000000000000000000000000000000000000000000000000000000000000QNy:                                                                                                                                                                                                                                                                                                                                                                                                  
000000000000000000000000000000000000000000000000000000000000000000000000000000000000000000${                                                                                                                                                                                                                                                                                                                                                                                                   
0000000000000000000000000000000000000000000000000000000000000000000000000000000000000000QNF,                                                                                                                                                                                                                                                                                                                                                                                                   
0000000000000000000000000000000000000000000000000000000000000000000000000000000000000000QK{                                                                                                                                                                                                                                                                                                                                                                                                    
000000000000000000000000000000000000000000000000000000000000000000000000000000000R0000000Z=                                                                                                                                                                                                                                                                                                                                                                                                    
00000000000000000000000000000000000000000000000000000000000000000000000000000000000000RMDo                                                                                                                                                                                                                                                                                                                                                                                                     
000000000000000000000000000000000000000000000000000000000000000000000000000000000000RQRW4/                                                                                                                                                                                                                                                                                                                                                                                                     
000000000000000000000000000000000000000000000000000000000000000000000000000000000000R00BL                                                                                                                                                                                                                                                                                                                                                                                                      
0000000000000000000000000000000000000000000000000000000000000000000000000000000000R00RN8s                                                                                                                                                                                                                                                                                                                                                                                                      
000000000000000000000000000000000000000000000000000000000000000000000000000000000R000QBp:                                                                                                                                                                                                                                                                                                                                                                                                      
0000000000000000000000000000000000000000000000000000000000000000000000000000000000RQQ08*                                                                                                                                                                                                                                                                                                                                                                                                       
000000000000000000000000000000000000000000000000000000000000000000000000000000000R000R4=  .                                                                                                                                                                                                                                                                                                                                                                                                    
000000000000000000000000000000000000000000000000000000000000000000000000000000000R000B7` .                                                                                                                                                                                                                                                                                                                                                                                                     
00000000000000000000000000000000000000000000000000000000000000000000000000000000000RRX<                                                                                                                                                                                                                                                                                                                                                                                                        
000000000000000000000000000000000000000000000000000000000000000000000000000000000000WC_                                                                                                                                                                                                                                                                                                                                                                                                        
000000000000000000000000000000000000000000000000000000000000000000000000000000000000Ka                                                                                                                                                                                                                                                                                                                                                                                                         
00000000000000000000000000000000000000000000000000000000000000000000000000000000000RE|                                                                                                                                                                                                                                                                                                                                                                                                         
000000000000000000000000000000000000000000000000000000000000000000000000000000000QQBj  .                                                                                                                                                                                                                                                                                                                                                                                                       
000000000000000000000000000000000000000000000000000000000000000000000000000000000RQ8*                                                                                                                                                                                                                                                                                                                                                                                                          
0000000000000000000000000000000000000000000000000000000000000000000000000000000000WPi                                                                                                                                                                                                                                                                                                                                                                                                          
0000000000000000000000000000000000000000000000000000000000000000000000000000000000WJ` .                                                                                                                                                                                                                                                                                                                                                                                                        
00000000000000000000000000000000000000000000000000000000000000000000000000000000R0UI .                                                                                                                                                                                                                                                                                                                                                                                                         
0000000000000000000000000000000000000000000000000000000000000000000000000000000000Zi  .                                                                                                                                                                                                                                                                                                                                                                                                        
00000000000000000000000000000000000000000000000000000000000000000000000000000000QBy;                                                                                                                                                                                                                                                                                                                                                                                                           
00000000000000000000000000000000000000000000000000000000000000000000000000000000QD]                                                                                                                                                                                                                                                                                                                                                                                                            
00000000000000000000000000000000000000000000000000000000000000000000000000000000Rb%                                                                                                                                                                                                                                                                                                                                                                                                            
0000000000000000000000000000000000000000000000000000000000000000000000000000000QMm'                                                                                                                                                                                                                                                                                                                                                                                                            
0000000000000000000000000000000000000000000000000000000000000000000000000000000QWj                                                                                                                                                                                                                                                                                                                                                                                                             
0000000000000000000000000000000000000000000000000000000000000000000000000000000Q$i                                                                                                                                                                                                                                                                                                                                                                                                             
000000000000000000000000000000000000000000000000000000000000000000000000000000QRX"                                                                                                                                                                                                                                                                                                                                                                                                             
0000000000000000000000000000000000000000000000000000000000000000000000000000000Ny: .                                                                                                                                                                                                                                                                                                                                                                                                           
00000000000000000000000000000000000000000000000000000000000000000000000000R00RQBa  .                                                                                                                                                                                                                                                                                                                                                                                                           
000000000000000000000000000000000000000000000000000000000000000000000000R0R0000&c                                                                                                                                                                                                                                                                                                                                                                                                              
0000000000000000000000000000000000000000000000000000000000000000000000000000RQRbv                                                                                                                                                                                                                                                                                                                                                                                                              
00000000000000000000000000000000000000000000000000000000000000000000000000R00QRV,                                                                                                                                                                                                                                                                                                                                                                                                              
000000000000000000000000000000000000000000000000000000000000000000000000000000Nw                                                                                                                                                                                                                                                                                                                                                                                                               
0000000000000000000000000000000000000000000000000000000000000000000000000R00R0D1                                                                                                                                                                                                                                                                                                                                                                                                               
000000000000000000000000000000000000000000000000000000000000000000000000R0RR00&l                                                                                                                                                                                                                                                                                                                                                                                                               
0000000000000000000000000000000000000000000000000000000000000000000000000RRR00P^                                                                                                                                                                                                                                                                                                                                                                                                               
0000000000000000000000000000000000000000000000000000000000000000000000000R00RMF.                                                                                                                                                                                                                                                                                                                                                                                                               
0000000000000000000000000000000000000000000000000000000000000000000000000R00RWw                                                                                                                                                                                                                                                                                                                                                                                                                
0000000000000000000000000000000000000000000000000000000000000000000000000000RWn                                                                                                                                                                                                                                                                                                                                                                                                                
0000000000000000000000000000000000000000000000000000000000000000000000000R00Q$s                                                                                                                                                                                                                                                                                                                                                                                                                
000000000000000000000000000000000000000000000000000000000000000000000000000Q0Z"                                                                                                                                                                                                                                                                                                                                                                                                                
0000000000000000000000000000000000000000000000000000000000000000000000000000QU\                                                                                                                                                                                                                                                                                                                                                                                                                
00000000000000000000000000000000000000000000000000000000000000000000000000R0RE'                                                                                                                                                                                                                                                                                                                                                                                                                
0000000000000000000000000000000000000000000000000000000000000000000000000RRQWn.                                                                                                                                                                                                                                                                                                                                                                                                                
0000000000000000000000000000000000000000000000000000000000000000000000000000Wz                                                                                                                                                                                                                                                                                                                                                                                                                 
0000000000000000000000000000000000000000000000000000000000000000000000000R0QWj                                                                                                                                                                                                                                                                                                                                                                                                                 
0000000000000000000000000000000000000000000000000000000000000000000000000000H[                                                                                                                                                                                                                                                                                                                                                                                                                 
000000000000000000000000000000000000000000000000000000000000000000000000000Mkc                                                                                                                                                                                                                                                                                                                                                                                                                 
0000000000000000000000000000000000000000000000000000000000000000000000000R0RY<                                                                                                                                                                                                                                                                                                                                                                                                                 
0000000000000000000000000000000000000000000000000000000000000000000000000R0RP^                                                                                                                                                                                                                                                                                                                                                                                                                 
00000000000000000000000000000000000000000000000000000000000000000000000000QMF`                                                                                                                                                                                                                                                                                                                                                                                                                 
0000000000000000000000000000000000000000000000000000000000000000000000000QQWu                                                                                                                                                                                                                                                                                                                                                                                                                  
0000000000000000000000000000000000000000000000000000000000000000000000000QQWz;                                                                                                                                                                                                                                                                                                                                                                                                                 
0000000000000000000000000000000000000000000000000000000000000000000000000QQWj^                                                                                                                                                                                                                                                                                                                                                                                                                 
0000000000000000000000000000000000000000000000000000000000000000000000000QQWj^                                                                                                                                                                                                                                                                                                                                                                                                                 
0000000000000000000000000000000000000000000000000000000000000000000000000QQWj^                                                                                                                                                                                                                                                                                                                                                                                                                 
00000000000000000000000000000000000000000000000000000000000000000000000000QWj^                                                                                                                                                                                                                                                                                                                                                                                                                 
00000000000000000000000000000000000000000000000000000000000000000000000000QWz^                                                                                                                                                                                                                                                                                                                                                                                                                 
00000000000000000000000000000000000000000000000000000000000000000000000000QWz^                                                                                                                                                                                                                                                                                                                                                                                                                 
00000000000000000000000000000000000000000000000000000000000000000000000000QB7;                                                                                                                                                                                                                                                                                                                                                                                                                 
00000000000000000000000000000000000000000000000000000000000000000000000000QBo,                                                                                                                                                                                                                                                                                                                                                                                                                 
00000000000000000000000000000000000000000000000000000000000000000000000000QBo,                                                                                                                                                                                                                                                                                                                                                                                                                 
00000000000000000000000000000000000000000000000000000000000000000000000000QBo,                                                                                                                                                                                                                                                                                                                                                                                                                 
00000000000000000000000000000000000000000000000000000000000000000000000000QBo,                                                                                                                                                                                                                                                                                                                                                                                                                 
000000000000000000000000000000000000000000000000000000000000000000000000Q0QBo,                                                                                                                                                                                                                                                                                                                                                                                                                 
000000000000000000000000000000000000000000000000000000000000000000000000Q0QBo:                                                                                                                                                                                                                                                                                                                                                                                                                 
00000000000000000000000000000000000000000000000000000000000000000000000000QBo,                                                                                                                                                                                                                                                                                                                                                                                                                 
000000000000000000000000000000000000000000000000000000000000000000000000000Bo;                                                                                                                                                                                                                                                                                                                                                                                                                 
00000000000000000000000000000000000000000000000000000000000000000000000000QBo,                                                                                                                                                                                                                                                                                                                                                                                                                 
00000000000000000000000000000000000000000000000000000000000000000000000000QBe,                                                                                                                                                                                                                                                                                                                                                                                                                 
00000000000000000000000000000000000000000000000000000000000000000000000000QW7:                                                                                                                                                                                                                                                                                                                                                                                                                 
0000000000000000000000000000000000000000000000000000000000000000000000000QQNp,                                                                                                                                                                                                                                                                                                                                                                                                                 
00000000000000000000000000000000000000000000000000000000000000000000000000QRg"                                                                                                                                                                                                                                                                                                                                                                                                                 
000000000000000000000000000000000000000000000000000000000000000000000000000RZi                                                                                                                                                                                                                                                                                                                                                                                                                 
00000000000000000000000000000000000000000000000000000000000000RR0000000000RMU]                                                                                                                                                                                                                                                                                                                                                                                                                 
000000000000000000000000000000000000000000000000000000000000000000000000RRRMD[                                                                                                                                                                                                                                                                                                                                                                                                                 
000000000000000000000000000000000000000000000000000000000000000000000000R0RRWt                                                                                                                                                                                                                                                                                                                                                                                                                 
00000000000000000000000000000000000000000000000000000000000000000000000000RRMy                                                                                                                                                                                                                                                                                                                                                                                                                 
000000000000000000000000000000000000000000000000000000000000000000000000000RMm`                                                                                                                                                                                                                                                                                                                                                                                                                
000000000000000000000000000000000000000000000000000000000000000000000000000RR4^                                                                                                                                                                                                                                                                                                                                                                                                                
000000000000000000000000000000000000000000000000000000000000000000000000000RRP|                                                                                                                                                                                                                                                                                                                                                                                                                
000000000000000000000000000000000000000000000000000000000000000000000000R00R0Ac                                                                                                                                                                                                                                                                                                                                                                                                                
00000000000000000000000000000000000000000000000000000000000000000000000000RR0K[                                                                                                                                                                                                                                                                                                                                                                                                                
00000000000000000000000000000000000000000000000000000000000000000000000000RRQW#                                                                                                                                                                                                                                                                                                                                                                                                                
0000000000000000000000000000000000000000000000000000000000000000000000000000QMS-                                                                                                                                                                                                                                                                                                                                                                                                               
00000000000000000000000000000000000000000000000000000000000000000000000000R00Rg=                                                                                                                                                                                                                                                                                                                                                                                                               
000000000000000000000000000000000000000000000000000000000000000000000000000000A%                                                                                                                                                                                                                                                                                                                                                                                                               
000000000000000000000000000000000000000000000000000000000000000000000000R00R00D[                                                                                                                                                                                                                                                                                                                                                                                                               
R0Q0000000000000000000000000000000000000000000000000000000000000000000000R0R0RBT  `                                                                                                                                                                                                                                                                                                                                                                                                            
@M0QRRQR0000000000000000000000000000000000000000000000000000000000000000000RR0NF- `                                                                                                                                                                                                                                                                                                                                                                                                            
d8RR00000000000000000000000000000000000000000000000000000000000000000000R00R0QRg| .                                                                                                                                                                                                                                                                                                                                                                                                            
wXKRRR0000000000000000000000000000000000000000000000000000000000000000000000000&{                                                                                                                                                                                                                                                                                                                                                                                                              
7mkWR00000000000000000000000000000000000000000000000000000000000000000000000RRQBL                                                                                                                                                                                                                                                                                                                                                                                                              
)zhAQQ0000000000000000000000000000000000000000000000000000000000000000000000RRQMS;                                                                                                                                                                                                                                                                                                                                                                                                             
`vu4HR00000000000000000000000000000000000000000000000000000000000000000000R0RRQRX)                                                                                                                                                                                                                                                                                                                                                                                                             
 :{FGHRR000000000000000000000000000000000000000000000000000000000000000000000R00U1                                                                                                                                                                                                                                                                                                                                                                                                             
  ^tSkBQ000000000000000000000000000000000000000000000000000000000000000000000000Nf-                                                                                                                                                                                                                                                                                                                                                                                                            
   /jV8R000000000000000000000000000000000000000000000000000000000000000000000000Mg^                                                                                                                                                                                                                                                                                                                                                                                                            
    >jdU0000000000000000000000000000000000000000000000000000000000000000000000000&c                                                                                                                                                                                                                                                                                                                                                                                                            
    :{3ZNQR0000000000000000000000000000000000000000000000000000000000000000000000Bu.                                                                                                                                                                                                                                                                                                                                                                                                           
     =]mAWRQ000000000000000000000000000000000000000000000000000000000000000000000Mq=                                                                                                                                                                                                                                                                                                                                                                                                           
     .)t6kB000000000000000000000000000000000000000000000000000000000000000000000R0&%                                                                                                                                                                                                                                                                                                                                                                                                           
     .;l#E@R0R000000000000000000000000000000000000000000000000000000000000000000R0Kz  .                                                                                                                                                                                                                                                                                                                                                                                                        
       _lfPKMRQR00000000000000000000000000000000000000000000000000000000000000000RBS: .                                                                                                                                                                                                                                                                                                                                                                                                       ^
        ,IFbH00000000000000000000000000000000000000000000000000000000000000000000RRUv .                                                                                                                                                                                                                                                                                                                                                                                                     `=?
         ;1SOM000000000000000000000000000000000000000000000000000000000000000000R0RW7.                                                                                                                                                                                                                                                                                                                                                                                                     ')tw
          +amAR0R0R0000000000000000000000000000000000000000000000000000000000000R00R4^                                                                                                                                                                                                                                                                                                                                                                                                    _v7Fk
           "eh$R0R000R00000000000000000000000000000000000000000000000000000000000RRM$? `                                                                                                                                                                                                                                                                                                                                                                                                 ,cj6kW
           `>jh&0RQRR00R0000000000000000000000000000000000000000000000000000000000RRNy- .                                                                                                                                                                                                                                                                                                                                                                                              .^ru6YBR
           .={wPD000RR0R000000000000000000000000000000000000000000000000000000000R0RMP>                                                                                                                                                                                                                                                                                                                                                                                               .+*uqOWR0
             :}5P@00R0R00000000000000000000000000000000000000000000000000000000000000Dz                                                                                                                                                                                                                                                                                                                                                                                              .=}TSAWRR0
              =[3GB0RRR00000000000000000000000000000000000000000000000000000000000Q0Q0E`                                                                                                                                                                                                                                                                                                                                                                                           . ^*uS&BMRR0
             .."]pkD000000000000000000000000000000000000000000000000000000000000000000&)                                                                                                                                                                                                                                                                                                                                                                                            =szmOBMR000
             . `=[6bRQ00000000000000000000000000000000000000000000000000000000000R0000W3_                                                                                                                                                                                                                                                                                                                                                                                          ^*uFYWMR0000
                 "ag8MM000000000000000000000000000000000000000000000000000000000000R00RYv                                                                                                                                                                                                                                                                                                                                                                                         :lj2XKR00QR00
                 .<ugOBR00000000000000000000000000000000000000000000000000000000000000RK7-                                                                                                                                                                                                                                                                                                                                                                                       :%o3PBQ0R00R00
                  `vLdU00000000000000000000000000000000000000000000000000000000000R00RQR4/                                                                                                                                                                                                                                                                                                                                                                                      _i1yGKR0R000000
                   ."ud$M0R00000000000000000000000000000000000000000000000000000000000QQ@o .                                                                                                                                                                                                                                                                                                                                                                                    \1J4@N000000000
                     )zh$00000R0000000000000000000000000000000000000000000000000000000QQRV:                                                                                                                                                                                                                                                                                                                                                                                    ={7pYR0R00000000
                     `iTg$R0R0000000000000000000000000000000000000000000000000000000000Q08?                                                                                                                                                                                                                                                                                                                                                                                   `sz5ZD00000000000
                      _iu48M0R000000000000000000000000000000000000000000000000000000000QQRm_                                                                                                                                                                                                                                                                                                                                                                                 .\afXKR00000000000
                        )zqORQ00000000000000000000000000000000000000000000000000000000000Q@1 `                                                                                                                                                                                                                                                                                                                                                                              .|?LqkNQ000Q0000000
                        '<egAWR000000000000000000000000000000000000000000000000000000000Q0MS_                                                                                                                                                                                                                                                                                                                                                                              ./*u6OB0Q00000000000
                         `)j2ZW0000000000000000000000000000000000000000000000000000000000QROl                                                                                                                                                                                                                                                                                                                                                                              :{LFPHM0000000000000
                         .'>z6OWR0R00R000000000000000000000000000000000000000000000000000RQMS:                                                                                                                                                                                                                                                                                                                                                                            `/IuqAW000R0R00000000
                           .i7FbBQR0RR000000000000000000000000000000000000000000000000000RQQ$1                                                                                                                                                                                                                                                                                                                                                                            =sj5bWQ0R0R0000000000
                            `)e5YD0R00R00000000000000000000000000000000000000000000000000000Mm'                                                                                                                                                                                                                                                                                                                                                                          ^{jFGD00RR000000000000
                            ._ie2ZD0R00R000000000000000000000000000000000000000000000000000008I                                                                                                                                                                                                                                                                                                                                                                          "!#gYW000000R000000000