00000000000000000000000000000000000000000000000000000000000000000000000000000000000000000000000000000000R0RP<                                                                                                                                                                                                                                                                                                                                                                                  
00000000000000000000000000000000000000000000000000000000000000000000000000000000000000000000000000000000RQBf,                                                                                                                                                                                                                                                                                                                                                                                  
000000000000000000000000000000000000000000000000000000000000000000000000000000000000000000000000000000000RE|                                                                                                                                                                                                                                                                                                                                                                                   
0000000000000000000000000000000000000000000000000000000000000000000000000000000000000000000000000000000QQKo .                                                                                                                                                                                                                                                                                                                                                                                  
0000000000000000000000000000000000000000000000000000000000000000000000000000000000000000000000000000000QRbx                                                                                                                                                                                                                                                                                                                                                                                    
0000000000000000000000000000000000000000000000000000000000000000000000000000000000000000000000000000000QWf' .                                                                                                                                                                                                                                                                                                                                                                                  
000000000000000000000000000000000000000000000000000000000000000000000000000000000000000000000000000000QRE\                                                                                                                                                                                                                                                                                                                                                                                     
000000000000000000000000000000000000000000000000000000000000000000000000000000000000000000000000000000QW#`                                                                                                                                                                                                                                                                                                                                                                                     
000000000000000000000000000000000000000000000000000000000000000000000000000000000000000000000000R0R0000Ax                                                                                                                                                                                                                                                                                                                                                                                      
000000000000000000000000000000000000000000000000000000000000000000000000000000000000000000000000000R0QW3_                                                                                                                                                                                                                                                                                                                                                                                      
0000000000000000000000000000000000000000000000000000000000000000000000000000000000000000000000000R0000Yr                                                                                                                                                                                                                                                                                                                                                                                       
00000000000000000000000000000000000000000000000000000000000000000000000000000000000000000000000000000Rd|                                                                                                                                                                                                                                                                                                                                                                                       
0000000000000000000000000000000000000000000000000000000000000000000000000000000000000000000000000R00Q@t                                                                                                                                                                                                                                                                                                                                                                                        
000000000000000000000000000000000000000000000000000000000000000000000000000000000000000000000000R000Rg=                                                                                                                                                                                                                                                                                                                                                                                        
00000000000000000000000000000000000000000000000000000000000000000000000000000000000000000000000000R0B7                                                                                                                                                                                                                                                                                                                                                                                         
0000000000000000000000000000000000000000000000000000000000000000000000000000000000000000000000000000kv                                                                                                                                                                                                                                                                                                                                                                                         
0000000000000000000000000000000000000000000000000000000000000000000000000000000000000000000000000R0M2`  .                                                                                                                                                                                                                                                                                                                                                                                      
0000000000000000000000000000000000000000000000000000000000000000000000000000000000000000000000RRR00Kt  .                                                                                                                                                                                                                                                                                                                                                                                       
0000000000000000000000000000000000000000000000000000000000000000000000000000000000000000000000RRRQRE\  .                                                                                                                                                                                                                                                                                                                                                                                       
0000000000000000000000000000000000000000000000000000000000000000000000000000000000000000000000RR00W#`                                                                                                                                                                                                                                                                                                                                                                                          
00000000000000000000000000000000000000000000000000000000000000000000000000000000000000000000000R00Ax                                                                                                                                                                                                                                                                                                                                                                                           
0000000000000000000000000000000000000000000000000000000000000000000000000000000000000000000000000Mg)                                                                                                                                                                                                                                                                                                                                                                                           
000000000000000000000000000000000000000000000000000000000000000000000000000000000000000000000000QBz.                                                                                                                                                                                                                                                                                                                                                                                           
000000000000000000000000000000000000000000000000000000000000000000000000000000000000000000000000RE\ .                                                                                                                                                                                                                                                                                                                                                                                          
000000000000000000000000000000000000000000000000000000000000000000000000000000000000000000000000WC`                                                                                                                                                                                                                                                                                                                                                                                            
00000000000000000000000000000000000000000000000000000000000000000000000000000000000000000000000QW#- .                                                                                                                                                                                                                                                                                                                                                                                          
00000000000000000000000000000000000000000000000000000000000000000000000000000000000000000000000Q$v                                                                                                                                                                                                                                                                                                                                                                                             
0000000000000000000000000000000000000000000000000000000000000000000000000000000000000000000000QRg,                                                                                                                                                                                                                                                                                                                                                                                             
0000000000000000000000000000000000000000000000000000000000000000000000000000000000000000000000QBo                                                                                                                                                                                                                                                                                                                                                                                              
0000000000000000000000000000000000000000000000000000000000000000000000000000000000000000R0R00R0U?                                                                                                                                                                                                                                                                                                                                                                                              
0000000000000000000000000000000000000000000000000000000000000000000000000000000000000000RR0000Rd^                                                                                                                                                                                                                                                                                                                                                                                              
00000000000000000000000000000000000000000000000000000000000000000000000000000000000000000R00RQDj`                                                                                                                                                                                                                                                                                                                                                                                              
0000000000000000000000000000000000000000000000000000000000000000000000000000000000000000R000MMDe                                                                                                                                                                                                                                                                                                                                                                                               
000000000000000000000000000000000000000000000000000000000000000000000000000000000000000000RQ0NY%                                                                                                                                                                                                                                                                                                                                                                                               
0000000000000000000000000000000000000000000000000000000000000000000000000000000000000000R000QDw-                                                                                                                                                                                                                                                                                                                                                                                               
00000000000000000000000000000000000000000000000000000000000000000000000000000000000000000R00RH]                                                                                                                                                                                                                                                                                                                                                                                                
00000000000000000000000000000000000000000000000000000000000000000000000000000000000000000000R&i                                                                                                                                                                                                                                                                                                                                                                                                
00000000000000000000000000000000000000000000000000000000000000000000000000000000000000000000RX:                                                                                                                                                                                                                                                                                                                                                                                                
00000000000000000000000000000000000000000000000000000000000000000000000000000000000000000000B5.                                                                                                                                                                                                                                                                                                                                                                                                
00000000000000000000000000000000000000000000000000000000000000000000000000000000000000000Q0QBo                                                                                                                                                                                                                                                                                                                                                                                                 
000000000000000000000000000000000000000000000000000000000000000000000000000000000000000000QQ@{                                                                                                                                                                                                                                                                                                                                                                                                 
0000000000000000000000000000000000000000000000000000000000000000000000000000000000000000000Rk/ .                                                                                                                                                                                                                                                                                                                                                                                               
0000000000000000000000000000000000000000000000000000000000000000000000000000000000000000000Hm^                                                                                                                                                                                                                                                                                                                                                                                                 
0000000000000000000000000000000000000000000000000000000000000000000000000000000000000000000Wf: .                                                                                                                                                                                                                                                                                                                                                                                               
00000000000000000000000000000000000000000000000000000000000000000000000000000000000000000R0K]-                                                                                                                                                                                                                                                                                                                                                                                                 
0000000000000000000000000000000000000000000000000000000000000000000000000000000000000000R0RP) .                                                                                                                                                                                                                                                                                                                                                                                                
0000000000000000000000000000000000000000000000000000000000000000000000000000000000000000RRRGv .                                                                                                                                                                                                                                                                                                                                                                                                
000000000000000000000000000000000000000000000000000000000000000000000000000000000000000000MX> .                                                                                                                                                                                                                                                                                                                                                                                                
00000000000000000000000000000000000000000000000000000000000000000000000000000000000000000QBu_                                                                                                                                                                                                                                                                                                                                                                                                  
00000000000000000000000000000000000000000000000000000000000000000000000000000000000000000QB[                                                                                                                                                                                                                                                                                                                                                                                                   
000000000000000000000000000000000000000000000000000000000000000000000000000000000000000000@[  .                                                                                                                                                                                                                                                                                                                                                                                                
00000000000000000000000000000000000000000000000000000000000000000000000000000000000000000M4|                                                                                                                                                                                                                                                                                                                                                                                                   
00000000000000000000000000000000000000000000000000000000000000000000000000000000000000000Mm/                                                                                                                                                                                                                                                                                                                                                                                                   
0000000000000000000000000000000000000000000000000000000000000000000000000000000000000000QWF^                                                                                                                                                                                                                                                                                                                                                                                                   
00000000000000000000000000000000000000000000000000000000000000000000000000000000000000QQQNq,                                                                                                                                                                                                                                                                                                                                                                                                   
00000000000000000000000000000000000000000000000000000000000000000000000000000000000000QQ0Nw                                                                                                                                                                                                                                                                                                                                                                                                    
000000000000000000000000000000000000000000000000000000000000000000000000000000000000000R0Wn                                                                                                                                                                                                                                                                                                                                                                                                    
00000000000000000000000000000000000000000000000000000000000000000000000000000000000000RM0Kl                                                                                                                                                                                                                                                                                                                                                                                                    
000000000000000000000000000000000000000000000000000000000000000000000000000000000R00R0RM0@)                                                                                                                                                                                                                                                                                                                                                                                                    
000000000000000000000000000000000000000000000000000000000000000000000000000000000R00R0RMQ@\                                                                                                                                                                                                                                                                                                                                                                                                    
000000000000000000000000000000000000000000000000000000000000000000000000000000000000R0RMQ@|                                                                                                                                                                                                                                                                                                                                                                                                    
000000000000000000000000000000000000000000000000000000000000000000000000000000000000R0RMQA^                                                                                                                                                                                                                                                                                                                                                                                                    
000000000000000000000000000000000000000000000000000000000000000000000000000000000000R0RRQG-                                                                                                                                                                                                                                                                                                                                                                                                    
000000000000000000000000000000000000000000000000000000000000000000000000000000000000R0RRQG_                                                                                                                                                                                                                                                                                                                                                                                                    
000000000000000000000000000000000000000000000000000000000000000000000000000000000000R0RRQG_                                                                                                                                                                                                                                                                                                                                                                                                    
0000000000000000000000000000000000000000000000000000000000000000000000000000000000R000RMMF                                                                                                                                                                                                                                                                                                                                                                                                     
0000000000000000000000000000000000000000000000000000000000000000000000000000000000R000RNMy                                                                                                                                                                                                                                                                                                                                                                                                     
000000000000000000000000000000000000000000000000000000000000000000000000000000000000R0RNM2                                                                                                                                                                                                                                                                                                                                                                                                     
000000000000000000000000000000000000000000000000000000000000000000000000000000000000R00MWn                                                                                                                                                                                                                                                                                                                                                                                                     
0000000000000000000000000000000000000000000000000000000000000000000000000000000000R0000Q@"                                                                                                                                                                                                                                                                                                                                                                                                     
000000000000000000000000000000000000000000000000000000000000000000000000000000000000000Q@"                                                                                                                                                                                                                                                                                                                                                                                                     
000000000000000000000000000000000000000000000000000000000000000000000000000000000000000Q@"                                                                                                                                                                                                                                                                                                                                                                                                     
000000000000000000000000000000000000000000000000000000000000000000000000000000000000RR0Q@"                                                                                                                                                                                                                                                                                                                                                                                                     
000000000000000000000000000000000000000000000000000000000000000000000000000000000000000Q@"                                                                                                                                                                                                                                                                                                                                                                                                     
000000000000000000000000000000000000000000000000000000000000000000000000000000000000000Q@"                                                                                                                                                                                                                                                                                                                                                                                                     
0000000000000000000000000000000000000000000000000000000000000000000000000000000000R0000Q@)                                                                                                                                                                                                                                                                                                                                                                                                     
MQ0000000000000000000000000000000000000000000000000000000000000000000000000000000000R00MNJ                                                                                                                                                                                                                                                                                                                                                                                                     
&RQ000R00000000000000000000000000000000000000000000000000000000000000000000000000000R0RNM3                                                                                                                                                                                                                                                                                                                                                                                                     
h$RR00R000000000000000000000000000000000000000000000000000000000000000000000000000R000RNMy                                                                                                                                                                                                                                                                                                                                                                                                     
5kBR000000000000000000000000000000000000000000000000000000000000000000000000000000R000RMR6.                                                                                                                                                                                                                                                                                                                                                                                                    
wP@RR0000000000000000000000000000000000000000000000000000000000000000000000000000000R0RRQZ_                                                                                                                                                                                                                                                                                                                                                                                                    
7g&M00R00000000000000000000000000000000000000000000000000000000000000000000000000000R0RRQG_                                                                                                                                                                                                                                                                                                                                                                                                    
)u4$00R00000000000000000000000000000000000000000000000000000000000000000000000000000R0RRQG-                                                                                                                                                                                                                                                                                                                                                                                                    
^]pkRQR00000000000000000000000000000000000000000000000000000000000000000000000000000000RQ&=                                                                                                                                                                                                                                                                                                                                                                                                    
->L4@MQ000000000000000000000000000000000000000000000000000000000000000000000000000000000Q@|                                                                                                                                                                                                                                                                                                                                                                                                    
.=I2UM0R00000000000000000000000000000000000000000000000000000000000000000000000000000000Q@"                                                                                                                                                                                                                                                                                                                                                                                                    
  ^eE$RR000000000000000000000000000000000000000000000000000000000000000000000000000000RR0@)                                                                                                                                                                                                                                                                                                                                                                                                    
  _sfGBQ000000000000000000000000000000000000000000000000000000000000000000000000000000RMR$x                                                                                                                                                                                                                                                                                                                                                                                                    
  .|eg$00RR0R00R000000000000000000000000000000000000000000000000000000000000000000000RMNM@}                                                                                                                                                                                                                                                                                                                                                                                                    
   :rwX@M00R00000000000000000000000000000000000000000000000000000000000000000000000000RMMDL.                                                                                                                                                                                                                                                                                                                                                                                                   
   `|[FYD00R00R00000000000000000000000000000000000000000000000000000000000000000000000RMWB3_                                                                                                                                                                                                                                                                                                                                                                                                   
  ..'vu4@RR000000000000000000000000000000000000000000000000000000000000000000000R000000RBRP,                                                                                                                                                                                                                                                                                                                                                                                                   
     ;]mkBR00000000000000000000000000000000000000000000000000000000000000000000000000000M0b\                                                                                                                                                                                                                                                                                                                                                                                                   
     .>Ld8W0Q0R00000000000000000000000000000000000000000000000000000000000000000000000000Q&c                                                                                                                                                                                                                                                                                                                                                                                                   
      'r3GD0QR00000000000000000000000000000000000000000000000000000000000000000000000000Q0@?_                                                                                                                                                                                                                                                                                                                                                                                                  
       ^[6OM0000000000000000000000000000000000000000000000000000000000000000000000000000Q0Do:                                                                                                                                                                                                                                                                                                                                                                                                  
       'l#XDRQR000000000000000000000000000000000000000000000000000000000000000000000000000W#:                                                                                                                                                                                                                                                                                                                                                                                                  
        ^!mkDRR00000000000000000000000000000000000000000000000000000000000000000000000000RNy:                                                                                                                                                                                                                                                                                                                                                                                                  
        -i#EUM000000000000000000000000000000000000000000000000000000000000000000000000000RMS)                                                                                                                                                                                                                                                                                                                                                                                                  
         _cyPD0000000000000000000000000000000000000000000000000000000000000000000000000000RXv                                                                                                                                                                                                                                                                                                                                                                                                  
          '*yZDR00000000000000000000000000000000000000000000000000000000000000000000000000Q$?                                                                                                                                                                                                                                                                                                                                                                                                  
           |oh8M00000000000000000000000000000000000000000000000000000000000000000000000000RBn.                                                                                                                                                                                                                                                                                                                                                                                                 
           'c#PKR000000000000000000000000000000000000000000000000000000000000000000000000RRMm=                                                                                                                                                                                                                                                                                                                                                                                                 
            +tSYRQ0R0R000000000000000000000000000000000000000000000000000000000000000000RRM0Y\                                                                                                                                                                                                                                                                                                                                                                                                 
            .>Tg$M0R0R0R00000000000000000000000000000000000000000000000000000000000000000RMQU%                                                                                                                                                                                                                                                                                                                                                                                                 
             ;I3GKM0RQ0000000000000000000000000000000000000000000000000000000000000000000R0RW#                                                                                                                                                                                                                                                                                                                                                                                                 
              ^?6YWQ00000000000000000000000000000000000000000000000000000000000000000000000RM6.                                                                                                                                                                                                                                                                                                                                                                                                
              `>eqAN00000000000000000000000000000000000000000000000000000000000000000000R000Rh,                                                                                                                                                                                                                                                                                                                                                                                                
               _\zhURQ0R0000000000000000000000000000000000000000000000000000000000000000R00R0Ox                                                                                                                                                                                                                                                                                                                                                                                                
                'lJPKRM00000000000000000000000000000000000000000000000000000000000000000R0RR0Bu                                                                                                                                                                                                                                                                                                                                                                                                
                .+tSYDR0000000000000000000000000000000000000000000000000000000000000000000000MF`                                                                                                                                                                                                                                                                                                                                                                                               
                 `<TSOWQ0000000000000000000000000000000000000000000000000000000000000000R0R0QRE/                                                                                                                                                                                                                                                                                                                                                                                               
                  _r#g@R000RR0R000000000000000000000000000000000000000000000000000000000R00R0QH1                                                                                                                                                                                                                                                                                                                                                                                               
                   :rfGBQR00R000000000000000000000000000000000000000000000000000000000000R00Q0Ny- .                                                                                                                                                                                                                                                                                                                                                                                            
                   ."aq8R0000R0R000000000000000000000000000000000000000000000000000000000R00RMRh^ .                                                                                                                                                                                                                                                                                                                                                                                            
                    `<zh&N0000000000000000000000000000000000000000000000000000000000000000RR0R0k} ..                                                                                                                                                                                                                                                                                                                                                                                           
                     _)7SAW000R000000000000000000000000000000000000000000000000000000000000000QWu. .                                                                                                                                                                                                                                                                                                                                                                                           
                     `;lJX@R00Q0000000000000000000000000000000000000000000000000000000000000000Mh/                                                                                                                                                                                                                                                                                                                                                                                             
                       'syGKM0000000000000000000000000000000000000000000000000000000000000000R00&{                                                                                                                                                                                                                                                                                                                                                                                             
                        ;!6YBQ00000000000000000000000000000000000000000000000000000000000000000QN2                                                                                                                                                                                                                                                                                                                                                                                             
                         ^agAM000000000000000000000000000000000000000000000000000000000000000000R4^                                                                                                                                                                                                                                                                                                                                                                                            
                          /aq&RQ000000000000000000000000000000000000000000000000000000000000000008?                                                                                                                                                                                                                                                                                                                                                                                            
                          `\zd$M000000000000000000000000000000000000000000000000000000000000000RQWf'                                                                                                                                                                                                                                                                                                                                                                                           
                           _vuhU00000000000000000000000000000000000000000000000000000000000000000RPv                                                                                                                                                                                                                                                                                                                                                                                           
                           `+*yGH00QR0000000000000000000000000000000000000000000000000000000000000$e                                                                                                                                                                                                                                                                                                                                                                                           
                             'sy4$000QR00000000000000000000000000000000000000000000000000000000000Wy,                                                                                                                                                                                                                                                                                                                                                                                          
                              ;*wGHMR00000000000000000000000000000000000000000000000000000000000R00bl  .                                                                                                                                                                                                                                                                                                                                                                                       
                             ..=*2ZKRQ0R000000000000000000000000000000000000000000000000000000000RQBn- .                                                                                                                                                                                                                                                                                                                                                                                       
                             .  ;I2b$R0R000000000000000000000000000000000000000000000000000000000R0Rg"                                                                                                                                                                                                                                                                                                                                                                                         
                                 +tSPKM00000000000000000000000000000000000000000000000000000000000RQ$s                                                                                                                                                                                                                                                                                                                                                                                         
                                  /1FYD0R00RR0R00000000000000000000000000000000000000000000000000R0QMm' .                                                                                                                                                                                                                                                                                                                                                                                      
                                   +eqkW00RRRRRR00000000000000000000000000000000000000000000000000R008i .                                                                                                                                                                                                                                                                                                                                                                                      
                                   -|1FON000RR0R0000000000000000000000000000000000000000000000000R0R0Be                                                                                                                                                                                                                                                                                                                                                                                        
                                    `|aFXH000R0R000000000000000000000000000000000000000000000000000RRMg< .                                                                                                                                                                                                                                                                                                                                                                                     
                                     -<12bB00RRR000000000000000000000000000000000000000000000000R00RR0@! ..                                                                                                                                                                                                                                                                                                                                                                                    
                                      .|e2ZD00MR0000000000000000000000000000000000000000000000000000R0DC_ .                                                                                                                                                                                                                                                                                                                                                                                    
                                       .\13GBRRR0000000000000000000000000000000000000000000000000000RQRbc                                                                                                                                                                                                                                                                                                                                                                                      
                                        -\13PKRR0000R000000000000000000000000000000000000000000000000QQMF                                                                                                                                                                                                                                                                                                                                                                                      
                                         _)]yX$MQ00000R000000000000000000000000000000000000000000000000Q8x                                                                                                                                                                                                                                                                                                                                                                                     
                                          `"?fE8B000Q0000000000000000000000000000000000000000000000000QQNF:                                                                                                                                                                                                                                                                                                                                                                                    
                                           ./}JdkMQ00R000000000000000000000000000000000000000000000000000Ar                                                                                                                                                                                                                                                                                                                                                                                    
                                            `/*TmAWR0R00000000000000000000000000000000000000000000000000QW5;                                                                                                                                                                                                                                                                                                                                                                                   
                                             .+s7pkN0R00000000000000000000000000000000000000000000000000Q0kc .                                                                                                                                                                                                                                                                                                                                                                                 
                                              .:vo6kB000000000000000000000000000000000000000000000000000QQN5`                                                                                                                                                                                                                                                                                                                                                                                  
                                                _<a5X@MRRR00R00000000000000000000000000000000000000000000Q0kl                                                                                                                                                                                                                                                                                                                                                                                  
                                                 .)ag8DWMR0QR000000000000000000000000000000000000000000000QN2.                                                                                                                                                                                                                                                                                                                                                                                 
                                                '^!gBRBDK0Q0000000000000000000000000000000000000000000000RQ0&* .                                                                                                                                                                                                                                                                                                                                                                               
                                               .%?!*1nfSG@MQ00000000000000000000000000000000000000000000000QN6;                                                                                                                                                                                                                                                                                                                                                                                
                                                `-`. ;lT2d8RQ00000000000000000000000000000000000000000000000QD#.                                                                                                                                                                                                                                                                                                                                                                               
                                                      _i[fdARQR000000000000000000000000000000000000000000R000R4=                                                                                                                                                                                                                                                                                                                                                                               
                                                       _)}fS&M00R000000000000000000000000000000000000000R0R000Kz                                                                                                                                                                                                                                                                                                                                                                               
                                                        _+lTq8NM0RR000000000000000000000000000000000000000000Q0A?                                                                                                                                                                                                                                                                                                                                                                              
                                                         `_)u6EODR0R0R0000000000000000000000000000000000000000QQG| .                                                                                                                                                                                                                                                                                                                                                                           
                                                           _>[TpXDRR00R0000000000000000000000000000000000000000QWw'                                                                                                                                                                                                                                                                                                                                                                            
                                                           .`/c72PAKRQR0000000000000000000000000000000000000000Q0Yl                                                                                                                                                                                                                                                                                                                                                                            
                                                              ,)rwgb$R00000000000000000000000000000000000000000QQRh=                                                                                                                                                                                                                                                                                                                                                                           
                                                              .`'c73gUQ0000000R00000000000000000000000000000000Q00$L=                                                                                                                                                                                                                                                                                                                                                                          
                                                                .:\Iu4&W0Q0RR0000000000000000000000000000000000Q0M0&]  .                                                                                                                                                                                                                                                                                                                                                                       
                                                                  .=cumAR0Q0000000000000000000000000000000000R0QRMRRV+                                                                                                                                                                                                                                                                                                                                                                         
                                                                   .,>opdb@MQ00R0000000000000000000000000000000000RQDn'                                                                                                                                                                                                                                                                                                                                                                        
                                                                     .\17ySAMR0R000000000000000000000000000000000000R&e;                                                                                                                                                                                                                                                                                                                                                                       
                                                                      `|>1TqYKR000000000000000000000000000000000000RN0br                                                                                                                                                                                                                                                                                                                                                                       
                                                                       .-"Ij54@R00000000000000000000000000000000R00RM0My                                                                                                                                                                                                                                                                                                                                                                       