00000000000000000000000000000000000000000000000000000000000000000000000000000000000000000000000000000000RRQ$r                                                                                                                                                                                                                                                                                                                                                                                  
00000000000000000000000000000000000000000000000000000000000000000000000000000000000000000000000000000000R0Np,                                                                                                                                                                                                                                                                                                                                                                                  
00000000000000000000000000000000000000000000000000000000000000000000000000000000000000000000000000000000QQk>                                                                                                                                                                                                                                                                                                                                                                                   
000000000000000000000000000000000000000000000000000000000000000000000000000000000000000000000000000000000K7                                                                                                                                                                                                                                                                                                                                                                                    
0000000000000000000000000000000000000000000000000000000000000000000000000000000000000000000000000000000QRP>                                                                                                                                                                                                                                                                                                                                                                                    
0000000000000000000000000000000000000000000000000000000000000000000000000000000000000000000000000000000QDL` .                                                                                                                                                                                                                                                                                                                                                                                  
000000000000000000000000000000000000000000000000000000000000000000000000000000000000000000000000000000QMq=                                                                                                                                                                                                                                                                                                                                                                                     
0000000000000000000000000000000000000000000000000000000000000000000000000000000000000000000000000000R0Q@s                                                                                                                                                                                                                                                                                                                                                                                      
000000000000000000000000000000000000000000000000000000000000000000000000000000000000000000000000RQR0RQMp`                                                                                                                                                                                                                                                                                                                                                                                      
000000000000000000000000000000000000000000000000000000000000000000000000000000000000000000000000R00000Al                                                                                                                                                                                                                                                                                                                                                                                       
0000000000000000000000000000000000000000000000000000000000000000000000000000000000000000000000000000QN2-                                                                                                                                                                                                                                                                                                                                                                                       
0000000000000000000000000000000000000000000000000000000000000000000000000000000000000000000000000Q000&?                                                                                                                                                                                                                                                                                                                                                                                        
0000000000000000000000000000000000000000000000000000000000000000000000000000000000000000000000000Q0QWC'                                                                                                                                                                                                                                                                                                                                                                                        
0000000000000000000000000000000000000000000000000000000000000000000000000000000000000000000000000R00Yi                                                                                                                                                                                                                                                                                                                                                                                         
000000000000000000000000000000000000000000000000000000000000000000000000000000000000000000000000R0QNf`                                                                                                                                                                                                                                                                                                                                                                                         
000000000000000000000000000000000000000000000000000000000000000000000000000000000000000000000000000kv                                                                                                                                                                                                                                                                                                                                                                                          
0000000000000000000000000000000000000000000000000000000000000000000000000000000000000000000000000QHL.                                                                                                                                                                                                                                                                                                                                                                                          
000000000000000000000000000000000000000000000000000000000000000000000000000000000000000000000000QRd"                                                                                                                                                                                                                                                                                                                                                                                           
000000000000000000000000000000000000000000000000000000000000000000000000000000000000000000000000QWC.                                                                                                                                                                                                                                                                                                                                                                                           
0000000000000000000000000000000000000000000000000000000000000000000000000000000000000000000000000Zi                                                                                                                                                                                                                                                                                                                                                                                            
000000000000000000000000000000000000000000000000000000000000000000000000000000000000000000000000Nf-                                                                                                                                                                                                                                                                                                                                                                                            
000000000000000000000000000000000000000000000000000000000000000000000000000000000000000000000R0QH!                                                                                                                                                                                                                                                                                                                                                                                             
0000000000000000000000000000000000000000000000000000000000000000000000000000000000000000000R00QMm=                                                                                                                                                                                                                                                                                                                                                                                             
0000000000000000000000000000000000000000000000000000000000000000000000000000000000000000R0R0R00@}                                                                                                                                                                                                                                                                                                                                                                                              
0000000000000000000000000000000000000000000000000000000000000000000000000000000000000000R0R00QMg,                                                                                                                                                                                                                                                                                                                                                                                              
0000000000000000000000000000000000000000000000000000000000000000000000000000000000000000R00R00Kt                                                                                                                                                                                                                                                                                                                                                                                               
000000000000000000000000000000000000000000000000000000000000000000000000000000000000000000RMQM4|                                                                                                                                                                                                                                                                                                                                                                                               
0000000000000000000000000000000000000000000000000000000000000000000000000000000000000000RQ0RQB#.                                                                                                                                                                                                                                                                                                                                                                                               
00000000000000000000000000000000000000000000000000000000000000000000000000000000000000000R000kv .                                                                                                                                                                                                                                                                                                                                                                                              
00000000000000000000000000000000000000000000000000000000000000000000000000000000000000000RRQNw`                                                                                                                                                                                                                                                                                                                                                                                                
00000000000000000000000000000000000000000000000000000000000000000000000000000000000000000QR0&c                                                                                                                                                                                                                                                                                                                                                                                                 
0000000000000000000000000000000000000000000000000000000000000000000000000000000000000000000Rd<                                                                                                                                                                                                                                                                                                                                                                                                 
00000000000000000000000000000000000000000000000000000000000000000000000000000000000000000RQWT_                                                                                                                                                                                                                                                                                                                                                                                                 
000000000000000000000000000000000000000000000000000000000000000000000000000000000000000R00RY%                                                                                                                                                                                                                                                                                                                                                                                                  
0000000000000000000000000000000000000000000000000000000000000000000000000000000000000000Q0Wf` .                                                                                                                                                                                                                                                                                                                                                                                                
00000000000000000000000000000000000000000000000000000000000000000000000000000000000000000QWJ_                                                                                                                                                                                                                                                                                                                                                                                                  
0000000000000000000000000000000000000000000000000000000000000000000000000000000000000000008*                                                                                                                                                                                                                                                                                                                                                                                                   
000000000000000000000000000000000000000000000000000000000000000000000000000000000000000QQR4= ..                                                                                                                                                                                                                                                                                                                                                                                                
0000000000000000000000000000000000000000000000000000000000000000000000000000000000000000QD7` .                                                                                                                                                                                                                                                                                                                                                                                                 
0000000000000000000000000000000000000000000000000000000000000000000000000000000000000000RX\ ..                                                                                                                                                                                                                                                                                                                                                                                                 
000000000000000000000000000000000000000000000000000000000000000000000000000000000000000QWC_                                                                                                                                                                                                                                                                                                                                                                                                    
000000000000000000000000000000000000000000000000000000000000000000000000000000000000000QKt                                                                                                                                                                                                                                                                                                                                                                                                     
00000000000000000000000000000000000000000000000000000000000000000000000000000000000000QR4| ..                                                                                                                                                                                                                                                                                                                                                                                                  
0000000000000000000000000000000000000000000000000000000000000000000000000000000000R000QNy-  .                                                                                                                                                                                                                                                                                                                                                                                                  
00000000000000000000000000000000000000000000000000000000000000000000000000000000000000QDe  .                                                                                                                                                                                                                                                                                                                                                                                                   
000000000000000000000000000000000000000000000000000000000000000000000000000000000R000Q0A*  .                                                                                                                                                                                                                                                                                                                                                                                                   
00000000000000000000000000000000000000000000000000000000000000000000000000000000000R00Wd\  .                                                                                                                                                                                                                                                                                                                                                                                                   
00000000000000000000000000000000000000000000000000000000000000000000000000000000000000B#  .                                                                                                                                                                                                                                                                                                                                                                                                    
000000000000000000000000000000000000000000000000000000000000000000000000000000000R0000D1                                                                                                                                                                                                                                                                                                                                                                                                       
0000000000000000000000000000000000000000000000000000000000000000000000000000000000000Q@i .                                                                                                                                                                                                                                                                                                                                                                                                     
000000000000000000000000000000000000000000000000000000000000000000000000000000000000QMg= .                                                                                                                                                                                                                                                                                                                                                                                                     
00000000000000000000000000000000000000000000000000000000000000000000000000000000R00RQBJ`                                                                                                                                                                                                                                                                                                                                                                                                       
000000000000000000000000000000000000000000000000000000000000000000000000000000000R0R08}                                                                                                                                                                                                                                                                                                                                                                                                        
000000000000000000000000000000000000000000000000000000000000000000000000000000000R0RRPi ..                                                                                                                                                                                                                                                                                                                                                                                                     
000000000000000000000000000000000000000000000000000000000000000000000000000000000QRRRZ% ..                                                                                                                                                                                                                                                                                                                                                                                                     
000000000000000000000000000000000000000000000000000000000000000000000000000000000R00M4< ..                                                                                                                                                                                                                                                                                                                                                                                                     
00000000000000000000000000000000000000000000000000000000000000000000000000000000000QB7`                                                                                                                                                                                                                                                                                                                                                                                                        
000000000000000000000000000000000000000000000000000000000000000000000000000000000RQQD]                                                                                                                                                                                                                                                                                                                                                                                                         
0000000000000000000000000000000000000000000000000000000000000000000000000000000000R0Ac  .                                                                                                                                                                                                                                                                                                                                                                                                      
00000000000000000000000000000000000000000000000000000000000000000000000000000000000Rd"                                                                                                                                                                                                                                                                                                                                                                                                         
0000000000000000000000000000000000000000000000000000000000000000000000000000000000QNm=                                                                                                                                                                                                                                                                                                                                                                                                         
00000000000000000000000000000000000000000000000000000000000000000000000000000000QRQWJ-                                                                                                                                                                                                                                                                                                                                                                                                         
000000000000000000000000000000000000000000000000000000000000000000000000000000000RQD!  .                                                                                                                                                                                                                                                                                                                                                                                                       
00000000000000000000000000000000000000000000000000000000000000000000000000000000000Ac                                                                                                                                                                                                                                                                                                                                                                                                          
000000000000000000000000000000000000000000000000000000000000000000000000000000000QRP<                                                                                                                                                                                                                                                                                                                                                                                                          
000000000000000000000000000000000000000000000000000000000000000000000000000000000RMS^                                                                                                                                                                                                                                                                                                                                                                                                          
00000000000000000000000000000000000000000000000000000000000000000000000000000000RRMF'                                                                                                                                                                                                                                                                                                                                                                                                          
00000000000000000000000000000000000000000000000000000000000000000000000000000000RQWf.                                                                                                                                                                                                                                                                                                                                                                                                          
00000000000000000000000000000000000000000000000000000000000000000000000000000000RQDJ                                                                                                                                                                                                                                                                                                                                                                                                           
00000000000000000000000000000000000000000000000000000000000000000000000000000000RQHe .                                                                                                                                                                                                                                                                                                                                                                                                         
0000000000000000000000000000000000000000000000000000000000000000000000000000000000$[ .                                                                                                                                                                                                                                                                                                                                                                                                         
000000000000000000000000000000000000000000000000000000000000000000000000000000000Q8*                                                                                                                                                                                                                                                                                                                                                                                                           
0000000000000000000000000000000000000000000000000000000000000000000000000000000000Oi                                                                                                                                                                                                                                                                                                                                                                                                           
0000000000000000000000000000000000000000000000000000000000000000000000000000000000Z"                                                                                                                                                                                                                                                                                                                                                                                                           
00000000000000000000000000000000000000000000000000000000000000000000000000000000Q0U\                                                                                                                                                                                                                                                                                                                                                                                                           
000000000000000000000000000000000000000000000000000000000000000000000000000000000Rh_                                                                                                                                                                                                                                                                                                                                                                                                           
00000000000000000000000000000000000000000000000000000000000000000000000000000000RB1                                                                                                                                                                                                                                                                                                                                                                                                            
00000000000000000000000000000000000000000000000000000000000000000000000000000000RB]                                                                                                                                                                                                                                                                                                                                                                                                            
00000000000000000000000000000000000000000000000000000000000000000000000000000000RB]                                                                                                                                                                                                                                                                                                                                                                                                            
00000000000000000000000000000000000000000000000000000000000000000000000000000000RB]                                                                                                                                                                                                                                                                                                                                                                                                            
00000000000000000000000000000000000000000000000000000000000000000000000000000000RB]                                                                                                                                                                                                                                                                                                                                                                                                            
00000000000000000000000000000000000000000000000000000000000000000000000000000000RB]                                                                                                                                                                                                                                                                                                                                                                                                            
00000000000000000000000000000000000000000000000000000000000000000000000000000000RB]                                                                                                                                                                                                                                                                                                                                                                                                            
00000000000000000000000000000000000000000000000000000000000000000000000000000000RB]                                                                                                                                                                                                                                                                                                                                                                                                            
00000000000000000000000000000000000000000000000000000000000000000000000000000000RB]                                                                                                                                                                                                                                                                                                                                                                                                            
00000000000000000000000000000000000000000000000000000000000000000000000000000000RB]                                                                                                                                                                                                                                                                                                                                                                                                            
00000000000000000000000000000000000000000000000000000000000000000000000000000000RB]                                                                                                                                                                                                                                                                                                                                                                                                            
00000000000000000000000000000000000000000000000000000000000000000000000000000000RB]                                                                                                                                                                                                                                                                                                                                                                                                            
00000000000000000000000000000000000000000000000000000000000000000000000000000000RB]                                                                                                                                                                                                                                                                                                                                                                                                            
00000000000000000000000000000000000000000000000000000000000000000000000000000000RB]                                                                                                                                                                                                                                                                                                                                                                                                            
000000000000000000000000000000000000000000000000000000000000000000000000000000000B]                                                                                                                                                                                                                                                                                                                                                                                                            
0000000000000000000000000000000000000000000000000000000000000000000000000000000RMB[                                                                                                                                                                                                                                                                                                                                                                                                            
0000000000000000000000000000000000000000000000000000000000000000000000000000000RBDn`                                                                                                                                                                                                                                                                                                                                                                                                           
0000000000000000000000000000000000000000000000000000000000000000000000000000000RK@3:                                                                                                                                                                                                                                                                                                                                                                                                           
0000000000000000000000000000000000000000000000000000000000000000000000000000000RKW4,                                                                                                                                                                                                                                                                                                                                                                                                           
0000000000000000000000000000000000000000000000000000000000000000000000000000000RWRZ=.                                                                                                                                                                                                                                                                                                                                                                                                          
00000000000000000000000000000000000000000000000000000000000000000000000000000000R0A%                                                                                                                                                                                                                                                                                                                                                                                                           
0000000000000000000000000000000000000000000000000000000000000000000000000000000000${`                                                                                                                                                                                                                                                                                                                                                                                                          
00000000000000000000000000000000000000000000000000000000000000000000000000000000QQDe,                                                                                                                                                                                                                                                                                                                                                                                                          
0000000000000000000000000000000000000000000000000000000000000000000000000000000000Wu:                                                                                                                                                                                                                                                                                                                                                                                                          
00Q000000000000000000000000000000000000000000000000000000000000000000000000000000RNy:                                                                                                                                                                                                                                                                                                                                                                                                          
0Q0000R00000000000000000000000000000000000000000000000000000000000000000000000000RNy:                                                                                                                                                                                                                                                                                                                                                                                                          
K0000000000000000000000000000000000000000000000000000000000000000000000000000000QRNF=                                                                                                                                                                                                                                                                                                                                                                                                          
ZWR000Q00000000000000000000000000000000000000000000000000000000000000000000000000RMV<                                                                                                                                                                                                                                                                                                                                                                                                          
V&N0R00000000000000000000000000000000000000000000000000000000000000000000000000000RYc .                                                                                                                                                                                                                                                                                                                                                                                                        
Jg$00QR0000000000000000000000000000000000000000000000000000000000000000000000000000A}-                                                                                                                                                                                                                                                                                                                                                                                                         
*yPNQ00000000000000000000000000000000000000000000000000000000000000000000000000000QKj-.                                                                                                                                                                                                                                                                                                                                                                                                        
=]qkBR00000000000000000000000000000000000000000000000000000000000000000000000000000N3: .                                                                                                                                                                                                                                                                                                                                                                                                       
.)TEUM00000000000000000000000000000000000000000000000000000000000000000000000000R00Nm=                                                                                                                                                                                                                                                                                                                                                                                                         
 :*5bBRQ00000000000000000000000000000000000000000000000000000000000000000000000000RRXv                                                                                                                                                                                                                                                                                                                                                                                                         
 .<jgU000000000000000000000000000000000000000000000000000000000000000000000000000RR0bx                                                                                                                                                                                                                                                                                                                                                                                                         
 .:syZHR0000000000000000000000000000000000000000000000000000000000000000000000000RR0Ox                                                                                                                                                                                                                                                                                                                                                                                                         
   /tqODR000R0R0000000000000000000000000000000000000000000000000000000000000000000R0W5^                                                                                                                                                                                                                                                                                                                                                                                                        
   .<jV8MQ00RQR0000000000000000000000000000000000000000000000000000000000000000000R00G\                                                                                                                                                                                                                                                                                                                                                                                                        
    `)#4@M0000000000000000000000000000000000000000000000000000000000000000000000R00R0O%                                                                                                                                                                                                                                                                                                                                                                                                        
     _lwPDRQ0R000000000000000000000000000000000000000000000000000000000000000000000R0U*                                                                                                                                                                                                                                                                                                                                                                                                        
     .<zhUMRR000000000000000000000000000000000000000000000000000000000000000000000RRRNf- .                                                                                                                                                                                                                                                                                                                                                                                                     
      _xJPKNR0000000000000000000000000000000000000000000000000000000000000000000000R0MS^ .                                                                                                                                                                                                                                                                                                                                                                                                     
      ./eqbKR0000000000000000000000000000000000000000000000000000000000000000000000MQRG| .                                                                                                                                                                                                                                                                                                                                                                                                     
        )7qON0000000000000000000000000000000000000000000000000000000000000000000R0000QK[.                                                                                                                                                                                                                                                                                                                                                                                                      
        .\eSAM000000000000000000000000000000000000000000000000000000000000000000000R0QNy_                                                                                                                                                                                                                                                                                                                                                                                                      
         _)TEKQ0000000000000000000000000000000000000000000000000000000000000000000000QMh+                                                                                                                                                                                                                                                                                                                                                                                                      
          ,*yYW000000000000000000000000000000000000000000000000000000000000000000000RR0Y)                                                                                                                                                                                                                                                                                                                                                                                                      
          ."[pbD00R00000000000000000000000000000000000000000000000000000000000000000RRQBz                                                                                                                                                                                                                                                                                                                                                                                                      
           :vjg&0Q0R0R0000000000000000000000000000000000000000000000000000000000000000QRg.                                                                                                                                                                                                                                                                                                                                                                                                     
          ..'x#gKRQ00R00000000000000000000000000000000000000000000000000000000000000000RYv                                                                                                                                                                                                                                                                                                                                                                                                     
             :{2dUM0000000000000000000000000000000000000000000000000000000000000000000R0Do                                                                                                                                                                                                                                                                                                                                                                                                     
              "e5bD0QR000000000000000000000000000000000000000000000000000000000000000000NF'                                                                                                                                                                                                                                                                                                                                                                                                    
               |1qOB00QR0000000000000000000000000000000000000000000000000000000000000000RE\                                                                                                                                                                                                                                                                                                                                                                                                    
               .|zVAWQ0000000000000000000000000000000000000000000000000000000000000000000AI                                                                                                                                                                                                                                                                                                                                                                                                    
                `>#g$00000000000000000000000000000000000000000000000000000000000000000000Wy'                                                                                                                                                                                                                                                                                                                                                                                                   
                 .xCXK00000000000000000000000000000000000000000000000000000000000000000000b\                                                                                                                                                                                                                                                                                                                                                                                                   
                  _cJPW000000000000000000000000000000000000000000000000000000000000000000QDt                                                                                                                                                                                                                                                                                                                                                                                                   
                  .;*yPHQ00000000000000000000000000000000000000000000000000000000000000000Md^ .                                                                                                                                                                                                                                                                                                                                                                                                
                   -)t6OMQ00R0R0000000000000000000000000000000000000000000000000000000000R0$x .                                                                                                                                                                                                                                                                                                                                                                                                
                    `|7gkW0QR00R000000000000000000000000000000000000000000000000000000000R0Wu.                                                                                                                                                                                                                                                                                                                                                                                                 
                      \76ONRRQR000000000000000000000000000000000000000000000000000000000R0RMkc `                                                                                                                                                                                                                                                                                                                                                                                               
                     ._>LVUW00R000000000000000000000000000000000000000000000000000000000RRRRDJ .                                                                                                                                                                                                                                                                                                                                                                                               
                     . _{fG8M00R000000000000000000000000000000000000000000000000000000000RRQNE+                                                                                                                                                                                                                                                                                                                                                                                                
                        ;!pE@N0000000000000000000000000000000000000000000000000000000000R0RRR@l                                                                                                                                                                                                                                                                                                                                                                                                
                         /tJg$Q000000000000000000000000000000000000000000000000000000000000RQWJ.                                                                                                                                                                                                                                                                                                                                                                                               
                          ^lfGB00Q000000000000000000000000000000000000000000000000000000000R0MG\ `                                                                                                                                                                                                                                                                                                                                                                                             
                           '?5GH0Q000R000000000000000000000000000000000000000000000000000R00RMHo .                                                                                                                                                                                                                                                                                                                                                                                             
                           .+*fG@M0R0000000000000000000000000000000000000000000000000000R00RRRN6/                                                                                                                                                                                                                                                                                                                                                                                              
                            .;Iyd@QQ00000000000000000000000000000000000000000000000000000000R0RA[                                                                                                                                                                                                                                                                                                                                                                                              
                             .+I3X$R000R0000000000000000000000000000000000000000000000000000000Nq|                                                                                                                                                                                                                                                                                                                                                                                             
                              .^?JdKQ00000000000000000000000000000000000000000000000000000000000UI                                                                                                                                                                                                                                                                                                                                                                                             
                               `=IfEKR0R00000000000000000000000000000000000000000000000000000000Mq+                                                                                                                                                                                                                                                                                                                                                                                            
                                 =IJd$0Q0R00R00R000000000000000000000000000000000000000000000000QU*                                                                                                                                                                                                                                                                                                                                                                                            
                                  +}J4$M0000RR00000000000000000000000000000000000000000000000000QMq` .                                                                                                                                                                                                                                                                                                                                                                                         
                                  .:rJd&NQ0R0R00000000000000000000000000000000000000000000000000QQ$!. .                                                                                                                                                                                                                                                                                                                                                                                        
                                ,|*}?uTm&M0R0R00000000000000000000000000000000000000000000000000QQMg+                                                                                                                                                                                                                                                                                                                                                                                          
                             .`-_="+,/rnmZKQQR000000000000000000000000000000000000000000000000000QQ@[`                                                                                                                                                                                                                                                                                                                                                                                         
                             .`_     `^sj5gK0000000000000000000000000000000000000000000000000000000R4"                                                                                                                                                                                                                                                                                                                                                                                         
                                       ;i1F4@R000000000000000000000000000000000000000000000000000000U}                                                                                                                                                                                                                                                                                                                                                                                         
                                        ,\[fV$000R0000000000000000000000000000000000000000000000RQ0QMm. .                                                                                                                                                                                                                                                                                                                                                                                      
                                         -=}CE8KRR0R00R00000000000000000000000000000000000000000000QQ$?.                                                                                                                                                                                                                                                                                                                                                                                       
                                          -|lTSbD000000R00000000000000000000000000000000000000000RQQQNg+                                                                                                                                                                                                                                                                                                                                                                                       
                                          ...<e2G@0QR00R0000000000000000000000000000000000000000R000008l                                                                                                                                                                                                                                                                                                                                                                                       
                                            .:>15V&MQ0R000000000000000000000000000000000000000000000QQMq^                                                                                                                                                                                                                                                                                                                                                                                     .
                                            . _\jym&WRQR00000000000000000000000000000000000000000000QQ0$z^  .                                                                                                                                                                                                                                                                                                                                                                                .+
                                               -<!nmG@M000000000000000000000000000000000000000000R00Q0M0A!  .                                                                                                                                                                                                                                                                                                                                                                                +s
                                                ./*jy4KR0000000000000000000000000000000000000000000000NRMg/                                                                                                                                                                                                                                                                                                                                                                                 _c7