00000000000000000000000000000000000000000000000000000000000000000000000000000000000000000000000000000000RR0Y)                                                                                                                                                                                                                                                                                                                                                                                  
000000000000000000000000000000000000000000000000000000000000000000000000000000000000000000000000000000000QHe.                                                                                                                                                                                                                                                                                                                                                                                  
00000000000000000000000000000000000000000000000000000000000000000000000000000000000000000000000000000000QMS:                                                                                                                                                                                                                                                                                                                                                                                   
0000000000000000000000000000000000000000000000000000000000000000000000000000000000000000000000000R00000Q0A*                                                                                                                                                                                                                                                                                                                                                                                    
0000000000000000000000000000000000000000000000000000000000000000000000000000000000000000000000000R00000QMS^ .                                                                                                                                                                                                                                                                                                                                                                                  
0000000000000000000000000000000000000000000000000000000000000000000000000000000000000000000000000000000QAr  .                                                                                                                                                                                                                                                                                                                                                                                  
0000000000000000000000000000000000000000000000000000000000000000000000000000000000000000000000000000R00KL`                                                                                                                                                                                                                                                                                                                                                                                     
0000000000000000000000000000000000000000000000000000000000000000000000000000000000000000000000000R00R0Q&\                                                                                                                                                                                                                                                                                                                                                                                      
0000000000000000000000000000000000000000000000000000000000000000000000000000000000000000000000000RR0RQMp.                                                                                                                                                                                                                                                                                                                                                                                      
0000000000000000000000000000000000000000000000000000000000000000000000000000000000000000000000000R0000Al                                                                                                                                                                                                                                                                                                                                                                                       
0000000000000000000000000000000000000000000000000000000000000000000000000000000000000000000000000000QN3_                                                                                                                                                                                                                                                                                                                                                                                       
000000000000000000000000000000000000000000000000000000000000000000000000000000000000000000000000000Q0@o                                                                                                                                                                                                                                                                                                                                                                                        
000000000000000000000000000000000000000000000000000000000000000000000000000000000000000000000000000QMp;                                                                                                                                                                                                                                                                                                                                                                                        
00000000000000000000000000000000000000000000000000000000000000000000000000000000000000000000000000008l                                                                                                                                                                                                                                                                                                                                                                                         
000000000000000000000000000000000000000000000000000000000000000000000000000000000000000000000000000Rg;                                                                                                                                                                                                                                                                                                                                                                                         
000000000000000000000000000000000000000000000000000000000000000000000000000000000000000000000000000@o.                                                                                                                                                                                                                                                                                                                                                                                         
0000000000000000000000000000000000000000000000000000000000000000000000000000000000000000000000000QMS=                                                                                                                                                                                                                                                                                                                                                                                          
00000000000000000000000000000000000000000000000000000000000000000000000000000000000000000000000000&}                                                                                                                                                                                                                                                                                                                                                                                           
000000000000000000000000000000000000000000000000000000000000000000000000000000000000000000000000QRX>                                                                                                                                                                                                                                                                                                                                                                                           
000000000000000000000000000000000000000000000000000000000000000000000000000000000000000000000000QDu.                                                                                                                                                                                                                                                                                                                                                                                           
000000000000000000000000000000000000000000000000000000000000000000000000000000000000000000000000Rg\                                                                                                                                                                                                                                                                                                                                                                                            
000000000000000000000000000000000000000000000000000000000000000000000000000000000000000000000000WT.                                                                                                                                                                                                                                                                                                                                                                                            
00000000000000000000000000000000000000000000000000000000000000000000000000000000000000000000000QH!                                                                                                                                                                                                                                                                                                                                                                                             
00000000000000000000000000000000000000000000000000000000000000000000000000000000000000000000000RE/  .                                                                                                                                                                                                                                                                                                                                                                                          
0000000000000000000000000000000000000000000000000000000000000000000000000000000000000000000000QWT                                                                                                                                                                                                                                                                                                                                                                                              
0000000000000000000000000000000000000000000000000000000000000000000000000000000000000000000RR00&{  .                                                                                                                                                                                                                                                                                                                                                                                           
0000000000000000000000000000000000000000000000000000000000000000000000000000000000000000000RR0Mm;  .                                                                                                                                                                                                                                                                                                                                                                                           
000000000000000000000000000000000000000000000000000000000000000000000000000000000000000000000QKa                                                                                                                                                                                                                                                                                                                                                                                               
0000000000000000000000000000000000000000000000000000000000000000000000000000000000000000000000Z>                                                                                                                                                                                                                                                                                                                                                                                               
00000000000000000000000000000000000000000000000000000000000000000000000000000000000000000R000MF/                                                                                                                                                                                                                                                                                                                                                                                               
00000000000000000000000000000000000000000000000000000000000000000000000000000000000000000000QK1                                                                                                                                                                                                                                                                                                                                                                                                
0000000000000000000000000000000000000000000000000000000000000000000000000000000000000000000QMq^                                                                                                                                                                                                                                                                                                                                                                                                
0000000000000000000000000000000000000000000000000000000000000000000000000000000000000000000QWw-                                                                                                                                                                                                                                                                                                                                                                                                
000000000000000000000000000000000000000000000000000000000000000000000000000000000000000000R0Ba.                                                                                                                                                                                                                                                                                                                                                                                                
00000000000000000000000000000000000000000000000000000000000000000000000000000000000000000000O"                                                                                                                                                                                                                                                                                                                                                                                                 
00000000000000000000000000000000000000000000000000000000000000000000000000000000000000000RRWC-                                                                                                                                                                                                                                                                                                                                                                                                 
00000000000000000000000000000000000000000000000000000000000000000000000000000000000000000R0Do.                                                                                                                                                                                                                                                                                                                                                                                                 
0000000000000000000000000000000000000000000000000000000000000000000000000000000000000000000Yv                                                                                                                                                                                                                                                                                                                                                                                                  
00000000000000000000000000000000000000000000000000000000000000000000000000000000000000000RMp'                                                                                                                                                                                                                                                                                                                                                                                                  
0000000000000000000000000000000000000000000000000000000000000000000000000000000000000000MRKt                                                                                                                                                                                                                                                                                                                                                                                                   
0000000000000000000000000000000000000000000000000000000000000000000000000000000000000000RMHt                                                                                                                                                                                                                                                                                                                                                                                                   
00000000000000000000000000000000000000000000000000000000000000000000000000000000000000000Bd/                                                                                                                                                                                                                                                                                                                                                                                                   
00000000000000000000000000000000000000000000000000000000000000000000000000000000000000000Dj                                                                                                                                                                                                                                                                                                                                                                                                    
000000000000000000000000000000000000000000000000000000000000000000000000000000000000000RR@*  .                                                                                                                                                                                                                                                                                                                                                                                                 
0000000000000000000000000000000000000000000000000000000000000000000000000000000000000000R&i  .                                                                                                                                                                                                                                                                                                                                                                                                 
0000000000000000000000000000000000000000000000000000000000000000000000000000000000000000RP:`..                                                                                                                                                                                                                                                                                                                                                                                                 
0000000000000000000000000000000000000000000000000000000000000000000000000000000000000000BF. .                                                                                                                                                                                                                                                                                                                                                                                                  
000000000000000000000000000000000000000000000000000000000000000000000000000000000R00000QBo                                                                                                                                                                                                                                                                                                                                                                                                     
00000000000000000000000000000000000000000000000000000000000000000000000000000000R00R00QQ@{ .                                                                                                                                                                                                                                                                                                                                                                                                   
0000000000000000000000000000000000000000000000000000000000000000000000000000000000R00RQRk/ `                                                                                                                                                                                                                                                                                                                                                                                                   
000000000000000000000000000000000000000000000000000000000000000000000000000000000000RQ0Hq^ ..                                                                                                                                                                                                                                                                                                                                                                                                  
000000000000000000000000000000000000000000000000000000000000000000000000000000000000000Wy' .                                                                                                                                                                                                                                                                                                                                                                                                   
0000000000000000000000000000000000000000000000000000000000000000000000000000000000R00R0K[  .                                                                                                                                                                                                                                                                                                                                                                                                   
000000000000000000000000000000000000000000000000000000000000000000000000000000000R0000RGi ..                                                                                                                                                                                                                                                                                                                                                                                                   
000000000000000000000000000000000000000000000000000000000000000000000000000000000R00R0RGv .                                                                                                                                                                                                                                                                                                                                                                                                    
0000000000000000000000000000000000000000000000000000000000000000000000000000000000R000RPi ..                                                                                                                                                                                                                                                                                                                                                                                                   
00000000000000000000000000000000000000000000000000000000000000000000000000000000000R00Bu_                                                                                                                                                                                                                                                                                                                                                                                                      
000000000000000000000000000000000000000000000000000000000000000000000000000000000000QQD[                                                                                                                                                                                                                                                                                                                                                                                                       
00000000000000000000000000000000000000000000000000000000000000000000000000000000000R0QBe  .                                                                                                                                                                                                                                                                                                                                                                                                    
000000000000000000000000000000000000000000000000000000000000000000000000000000000RR0R08l  .                                                                                                                                                                                                                                                                                                                                                                                                    
0000000000000000000000000000000000000000000000000000000000000000000000000000000000000Rbv                                                                                                                                                                                                                                                                                                                                                                                                       
000000000000000000000000000000000000000000000000000000000000000000000000000000000RQ0QRX<                                                                                                                                                                                                                                                                                                                                                                                                       
00000000000000000000000000000000000000000000000000000000000000000000000000000000R000QRZi                                                                                                                                                                                                                                                                                                                                                                                                       
000000000000000000000000000000000000000000000000000000000000000000000000000000000000QRg:                                                                                                                                                                                                                                                                                                                                                                                                       
000000000000000000000000000000000000000000000000000000000000000000000000000000000R0R0NJ                                                                                                                                                                                                                                                                                                                                                                                                        
000000000000000000000000000000000000000000000000000000000000000000000000000000000R0RRKr                                                                                                                                                                                                                                                                                                                                                                                                        
0000000000000000000000000000000000000000000000000000000000000000000000000000000000RR0Ki                                                                                                                                                                                                                                                                                                                                                                                                        
000000000000000000000000000000000000000000000000000000000000000000000000000000000RRRQ@<                                                                                                                                                                                                                                                                                                                                                                                                        
00000000000000000000000000000000000000000000000000000000000000000000000000000000000RQ@|                                                                                                                                                                                                                                                                                                                                                                                                        
000000000000000000000000000000000000000000000000000000000000000000000000000000000000Q@"                                                                                                                                                                                                                                                                                                                                                                                                        
000000000000000000000000000000000000000000000000000000000000000000000000000000000000Q@"                                                                                                                                                                                                                                                                                                                                                                                                        
000000000000000000000000000000000000000000000000000000000000000000000000000000000000Q@"                                                                                                                                                                                                                                                                                                                                                                                                        
000000000000000000000000000000000000000000000000000000000000000000000000000000000000Q@"                                                                                                                                                                                                                                                                                                                                                                                                        
000000000000000000000000000000000000000000000000000000000000000000000000000000000000Q@"                                                                                                                                                                                                                                                                                                                                                                                                        
000000000000000000000000000000000000000000000000000000000000000000000000000000000000Q@"                                                                                                                                                                                                                                                                                                                                                                                                        
000000000000000000000000000000000000000000000000000000000000000000000000000000000000Q@"                                                                                                                                                                                                                                                                                                                                                                                                        
000000000000000000000000000000000000000000000000000000000000000000000000000000000000Q@"                                                                                                                                                                                                                                                                                                                                                                                                        
000000000000000000000000000000000000000000000000000000000000000000000000000000000000Q@"                                                                                                                                                                                                                                                                                                                                                                                                        
000000000000000000000000000000000000000000000000000000000000000000000000000000000000Q@"                                                                                                                                                                                                                                                                                                                                                                                                        
000000000000000000000000000000000000000000000000000000000000000000000000000000000000Q@"                                                                                                                                                                                                                                                                                                                                                                                                        
000000000000000000000000000000000000000000000000000000000000000000000000000000000000Q@"                                                                                                                                                                                                                                                                                                                                                                                                        
000000000000000000000000000000000000000000000000000000000000000000000000000000000000Q@"                                                                                                                                                                                                                                                                                                                                                                                                        
000000000000000000000000000000000000000000000000000000000000000000000000000000000000Q@"                                                                                                                                                                                                                                                                                                                                                                                                        
000000000000000000000000000000000000000000000000000000000000000000000000000000000000Q@"                                                                                                                                                                                                                                                                                                                                                                                                        
000000000000000000000000000000000000000000000000000000000000000000000000000000000000Q@"                                                                                                                                                                                                                                                                                                                                                                                                        
000000000000000000000000000000000000000000000000000000000000000000000000000000000000Q@"                                                                                                                                                                                                                                                                                                                                                                                                        
000000000000000000000000000000000000000000000000000000000000000000000000000000000000Q@"                                                                                                                                                                                                                                                                                                                                                                                                        
000000RR0000000000000000000000000000000000000000000000000000000000000000000000000000Q@"                                                                                                                                                                                                                                                                                                                                                                                                        
000000000000000000000000000000000000000000000000000000000000000000000000000000000000Q@"                                                                                                                                                                                                                                                                                                                                                                                                        
00Q0R0000000000000000000000000000000000000000000000000000000000000000000000000000000Q@"                                                                                                                                                                                                                                                                                                                                                                                                        
B0Q000000000000000000000000000000000000000000000000000000000000000000000000000000000Q@"                                                                                                                                                                                                                                                                                                                                                                                                        
bB000R0000000000000000000000000000000000000000000000000000000000000000000000000000RR0@"                                                                                                                                                                                                                                                                                                                                                                                                        
FOWRR0000000000000000000000000000000000000000000000000000000000000000000000000000RMMB$I                                                                                                                                                                                                                                                                                                                                                                                                        
JE$M00R000000000000000000000000000000000000000000000000000000000000000000000000000MM@87                                                                                                                                                                                                                                                                                                                                                                                                        
aqOM00000000000000000000000000000000000000000000000000000000000000000000000000000RRMKWh'                                                                                                                                                                                                                                                                                                                                                                                                       
|7g80000000000000000000000000000000000000000000000000000000000000000000000000000000RW0G=                                                                                                                                                                                                                                                                                                                                                                                                       
-rwPW0R00000000000000000000000000000000000000000000000000000000000000000000000000RQ0R0Av                                                                                                                                                                                                                                                                                                                                                                                                       
 =[pANQR0000000000000000000000000000000000000000000000000000000000000000000000000000QQU{.                                                                                                                                                                                                                                                                                                                                                                                                      
 _vLYW0000000000000000000000000000000000000000000000000000000000000000000000000000R00QDa,                                                                                                                                                                                                                                                                                                                                                                                                      
. .r6kN0000000000000000000000000000000000000000000000000000000000000000000000000000000BL:                                                                                                                                                                                                                                                                                                                                                                                                      
  .<LV@00000000000000000000000000000000000000000000000000000000000000000000000000R000RNf:                                                                                                                                                                                                                                                                                                                                                                                                      
   ,I5OM00000000000000000000000000000000000000000000000000000000000000000000000000000RMm/                                                                                                                                                                                                                                                                                                                                                                                                      
   `\oSAW00R0R000000000000000000000000000000000000000000000000000000000000000000R00000M4>                                                                                                                                                                                                                                                                                                                                                                                                      
    ,cT4$MQR000R000000000000000000000000000000000000000000000000000000000000000000000R0As                                                                                                                                                                                                                                                                                                                                                                                                      
    .,{3bDR0000000000000000000000000000000000000000000000000000000000000000000000000QRQDe                                                                                                                                                                                                                                                                                                                                                                                                      
     .>u48NR00000000000000000000000000000000000000000000000000000000000000000000R0RQ000BT` .                                                                                                                                                                                                                                                                                                                                                                                                   
      'lfP$R00R00000000000000000000000000000000000000000000000000000000000000000R0R0RRRMg+                                                                                                                                                                                                                                                                                                                                                                                                     
       :*5bB0Q0R0000000000000000000000000000000000000000000000000000000000000000000RRRMQk<                                                                                                                                                                                                                                                                                                                                                                                                     
        /eS&RQ000000000000000000000000000000000000000000000000000000000000000000000R00M0@l                                                                                                                                                                                                                                                                                                                                                                                                     
        :swZBR000000000000000000000000000000000000000000000000000000000000000000000000RRNf                                                                                                                                                                                                                                                                                                                                                                                                     
         =1qkB0R0000000000000000000000000000000000000000000000000000000000000000000000RRM6`                                                                                                                                                                                                                                                                                                                                                                                                    
         .\jd&N00000000000000000000000000000000000000000000000000000000000000000000000RRR4;                                                                                                                                                                                                                                                                                                                                                                                                    
          `>Jg@R0000R0R000000000000000000000000000000000000000000000000000000000000R00RR0&{                                                                                                                                                                                                                                                                                                                                                                                                    
           -cJXHRQ00R0R000000000000000000000000000000000000000000000000000000000000000RRQBn                                                                                                                                                                                                                                                                                                                                                                                                    
           .=[6AW0R000000000000000000000000000000000000000000000000000000000000000000000QMF`                                                                                                                                                                                                                                                                                                                                                                                                   
            .<zd8WM0000000000000000000000000000000000000000000000000000000000000000000R00RX/                                                                                                                                                                                                                                                                                                                                                                                                   
             :}FX$M000R000000000000000000000000000000000000000000000000000000000000000R0RQDt                                                                                                                                                                                                                                                                                                                                                                                                   
              :15ZDQR000000000000000000000000000000000000000000000000000000000000000000000Ny`                                                                                                                                                                                                                                                                                                                                                                                                  
               =?5YW000000000000000000000000000000000000000000000000000000000000000000000MRV;                                                                                                                                                                                                                                                                                                                                                                                                  
               ."og800R000000000000000000000000000000000000000000000000000000000000000RR0RRkr ..                                                                                                                                                                                                                                                                                                                                                                                               
                -vTXHR00000000000000000000000000000000000000000000000000000000000000000RR00DL  .                                                                                                                                                                                                                                                                                                                                                                                               
                 :rJg@M0000000000000000000000000000000000000000000000000000000000000000000QMm=                                                                                                                                                                                                                                                                                                                                                                                                 
                 -|1FYBR00000000000000000000000000000000000000000000000000000000000000000R00kc                                                                                                                                                                                                                                                                                                                                                                                                 
                  .|eg&NR000R0R000000000000000000000000000000000000000000000000000000000RRRQWw                                                                                                                                                                                                                                                                                                                                                                                                 
                   .<u4&N000R0R000000000000000000000000000000000000000000000000000000000R0RQRd'                                                                                                                                                                                                                                                                                                                                                                                                
                    `vCXK0Q0R000000000000000000000000000000000000000000000000000000000000R000&{                                                                                                                                                                                                                                                                                                                                                                                                
                     `rfGH0Q0000000000000000000000000000000000000000000000000000000000000R0RQBT`                                                                                                                                                                                                                                                                                                                                                                                               
                      'rfbW00000000000000000000000000000000000000000000000000000000000000R0RQRX>                                                                                                                                                                                                                                                                                                                                                                                               
                       ^I5ZDQRQR00000000000000000000000000000000000000000000000000000000000R008[                                                                                                                                                                                                                                                                                                                                                                                               
                       -\amAR00000000000000000000000000000000000000000000000000000000000000RR0Ww'                                                                                                                                                                                                                                                                                                                                                                                              
                       ._<zhOW00R0R00R000000000000000000000000000000000000000000000000000000R0RXv                                                                                                                                                                                                                                                                                                                                                                                              
                          <jmAMRR000RR0R0000000000000000000000000000000000000000000000000000R0QDz`                                                                                                                                                                                                                                                                                                                                                                                             
                         .-)jV8W0000R000000000000000000000000000000000000000000000000000000R000RV/                                                                                                                                                                                                                                                                                                                                                                                             
                         . _>LV8BQ0R00000000000000000000000000000000000000000000000000000R000000&c                                                                                                                                                                                                                                                                                                                                                                                             
                            `vTgONRRRR000000000000000000000000000000000000000000000000000000000QNy`                                                                                                                                                                                                                                                                                                                                                                                            
                             _rfh&W0000R000000000000000000000000000000000000000000000000000000000k\ .                                                                                                                                                                                                                                                                                                                                                                                          
                              :*zg80Q0R00000000000000000000000000000000000000000000000000000000RRH?                                                                                                                                                                                                                                                                                                                                                                                            
                               `)Tg$R00R00000000000000000000000000000000000000000000000000000000RNm^ .                                                                                                                                                                                                                                                                                                                                                                                         
                                `r#d$QQ000000000000000000000000000000000000000000000000000000000RMHe `.                                                                                                                                                                                                                                                                                                                                                                                        
                                .:%nEUN000000000000000000000000000000000000000000000000000000000RRN5:                                                                                                                                                                                                                                                                                                                                                                                          
                                  'lTm&MQ000000000000000000000000000000000000000000000000000000000MYc                                                                                                                                                                                                                                                                                                                                                                                          
                                  .;lTVUMQR00000000000000000000000000000000000000000000000000000000Mm.                                                                                                                                                                                                                                                                                                                                                                                         
                                    _ruSAMQ0R000000000000000000000000000000000000000000000000000000QA"                                                                                                                                                                                                                                                                                                                                                                                         
                                     :luS8N000R000000000000000000000000000000000000000000000000000QQB#-                                                                                                                                                                                                                                                                                                                                                                                        
                                     .:%jSkB000R000000000000000000000000000000000000000000000000R000RGi                                                                                                                                                                                                                                                                                                                                                                                        
                                       .rjpbNR00R00R00R0000000000000000000000000000000000000000000R00B#'                                                                                                                                                                                                                                                                                                                                                                                       
                                        ,/1mYB0000R000R000000000000000000000000000000000000000000R00Q0P<                                                                                                                                                                                                                                                                                                                                                                                       
                                         .>7fbMQR00R00R000000000000000000000000000000000000000000R000QD#.                                                                                                                                                                                                                                                                                                                                                                                      
                                         .%Ch&$BB000RR000000000000000000000000000000000000000000000000RP\                                                                                                                                                                                                                                                                                                                                                                                      
                                        )c1L#3yFOW000000000000000000000000000000000000000000000000R000QBT                                                                                                                                                                                                                                                                                                                                                                                      
                                        _^:  ^*#qGHQ000000000000000000000000000000000000000000000QRRQ0Q0b) .                                                                                                                                                                                                                                                                                                                                                                                   
                                             `={jFXHQ0R0000000000000000000000000000000000000000000R00RQQBw.                                                                                                                                                                                                                                                                                                                                                                                    
                                               ^ve64K0R00R0000R0000000000000000000000000000000000000000QQ81 .                                                                                                                                                                                                                                                                                                                                                                                  
                                               .;\[f4KRMRR00000R000000000000000000000000000000000000000QQRh'                                                                                                                                                                                                                                                                                                                                                                                   
                                                 -/!wXAKR0000R000000000000000000000000000000000000000000Q0&}                                                                                                                                                                                                                                                                                                                                                                                   
                                                 ._|l#SZUM0R000R0000000000000000000000000000000000000000QQR4/                                                                                                                                                                                                                                                                                                                                                                                  
                                                    .io3SA0Q00R000000000000000000000000000000000000000000QQN3`                                                                                                                                                                                                                                                                                                                                                                                 
                                                    .'"?oh&W00RR00000000000000000000000000000000000000000000&I                                                                                                                                                                                                                                                                                                                                                                                 
                                                       =ijFYNQQ00000000000000000000000000000000000000000000QMm^                                                                                                                                                                                                                                                                                                                                                                                
                                                        :\1F4ABQ0000RR0000000000000000000000000000000000000Q0Kn                                                                                                                                                                                                                                                                                                                                                                                
                                                          +[JFPBMQ0R00000000000000000000000000000000000000Q0QRGl_ .                                                                                                                                                                                                                                                                                                                                                                            
                                                          ./{z2g&N0000R00000000000000000000000000000000000000NNV) `                                                                                                                                                                                                                                                                                                                                                                            
                                                           .:ctwqAW000R000000000000000000000000000000000000QRN0Dn`                                                                                                                                                                                                                                                                                                                                                                             