0000000000000000000000000000000000000000000000000000000000000000000000000000000000000000000000000000000000QWC-                                                                                                                                                                                                                                                                                                                                                                                 
00000000000000000000000000000000000000000000000000000000000000000000000000000000000000000000000000000000000&r                                                                                                                                                                                                                                                                                                                                                                                  
000000000000000000000000000000000000000000000000000000000000000000000000000000000000000000000000000000000QW5'                                                                                                                                                                                                                                                                                                                                                                                  
0000000000000000000000000000000000000000000000000000000000000000000000000000000000000000000000000000000000ks                                                                                                                                                                                                                                                                                                                                                                                   
00000000000000000000000000000000000000000000000000000000000000000000000000000000000000000000000000000000QRE)                                                                                                                                                                                                                                                                                                                                                                                   
00000000000000000000000000000000000000000000000000000000000000000000000000000000000000000000000000000000Q@e                                                                                                                                                                                                                                                                                                                                                                                    
00000000000000000000000000000000000000000000000000000000000000000000000000000000000000000000000000000000Rd"                                                                                                                                                                                                                                                                                                                                                                                    
00000000000000000000000000000000000000000000000000000000000000000000000000000000000000000000000000000R0QBz                                                                                                                                                                                                                                                                                                                                                                                     
00000000000000000000000000000000000000000000000000000000000000000000000000000000000000000000000000000000Ax                                                                                                                                                                                                                                                                                                                                                                                     
00000000000000000000000000000000000000000000000000000000000000000000000000000000000000000000000000000RQN5`  .                                                                                                                                                                                                                                                                                                                                                                                  
0000000000000000000000000000000000000000000000000000000000000000000000000000000000000000000000000000RR0Da  .                                                                                                                                                                                                                                                                                                                                                                                   
00000000000000000000000000000000000000000000000000000000000000000000000000000000000000000000000000R0RQRX>  .                                                                                                                                                                                                                                                                                                                                                                                   
000000000000000000000000000000000000000000000000000000000000000000000000000000000000000000000000000R0QWC.                                                                                                                                                                                                                                                                                                                                                                                      
0000000000000000000000000000000000000000000000000000000000000000000000000000000000000000000000000RRR0QAl                                                                                                                                                                                                                                                                                                                                                                                       
0000000000000000000000000000000000000000000000000000000000000000000000000000000000000000000000000000QRV)                                                                                                                                                                                                                                                                                                                                                                                       
000000000000000000000000000000000000000000000000000000000000000000000000000000000000000000000000000QQBL`                                                                                                                                                                                                                                                                                                                                                                                       
000000000000000000000000000000000000000000000000000000000000000000000000000000000000000000000000000QRP> .                                                                                                                                                                                                                                                                                                                                                                                      
0000000000000000000000000000000000000000000000000000000000000000000000000000000000000000000000RR000QBC`                                                                                                                                                                                                                                                                                                                                                                                        
0000000000000000000000000000000000000000000000000000000000000000000000000000000000000000000000RR0000W#_                                                                                                                                                                                                                                                                                                                                                                                        
000000000000000000000000000000000000000000000000000000000000000000000000000000000000000000000000000Q@%                                                                                                                                                                                                                                                                                                                                                                                         
00000000000000000000000000000000000000000000000000000000000000000000000000000000000000000000000000QRV;                                                                                                                                                                                                                                                                                                                                                                                         
000000000000000000000000000000000000000000000000000000000000000000000000000000000000000000000000R0QBo                                                                                                                                                                                                                                                                                                                                                                                          
000000000000000000000000000000000000000000000000000000000000000000000000000000000000000000000000R00$]                                                                                                                                                                                                                                                                                                                                                                                          
00000000000000000000000000000000000000000000000000000000000000000000000000000000000000000000000000R4=                                                                                                                                                                                                                                                                                                                                                                                          
0000000000000000000000000000000000000000000000000000000000000000000000000000000000000000000000RRR0Dn`                                                                                                                                                                                                                                                                                                                                                                                          
00000000000000000000000000000000000000000000000000000000000000000000000000000000000000000000000RRM8!                                                                                                                                                                                                                                                                                                                                                                                           
0000000000000000000000000000000000000000000000000000000000000000000000000000000000000000000000000BE)                                                                                                                                                                                                                                                                                                                                                                                           
0000000000000000000000000000000000000000000000000000000000000000000000000000000000000000000000000Hw`                                                                                                                                                                                                                                                                                                                                                                                           
000000000000000000000000000000000000000000000000000000000000000000000000000000000000000000000000Q@[                                                                                                                                                                                                                                                                                                                                                                                            
000000000000000000000000000000000000000000000000000000000000000000000000000000000000000000000000QU}                                                                                                                                                                                                                                                                                                                                                                                            
0000000000000000000000000000000000000000000000000000000000000000000000000000000000000000000000000Ol                                                                                                                                                                                                                                                                                                                                                                                            
000000000000000000000000000000000000000000000000000000000000000000000000000000000000000000000000WS=                                                                                                                                                                                                                                                                                                                                                                                            
000000000000000000000000000000000000000000000000000000000000000000000000000000000000000000000000Hz.                                                                                                                                                                                                                                                                                                                                                                                            
0000000000000000000000000000000000000000000000000000000000000000000000000000000000000000000000008*                                                                                                                                                                                                                                                                                                                                                                                             
000000000000000000000000000000000000000000000000000000000000000000000000000000000000000000000000G|                                                                                                                                                                                                                                                                                                                                                                                             
0000000000000000000000000000000000000000000000000000000000000000000000000000000000000000000000QRS:                                                                                                                                                                                                                                                                                                                                                                                             
0000000000000000000000000000000000000000000000000000000000000000000000000000000000000000000R000D#                                                                                                                                                                                                                                                                                                                                                                                              
00000000000000000000000000000000000000000000000000000000000000000000000000000000000000000R0000RA1                                                                                                                                                                                                                                                                                                                                                                                              
0000000000000000000000000000000000000000000000000000000000000000000000000000000000000000000000RZv .                                                                                                                                                                                                                                                                                                                                                                                            
0000000000000000000000000000000000000000000000000000000000000000000000000000000000000000R0R0000G; `                                                                                                                                                                                                                                                                                                                                                                                            
0000000000000000000000000000000000000000000000000000000000000000000000000000000000000000000QRQRh;                                                                                                                                                                                                                                                                                                                                                                                              
000000000000000000000000000000000000000000000000000000000000000000000000000000000000000000R00QWw_                                                                                                                                                                                                                                                                                                                                                                                              
000000000000000000000000000000000000000000000000000000000000000000000000000000000000000000R00QKa                                                                                                                                                                                                                                                                                                                                                                                               
00000000000000000000000000000000000000000000000000000000000000000000000000000000000000000000QRXc .                                                                                                                                                                                                                                                                                                                                                                                             
00000000000000000000000000000000000000000000000000000000000000000000000000000000000000000R0RQMdv .                                                                                                                                                                                                                                                                                                                                                                                             
0000000000000000000000000000000000000000000000000000000000000000000000000000000000000000000RQMdv ..                                                                                                                                                                                                                                                                                                                                                                                            
000000000000000000000000000000000000000000000000000000000000000000000000000000000000000000000Np\                                                                                                                                                                                                                                                                                                                                                                                               
00000000000000000000000000000000000000000000000000000000000000000000000000000000000000000Q0QQN2-                                                                                                                                                                                                                                                                                                                                                                                               
00000000000000000000000000000000000000000000000000000000000000000000000000000000000000000Q00QNC                                                                                                                                                                                                                                                                                                                                                                                                
0000000000000000000000000000000000000000000000000000000000000000000000000000000000000000000RQB7                                                                                                                                                                                                                                                                                                                                                                                                
000000000000000000000000000000000000000000000000000000000000000000000000000000000000000000RMQ&v                                                                                                                                                                                                                                                                                                                                                                                                
0000000000000000000000000000000000000000000000000000000000000000000000000000000000000000R00R0Yi                                                                                                                                                                                                                                                                                                                                                                                                
000000000000000000000000000000000000000000000000000000000000000000000000000000000000000000Q00b\                                                                                                                                                                                                                                                                                                                                                                                                
0000000000000000000000000000000000000000000000000000000000000000000000000000000000000000R00R0Z+                                                                                                                                                                                                                                                                                                                                                                                                
000000000000000000000000000000000000000000000000000000000000000000000000000000000000000000RMRE^                                                                                                                                                                                                                                                                                                                                                                                                
00000000000000000000000000000000000000000000000000000000000000000000000000000000000000000RRMMS'                                                                                                                                                                                                                                                                                                                                                                                                
00000000000000000000000000000000000000000000000000000000000000000000000000000000000000000RRMMq_                                                                                                                                                                                                                                                                                                                                                                                                
000000000000000000000000000000000000000000000000000000000000000000000000000000000000000000RMM6`                                                                                                                                                                                                                                                                                                                                                                                                
R000000R0000000000000000000000000000000000000000000000000000000000000000000000000000000000R0Ny-                                                                                                                                                                                                                                                                                                                                                                                                
0000000000000000000000000000000000000000000000000000000000000000000000000000000000000000000QBu.                                                                                                                                                                                                                                                                                                                                                                                                
00Q000000000000000000000000000000000000000000000000000000000000000000000000000000000000000QQBu`                                                                                                                                                                                                                                                                                                                                                                                                
MQ0000000000000000000000000000000000000000000000000000000000000000000000000000000000000000QQBL.                                                                                                                                                                                                                                                                                                                                                                                                
&R0000000000000000000000000000000000000000000000000000000000000000000000000000000000000000RQK}                                                                                                                                                                                                                                                                                                                                                                                                 
VKMR0000000000000000000000000000000000000000000000000000000000000000000000000000000000000RRRP|                                                                                                                                                                                                                                                                                                                                                                                                 
mAWR0R0R000000000000000000000000000000000000000000000000000000000000000000000000000000000MMM2`                                                                                                                                                                                                                                                                                                                                                                                                 
yZKR00000000000000000000000000000000000000000000000000000000000000000000000000000000000000RNGv                                                                                                                                                                                                                                                                                                                                                                                                 
7d8MQ0R0000000000000000000000000000000000000000000000000000000000000000000000000000000000RRRH?                                                                                                                                                                                                                                                                                                                                                                                                 
)T4@00000000000000000000000000000000000000000000000000000000000000000000000000000000000000R0D!                                                                                                                                                                                                                                                                                                                                                                                                 
"eq8Q0000000000000000000000000000000000000000000000000000000000000000000000000000000000000RRDt                                                                                                                                                                                                                                                                                                                                                                                                 
;]pkRQR00000000000000000000000000000000000000000000000000000000000000000000000000000000000RNMy                                                                                                                                                                                                                                                                                                                                                                                                 
`\zh@M000000000000000000000000000000000000000000000000000000000000000000000000000000000000RNMy                                                                                                                                                                                                                                                                                                                                                                                                 
 ;*wOWQR0000000000000000000000000000000000000000000000000000000000000000000000000000000000RNMy                                                                                                                                                                                                                                                                                                                                                                                                 
 `>uP@R000R0000000000000000000000000000000000000000000000000000000000000000000000000000000RNMy                                                                                                                                                                                                                                                                                                                                                                                                 
  ,?6kB00000000000000000000000000000000000000000000000000000000000000000000000000000000000RNMy                                                                                                                                                                                                                                                                                                                                                                                                 
. .<jV$RQ000000000000000000000000000000000000000000000000000000000000000000000000000000000RNMy                                                                                                                                                                                                                                                                                                                                                                                                 
  .)eq8RQ000000000000000000000000000000000000000000000000000000000000000000000000000000000RNM3                                                                                                                                                                                                                                                                                                                                                                                                 
   `%CP@RRR000R00000000000000000000000000000000000000000000000000000000000000000000000000R0M0g-                                                                                                                                                                                                                                                                                                                                                                                                
    /aSOBR0000R00000000000000000000000000000000000000000000000000000000000000000000000000RRMQG_                                                                                                                                                                                                                                                                                                                                                                                                
  . .<u4UM00R00R00000000000000000000000000000000000000000000000000000000000000000000000000RR0P_                                                                                                                                                                                                                                                                                                                                                                                                
 .. .^IF&MRR0R00000000000000000000000000000000000000000000000000000000000000000000000000R0RR0X;                                                                                                                                                                                                                                                                                                                                                                                                
    . ;1d$M00000000000000000000000000000000000000000000000000000000000000000000000000000R0RR0Z>                                                                                                                                                                                                                                                                                                                                                                                                
      'lwPBQ0000000000000000000000000000000000000000000000000000000000000000000000000000R0RRQ&%                                                                                                                                                                                                                                                                                                                                                                                                
      .|ag$RQ0000000000000000000000000000000000000000000000000000000000000000000000000000RRRQ@x                                                                                                                                                                                                                                                                                                                                                                                                
       'c#4$R000000000000000000000000000000000000000000000000000000000000000000000000000000R0D]                                                                                                                                                                                                                                                                                                                                                                                                
       `|[5bN00000000000000000000000000000000000000000000000000000000000000000000000000000000WJ                                                                                                                                                                                                                                                                                                                                                                                                
       ._>LdHR000000000000000000000000000000000000000000000000000000000000000000000000000R00RNw.                                                                                                                                                                                                                                                                                                                                                                                               
         ;]6YDM000000000000000000000000000000000000000000000000000000000000000000000000000R0MM6'                                                                                                                                                                                                                                                                                                                                                                                               
         -%#dUN0Q000000000000000000000000000000000000000000000000000000000000000000000000000M0P/                                                                                                                                                                                                                                                                                                                                                                                               
          ,}3ZD0Q000000000000000000000000000000000000000000000000000000000000000000000000RQ0R0A%                                                                                                                                                                                                                                                                                                                                                                                               
           |tS&RQQ00000000000000000000000000000000000000000000000000000000000000000000000000QQ$*                                                                                                                                                                                                                                                                                                                                                                                               
          .,lwPDRQ00000000000000000000000000000000000000000000000000000000000000000000000000QQDt`                                                                                                                                                                                                                                                                                                                                                                                              
            /aSODRR000R000000000000000000000000000000000000000000000000000000000000000000RR00RWn:                                                                                                                                                                                                                                                                                                                                                                                              
            -%JE8N0000R0000000000000000000000000000000000000000000000000000000000000000000R00RWy:                                                                                                                                                                                                                                                                                                                                                                                              
             ;?6PD0000R00000000000000000000000000000000000000000000000000000000000000000R0R00RMm"                                                                                                                                                                                                                                                                                                                                                                                              
              /L2YBRQ0R000000000000000000000000000000000000000000000000000000000000000000R00Q0RZx                                                                                                                                                                                                                                                                                                                                                                                              
              `iLd$R0000000000000000000000000000000000000000000000000000000000000000000000000RQK1                                                                                                                                                                                                                                                                                                                                                                                              
              .+rwGH000R0000000000000000000000000000000000000000000000000000000000000000000000QDz. .                                                                                                                                                                                                                                                                                                                                                                                           
               ./tqYR00000000000000000000000000000000000000000000000000000000000000000000R00R00Np= .                                                                                                                                                                                                                                                                                                                                                                                           
                .>nhUMRR00000000000000000000000000000000000000000000000000000000000000000000000RG)                                                                                                                                                                                                                                                                                                                                                                                             
                 ,}yP@R000000000000000000000000000000000000000000000000000000000000000000000000QUi                                                                                                                                                                                                                                                                                                                                                                                             
                 .=1mkN000000000000000000000000000000000000000000000000000000000000000000000000QBu                                                                                                                                                                                                                                                                                                                                                                                             
                  _>eq&W00R000000000000000000000000000000000000000000000000000000000000000000000Rh,                                                                                                                                                                                                                                                                                                                                                                                            
                   _iu4@R0000R000000000000000000000000000000000000000000000000000000000000000000RG<                                                                                                                                                                                                                                                                                                                                                                                            
                    ,sfbHM00Q00R00000000000000000000000000000000000000000000000000000000000000000Ar                                                                                                                                                                                                                                                                                                                                                                                            
                    .)7hkD00Q0R00000000000000000000000000000000000000000000000000000000000000000QWw.                                                                                                                                                                                                                                                                                                                                                                                           
                     `i#h&MQR0R0000000000000000000000000000000000000000000000000000000000000000QQMm_                                                                                                                                                                                                                                                                                                                                                                                           
                      :sCXKR00000000000000000000000000000000000000000000000000000000000000000000QRZ<                                                                                                                                                                                                                                                                                                                                                                                           
                       ^I3ZDR000000000000000000000000000000000000000000000000000000000000000000RR0$[.                                                                                                                                                                                                                                                                                                                                                                                          
                       `<opbB00000000000000000000000000000000000000000000000000000000000000000000QMF,                                                                                                                                                                                                                                                                                                                                                                                          
                        :izSAN0R000000000000000000000000000000000000000000000000000000000000000Q00Rg<  .                                                                                                                                                                                                                                                                                                                                                                                       
                        .,cng&M000000000000000000000000000000000000000000000000000000000000000000MQAl  .                                                                                                                                                                                                                                                                                                                                                                                       
                        .`^*#EHQ0000000000000000000000000000000000000000000000000000000000000000R00HT` ..                                                                                                                                                                                                                                                                                                                                                                                      
                           ^I2kWM000000R0000000000000000000000000000000000000000000000000000000000QMm+                                                                                                                                                                                                                                                                                                                                                                                         
                           ./[FbK000000R000000000000000000000000000000000000000000000000000000000000ks                                                                                                                                                                                                                                                                                                                                                                                         
                            :ijgGDRQ000000000000000000000000000000000000000000000000000000000000RRRQDn.                                                                                                                                                                                                                                                                                                                                                                                        
                            .'%TSYKQQ0R000000000000000000000000000000000000000000000000000000000R0RQ0g=                                                                                                                                                                                                                                                                                                                                                                                        
                              ^*LV&WQ00000000000000000000000000000000000000000000000000000000000R0R00Ar                                                                                                                                                                                                                                                                                                                                                                                        
                              `={Cd&0R00000000000000000000000000000000000000000000000000000000000R0R0B#-                                                                                                                                                                                                                                                                                                                                                                                       
                                ^I3P@RQR000000000000000000000000000000000000000000000000000000000000QR4<                                                                                                                                                                                                                                                                                                                                                                                       
                                 ;?2E@R0000000R00000000000000000000000000000000000000000000000000R0RRQ81                                                                                                                                                                                                                                                                                                                                                                                       
                                 ./!wXKR000000R000000000000000000000000000000000000000000000000000R0R0W3;                                                                                                                                                                                                                                                                                                                                                                                      
                                 .-\I5bHRQ0R0000000000000000000000000000000000000000000000000000R0R000M4i                                                                                                                                                                                                                                                                                                                                                                                      
                                 . .^?pb$RQ00R0R0000000000000000000000000000000000000000000000000R00000K7`                                                                                                                                                                                                                                                                                                                                                                                     
                                     "omPKMQ0000000000000000000000000000000000000000000000000000000000QRE)                                                                                                                                                                                                                                                                                                                                                                                     
                                     ."tmkBRRR0RRRR00000000000000000000000000000000000000000000000000000$e                                                                                                                                                                                                                                                                                                                                                                                     
                                       \7mON00RRRRRR000000000000000000000000000000000000000000000000000QWy,                                                                                                                                                                                                                                                                                                                                                                                    
                                      .'<oS&BR000RRR0000000000000000000000000000000000000000000000R00000Rbc  .                                                                                                                                                                                                                                                                                                                                                                                 
                                        `)zFgHRQ00RR00R0000000000000000000000000000000000000000000000000QBu` .                                                                                                                                                                                                                                                                                                                                                                                 
                                        .')75GDR0RRR00R00000000000000000000000000000000000000000000000000RE"                                                                                                                                                                                                                                                                                                                                                                                   
                                          -ve3PHR00R0000000000000000000000000000000000000000000000000000R0$s                                                                                                                                                                                                                                                                                                                                                                                   
                                           ')opYHR0RR0R00000000000000000000000000000000000000000000000000QMq'                                                                                                                                                                                                                                                                                                                                                                                  
                                            :vo6g$MQ00R00000000000000000000000000000000000000000000000000RQU{ .                                                                                                                                                                                                                                                                                                                                                                                
                                            .:iewE@R00000000000000000000000000000000000000000000000000000RQN6, .                                                                                                                                                                                                                                                                                                                                                                               
                                              _<?Jd8NQ00000000000000000000000000000000000000000000000000RRRR&}                                                                                                                                                                                                                                                                                                                                                                                 
                                               `|}#d8N0000000000000000000000000000000000000000000000000000RQDC'                                                                                                                                                                                                                                                                                                                                                                                
                                                -+{#VADR0000000000000000000000000000000000000000000000000R00RGc                                                                                                                                                                                                                                                                                                                                                                                
                                                  ^snSbBQQ0RR00000000000000000000000000000000000000000000RQ00W3.                                                                                                                                                                                                                                                                                                                                                                               
                                                  `+rumbBM00000000000000000000000000000000000000000000000000QQAl                                                                                                                                                                                                                                                                                                                                                                               
                                                   `+{j5GKR0RR000000000000000000000000000000000000000000000QQQMF_                                                                                                                                                                                                                                                                                                                                                                              
                                                    `=%ty4$MQ00000000000000000000000000000000000000000000QR00QQkv                                                                                                                                                                                                                                                                                                                                                                              
                                                      '\!C4$R000000000000000000000000000000000000000000000R0R0QBC_                                                                                                                                                                                                                                                                                                                                                                             
                                                       `"ICd&N000000000000000000000000000000000000000000000000Q0Y%                                                                                                                                                                                                                                                                                                                                                                             
                                                        `+rumYWR0000000000000000000000000000000000000000000000QQRg;                                                                                                                                                                                                                                                                                                                                                                            
                                                        ._<7S8WMRRR0000000000000000000000000000000000000000000QQQH7-                                                                                                                                                                                                                                                                                                                                                                           
                                                        '"r#SPkUMMR000R0000000000000000000000000000000000000000QQRX>                                                                                                                                                                                                                                                                                                                                                                           
                                                         '^\c?JmEAB0RR0R0000000000000000000000000000000000000000QQDC`                                                                                                                                                                                                                                                                                                                                                                          
                                                          .  `|[#gb@MNR000000000000000000000000000000000000000000Q0&?`                                                                                                                                                                                                                                                                                                                                                                         
                                                               ;ceyhADB0000000000000000000000000000000000000000000QR4>                                                                                                                                                                                                                                                                                                                                                                         
                                                                _"sop4kMQQR0R0000000000000000000000000000000000000QQHn'                                                                                                                                                                                                                                                                                                                                                                        
                                                                  :\?u6YDNM000R00000000000000000000000000000000000QQ0k*                                                                                                                                                                                                                                                                                                                                                                        
                                                                   '+l75g&BQ0Q0R00000000000000000000000000000000000QQRS=                                                                                                                                                                                                                                                                                                                                                                       
                                                                    .'<1fgZ@M0R0000000000000000000000000000000000000QQDj                                                                                                                                                                                                                                                                                                                                                                       
                                                                      _\1J54UMR00000000000000000000000000000000000000QQ$1`                                                                                                                                                                                                                                                                                                                                                                     
                                                                     . `"{724OBR0000R00R000000000000000000000000000R00Q0Pv                                                                                                                                                                                                                                                                                                                                                                     
                                                                         :<?fqg8Q00R00R000000000000000000000000000000R0QBy: .                                                                                                                                                                                                                                                                                                                                                                  
                                                                         ..^leCS8WRR00R00000000000000000000000000000000QQ8[_                                                                                                                                                                                                                                                                                                                                                                   
                                                                          ..')*um4ADM0R0000000000000000000000000000000000RA?                                                                                                                                                                                                                                                                                                                                                                   
                                                                             .=loJSG8W0000000000000000000000000000000RRRR0RS= .                                                                                                                                                                                                                                                                                                                                                                
                                                                              `'|coySg$MQ00RR00000000000000000000000000000QBT:                                                                                                                                                                                                                                                                                                                                                                 
                                                                                `;i!n5hbBMRRRRR00000000000000000000000000000$L-                                                                                                                                                                                                                                                                                                                                                                
                                                                                 ._+%[TFXOKNRMRRRR00000000000000000000000000Q&I.                                                                                                                                                                                                                                                                                                                                                               
                                                                                    `+caymEk@BMRRRR0000000000000000000000R0Q0RPr  .                                                                                                                                                                                                                                                                                                                                                            
                                                                                     .;>[Lf6EY$M00000000000000000000000000R00Q0E;                                                                                                                                                                                                                                                                                                                                                              