00000000000000000000000000000000000000000000000000000000000000000000000000000000000000000000000000000000000000000000000000000000000000000000000000000000000000000000000000000000000000000000000000000000000000000000000000000000000000000000000000000000000000000000000000000000000000000000000000000000000000000000000000000000000000000000000000000000000000000000000000000000000000000000000000000000000000000000000000000000000000000000000000000000000000000000000000000000000000000000000
00000000000000000000000000000000000000000000000000000000000000000000000000000000000000000000000000000000000000000000000000000000000000000000000000000000000000000000000000000000000000000000000000000000000000000000000000000000000000000000000000000000000000000000000000000000000000000000000000000000000000000000000000000000000000000000000000000000000000000000000000000000000000000000000000000000000000000000000000000000000000000000000000000000000000000000000000000000000000000000000
00000000000000000000000000000000000000000000000000000000000000000000000000000000000000000000000000000000000000000000000000000000000000000000000000000000000000000000000000000000000000000000000000000000000000000000000000000000000000000000000000000000000000000000000000000000000000000000000000000000000000000000000000000000000000000000000000000000000000000000000000000000000000000000000000000000000000000000000000000000000000000000000000000000000000000000000000000000000000000000000
00000000000000000000000000000000000000000000000000000000000000000000000000000000000000000000000000000000000000000000000000000000000000000000000000000000000000000000000000000000000000000000000000000000000000000000000000000000000000000000000000000000000000000000000000000000000000000000000000000000000000000000000000000000000000000000000000000000000000000000000000000000000000000000000000000000000000000000000000000000000000000000000000000000000000000000000000000000000000000000000
00000000000000000000000000000000000000000000000000000000000000000000000000000000000000000000000000000000000000000000000000000000000000000000000000000000000000000000000000000000000000000000000000000000000000000000000000000000000000000000000000000000000000000000000000000000000000000000000000000000000000000000000000000000000000000000000000000000000000000000000000000000000000000000000000000000000000000000000000000000000000000000000000000000000000000000000000000000000000000000000
00000000000000000000000000000000000000000000000000000000000000000000000000000000000000000000000000000000000000000000000000000000000000000000000000000000000000000000000000000000000000000000000000000000000000000000000000000000000000000000000000000000000000000000000000000000000000000000000000000000000000000000000000000000000000000000000000000000000000000000000000000000000000000000000000000000000000000000000000000000000000000000000000000000000000000000000000000000000000000000000
00000000000000000000000000000000000000000000000000000000000000000000000000000000000000000000000000000000000000000000000000000000000000000000000000000000000000000000000000000000000000000000000000000000000000000000000000000000000000000000000000000000000000000000000000000000000000000000000000000000000000000000000000000000000000000000000000000000000000000000000000000000000000000000000000000000000000000000000000000000000000000000000000000000000000000000000000000000000000000000000
00000000000000000000000000000000000000000000000000000000000000000000000000000000000000000000000000000000000000000000000000000000000000000000000000000000000000000000000000000000000000000000000000000000000000000000000000000000000000000000000000000000000000000000000000000000000000000000000000000000000000000000000000000000000000000000000000000000000000000000000000000000000000000000000000000000000000000000000000000000000000000000000000000000000000000000000000000000000000000000000
00000000000000000000000000000000000000000000000000000000000000000000000000000000000000000000000000000000000000000000000000000000000000000000000000000000000000000000000000000000000000000000000000000000000000000000000000000000000000000000000000000000000000000000000000000000000000000000000000000000000000000000000000000000000000000000000000000000000000000000000000000000000000000000000000000000000000000000000000000000000000000000000000000000000000000000000000000000000000000000000
00000000000000000000000000000000000000000000000000000000000000000000000000000000000000000000000000000000000000000000000000000000000000000000000000000000000000000000000000000000000000000000000000000000000000000000000000000000000000000000000000000000000000000000000000000000000000000000000000000000000000000000000000000000000000000000000000000000000000000000000000000000000000000000000000000000000000000000000000000000000000000000000000000000000000000000000000000000000000000000000
00000000000000000000000000000000000000000000000000000000000000000000000000000000000000000000000000000000000000000000000000000000000000000000000000000000000000000000000000000000000000000000000000000000000000000000000000000000000000000000000000000000000000000000000000000000000000000000000000000000000000000000000000000000000000000000000000000000000000000000000000000000000000000000000000000000000000000000000000000000000000000000000000000000000000000000000000000000000000000000000
0000000000000000000000000000000000000000000000000000000000000000000000000000000000000000000000000000000000000000000000000000000000000000000QQQQQQQRRQQ000000000000000R0000000000000R000R0000000000000000000000000000000000000000000000000000000000000000000000000000000000000000000000000000000000000000000000000000000000000000000000000000000000000000000000000000000000000000000000000000000000000000000000000000000000000000000000000000000000000000000000000000000000000000000000000000000
0000000000000000000000000000000000000000000000000000000000000000000000000000000000000000000000000000000000000000000000000000000000000000QQ0842JFgTrxogBR000000000000000000000000000000000000000000000000000000000000000000000000000000000000000000000000000000000000000000000000000000000000000000000000000000000000000000000000000000000000000000000000000000000000000000000000000000000000000000000000000000000000000000000000000000000000000000000000000000000000000000000000000000000000000
000000000000000000000000000000000000000000000000000000000000000000000000000000000000000000000000000000000000000000000000000000000RRRQQQQ&FI/`  __`   -[$Q0QQQQQQQQQRR0000000RRR0R0QQQQQQQ00RR00000000000000000000000000000000000000000000000000000000000000000000000000000000000000000000000000000000000000000000000000000000000000000000000000000000000000000000000000000000000000000000000000000000000000000000000000000000000000000000000000000000000000000000000000000000000000000000000000
00000000000000000000000000000000000000000000000000000000000000000000000000000000000000000000000000000000000000000000000000R00R00R0QMA3wj=  .    . `.  ;pQQRDAYg6fj!srrsssssrrrssr*ow2gYHNQQQQ00000000000000000000000000000000000000000000000000000000000000000000000000000000000000000000000000000000000000000000000000000000000000000000000000000000000000000000000000000000000000000000000000000000000000000000000000000000000000000000000000000000000000000000000000000000000000000000000000
00000000000000000000000000000000000000000000000000000000000000000000000000000000000000000000000000000000000000000000000000R000R&UQMhc               .-`xCex<;:_                      .;\xe5XUMQQRR000000000000000000000000000000000000000000000000000000000000000000000000000000000000000000000000000000000000000000000000000000000000000000000000000000000000000000000000000000000000000000000000000000000000000000000000000000000000000000000000000000000000000000000000000000000000000000000
000000000000000000000000000000000000000000000000000000000000000000000000000000000000000000000000000000000000000000000000000QQ0bvrPm" ..                                                    _"!FbHQQQ0000000000000000000000000000000000000000000000000000000000000000000000000000000000000000000000000000000000000000000000000000000000000000000000000000000000000000000000000000000000000000000000000000000000000000000000000000000000000000000000000000000000000000000000000000000000000000000
0000000000000000000000000000000000000000000000000000000000000000000000000000000000000000000000000000000000000000000000000000Q8? /I/                                                       .   `:ifkMQQQQQQ0000000000000000000000000000000000000000000000000000000000000000000000000000000000000000000000000000000000000000000000000000000000000000000000000000000000000000000000000000000000000000000000000000000000000000000000000000000000000000000000000000000000000000000000000000000000000
000000000000000000000000000000000000000000000000000000000000000000000000000000000000000000000000000000000000000000000000000QWw- .-."v:                                                        ..  :l#gOKNQQQQQ00R000R00000000000000000000000000000000000000000000000000000000000000000000000000000000000000000000000000000000000000000000000000000000000000000000000000000000000000000000000000000000000000000000000000000000000000000000000000000000000000000000000000000000000000000000000000
000000000000000000000000000000000000000000000000000000000000000000000000000000000000000000000000000000000000000000000000R0R0k%    vZb*                                                               .=\)!wgkB0QQR0000R000000000000000000000000000000000000000000000000000000000000000000000000000000000000000000000000000000000000000000000000000000000000000000000000000000000000000000000000000000000000000000000000000000000000000000000000000000000000000000000000000000000000000000000000
00000000000000000000000000000000000000000000000000000000000000000000000000000000000000000000000000000000000000000000000000QD7   `/!]^.                                                                     `^>?2ONQQ000000000000000000000000000000000000000000000000000000000000000000000000000000000000000000000000000000000000000000000000000000000000000000000000000000000000000000000000000000000000000000000000000000000000000000000000000000000000000000000000000000000000000000000000000
000000000000000000000000000000000000000000000000000000000000000000000000000000000000000000000000000000000000000000000RR000RGi                                                                                   ,{m@0Q0000R00000000000000000000000000000000000000000000000000000000000000000000000000000000000000000000000000000000000000000000000000000000000000000000000000000000000000000000000000000000000000000000000000000000000000000000000000000000000000000000000000000000000000000000
000000000000000000000000000000000000000000000000000000000000000000000000000000000000000000000000000000000000000000RRQ0RR0QMF:                                                                                     `|n8QQ00R00000000000000000000000000000000000000000000000000000000000000000000000000000000000000000000000000000000000000000000000000000000000000000000000000000000000000000000000000000000000000000000000000000000000000000000000000000000000000000000000000000000000000000000
00000000000000000000000000000000000000000000000000000000000000000000000000000000000000000000000000000000000000000000000RRQks                                                                                     .. `xSNQ0000000000000000000000000000000000000000000000000000000000000000000000000000000000000000000000000000000000000000000000000000000000000000000000000000000000000000000000000000000000000000000000000000000000000000000000000000000000000000000000000000000000000000000000
0000000000000000000000000000000000000000000000000000000000000000000000000000000000000000000000000000000000000000000000R0R4c-                                                                                      .-` "FMQ00R000000000000000000000000000000000000000000000000000000000000000000000000000000000000000000000000000000000000000000000000000000000000000000000000000000000000000000000000000000000000000000000000000000000000000000000000000000000000000000000000000000000000000000
0000000000000000000000000000000000000000000000000000000000000000000000000000000000000000000000000000000000000000000000ROI:                                                                                        ... .sZ00R0R00000000000000000000000000000000000000000000000000000000000000000000000000000000000000000000000000000000000000000000000000000000000000000000000000000000000000000000000000000000000000000000000000000000000000000000000000000000000000000000000000000000000000000
00000000000000000000000000000000000000000000000000000000000000000000000000000000000000000000000000000000000000000R000@#"                                                                                               )h0RR000R000000000000000000000000000000000000000000000000000000000000000000000000000000000000000000000000000000000000000000000000000000000000000000000000000000000000000000000000000000000000000000000000000000000000000000000000000000000000000000000000000000000000000
000000000000000000000000000000000000000000000000000000000000000000000000000000000000000000000000000000000000000000R0Ke.._`                                                                                             /pMWM0RR0000000000000000000000000000000000000000000000000000000000000000000000000000000000000000000000000000000000000000000000000000000000000000000000000000000000000000000000000000000000000000000000000000000000000000000000000000000000000000000000000000000000000000
000000000000000000000000000000000000000000000000000000000000000000000000000000000000000000000000000000000000000000R0BPdz_.                                                                                             `xgNQR000000000000000000000000000000000000000000000000000000000000000000000000000000000000000000000000000000000000000000000000000000000000000000000000000000000000000000000000000000000000000000000000000000000000000000000000000000000000000000000000000000000000000000
000000000000000000000000000000000000000000000000000000000000000000000000000000000000000000000000000000000000000000000QA{-`                                                                                               ;1PRQR0R00000R00000000000000000000000000000000000000000000000000000000000000000000000000000000000000000000000000000000000000000000000000000000000000000000000000000000000000000000000000000000000000000000000000000000000000000000000000000000000000000000000000000000
00000000000000000000000000000000000000000000000000000000000000000000000000000000000000000000000000000000000000000RRRQKt.:-                                                                                                 ;oAQMMRR000000000000000000000000000000000000000000000000000000000000000000000000000000000000000000000000000000000000000000000000000000000000000000000000000000000000000000000000000000000000000000000000000000000000000000000000000000000000000000000000000000000000
0000000000000000000000000000000000000000000000000000000000000000000000000000000000000000000000000000000000000000000R0Bmur                                                                                                    )hR0RRR00000000000000000000000000000000000000000000000000000000000000000000000000000000000000000000000000000000000000000000000000000000000000000000000000000000000000000000000000000000000000000000000000000000000000000000000000000000000000000000000000000000000
00000000000000000000000000000000000000000000000000000000000000000000000000000000000000000000000000000000000000000000R0QDo  _.                                                                                                 ^j80R00R000000000000000000000000000000000000000000000000000000000000000000000000000000000000000000000000000000000000000000000000000000000000000000000000000000000000000000000000000000000000000000000000000000000000000000000000000000000000000000000000000000000
0000000000000000000000000000000000000000000000000000000000000000000000000000000000000000000000000000000000000000000Q0R0W3: `.                                                                                                   igRQRR000000000000000000000000000000000000000000000000000000000000000000000000000000000000000000000000000000000000000000000000000000000000000000000000000000000000000000000000000000000000000000000000000000000000000000000000000000000000000000000000000000000
00000000000000000000000000000000000000000000000000000000000000000000000000000000000000000000000000000000000000000000000Rg)                                                                                                       ^#K0R000000000000000000000000000000000000000000000000000000000000000000000000000000000000000000000000000000000000000000000000000000000000000000000000000000000000000000000000000000000000000000000000000000000000000000000000000000000000000000000000000000000
00000000000000000000000000000000000000000000000000000000000000000000000000000000000000000000000000000000000000000000QQ0Q$?.                                                                                                       -tUQ000000000000000000000000000000000000000000000000000000000000000000000000000000000000000000000000000000000000000000000000000000000000000000000000000000000000000000000000000000000000000000000000000000000000000000000000000000000000000000000000000000000
00000000000000000000000000000000000000000000000000000000000000000000000000000000000000000000000000000000000000000000QQ00BJ_                                                                                                        `]OQQ0000000000000000000000000000000000000000000000000000000000000000000000000000000000000000000000000000000000000000000000000000000000000000000000000000000000000000000000000000000000000000000000000000000000000000000000000000000000000000000000000000000
00000000000000000000000000000000000000000000000000000000000000000000000000000000000000000000000000000000000000000000QQRMRPi  .                                                                                                       xX0Q00R0RR000000000000000000000000000000000000000000000000000000000000000000000000000000000000000000000000000000000000000000000000000000000000000000000000000000000000000000000000000000000000000000000000000000000000000000000000000000000000000000000000
000000000000000000000000000000000000000000000000000000000000000000000000000000000000000000000000000000000000000000000Q00QDT_                                                                                                         _]kQ000R00000000000000000000000000000000000000000000000000000000000000000000000000000000000000000000000000000000000000000000000000000000000000000000000000000000000000000000000000000000000000000000000000000000000000000000000000000000000000000000000000
00000000000000000000000000000000000000000000000000000000000000000000000000000000000000000000000000000000000000000R00000Q0Q&l.                                                                                                         -a8Q00000000000000000000000000000000000000000000000000000000000000000000000000000000000000000000000000000000000000000000000000000000000000000000000000000000000000000000000000000000000000000000000000000000000000000000000000000000000000000000000000000
0000000000000000000000000000000000000000000000000000000000000000000000000000000000000000000000000000000000000000000000000QQYv                                                                                                           cX000R0000000000000000000000000000000000000000000000000000000000000000R00000000000000000000RR0000000000000000000000000000000000000000000000000000000000000000000000000000000000000000000000000000000000000000000000000000000000000000000000000000000000
000000000000000000000000000000000000000000000000000000000000000000000000000000000000000000000000000000000000000000000000R0QHt `.                                                                                                        `ldNQ00000000000000000000000000000000000000000000000000000000000RR0Q00Q00000000000000000000000000000000000000000000000000000000000000000000000000000000000000000000000000000000000000000000000000000000000000000000000000000000000000000000000000000000
0000000000000000000000000000000000000000000000000000000000000000000000000000000000000000000000000000000000000000000000QQ00Nd% `                                                                                                           lGQ000000000000000000000000000000000000000000000000000000000QQQQQNBBDDBBBWMRQQQQQQQQQQ0000000R0000000000000000000000000000000000000000000000000000000000000000000000000000000000000000000000000000000000000000000000000000000000000000000000000000000
000000000000000000000000000000000000000000000000000000000000000000000000000000000000000000000000000000000000000000000QQ0QRbs                                                                                                              ,uK0R0R000000000000000000000000000000000000000000000000000QQQ$Vfoc))<<i><x{o3X$HHBWBWM0QQQQQQQQ00000000000R000000000000000000000000000000000000000000000000000000000000000000000000000000000000000000000000000000000000000000000000000000000000000000
000000000000000000000000000000000000000000000000000000000000000000000000000000000000000000000000000000000000000000000QQ0Q@o' .                                                                                                           . ^2MR000000000000000000000000000000000000000000000000000Q0$S1|-             .'/|"\)>)cIeuC5gXAHMQQQQQQ000R000000000R000000000000000000000000000000000000000000000000000000000000000000000000000000000000000000000000000000000000000000000000000000000
00000000000000000000000000000000000000000000000000000000000000000000000000000000000000000000000000000000000000000000000QWJ..                                                                                                             .  jMQR000000000000000000000000000000000000000000000000RQNhv  ...            .`              -,<}7n6G$NQQQQQQQQ000000000000000000000000000000000000000000000000000000000000000000000000000000000000000000000000000000000000000000000000000000000000000
00000000000000000000000000000000000000000000000000000000000000000000000000000000000000000000000000000000000000000000R0QN6| `                                                                                                             .  zWQRR0000000000000000000000000000000000000000000000RQ$j, ..                                .     -^sThZPgb&HMQQQQ0000000000000000000000000000000000000000000000000000000000000000000000000000000000000000000000000000000000000000000000000000000000
0000000000000000000000000000000000000000000000000000000000000000000000000000000000000000000000000000000000000000000000QY> .                                                                                                              . "qMMM000000000000000000000000000000000000000000000000N3^ `                                            `;,`-;\l7VURQQRR000000000000000000000000000000000000000000000000000000000000000000000000000000000000000000000000000000000000000000000000000000
000000000000000000000000000000000000000000000000000000000000000000000000000000000000000000000000000000000000000000R000$z -.                                                                                                                eBRNRR0000000000000000000000000000000000000000000000RA}.`.                                                     `"!6$Q00RR000000000000000000000000000000000000000000000000000000000000000000000000000000000000000000000000000000000000000000000000000
000000000000000000000000000000000000000000000000000000000000000000000000000000000000000000000000000000000000000000RQQBy=..                                                                                                                )qM0R000000000000000000000000000000000000000000000000M&l .                                                         .cqDQ000R0000000000000000000000000000000000000000000000000000000000000000000000000000000000000000000000000000000000000000000000000
00000000000000000000000000000000000000000000000000000000000000000000000000000000000000000000000000000000000000000RRQRX) `                                                                                                                -e@Q0R000000000000000000000000000000000000000000000000QN3"                                                            'tAQ0R0R000000000000000000000000000000000000000000000000000000000000000000000000000000000000000000000000000000000000000000000000
0000000000000000000000000000000000000000000000000000000000000000000000000000000000000000000000000000000000000000RRR0@z.                                                                                                               . 'o8RR0000000000000000000000000000000000000000000000000R00R4c_.                                                          .}ZR000000000000000000000000000000000000000000000000000000000000000000000000000000000000000000000000000000000000000000000000000
0000000000000000000000000000000000000000000000000000000000000000000000000000000000000000000000000000000000000000RRRMh%.                                                                                                            .::..}OQR000000000000000000000000000000000000000000000000000QQRh%`                                                          ` ,#DQRR000000000000000000000000000000000000000000000000000000000000000000000000000000000000000000000000000000000000000000000000
0000000000000000000000000000000000000000000000000000000000000000000000000000000000000000000000000000000000000000RR0$e-.                                                                                                            ^l| rZ0RRQ0000000000000000000000000000000000000000000000000R00Ei..                                                          ` _uDQRRRR0000000000000000000000000000000000000000000000000000000000000000000000000000000000000000000000000000000000000000000000
000000000000000000000000000000000000000000000000000000000000000000000000000000000000000000000000000000000000000000RE" _``.                                                                                                     .. `%s:>V0000QQ00000000000000000000000000000000000000000000R000RQ&!`.`                                                          - _nDQRRRR0000000000000000000000000000000000000000000000000000000000000000000000000000000000000000000000000000000000000000000000
00000000000000000000000000000000000000000000000000000000000000000000000000000000000000000000000000000000000000RRRRBw` . -\{^ .                                                                                                    =er|SR0000000000000000000000000000000000000000000000000000R0Q8o:                                                             . /FNQRRR00000000000000000000000000000000000000000000000000000000000000000000000000000000000000000000000000000000000000000000000
00000000000000000000000000000000000000000000000000000000000000000000000000000000000000000000000000000000000000000Rbc : ..%V1 .      .                                                                 .'_            .``.    .`  )Ln}yWQR000000000000000000000000000000000000000000000000R000Q8t:.                                                              |C$R000000000000000000000000000000000000000000000000000000000000000000000000000000000000000000000000000000000000000000000000000
00000000000000000000000000000000000000000000000000000000000000000000000000000000000000000000000000000000000000000RYw2d{ `/gP) -'.   :.                                                              .-)x+.     .   .>*):    '\" "3O5#8QMQ000000000000000000000000000000000000000000000000R00QDo_                                                         .   `=?VBRR000000000000000000000000000000000000000000000000000000000000000000000000000000000000000000000000000000000000000000000000000
00000000000000000000000000000000000000000000000000000000000000000000000000000000000000000000000000000000000000000R0M0Rkv -u0Ev-rwq?,   ..                                                           ._;;-.  ``:;..>y4Tc^- ;}fw%\6B&E8RNR000000000000000000000000000000000000000000000000000QRf^                                                         :xTTnS&MQQ00000000000000000000000000000000000000000000000000000000000000000000000000000000000000000000000000000000000000000000000000000
0000000000000000000000000000000000000000000000000000000000000000000000000000000000000000000000000000000000000000R00RM0M&I-%$QZ{\gQMX*:  .                                                          ._^<". ."%?1i+jKBZy*+;chHDb5ENW8KQRRR00000000000000000000000000000000000000000000000000QNF+                                                          :{bQQQQ00000000000000000000000000000000000000000000000000000000000000000000000000000000000000000000000000000000000000000000000000000000
0000000000000000000000000000000000000000000000000000000000000000000000000000000000000000000000000000000000000000RR00RRMQ@J=eR0&TGM0QNgtis+  `'-                                                    `x56*'|zbAGn1ZRM8&P6mEKQRNMRQQWKW0R000000000000000000000000000QQQQQQQQQQQ00QQQQQQQQQQQQB#=.                                                           \gBR0000000000000000000000000000000000000000000000000000000000000000000000000000000000000000000000000000000000000000000000000000000000
00000000000000000000000000000000000000000000000000000000000000000000000000000000000000000000000000000000000000000R0RR00QQWq?gRQQ000QQQRKAPz;'{{:                                                   :?dUgmYHD$kYWQRRMNH&KQQ00QQ0000QQ00R00000000000000000000000QQQQQQQQQQQQQQQQQ0MMNWDH@$HUJ;                                                             =w8R0RR0000000000000000000000000000000000000000000000000000000000000000000000000000000000000000000000000000000000000000000000000000000
000000000000000000000000000000000000000000000000000000000000000000000000000000000000000000000000000000000000000000000000000@8W0000000QQQQQMZjvL[,.`  .``                                           .-"eOQMMNM0QQRRRRR0QQ0000000000000000000000000000000QQQQQQQQRNK&YGVmyLzzzot1r>>>)\\|/"=`                                                              `1kR0RR0000000000000000000000000000000000000000000000000000000000000000000000000000000000000000000000000000000000000000000000000000000
0000000000000000000000000000000000000000000000000000000000000000000000000000000000000000000000000000000000000000000000000000QMR000000000R0QQRfvv/``  .``                                               7WRR0Q00RR00RR00000000000R000000000000000RRQQQQMD8Ygq3Te*i|=:-                                                                                     lXMR000000000000000000000000000000000000000000000000000000000000000000000000000000000000000000000000000000000000000000000000000000000
00000000000000000000000000000000000000000000000000000000000000000000000000000000000000000000000000000000000000000000000000R00000000000000MBYy<                                                     ,%?wYRRMR0000QQ0RR000000000000000000000RR00QQQ0BYFel</:`                                                                                               >SW0R00000000000000000000000000000000000000000000000000000000000000000000000000000000000000000000000000000000000000000000000000000000
000000000000000000000000000000000000000000000000000000000000000000000000000000000000000000000000000000000000000000000000000000000000000QQ@n=-                                                      /CUQQ0M000000000R00R0000000000000000R00R0QQWdzs\:                                                                                                      "5NQMM0Q00000000000000000000000000000000000000000000000000000000000000000000000000000000000000000000000000000000000000000000000000000
00000000000000000000000000000000000000000000000000000000000000000000000000000000000000000000000000000000000000000000000000000000000000000M4r. .                                                     `)Ld&HNQQQQ00Q0R0Q00000000000000R0000QQBEz)`                                                                                                          '?V$N0QQQQQQ00QQ0Q0000000000000000000000000000000000000000000000000000000000000000000000000000000000000000000000000000000000000000000
000000000000000000000000000000000000000000000000000000000000000000000000000000000000000000000000000000000000000000000000000000000000000000QAe'                                                       . '%[t7ySX$RQQQQ00Q0000000R0000Q0MMQB6x_                                                                                                               :"c]J6g&DRQQQQR00000000000000000000000000000000000000000000000000000000000000000000000000000000000000000000000000000000000000000000
0000000000000000000000000000000000000000000000000000000000000000000000000000000000000000000000000000000000000000000000000000000000000000R00QD2|                                                      .       _=)seCbWQQQQ000000000000R0Q$7' ..                                                                                                                    -^<rjhZ$NQQQQRR0Q000000000000000000000000000000000000000000000000000000000000000000000000000000000000000000000000000000000000
000000000000000000000000000000000000000000000000000000000000000000000000000000000000000000000000000000000000000000000000000000000000R00RRRRRQRP!_ .                                                                ')omOMQQ00000000000RGI` .                                                                                                                           .:=cefVABQQQQQ0000000R00000000000000000000000000000000000000000000000000000000000000000000000000000000000000000000000000
000000000000000000000000000000000000000000000000000000000000000000000000000000000000000000000000000000000000000000000000000000000000R00R0R0QQQNq>  .                                                                  .={FHQQ0000000Q0S\                                                                                                                              . .    `,v72PD0QQQQQQ000R000000000000000000000000000000000000000000000000000000000000000000000000000000000000000000000000
000000000000000000000000000000000000000000000000000000000000000000000000000000000000000000000000000000000000000000000000000000000000R000QQQNKOy).                                                                        `)wU0Q00000WS<     ..                                                                                                                              ..    '<*wg$RQQ0R00000000000000000000000000000000000000000000000000000000000000000000000000000000000000000000000000
00000000000000000000000000000000000000000000000000000000000000000000000000000000000000000000000000000000000000000000000000000000000RRQQM$Xw]%\;                                                                            .i5BQ0000Zx     ..                                                                                                                                     .   _/lJkMQQQQ0Q0R0000000000000000000000000000000000000000000000000000000000000000000000000000000000000000000
00000000000000000000000000000000000000000000000000000000000000000000000000000000000000000000000000000000000000000000000000000000000QQ@dns;.                                                                                  _lVRQR0g>     ..                                                                                                                                             ;sfkRQQ00R00R0000000000000000000000000000000000000000000000000000000000000000000000000000000000000000
00000000000000000000000000000000000000000000000000000000000000000000000000000000000000000000000000000000000000000000000000000000QQQ82I|:                                                                                    .  /5W0Rg)    ..                                                                                                                                                 ,[4WQ000000000000000000000000000000000000000000000000000000000000000000000000000000000000000000000
0000000000000000000000000000000000000000000000000000000000000000000000000000000000000000000000000000000000000000000000000000000QMA#\_                                                                                           =wDQBS\   ...                                                                                                                                               .  -c3@RR000000000000000000000000000000000000000000000000000000000000000000000000000000000000000000
0000000000000000000000000000000000000000000000000000000000000000000000000000000000000000000000000000000000000000000000000000R0Wbu"     .                                                                                      .  "FBRMg?_  `.                                                                                                                                                    .cgNQ0Q000000000000000000000000000000000000000000000000000000000000000000000000000000000000000
0000000000000000000000000000000000000000000000000000000000000000000000000000000000000000000000000000000000000000000000000RRQRYn\                                                                                               .  1@RRQWd!=                                                                                                                                                      . _TD00000000000000000000000000000000000000000000000000000000000000000000000000000000000000000
0000000000000000000000000000000000000000000000000000000000000000000000000000000000000000000000000000000000000000000000000QQ@wx' .                                                                                              .` <XQRRQQROwc:                                                                                                                                                  . . `jDQ000000000000000000000000000000000000000000000000000000000000000000000000000000000000000
000000000000000000000000000000000000000000000000000000000000000000000000000000000000000000000000000000000000000000R0000RQMhr_                                                                                                   `-.#QR0000QQNZC{^                                                                                                                                                  . ;6MQ0R000000000000000000000000000000000000000000000000000000000000000000000000000000000000
0000000000000000000000000000000000000000000000000000000000000000000000000000000000000000000000000000000000000000R00R0000UL^  .                                                                                                 ..`\qQMRR00R00QQRkma<:                                                                                                                                                 {@QR0000000000000000000000000000000000000000000000000000000000000000000000000000000000000
0000000000000000000000000000000000000000000000000000000000000000000000000000000000000000000000000000000000000000000000RY1` ..                                                                                                  ``.[80MMMR00R00R0QQQDb6o}c^                                                                                                                                            \gR0R000000000000000000000000000000000000000000000000000000000000000000000000000000000000
0000000000000000000000000000000000000000000000000000000000000000000000000000000000000000000000000000000000000000000RQ0A[_ `.                                                                                                      )T64OBWR00R0000R0QQQQQDY51%=_.                                                                                                                                      _yWQ0Q0Q000000000000000000000000000000000000000000000000000000000000000000000000000000000
00000000000000000000000000000000000000000000000000000000000000000000000000000000000000000000000000000000000000R000R0QMh).....                                                                                                      _^;\n@QQ00R0000R0000R0QQQW&Ppo}\:.     ``..                                                                                                                         #DQ0Q0Q000000000000000000000000000000000000000000000000000000000000000000000000000000000
00000000000000000000000000000000000000000000000000000000000000000000000000000000000000000000000000000000000000R000RHEni_                                                                                                               ,7YWQ0RR0000000000Q00QQQQQRKYgCo*>;-                                                                                                                            #D00Q00000000000000000000000000000000000000000000000000000000000000000000000000000000000
000000000000000000000000000000000000000000000000000000000000000000000000000000000000000000000000000000000000RR000Kde<'                                                                                                                  'nHMM00000000000000Q000000QQQQQRB&Eq#}\,`                                                                                                                 ..  "gN0000R000000000000000000000000000000000000000000000000000000000000000000000000000000000
000000000000000000000000000000000000000000000000000000000000000000000000000000000000000000000000000000000000RR0Km["                                                                                                                    :[YRBD00000000000000Q0000000000QQQQQQMDGs.                                                                                                                   _?XM000000000000000000000000000000000000000000000000000000000000000000000000000000000000000
00000000000000000000000000000000000000000000000000000000000000000000000000000000000000000000000000000000R0R00RGe=                                                                                                                    -|CD00MNRR000000000000000000000000Q00QRMMm"                                                                                                                 `<!mDQ0000RRRR00000000000000000000000000000000000000000000000000000000000000000000000000000000
0000000000000000000000000000000000000000000000000000000000000000000000000000000000000000000000000000000000RQB3)                                                                                                                     .<2D0RR0RRRR0000000000000000Q00QQQQQ000R0Ar                                                                                                              _^%7q@QRM000RRRRRR00000000000000000000000000000000000000000000000000000000000000000000000000000000
00000000000000000000000000000000000000000000000000000000000000000000000000000000000000000000000000000000RR0@u'                                                                                                                     ..`>2D0RRRRRRR0000000000000000000000RR000Qw_                                                                      ...                             `+/\c?n6P8NQQQRRR000RRR0RR00000000000000000000000000000000000000000000000000000000000000000000000000000000
0000000000000000000000000000000000000000000000000000000000000000000000000000000000000000000000000000000RRRDf, .                                                                                                                    ``  ^7XKNMMMRRR0000000000000000000000QQ00Q3;                                                                  .'=;_`--------^,:====+/|)<i%xlI[zJ5hG8UBRQQQQQ000000R0RRRRRRRR00000000000000000000000000000000000000000000000000000000000000000000000000000000
000000000000000000000000000000000000000000000000000000000000000000000000000000000000000000000000000R000R0Mg|                                                                                                                             lPRNMMMRR0000000000000000000000000QAs_`                                                                'aX8OGdPZZZZZbbOOA&&&&8$@KHBWWMQQQQQQQQQQQ0000000RRRRRRRRRRRRRR00000000000000000000000000000000000000000000000000000000000000000000000000000000
00000000000000000000000000000000000000000000000000000000000000000000000000000000000000000000000000000Q00QBL.                                                                                                                             =wKRRRR0000000000000000000000000000&w%-                                                              .`*YMQQQQQQQQQQQQQQQQQQQQQQQQQQQQQ000RR0000000000RRRRRRRRRRRRRRRR00000000000000000000000000000000000000000000000000000000000000000000000000000000
00000000000000000000000000000000000000000000000000000000000000000000000000000000000000000000000000000QQ0QK[  .                                                                                                                           .+JKR00000000000000000000000000R0RRQE>                                                                ,[dD00Q0000000000R00R000000000000000000000000000RRRRRRRRRRRRRRRR00000000000000000000000000000000000000000000000000000000000000000000000000000000
00000000000000000000000000000000000000000000000000000000000000000000000000000000000000000000000000000Q00QK1                                                                                                                                =#UMR000R0000000000000000000000RRQ5;                                                                 _)5ABNMMMMR000RRR0R00R0000000000000000000000000000000000000000000000000000000000000000000000000000000000000000000000000000000000000000000000000
0000000000000000000000000000000000000000000000000000000000000000000000000000000000000000000000000000000RQDt                                                                                                                                 ,]EWQQQ000R00000000000000000RRM0@}                                                                .^;`)n&WWNMMR000000000000000000000000000000000000000000000000000000000000000000000000000000000000000000000000000000000000000000000000000000000000
000000000000000000000000000000000000000000000000000000000000000000000000000000000000000000000000000000RR0M6_ .                                                                                                                               '*dMQQ0Q00000000000000000000MM0F^                                                                 %?lIw@RR0000000000000000000000000000000000000000000000000000000000000000000000000000000000000000000000000000000000000000000000000000000000000000
000000000000000000000000000000000000000000000000000000000000000000000000000000000000000000000000000000000QBT-                                                                                                                                 _sgWQ00Q0R000000000000000000RQS\`.                                                               ,v>vdN000000000000000000000000000000000000000000000000000000000000000000000000000000000000000000000000000000000000000000000000000000000000000000
000000000000000000000000000000000000000000000000000000000000000000000000000000000000000000000000000000000QQWmv                                                                                                                                  %E00Q0RR0000000000000000000QP)':. `.                                                          .  `rZ0R00000000000000000000000000000000000000000000000000000000000000000000000000000000000000000000000000000000000000000000000000000000000000000
00000000000000000000000000000000000000000000000000000000000000000000000000000000000000000000000000000000000QQUT+                                                                                                                              . .{GR0RR0000000000000000R0R0B2zEw^ .                                                           _^iC&WR0R0000000000000000000000000000000000000000000000000000000000000000000000000000000000000000000000000000000000000000000000000000000000000000
00000000000000000000000000000000000000000000000000000000000000000000000000000000000000000000000000000000000R0QQ&#x=-                                                                            ^v!uuLt<                                       . _[AQ0000000000000000000000@&WQU!`;_                                                           )2B0M0RR0000000000000000000000000000000000000000000000000000000000000000000000000000000000000000000000000000000000000000000000000000000000000000
000000000000000000000000000000000000000000000000000000000000000000000000000000000000000000000000000000000R0000QQQN&GST?v=_                                                                  . `*GB0QQQQY1^  `.                                 .. ^2R0RRR000000000000000RRRRRMRQXo3J<.                                                         ^egKRR000000000000000000000000000000000000000000000000000000000000000000000000000000000000000000000000000000000000000000000000000000000000000000
00000000000000000000000000000000000000000000000000000000000000000000000000000000000000000000000000000000000000000QQQQQQMUg!`                                                                 .>dQQ00QQQQNZyj?=                                  .. >ERMMR00R0000000000000000000MMKHRq\                                                          i5&MR000000000000000000000000000000000000000000000000000000000000000000000000000000000000000000000000000000000000000000000000000000000000000000
0000000000000000000000000000000000000000000000000000000000000000000000000000000000000000000000000000000000000000R000000QRR$7  .                                                              ,JWQ000Q0Q00QQQBmi`                                   .1@0M00000RR00000000000000QQRR0Q@f|`                                                         _!dN0000000000000000000000000000000000000000000000000000000000000000000000000000000000000000000000000000000000000000000000000000000000000000000
000000000000000000000000000000000000000000000000000000000000000000000000000000000000000000000000000000000000000000000000MQNy_                                                               '1U0Q0QQ0QQQ00QQRVr:                                 .. }UQRR00R000000000000000000Q0QWm). `.                                                       `.\3DQ000000000000000000000000000000000000000000000000000000000000000000000000000000000000000000000000000000000000000000000000000000000000000000
00000000000000000000000000000000000000000000000000000000000000000000000000000000000000000000000000000000000000000000000RMRWC                                                                {kR0QQQQQQQ000QMg*-                                     ?$QR0000RR00000000000000000QKj'                                                              '1ZWR00000000000000000000000000000000000000000000000000000000000000000000000000000000000000000000000000000000000000000000000000000000000000000
000000000000000000000000000000000000000000000000000000000000000000000000000000000000000000000000000000000000000000000000MRWT  .                                                         .. \SQ00QQQQQQQQRR0b},                                   .. *8QRR000RR00000000000000000Z*-                                                              .`%qB00Q000000000000000000000000000000000000000000000000000000000000000000000000000000000000000000000000000000000000000000000000000000000000000
00000000000000000000000000000000000000000000000000000000000000000000000000000000000000000000000000000000000000000000000RR0D7                                                            . /3WQ000000QQQQRBYo^.                                   .. !$QR00000R000000000000R000dv                                                               . .[bRQ00000000000000000000000000000000000000000000000000000000000000000000000000000000000000000000000000000000000000000000000000000000000000000
00000000000000000000000000000000000000000000000000000000000000000000000000000000000000000000000000000000000000000000000RRQ8I                                                            .-!UQM000000QQQ0QKT"`                                      lP00R0000000000000000000Q0X%                                                                 :1bMQ000000000000000000000000000000000000000000000000000000000000000000000000000000000000000000000000000000000000000000000000000000000000000000
00000000000000000000000000000000000000000000000000000000000000000000000000000000000000000000000000000000000000000000000RRQOr                                                            .%EQ00Q00000000QMgv.                                      >EQRR0000000000000000000QQ8[-                                                               ;i5D00Q000000000000000000000000000000000000000000000000000000000000000000000000000000000000000000000000000000000000000000000000000000000000000000
0000000000000000000000000000000000000000000000000000000000000000000000000000000000000000000000000000000000000000000000000RP) .                                                          "2NR00000Q0Q000Whr.                                     .{P00R000000000000000QQ00QQU7:                                                               ./1gDM00000000000000000000000000000000000000000000000000000000000000000000000000000000000000000000000000000000000000000000000000000000000000000000
00000000000000000000000000000000000000000000000000000000000000000000000000000000000000000000000000000000000000000000000R0Mm= .                                                         -eH0NR00000Q00QMEs_ .                                   `IkQ0R0Q00000000000000QQQQQD#;                                                                  ,[dKR0000000000000000000000000000000000000000000000000000000000000000000000000000000000000000000000000000000000000000000000000000000000000000000
00000000000000000000000000000000000000000000000000000000000000000000000000000000000000000000000000000000000000000R00000RQBC` `                                                      .. vPQMR000Q0000QRZt^ ..                                   ?&Q0R00000000000000000QQ0QQY{.                                                                   _r58R000000000000000000000000000000000000000000000000000000000000000000000000000000000000000000000000000000000000000000000000000000000000000000
000000000000000000000000000000000000000000000000000000000000000000000000000000000000000000000000000000000000000000000Q0MQDj  `                                                     .. ;f00R000000Q00Rba+.                                 .. -!kQMR0R00000000000000QQQQQQO?-                                                                     -%3&MQ000R000000000000000000000000000000000000000000000000000000000000000000000000000000000000000000000000000000000000000000000000000000000000
0000000000000000000000000000000000000000000000000000000000000000000000000000000000000000000000000000000000000000000000RMQ&v `                                                        _aKQ0R0R000000QUL^                                   . 'o$QRRQ0000000000000000QQQQQ@a`                                                                      .'<uZWR000000000000000000000000000000000000000000000000000000000000000000000000000000000000000000000000000000000000000000000000000000000000000
00000000000000000000000000000000000000000000000000000000000000000000000000000000000000000000000000000000000000000R0Q00R0N2_ .                                                        iXQ0R000000000$w\.                                 .  =#KQRR00000R00000000000QQQQQHL'                                                                          ;ePBR0QQQ0Q00000000000000000000000000000000000000000000000000000000000000000000000000000000000000000000000000000000000000000000000000000000
0000000000000000000000000000000000000000000000000000000000000000000000000000000000000000000000000000000000000000R0000RRQHt  .                                                     . :z@Q000000000Q$C<                                  .. _o$QRR00000000000000000Q0QQQRg>                                                                            ;1GW0QQQQ000000000000000000000000000000000000000000000000000000000000000000000000000000000000000000000000000000000000000000000000000000000
000000000000000000000000000000000000000000000000000000000000000000000000000000000000000000000000000000000000000000000R0R4< .                                                        <g0RR0000000QHyi`                                    =u@QRR000000000000000000000QQ4)                                                                              :tbM0QQ0Q00000000000000000000000000000000000000000000000000000000000000000000000000000000000000000000000000000000000000000000000000000000
000000000000000000000000000000000000000000000000000000000000000000000000000000000000000000000000000000000000000000Q00QRPI-                                                         _a@0RRR0000RQD2>-                                    ;#DQRR0000000000000000000Q0Q0b{.                                                                               |6WQQQQQQ0000000000000000000000000000000000000000000000000000000000000000000000000000000000000000000000000000000000000000000000000000000
00000000000000000000000000000000000000000000000000000000000000000000000000000000000000000000000000000000000000000000QHhI_                                                          "gQRRRR000R0Dpc_                                    /3D0R000000000000000000Q000QQ8]`                                                                                .oKQ00Q0Q0000000000000000000000000000000000000000000000000000000000000000000000000000000000000000000000000000000000000000000000000000000
00000000000000000000000000000000000000000000000000000000000000000000000000000000000000000000000000000000000000000R0R&3x;                                                          .[DQRRR0000MWS>'..                                  ^5R0M000R0000000000000000000QNf^                                                                                  xGRQ0QQQ0000000000000000000000000000000000000000000000000000000000000000000000000000000000000000000000000000000000000000000000000000000
00000000000000000000000000000000000000000000000000000000000000000000000000000000000000000000000000000000000000000QDde\;_.                                                         =FQRRRR0000@5c` .                                  ;#BQR000000000000000000000MMQM2+                                                                                   /FDQ0Q0Q0000000000000000000000000000000000000000000000000000000000000000000000000000000000000000000000000000000000000000000000000000000
00000000000000000000000000000000000000000000000000000000000000000000000000000000000000000000000000000000000000000H5i,-.                                                           vYQMRRRRRR&f).                                    -e@QRRQ0RR00000000000000000R0Mh<                                                                                    =2K0QQQQ0000000000000000000000000000000000000000000000000000000000000000000000000000000000000000000000000000000000000000000000000000000
000000000000000000000000000000000000000000000000000000000000000000000000000000000000000000000000000000000000Q0QQBy=  `                                                           ."CWQRRRNDGn>`                                    :j$0RR0000R0000000000000R00R0QOr.                   '?o"                                                             ^fHQQ0QQ0000000000000000000000000000000000000000000000000000000000000000000000000000000000000000000000000000000000000RR0000000000000000
0000000000000000000000000000000000000000000000000000000000000000000000000000000000000000000000000000000000RRR0RU3)                                                                 =wH0RMHXj<`                                    _zDQRR000000RR0000000R0R00R0RQ@t`                    *&QE}:                                                           ;zPNQ0QQ00000000000000000000000000000000000000000000000000000000000000000000000000000000000000000000000000000000000000R0000000000000000
00000000000000000000000000000000000000000000000000000000000000000000000000000000000000000000000000000000000MDkPJ+                                                                   "yKQKV1|'.                                   _o@Q000000000000000000000R00RQHL:                    x4M00&?.                                                          _%yg&W0QQ000000000000000000000000000000000000000000000000000000000000000000000000000000000000000000000000000000000000000000000000000000
00000000000000000000000000000000000000000000000000000000000000000000000000000000000000000000000000000000000HSL!>                                                                     =746},                                     -1$Q0R00000000000000000000000QRJ_                    \SRMR0Q$j^                                                          :coydOHWRQQ000000000000000000000000000000000000000000000000000000000000000000000000000000000000000000000000000000000000000000000000000
0000000000000000000000000000000000000000000000000000000000000000000000000000000000000000000000000000R000RQBw%=:                                                                       _)i'                                      rkQRR00R00000000000000000000QMF+                  . _[&QR0RRQW6<                                                         `^<raw5gY@WMR00R00000R0000000000000000000000000000000000000000000000000000000000000000000000000000000000000000000000000000000000000000
000000000000000000000000000000000000000000000000000000000000000000000000000000000000000000000000000000RMMMV|                                                                           .``.                                   .iEQ0R00R0000000000000000000R00h|                     vgNRM00000U2"                                                       . ._;"v?j3gXZ8DMRRR00000000000000000000000000000000000000000000000000000000000000000000000000000000000000000000000000000000000000000000
000000000000000000000000000000000000000000000000000000000000000000000000000000000000000000000000RRRR00RMRWT- .                                                                           ...                                  \SR0R00000000000000000000000QRd)                     'T@0MR00000RN2+                                                           .`;<}zTygPAKWR00RR0000000000000000000000000000000000000000000000000000000000000000000000000000000000000000000000000000000000000000
000000000000000000000000000000000000000000000000000000000000000000000000000000000000000000000000RRRRRRRR0Mg` .                                                                                                               'uBQR0000000000000000000RRR0QQXv                      <hNM0RM0Q000QMq\                                                            .`'/>seJ6EZA$BNNMMRRMRRRRRRR0000000000000000000000000000000000000000000000000000000000000000000000000000000000000000000000000000
000000000000000000000000000000000000000000000000000000000000000000000000000000000000000000000000RR0000000R@w;                                                                                                               `}kQ00000000000000000000000R00b{`                     :eONM0RR00QQ00QMgx`                                                               -+)!uwFSg&KNMMMMMRRRRRR0000000000000000000000000000000000000000000000000000000000000000000000000000000000000000000000000000
000000000000000000000000000000000000000000000000000000000000000000000000000000000000000000000000000000000RR$!  .                                                                                                            <dQR000000000000000000000000Q8['.`                    ;u$0MR0RR0QQQ00QNF/                                                               .`-:)l[o#2VGO$DWMMRRRRRRRRR000000000000000000000000000000000000000000000000000000000000000000000000000000000000000000000000
00000000000000000000000000000000000000000000000000000000000000000000000000000000000000000000000000000000RQM6+                                                                                                              ,JB0R00000000000000000000000QNy;                       'L@0R00RM0Q0QQ00QWn:``                                                           ....  _">stuC2pgZ$BMRRRRRRRRRR0000000000000000000000000000000000000000000000000000000000000000000000000000000000000000000000
000000000000000000000000000000000000000000000000000000000000000000000000000000000000000000000000000000R0QRXc                                                                                                           ..  cbQ0000000000000000000000000Mg>                       .']hZKQ00MM0000000QH#^ .                                                          ........`_^|c[jTySP8KDWMNNMMR00000000000000000000000000000000000000000000000000000000000000000000000000000000000000000000000
000000000000000000000000000000000000000000000000000000000000000000000000000000000000000000000000000000000O[-                                                                                                           .. ;fW0000000000000000000000000QHL'                       `'=%zmAM0000R0000QRQYr.                                                             ...........;v!oLw6Vgb&HWWNRR0000000000000000000000000000000000000000000000000000000000000000000000000000000000000000000000
0000000000000000000000000000000000000000000000000000000000000000000000000000000000000000000000000000000QH#^ .                                                                                                         `. `[$QRR00000000000000000000000QBz`                           'rn4KMRR00000000k*`                                                                ........ `;|ir?7TyFbKBNR00000000000000000000000000000000000000000000000000000000000000000000000000000000000000000000000
0000000000000000000000000000000000000000000000000000000000000000000000000000000000000000000000000000QQQW5|                                                                                                           ... vg000000000000000000000000000QW#:.`                          ,>ahUN00000000Qbc                                                                            .`_:)r?e2ZDMR00000000000000000000000000000000000000000000000000000000000000000000000000000000000000000000000
00000000000000000000000000000000000000000000000000000000000000000000000000000000000000000000000000R0Q0Whi  .                                                                                                         .. ,JW00R000000000000000000000000QKe_                           .  ^*ykBR00000QD#=                                                                                 `=*d8W0000000000000000000000000000000000000000000000000000000000000000000000000000000000000000000000000
0000000000000000000000000000000000000000000000000000000000000000000000000000000000000000000000000000QRPl. .                                                                                                         `` `!8Q0000R0000000000000000000000QHo_.                           .  :%#bBRRWMQ$L/.                                                                                  |6MQ0R0000000000000000R0000000000000000000000000000000000000000000000000000000000000000000000000000000
00000000000000000000000000000000000000000000000000000000000000000000000000000000000000000000000000Q00b?` .                                                                                                             vER0000000000000000000000000000RQPx.                                \nPDWW08j,                                                                                   `7BQRR0000000000000000000000000000000000000000000000000000000000000000000000000000000000000000000000000
000000000000000000000000000000000000000000000000000000000000000000000000000000000000000000000000RR00k?. ..                                                                                                       .  .|7kQQ00000000000000000000000000Q0R0MT_   ``                            \L4B0Z];                                                                                   )TO@MR0000000R000000000000000000000000000000000000000000000000000000000000000000000000000000000000000000
000000000000000000000000000000000000000000000000000000000000000000000000000000000000000000000000000$7_ `                                                                                                          ;[hK0Q00000000000000000000000RR000Q0RR0m"   ``                            .)eYSv.                                                                                    {F4XDRR0000000000000000000000000000000000000000000000000000000000000000000000000000000000000000000000000
000000000000000000000000000000000000000000000000000000000000000000000000000000000000000000000000RQWf: `                                                                                                         |7P0Q00000000000000000000000000000000000Q&*                                  .;%/                                                                                      <?wVY@M0Q00000000000000000000000000000000000000000000000000000000000000000000000000000000000000000000000
0000000000000000000000000000000000000000000000000000000000000000000000000000000000000000000000000RYi ..                                                                                                       '[Z0Q000000000000000000000000000000000R00R00p;                                                                                                                           -+}2SZBRQ00000000000000000000000000000000000000000000000000000000000000000000000000000000000000000000000
00000000000000000000000000000000000000000000000000000000000000000000000000000000000000000R00000QQWw' .                                                                                                        ;JWQ0000R000000000000000000000000000000000RQGi                                                                                                                            -\tfqZD0000RR000000000000000000000000000000000000000000000000000000000000000000000000000000000000000000
00000000000000000000000000000000000000000000000000000000000000000000000000000000000000000R0R0QRQQU{  .                                                                                                         <VRRM000R00000000000000000000000000000000RQ@t`                                                                                                                           .:<tygbW0QQ00000000000000000000000000000000000000000000000000000000000000000000000000000000000000000000
00000000000000000000000000000000000000000000000000000000000000000000000000000000000000000000R0Q0Hk{'                                                                                                            l&0MRR0000000000000000000000000000000000R0Ry:                                                                                                                            `:lo24&W000Q000000000000000000000000000000000000000000000000000000000000000000000000000000000000000000
0000000000000000000000000000000000000000000000000000000000000000000000000000000000000000000Q0RKEm3ti                                                                                                         _>ogKQ0RR0R000000000000000000000000000000000RQg>                                                                                                      -   '=;.                /}u2P$MQ00R00000000000000000000000000000000000000000000000000000000000000000000000000000000000000000
000000000000000000000000000000000000000000000000000000000000000000000000000000000000000000RQR&yIr<"_                                                                                                     `/[mg&QQQ00R0000000000000000000000000000000000000Qk?-                                                                                                       "oPGe'  .             _|IJX$M000R00000000000000000000000000000000000000000000000000000000000000000000000000000000000000000
00000000000000000000000000000000000000000000000000000000000000000000000000000000000000000RR0Kz/:_`                                                                                                       `/#BQR0Q000000000000000000000000000000000000000R0QOI_.                                                                                            `|).   ;sf&RQQG!_ .               <LZHRQ000R0000000000000000000000000000000000000000000000000000000000000000000000000000000000000000
000000000000000000000000000000000000000000000000000000000000000000000000000000000000000000RWp=   .                                                                                                      .. |5WQ0RR0000000000000000000000000000000000000R000BC=                                                                                             .>ju*IwAW0QQ000O|                 %3@R000R000000000000000000000000000000000000000000000000000000000000000000000000000000000000000000
00000000000000000000000000000000000000000000000000000000000000000000000000000000000000000R0bv                                                                                                            .. \mN00000000000000000000000000000000000000000000Qh/                                                                                            . .rgHRQQQ0QQ0QQBj+.           ..  a@R00000000000000000000000000000000000000000000000000000000000000000000000000000000000000000000000
00000000000000000000000000000000000000000000000000000000000000000000000000000000000000QQRNU7`                                                                                                             . .IOQQ000000000000000000000000000000000000000000Qd|                                                                                               _a8QQR0000RRR$T/            -` |ER000000000000000000000000000000000000000000000000000000000000000000000000000000000000000000000000
00000000000000000000000000000000000000000000000000000000000000000000000000000000000000QQRHy+ .                                                                                                               -aHQ000000000000000000000000000000000000000000QYr                                                                                              . ;f@0MR0QQQD&d).          . ` :uDQ0000000R0000000000000000000000000000000000000000000000000000000000000000000000000000000000000000
00000000000000000000000000000000000000000000000000000000000000000000000000000000R000000RAf"`                                                                                                                  "qMQ00000000000000000000000000000000000000000Q@t-                                                                                            ..  sqD0M00K43oi`   `_.     .  _e80Q000000000000000000000000000000000000000000000000000000000000000000000000000000000000000000000000
000000000000000000000000000000000000000000000000000000000000000000000000000000000000Q00RV"      `                                                                                                              \g0000R00000000000000000000000000000000000R00M#'                                                                                                ^780M00Y?\;.    `:`..   . .Ik000000000000000000000000000000000000000000000000000000000000000000000000000000000000000000000000000
0000000000000000000000000000000000000000000000000000000000000000000000000000000000R000QWu  ...=^_                                                                                                              `?AQ0000R000000000000000000000000000000000RRRQq=                                                                                                 )hNQR0QMb1:             /7OR000000000000000000000000000000000000000000000000000000000000000000000000000000000000000000000000000
00000000000000000000000000000000000000000000000000000000000000000000000000000000R0RQ0RQK*    ;I/                                                                                                                ^5RQ000000000000000000000000000000000000000R08r                                                                                                `'?ORNM0Q$mec"_    '=">*fA0Q0000000000000000000000000000000000000000000000000000000000000000000000000000000000000000000000000000
0000000000000000000000000000000000000000000000000000000000000000000000000000000000RQ0R0@s  . '".                                                                                                                 xZQ000RRR0000000000000000000000000000000000RQ#`                                                                                                .%hNRR00QQQDAXhLzydk$KNQQQ00000000000000000000000000000000000000000000000000000000000000000000000000000000000000000000000000000
0000000000000000000000000000000000000000000000000000000000000000000000000000000000R0RMQD!                                                                                                                        `[$QR00RR00000000000000000000000000000000QQR0Kyv_                                                                                               -?GR000000QQQQQQQQQQQQ00000000000000000000000000000000000000000000000000000000000000000000000000000000000000000000000000000000
000000000000000000000000000000000000000000000000000000000000000000000000000000000000RMQR&6I<'`                                                                                                                    /mR0R0R00000000000000000000000000000000QQ0QRQR@X37*<+-                                                                                          `oU00000000000Q00000000000000000000000000000000000000000000000000000000000000000000000000000000000000000000000000000000000000
0000000000000000000000000000000000000000000000000000000000000000000000000000000000000MQQQQMKw>                                                                                                                    .!$QR00000000000000000000000000000000000Q0000QQQQQRKP!-                                                                                          ?YR0000000000000000000000000000000000000000000000000000000000000000000000000000000000000000000000000000000000000000000000000