0000000000000000000000000000000000000000000000000000000000000000000000000000000000000000000000000000000000000000000000Qn                                                                                                                       
0000000000000000000000000000000000000000000000000000000000000000000000000000000000000000000000000000000000000000000000Qn                                                                                                                       
0000000000000000000000000000000000000000000000000000000000000000000000000000000000000000000000000000000000000000000000Qn                                                                                                                       
0000000000000000000000000000000000000000000000000000000000000000000000000000000000000000000000000000000000000000000000Qn                                                                                                                       
0000000000000000000000000000000000000000000000000000000000000000000000000000000000000000000000000000000000000000000000Qn                                                                                                                       
0000000000000000000000000000000000000000000000000000000000000000000000000000000000000000000000000000000000000000000000Qn                                                                                                                       
0000000000000000000000000000000000000000000000000000000000000000000000000000000000000000000000000000000000000000000000Qn                                                                                                                       
0000000000000000000000000000000000000000000000000000000000000000000000000000000000000000000000000000000000000000000000Qn                                                                                                                       
0000000000000000000000000000000000000000000000000000000000000000000000000000000000000000000000000000000000000000000000Qn                                                                                                                       
0000000000000000000000000000000000000000000000000000000000000000000000000000000000000000000000000000000000000000000000Qn                                                                                                                       
0000000000000000000000000000000000000000000000000000000000000000000000000000000000000000000000000000000000000000000000Qn                                                                                                                       
0000000000000000000000000000000000000000000000000000000000000000000000000000000000000000000000000000000000000000000000Qn                                                                                                                       
0000000000000000000000000000000000000000000000000000000000000000000000000000000000000000000000000000000000000000000000Qn                                                                                                                       
0000000000000000000000000000000000000000000000000000000000000000000000000000000000000000000000000000000000000000000000Qn                                                                                                                       
0000000000000000000000000000000000000000000000000000000000000000000000000000000000000000000000000000000000000000000000Qn                                                                                                                       
0000000000000000000000000000000000000000000000000000000000000000000000000000000000000000000000000000000000000000000000Qn                                                                                                                       
0000000000000000000000000000000000000000000000000000000000000000000000000000000000000000000000000000000000000000000000Qn                                                                                                                       
0000000000000000000000000000000000000000000000000000000000000000000000000000000000000000000000000000000000000000000000Qn                                                                                                                       
0000000000000000000000000000000000000000000000000000000000000000000000000000000000000000000000000000000000000000000000Qn                                                                                                                       
0000000000000000000000000000000000000000000000000000000000000000000000000000000000000000000000000000000000000000000000Qn                                                                                                                       
0000000000000000000000000000000000000000000000000000000000000000000000000000000000000000000000000000000000000000000000Qn                                                                                                                       
0000000000000000000000000000000000000000000000000000000000000000000000000000000000000000000000000000000000000000000000Qn                                                                                                                       
0000000000000000000000000000000000000000000000000000000000000000000000000000000000000000000000000000000000000000000000Qn                                                                                                                       
0000000000000000000000000000000000000000000000000000000000000000000000000000000000000000000000000000000000000000000000Qn                                                                                                                       
0000000000000000000000000000000000000000000000000000000000000000000000000000000000000000000000000000000000000000000000Qn                                                                                                                       
0000000000000000000000000000000000000000000000000000000000000000000000000000000000000000000000000000000000000000000000Qn                                                                                                                       
0000000000000000000000000000000000000000000000000000000000000000000000000000000000000000000000000000000000000000000000Qn                                                                                                                       
0000000000000000000000000000000000000000000000000000000000000000000000000000000000000000000000000000000000000000000000Qn                                                                                                                       
0000000000000000000000000000000000000000000000000000000000000000000000000000000000000000000000000000000000000000000000Qn                                                                                                                       
0000000000000000000000000000000000000QQQQQQQQQQQQQQQQQ0000000000000000000000000000000000000000000000000000000000000000Qn                                                                                                                       
000000000000000000000000000000000QQQQN8gp#ja!?I?tjfmgUNQQQ000000000000000000000000000000000000000000000000000000000000Qn                                                                                                                       
0000000000000000000000000000000QQWk3[i,.            .^vam&RQQ000000000000000000000000000000000000000000000000000000000Qn                                                                        .```.                                          
00000000000000000000000000000QQUy%:                      ^}6@QQ0000000000000000000000000000000000000000000000000000000Qn                                                                 .^%[T6VXbYbPdmJac=.                                   
000000000000000000000000R0R0Q&n)                           .<yKQ000000000000000000000000000000000000000000000000000000Qn                                                              `>LdUMQQQQQQQQQQQQQR$E#%-                                
000000000000000000000000RRQM6\                                %EQ00R00000000000000000000000000000000000000000000000000Qn                                                            '[dBQQQ00RR00000000000QQQNEa=                              
000000000000000000000000R0Wu`                                  =5R0000000000000000000000000000000000000000000000000000Qn                                                           r40QQ000000000000000000000QQ0ZI.                            
000000000000000000000000QWL`                                    'qQ000000000000000000000000000000000000000000000000000Qn                                                         `t$QQ00000000000000000000000000QDu_                           
000000000000000000000000Qd;                                      <AQ00000000000000000000000000000000000000000000000000Qn                                                        .eBQ00R00000000000000000000000000QNL.                          
00000000000000000000000QMa                                       .wQ00000000000000000000000000000000000000000000000000Qn                                                        ikQ0R00000000000000000000000000000QK%                          
00000000000000000000000QBc                                        t0Q0000000000000000000000000000000000000000000000000Qn                                                        oMQQ0000000000000000000000000000000Q#                          
00000000000000000000000QDr                                        o000000000000000000000000000000000000000000000000000Qn                                                        jQQ00000000000000000000000000000000Qy                          
000000000000000000000000RL                                       _FQ00000000000000000000000000000000000000000000000000Qn                                                        !NQ00000000000000000000000000000000Mo                          
00000000000000000000000RQZ|                                      {KQ00000000000000000000000000000000000000000000000000Qn                                                        ;EQ00R000000000000000000000000000Q0P<                          
0000000000000000000000000Rp;                                    >ZQ000000000000000000000000000000000000000000000000000Qn                                                         >YQ0RR0000000000000000000000000QQ&s                           
0000000000000000000000000Q0S|                                  cZQ0000000000000000000000000000000000000000000000000000Qn                                                          >EQQ0000000000000000000000000QRg%                            
00000000000000000000000000QQY]'                              =u@Q00000000000000000000000000000000000000000000000000000Qn                                                           ,jk0QQ0000000000000000000QQQ&L;                             
0000000000000000000000000000QRE!,                          |ebQQ000000000000000000000000000000000000000000000000000000Qn                                                             =t4K0QQQQ000000000QQQQQDEo+                               
000000000000000000000000000000QRkJl,                   `/?FURQ00000000000000000000000000000000000000000000000000000000Qn                                                               .|!yG$NRQQQQQQQQW$P5[\.                                 
00000000000000000000000000000000QQMOm7{\;-.      `_=)ITd@0QQ0RRR000000000000000000000000000000000000000000000000000000Qn                                                                   `^)r?t7jze!{>^-                                     
00000000000000000000000000000000000QQQRD&Z4gm6mmVXY$W0QQQ0000000000000000000000000000000000000000000000000000000000000Qn                                                                                                                       
000000000000000000000000000000000000000QQQQQQQQQQQQQQ00000000000000000000000000000000000000000000000000000000000000000Qu                                                                                                                       
0000000000000000000000000000000000000000000000000000000000000000000000000000000000000000000000000000000000000000000000Qu                                                                                                                       
0000000000000000000000000000000000000000000000000000000000000000000000000000000000000000000000000000000000000000000000Qu                                                                                                                       
0000000000000000000000000000000000000000000000000000000000000000000000000000000000000000000000000000000000000000000000Qu                                                                                                                       
0000000000000000000000000000000000000000000000000000000000000000000000000000000000000000000000000000000000000000000000Qn                                                                                                                       
0000000000000000000000000000000000000000000000000000000000000000000000000000000000000000000000000000000000000000000000Qn                                                                                                                       
0000000000000000000000000000000000000000000000000000000000000000000000000000000000000000000000000000000000000000000000Qn                                                                                                                       
0000000000000000000000000000000000000000000000000000000000000000000000000000000000000000000000000000000000000000000000Qn                                                                                                                       
0000000000000000000000000000000000000000000000000000000000000000000000000000000000000000000000000000000000000000000000Qn                                                                                                                       
0000000000000000000000000000000000000000000000000000000000000000000000000000000000000000000000000000000000000000000000Qn                                                                                                                       
0000000000000000000000000000000000000000000000000000000000000000000000000000000000000000000000000000000000000000000000Qn                                                                                                                       
0000000000000000000000000000000000000000000000000000000000000000000000000000000000000000000000000000000000000000000000QL                                                                                                                       
0000000000000000000000000000000000000000000000000000000000000000000000000000000000000000000000000000000000000000000000QL                                                                                                                       
0000000000000000000000000000000000000000000000000000000000000000000000000000000000000000000000000000000000000000000000Qu                                                                                                                       
0000000000000000000000000000000000000000000000000000000000000000000000000000000000000000000000000000000000000000000000Qu                                                                                                                       
0000000000000000000000000000000000000000000000000000000000000000000000000000000000000000000000000000000000000000000000Qu                                                                                                                       
0000000000000000000000000000000000000000000000000000000000000000000000000000000000000000000000000000000000000000000000Qu                                                                                                                       
0000000000000000000000000000000000000000000000000000000000000000000000000000000000000000000000000000000000000000000000Qu                                                                                                                       
0000000000000000000000000000000000000000000000000000000000000000000000000000000000000000000000000000000000000000000000Qu                                                                                                                       
0000000000000000000000000000000000000000000000000000000000000000000000000000000000000000000000000000000000000000000000Qu                                                                                                                       
0000000000000000000000000000000000000000000000000000000000000000000000000000000000000000000000000000000000000000000000Qu                                                                                                                       
0000000000000000000000000000000000000000000000000000000000000000000000000000000000000000000000000000000000000000000000Qu                                                                                                                       
0000000000000000000000000000000000000000000000000000000000000000000000000000000000000000000000000000000000000000000000Qu                                                                                                                       
0000000000000000000000000000000000000000000000000000000000000000000000000000000000000000000000000000000000000000000000Qu                                                                                                                       
0000000000000000000000000000000000000000000000000000000000000000000000000000000000000000000000000000000000000000000000Qu                                                                                                                       
0000000000000000000000000000000000000000000000000000000000000000000000000000000000000000000000000000000000000000000000Qu                                                                                                                       
0000000000000000000000000000000000000000000000000000000000000000000000000000000000000000000000000000000000000000000000Qn                                                                                                                       
0000000000000000000000000000000000000000000000000000000000000000000000000000000000000000000000000000000000000000000000Qn                                                                                                                       
0000000000000000000000000000000000000000000000000000000000000000000000000000000000000000000000000000000000000000000000Qn                                                                                                                       
0000000000000000000000000000000000000000000000000000000000000000000000000000000000000000000000000000000000000000000000Qn                                                                                                                       
0000000000000000000000000000000000000000000000000000000000000000000000000000000000000000000000000000000000000000000000Qn                                                                                                                       