0000000000000000000000000000000000000000000000000000000000000000000000000000000000000000000000000000000000000000000RR&x                                                                                                                        
0000000000000000000000000000000000000000000000000000000000000000000000000000000000000000000000000000000000000000000R0Bo                                                                                                                        
00000000000000000000000000000000000000000000000000000000000000000000000000000000000000000000000000000000000000000000R0g'                                                                                                                       
0000000000000000000000000000000000000000000000000000000000000000000000000000000000000000000000000000000000000000000000k\                                                                                                                       
0000000000000000000000000000000000000000000000000000000000000000000000000000000000000000000000000000000000000000000000D*                                                                                                                       
00000000000000000000000000000000000000000000000000000000000000000000000000000000000000000000000000000000000000000000000o                                                                                                                       
0000000000000000000000000000000000000000000000000000000000000000000000000000000000000000000000000000000000000000000000Qp.                                                                                                                      
0000000000000000000000000000000000000000000000000000000000000000000000000000000000000000000000000000000000000000000000QY_                                                                                                                      
0000000000000000000000000000000000000000000000000000000000000000000000000000000000000000000000000000000000000000000000Q8)                                                                                                                      
0000000000000000000000000000000000000000000000000000000000000000000000000000000000000000000000000000000000000000000000QDr                                                                                                                      
0000000000000000000000000000000000000000000000000000000000000000000000000000000000000000000000000000000000000000000000QW?                                                                                                                      
00000000000000000000000000000000000000000000000000000000000000000000000000000000000000000000000000000000000000000000000Ru                                                                                                                      
00000000000000000000000000000000000000000000000000000000000000000000000000000000000000000000000000000000000000000000000Qf`                                                                                                                     
000000000000000000000000000000000000000000000000000000000000000000000000000000000000000000000000000000000000000000000000g'                                                                                                                     
00000000000000000000000000000000000000000000000000000000000000000000000000000000000000000000000000000000000000000000000QP;                                                                                                                     
00000000000000000000000000000000000000000000000000000000000000000000000000000000000000000000000000000000000000000000000QZ^                                                                                                                     
00000000000000000000000000000000000000000000000000000000000000000000000000000000000000000000000000000000000000000000000QZ^                                                                                                                     
00000000000000000000000000000000000000000000000000000000000000000000000000000000000000000000000000000000000000000000000QZ^                                                                                                                     
00000000000000000000000000000000000000000000000000000000000000000000000000000000000000000000000000000000000000000000000QA"                                                                                                                     
00000000000000000000000000000000000000000000000000000000000000000000000000000000000000000000000000000000000000000000000QA"                                                                                                                     
00000000000000000000000000000000000000000000000000000000000000000000000000000000000000000000000000000000000000000000000QA"                                                                                                                     
00000000000000000000000000000000000000000000000000000000000000000000000000000000000000000000000000000000000000000000000QO"                                                                                                                     
00000000000000000000000000000000000000000000000000000000000000000000000000000000000000000000000000000000000000000000000Qk/                                                                                                                     
00000000000000000000000000000000000000000000000000000000000000000000000000000000000000000000000000000000000000000000000Qk"                                                                                                                     
00000000000000000000000000000000000000000000000000000000000000000000000000000000000000000000000000000000000000000000000Qk/                                                                                                                     
00000000000000000000000000000000000000000000000000000000000000000000000000000000000000000000000000000000000000000000000QG^                                                                                                                     
0000000000000000000000000000000000000000000000000000000000000000000000000000000000000000000000000000000000000000000000RQh-                                                                                                                     
000000000000000000000000000000000000000000000000000000000000000000000000000000000000000000000000000000000000000000000000F                                                                                                                      
0000000000000000000000000000000000000000000000000000000000000000000000000000000000000000000000000000000000000000000000RRp                                                                                                                      
0000000000000000000000000000000000000QQQQQQQQQQQQQQQQQ0000000000000000000000000000000000000000000000000000000000000000RRy                                                                                                                      
000000000000000000000000000000000QQQQW&4yja!*sr{!aT2VAWQQQ0000000000000000000000000000000000000000000000000000000000000RT                                                                                                                      
0000000000000000000000000000000QQBbf!>:.             :<]pOMQQ0000000000000000000000000000000000000000000000000000000000RT                                                                                                                      
00000000000000000000000000000QQ&Ji'                      ,s28QQ000000000000000000000000000000000000000000000000000000000z.                                                                ;v!uFSdXPX4S2u!v;                                    
000000000000000000000000R0R0Qkz"                            |J$Q00000000000000000000000000000000000000000000000000000000I                                                             .\oh8MQQQQQQQQQQQQ0N8hL>.                                
000000000000000000000000RRQN2|                                )VQ00000000000000000000000000000000000000000000000000000QB%                                                           -ISHQQQ00RR0000000000QQQQBV];                              
0000000000000000000000000QDz.                                  ;yR0000000000000000000000000000000000000000000000000000QA/                                                          %SMQQQ00000000000000000000QQRXs                             
000000000000000000000000QB7.                                    _p0000000000000000000000000000000000000000000000000000Qd,                                                        `tUQQ00000000000000000000000000QK7-                           
000000000000000000000000Qh,                                      )kQ00R00000000000000000000000000000000000000000000000Q2`                                                       .eBQ00R00000000000000000000000000QW7.                          
00000000000000000000000QM1                                        CQ0000000000000000000000000000000000000000000000000Q0j.                                                       ikQ0000000000000000000000000000000Q@i                          
00000000000000000000000QBl                                        t0Q0R0000000000000000000000000000000000000000000000QDc                                                        oM000000000000000000000000000000000QT                          
00000000000000000000000QDr                                        o00000000000000000000000000000000000000000000000000Q8+                                                        jQQ00000000000000000000000000000000Qy                          
000000000000000000000000Rn.                                      _FQ0000000000000000000000000000000000000000000000000QY'                                                        ?WQ00000000000000000000000000000000M7                          
00000000000000000000000RQb\                                      s@Q000000000000000000000000000000000000000000000000004`                                                        ,VQ00R00000000000000000000000000QQQG>                          
0000000000000000000000000Rq=                                    ibQ000000000000000000000000000000000000000000000000000f-                                                         <bQ00R0000000000000000000000000QQU*                           
0000000000000000000000000Q0d<                                  {kQ000000000000000000000000000000000000000000000000000Qj                                                           >EQQ0000000000000000000000000Q0Gl                            
000000000000000000000000000QAa,                              /JHQ0R00000000000000000000000000000000000000000000000000R!                                                            ,jk0QQ0000000000000000000QQQ$#+                             
0000000000000000000000000000QRGt^                         .<LOQQ00000000000000000000000000000000000000000000000000000@l                                                              =tPBQQQQ0000000000QQQQQWZL|                               
000000000000000000000000000000Q0&3*=.                  _)tqK0Q0R000000000000000000000000000000000000000000000000000RQ8\                                                                ->aFYKRQQQQQQQQQMHbmoi-                                 
00000000000000000000000000000000QQR8Vn!i+'`.    ._,"x[fXDQQQ0RRR0000000000000000000000000000000000000000000000000000QO=                                                                    '"x}tjn#TLa?%"'                                     
00000000000000000000000000000000000QQQQW$kG4hghVgb&HMQQQQ00000000000000000000000000000000000000000000000000000000000QG'                                                                                                                        
000000000000000000000000000000000000000QQQQQQQQQQQQQQ000000000000000000000000000000000000000000000000000000000000000Qh`                                                                                                                        
00000000000000000000000000000000000000000000000000000000000000000000000000000000000000000000000000000000000000000000Qy                                                                                                                         
0000000000000000000000000000000000000000000000000000000000000000000000000000000000000000000000000000000000000000000RQJ                                                                                                                         
00000000000000000000000000000000000000000000000000000000000000000000000000000000000000000000000000000000000000000000Qw                                                                                                                         
00000000000000000000000000000000000000000000000000000000000000000000000000000000000000000000000000000000000000000000Q2`                                                                                                                        
00000000000000000000000000000000000000000000000000000000000000000000000000000000000000000000000000000000000000000000Q2`                                                                                                                        
00000000000000000000000000000000000000000000000000000000000000000000000000000000000000000000000000000000000000000000Q2`                                                                                                                        
00000000000000000000000000000000000000000000000000000000000000000000000000000000000000000000000000000000000000000000Q2`                                                                                                                        
00000000000000000000000000000000000000000000000000000000000000000000000000000000000000000000000000000000000000000000Q2`                                                                                                                        
00000000000000000000000000000000000000000000000000000000000000000000000000000000000000000000000000000000000000000000QF`                                                                                                                        
00000000000000000000000000000000000000000000000000000000000000000000000000000000000000000000000000000000000000000000Q6`                                                                                                                        
0000000000000000000000000000000000000000000000000000000000000000000000000000000000000000000000000000000000000000000RQ4'                                                                                                                        
0000000000000000000000000000000000000000000000000000000000000000000000000000000000000000000000000000000000000000000RQG,                                                                                                                        
000000000000000000000000000000000000000000000000000000000000000000000000000000000000000000000000000000000000000000000k"                                                                                                                        
0000000000000000000000000000000000000000000000000000000000000000000000000000000000000000000000000000000000000000000QMb)                                                                                                                        
0000000000000000000000000000000000000000000000000000000000000000000000000000000000000000000000000000000000000000000QNY<                                                                                                                        
0000000000000000000000000000000000000000000000000000000000000000000000000000000000000000000000000000000000000000000QWkx                                                                                                                        
0000000000000000000000000000000000000000000000000000000000000000000000000000000000000000000000000000000000000000000QWAl                                                                                                                        
0000000000000000000000000000000000000000000000000000000000000000000000000000000000000000000000000000000000000000000RNU!                                                                                                                        
0000000000000000000000000000000000000000000000000000000000000000000000000000000000000000000000000000000000000000000RRH7                                                                                                                        
0000000000000000000000000000000000000000000000000000000000000000000000000000000000000000000000000000000000000000000R0DC.                                                                                                                       
000000000000000000000000000000000000000000000000000000000000000000000000000000000000000000000000000000000000000000000Bm,                                                                                                                       
000000000000000000000000000000000000000000000000000000000000000000000000000000000000000000000000000000000000000000000Wg+                                                                                                                       
000000000000000000000000000000000000000000000000000000000000000000000000000000000000000000000000000000000000000000000MY<                                                                                                                       
0000000000000000000000000000000000000000000000000000000000000000000000000000000000000000000000000000000000000000000000K}                                                                                                                       
000000000000000000000000000000000000000000000000000000000000000000000000000000000000000000000000000000000000000000000RN#                                                                                                                       
000000000000000000000000000000000000000000000000000000000000000000000000000000000000000000000000000000000000000000000RWg'                                                                                                                      
0000000000000000000000000000000000000000000000000000000000000000000000000000000000000000000000000000000000000000000000NY\                                                                                                                      
00000000000000000000000000000000000000000000000000000000000000000000000000000000000000000000000000000000000000000000RR0Hl                                                                                                                      
00000000000000000000000000000000000000000000000000000000000000000000000000000000000000000000000000000000000000000000000WC.                                                                                                                     
00000000000000000000000000000000000000000000000000000000000000000000000000000000000000000000000000000000000000000000000ME=                                                                                                                     