0000000000000000Qg_                -i7f56mSPKQQQRRQQQR0000000000000000000000000000000000000000000000000000000000000000Qn                                                                                                                       
0000000000000000QJ                         `/s?rvvnXZW0000000000000000000000000000000000000000000000000000000000000000Qn                                                                                                                       
00000000000000000j                                 `[B0R00000000000000000000000000000000000000000000000000000000000000Qn                                                                                                                       
000000000000000QRs                                 ,YQ0000000000000000000000000000000000000000000000000000000000000000Qn                                                                                                                       
000000000000000QMi                                 rU00000000000000000000000000000000000000000000000000000000000000000Qn                                                                                                                       
0000000000000000R[                               +yNQ00000000000000000000000000000000000000000000000000000000000000000Qn                                                                                                                       
0000000000000000Qm.                            =j$QQ000000000000000000000000000000000000000000000000000000000000000000Qn                                                                                                                       
0000000000000000QU"                          \f$QQ00000000000000000000000000000000000000000000000000000000000000000000Qn                                                                                                                       
00000000000000000RI                       .)5BQQ0000000000000000000000000000000000000000000000000000000000000000000000Qn                                                                                                                       
0000000000000000RQ3                      rdNQQ000000000000000000000000000000000000000000000000000000000000000000000000Qn                                                                                                                       
00000000000000000Qd`                   igRQQR0000000000000000000000000000000000000000000000000000000000000000000000000Qn                                                                                                                       
00000000000000000QZ:                 ;wWQQ0000000000000000000000000000000000000000000000000000000000000000000000000000Qn                                                                                                                       
0000000000000000RQ8+                xYQQ000000000000000000000000000000000000000000000000000000000000000000000000000000Qn                                                                                                                       
0000000000000000R0@|               aBQQ0000000000000000000000000000000000000000000000000000000000000000000000000000000Qn                                                                                                                       
00000000000000000QWc              10QWNQQQQ000000000000000000000000000000000000000000000000000000000000000000000000000Qn                                                                                                                       
00000000000000000007             `emEIf2KWBQQQ000000000000000000000000000000000000000000000000000000000000000000000000Qn                                                                                                                       
000000000000000000Q4_              ", ..[%TQQQ000000000000000000000000000000000000000000000000000000000000000000000000Qn                                                                                                                       
000000000000000QQ0W&"             ,:    . ;kQQ000000000000000000000000000000000000000000000000000000000000000000000000Qn                                                                                                                       
00000000000000QR5x"/..            .        18Q000000000000000000000000000000000000000000000000000000000000000000000000Qn                                                                                                                       
000000000000QQ8]                           >UQ000000000000000000000000000000000000000000000000000000000000000000000000Qn                                                                                                                       
000000000000Y7^                           'VNRR00000000000000000000000000000000000000000000000000000000000000000000000Qn                                                                                                                       
00000000000H%                            'zChRR00000000000000000000000000000000000000000000000000000000000000000000000Qn                                                                                                                       
0000000000QDl    r/                      /%yM0000000000000000000000000000000000000000000000000000000000000000000000000Qn                                                                                                                       
00000000000W] : cNOI.                   .[AQQ0000000000000000000000000000000000000000000000000000000000000000000000000Qn                                                                                                                       
00000000000Q&v_*8QQRE*`                'FQQQ00000000000000000000000000000000000000000000000000000000000000000000000000Qn                                                                                                                       
000000000000QBXKQ000QRS'              `pQQQQQ0R00000000000000000000000000000000000000000000000000000000000000000000000Qn                                                                                                                       
0000000000000QQQQ0000QRl              [N8bS5PBR00000000000000000000000000000000000000000000000000000000000000000000000Qn                                                                                                                       
000000000000000000000Qg\             .>>,   rEM00000000000000000000000000000000000000000000000000000000000000000000000Qn                                                                                                                       
000000000000000000QQQX|                 `vuPW0000000000000000000000000000000000000000000000000000000000000000000000000Qn                                                                                                                       
000000000000QQQQQQRM4\               /]FkRQQQ0000000000000000000000000000000000000000000000000000000000000000000000000Qn                                                                                                                       
00000000000R&Gg2zsi>_               TDQQQQ0000000000000000000000000000000000000000000000000000000000000000000000000000Qn                                                                                                                       
0000000000RX%'.                    .gQ00000000000000000000000000000000000000000000000000000000000000000000000000000000Qn                                                                                                                       
0000000000R@8AbXSr:':'              5RR0000000000000000000000000000000000000000000000000000000000000000000000000000000Qn                                                                                                                       
00000000000QQQQQQ@Foeo#gw+          "mNRR00000000000000000000000000000000000000000000000000000000000000000000000000000Qn                                                                                                                       
00000000000000000QQQQQQQQ$z,         wQ0000000000000000000000000000000000000000000000000000000000000000000000000000000Qn                                                                                                                       
00000000000000000RRR000RRQQ&j|      -dQ0000000000000000000000000000000000000000000000000000000000000000000000000000000Qn                                                                                                                       
000000000000000000000000000QQB4zx%IuP000000000000000000000000000000000000000000000000000000000000000000000000000000000Qn                                                                                                                       
00000000000000000000000000000QQQ0RQQQ000000000000000000000000000000000000000000000000000000000000000000000000000000000Qn                                                                                                                       
0000000000000000000000000000000000000000000000000000000000000000000000000000000000000000000000000000000000000000000000Qn                                                                                                                       
0000000000000000000000000000000000000000000000000000000000000000000000000000000000000000000000000000000000000000000000Qn                                                                                                                       
0000000000000000000000000000000000000000000000000000000000000000000000000000000000000000000000000000000000000000000000Qn                                                                                                                       
0000000000000000000000000000000000000000000000000000000000000000000000000000000000000000000000000000000000000000000000Qn                                                                                                                       
0000000000000000000000000000000000000000000000000000000000000000000000000000000000000000000000000000000000000000000000Qn                                                                                                                       
0000000000000000000000000000000000000000000000000000000000000000000000000000000000000000000000000000000000000000000000Qn                                                                                                                       
0000000000000000000000000000000000000000000000000000000000000000000000000000000000000000000000000000000000000000000000Qn                                                                                                                       
0000000000000000000000000000000000000000000000000000000000000000000000000000000000000000000000000000000000000000000000Qn                                                                                                                       
0000000000000000000000000000000000000000000000000000000000000000000000000000000000000000000000000000000000000000000000Qn                                                                                            :;^)                       
0000000000000000000000000000000000000000000000000000000000000000000000000000000000000000000000000000000000000000000000Qn                                                                                         ^tVUU@Nq^                     
0000000000000000000000000000000000000000000000000000000000000000000000000000000000000000000000000000000000000000000000Qn                                                                                       :uKQQQQQQQAyr_                  
0000000000000000000000000000000000000000000000000000000000000000000000000000000000000000000000000000000000000000000000Qn                                                                                      cYQQ0000000QQQGi                 
0000000000000000000000000000000000000000000000000000000000000000000000000000000000000000000000000000000000000000000000Qn                                                                                     ?BQ000000000000QUl                
0000000000000000000000000000000000000000000000000000000000000000000000000000000000000000000000000000000000000000000000Qn                                                                                    [WQ00000000000QQQQw`               
0000000000000000000000000000000000000000000000000000000000000000000000000000000000000000000000000000000000000000000000Qn                                                                                   1DQ00000000000QHgh?_                
0000000000000000000000000000000000000000000000000000000000000000000000000000000000000000000000000000000000000000000000Qn                                                                                 "3MQ0000RR0R00QQ$J;                   
0000000000000000000000000000000000000000000000000000000000000000000000000000000000000000000000000000000000000000000000Qn                                                                              _*6HQQ0000RRH@R0Bp?:                     
0000000000000000000000000000000000000000000000000000000000000000000000000000000000000000000000000000000000000000000000Qn                                                                           `iCYQQQ000000QQRM000kfv                     
0000000000000000000000000000000000000000000000000000000000000000000000000000000000000000000000000000000000000000000000Qn                                                                         ']PRQ00000000QQZD00000QQMmi                   
0000000000000000000000000000000000000000000000000000000000000000000000000000000000000000000000000000000000000000000000Qn                                                                       _tkQQ000000000QWf3N0RR0000QQW3;                 
0000000000000000000000000000000000000000000000000000000000000000000000000000000000000000000000000000000000000000000000Qn                                                                      _2QQ0000000000ROtFR0RR0000000QQV: .")_           
0000000000000000000000000000000000000000000000000000000000000000000000000000000000000000000000000000000000000000000000Qn                                                                     ^hQ000000000000MPUQ0RR0M00000000Rc %YMk7-         
0000000000000000000000000000000000000000000000000000000000000000000000000000000000000000000000000000000000000000000000Qn                                                                    `3Q0000000000000RQQ000QObQ0000000Ra  IYQRr         
0000000000000000000000000000000000000000000000000000000000000000000000000000000000000000000000000000000000000000000000Qn                                                                    -m0000000QNNR000000000B[YQ00000000BCaLkQQh^        
0000000000000000000000000000000000000000000000000000000000000000000000000000000000000000000000000000000000000000000000Qn                                                                   .]HRRR00QQOYM0000000000K[OQ00000000QQQQQ00Q6.       
0000000000000000000000000000000000000000000000000000000000000000000000000000000000000000000000000000000000000000000000Qn                                                                   'zbbR00QWFhNQ0000000000RNQ0000000000000000Qb'       
0000000000000000000000000000000000000000000000000000000000000000000000000000000000000000000000000000000000000000000000Qn                                                                    ;I?ERQ&c1R0000000000000Q00000000000000000Q5.       
0000000000000000000000000000000000000000000000000000000000000000000000000000000000000000000000000000000000000000000000Qn                                                                       %oz> wQ0000000000000000000000000000QQRp^        
0000000000000000000000000000000000000000000000000000000000000000000000000000000000000000000000000000000000000000000000Qn                                                                            q0R0000QQQQ0000000000000000QQQKms          
0000000000000000000000000000000000000000000000000000000000000000000000000000000000000000000000000000000000000000000000Qn                                                                         .  pQ0QQQQD4uG0000000000000QQQHda/            
0000000000000000000000000000000000000000000000000000000000000000000000000000000000000000000000000000000000000000000000Qn                                                                            !0QR8m[+  ;XQ000000000R0@wI+               
0000000000000000000000000000000000000000000000000000000000000000000000000000000000000000000000000000000000000000000000Qn                                                                            `l!i,     vH0000000000RQh                  
0000000000000000000000000000000000000000000000000000000000000000000000000000000000000000000000000000000000000000000000Qn                                                                                     _VQR000000000008"                 
0000000000000000000000000000000000000000000000000000000000000000000000000000000000000000000000000000000000000000000000Qn                                                                                     rMQ00000000000RQm-                
0000000000000000000000000000000000000000000000000000000000000000000000000000000000000000000000000000000000000000000000Qn                                                                                     LQR0000000000000Q#                
0000000000000000000000000000000000000000000000000000000000000000000000000000000000000000000000000000000000000000000000Qn                                                                                    -dQR0000000000000QN]               
0000000000000000000000000000000000000000000000000000000000000000000000000000000000000000000000000000000000000000000000Qn                                                                                    ,OQ000000000000000QK%              
0000000000000000000000000000000000000000000000000000000000000000000000000000000000000000000000000000000000000000000000Qn                                                                                    "@QR000000000000000QG^             
0000000000000000000000000000000000000000000000000000000000000000000000000000000000000000000000000000000000000000000000Qn                                                                                  . eRR00000000000000000Qp`            
0000000000000000000000000000000000000000000000000000000000000000000000000000000000000000000000000000000000000000000000Qn                                                                                   <$QR00000000000000000QM{            
0000000000000000000000000000000000000000000000000000000000000000000000000000000000000000000000000000000000000000000000Qn                                                                                  '4Q00000000000000000000QS.           
0000000000000000000000000000000000000000000000000000000000000000000000000000000000000000000000000000000000000000000000Qu                                                                                 _6Q00000000000000000000008/           
0000000000000000000000000000000000000000000000000000000000000000000000000000000000000000000000000000000000000000000000Qu                                                                                -wQQ0000000000000000000000D)           