0000000000000000000000000000000000000000000000000000000000000000000000000000000000000000000000000000000000000000000000A+                                                                                                                       
0000000000000000000000000000000000000000000000000000000000000000000000000000000000000000000000000000000000000000000000A+                                                                                                                       
0000000000000000000000000000000000000000000000000000000000000000000000000000000000000000000000000000000000000000000000A+                                                                                                                       
0000000000000000000000000000000000000000000000000000000000000000000000000000000000000000000000000000000000000000000000A+                                                                                                                       
0000000000000000000000000000000000000000000000000000000000000000000000000000000000000000000000000000000000000000000000A+                                                                                                                       
0000000000000000000000000000000000000000000000000000000000000000000000000000000000000000000000000000000000000000000000A+                                                                                                                       
0000000000000000000000000000000000000000000000000000000000000000000000000000000000000000000000000000000000000000000000A+                                                                                                                       
0000000000000000000000000000000000000000000000000000000000000000000000000000000000000000000000000000000000000000000000A+                                                                                                                       
0000000000000000000000000000000000000000000000000000000000000000000000000000000000000000000000000000000000000000000000A+                                                                                                                       
000000000000000000000000000000000000000000000000000000000000000000000000000000000000000000000000000000000000000000000QA+                                                                                                                       
000000000000000000000000000000000000000000000000000000000000000000000000000000000000000000000000000000000000000000000QA+                                                                                                                       
0000000000000000000000000000000000000000000000000000000000000000000000000000000000000000000000000000000000000000000000A+                                                                                                                       
0000000000000000000000000000000000000000000000000000000000000000000000000000000000000000000000000000000000000000000000A+                                                                                                                       
0000000000000000000000000000000000000000000000000000000000000000000000000000000000000000000000000000000000000000000000A+                                                                                                                       
0000000000000000000000000000000000000000000000000000000000000000000000000000000000000000000000000000000000000000000000A+                                                                                                                       
0000000000000000000000000000000000000000000000000000000000000000000000000000000000000000000000000000000000000000000000A+                                                                                                                       
0000000000000000000000000000000000000000000000000000000000000000000000000000000000000000000000000000000000000000000000A+                                                                                                                       
0000000000000000000000000000000000000000000000000000000000000000000000000000000000000000000000000000000000000000000000A+                                                                                                                       
0000000000000000000000000000000000000000000000000000000000000000000000000000000000000000000000000000000000000000000000A+                                                                                                                       
0000000000000000000000000000000000000000000000000000000000000000000000000000000000000000000000000000000000000000000000A+                                                                                                                       
0000000000000000000000000000000000000000000000000000000000000000000000000000000000000000000000000000000000000000000000A+                                                                                                                       
0000000000000000000000000000000000000000000000000000000000000000000000000000000000000000000000000000000000000000000000A+                                                                                                                       
0000000000000000000000000000000000000000000000000000000000000000000000000000000000000000000000000000000000000000000000A+                                                                                                                       
0000000000000000000000000000000000000000000000000000000000000000000000000000000000000000000000000000000000000000000000A+                                                                                                                       
0000000000000000000000000000000000000000000000000000000000000000000000000000000000000000000000000000000000000000000000A+                                                                                                                       
0000000000000000000000000000000000000000000000000000000000000000000000000000000000000000000000000000000000000000000000A+                                                                                                                       
0000000000000000000000000000000000000000000000000000000000000000000000000000000000000000000000000000000000000000000000A+                                                                                                                       
0000000000000000000000000000000000000000000000000000000000000000000000000000000000000000000000000000000000000000000000A+                                                                                                                       
0000000000000000000000000000000000000000000000000000000000000000000000000000000000000000000000000000000000000000000000A+                                                                                                                       
0000000000000000000000000000000000000QQQQQQQQQQQQQQQQ00000000000000000000000000000000000000000000000000000000000000000A+                                                                                                                       
000000000000000000000000000000000QQQ0HYgwLo[??I17#FVOBQQQQ000000000000000000000000000000000000000000000000000000000000A+                                                                                                                       
000000000000000000000000000000QQQ@dLs/_             :\IfZBQQ0000000000000000000000000000000000000000000000000000000000A+                                                                        .``.                                           
0000000000000000000000000000QQBd1/`                     _iuGMQ00000000000000000000000000000000000000000000000000000000A+                                                                .^v[nphgZbbGEg3j}\_                                    
0000000000000000000000000RRQWmr-                           :!PRQ000000000000000000000000000000000000000000000000000000A+                                                             '%#X@RQQQQQQQQQQQQQ0DbF?^                                 
000000000000000000000000RRQO[-                               ;LDQ00000000000000000000000000000000000000000000000000000A+                                                           |#O0QQQ0RRR00000000000QQQ0ACi.                              
00000000000000000000000000P)                                   I8QRRR000000000000000000000000000000000000000000000000QA+                                                         'n@QQQ000000000000000000000QQQK#^                             
000000000000000000000000Qg\                                     }DQ000000000000000000000000000000000000000000000000000A+                                                        vXQQ000000000000000000000000000QQXi                            
00000000000000000000000QH*                                      .w0Q00000000000000000000000000000000000000000000000000A+                                                       |8Q0000000000000000000000000000000QG|                           
00000000000000000000000Qd;                                       )$Q00000000000000000000000000000000000000000000000000A+                                                      `SQQ00000000000000000000000000000000Qw`                          
00000000000000000000000Qf                                        ;ZQ00000000000000000000000000000000000000000000000000A+                                                      %WQ000000000000000000000000000000000Qk"                          
00000000000000000000000Qy.                                       ^YQ00000000000000000000000000000000000000000000000000A+                                                      sMQ00000000000000000000000000000000RQ@)                          
00000000000000000000000QG/                                       rK000000000000000000000000000000000000000000000000000A+                                                      >HQ000000000000000000000000000000000QG+                          
000000000000000000000000Wz                                      ,S0000000000000000000000000000000000000000000000000000A+                                                      .qQR000000000000000000000000000000QQBj-                          
000000000000000000000000Q8*                                    -JM0000000000000000000000000000000000000000000000000000A+                                                       |XQ000000000000000000000000000000QR2,                           
0000000000000000000000000Q$1`                                 :CNQR000000000000000000000000000000000000000000000000000A+                                                        |4QQ000000000000000000000000000QKT:                            
00000000000000000000000000QB2<                               rd0QR0000000000000000000000000000000000000000000000000000A+                                                         :u8QQ000000000000000000000QQQWhc                              
000000000000000000000000000QQ$w\                          :l5BQ0000000000000000000000000000000000000000000000000000000A+                                                           ;1XWQQQ0000000000000QQQQM&2c-                               
00000000000000000000000000000QQ@m]"`                   :vLXBQ0R0000000000000000000000000000000000000000000000000000000A+                                                             `\zV&N0QQQQQQQQQQRDOhnl;                                  
0000000000000000000000000000000QQQ@4#!i='.      `_;\ro6ONQQQ0RR0000000000000000000000000000000000000000000000000000000A+                                                                 :>ltTyfy3fJj1r":                                      
0000000000000000000000000000000000QQQQN$YXhq66mgEZ8DRQQQQ0000000000000000000000000000000000000000000000000000000000000A+                                                                                                                       
00000000000000000000000000000000000000QQQQQQQQQQQQQQ000000000000000000000000000000000000000000000000000000000000000000A+                                                                                                                       
0000000000000000000000000000000000000000000000000000000000000000000000000000000000000000000000000000000000000000000000O+                                                                                                                       
0000000000000000000000000000000000000000000000000000000000000000000000000000000000000000000000000000000000000000000000O=                                                                                                                       
0000000000000000000000000000000000000000000000000000000000000000000000000000000000000000000000000000000000000000000000O+                                                                                                                       
0000000000000000000000000000000000000000000000000000000000000000000000000000000000000000000000000000000000000000000000A+                                                                                                                       
0000000000000000000000000000000000000000000000000000000000000000000000000000000000000000000000000000000000000000000000A+                                                                                                                       
0000000000000000000000000000000000000000000000000000000000000000000000000000000000000000000000000000000000000000000000A+                                                                                                                       
0000000000000000000000000000000000000000000000000000000000000000000000000000000000000000000000000000000000000000000000A+                                                                                                                       
0000000000000000000000000000000000000000000000000000000000000000000000000000000000000000000000000000000000000000000000A+                                                                                                                       
0000000000000000000000000000000000000000000000000000000000000000000000000000000000000000000000000000000000000000000000A+                                                                                                                       
0000000000000000000000000000000000000000000000000000000000000000000000000000000000000000000000000000000000000000000000A+                                                                                                                       
000000000000000000000000000000000000000000000000000000000000000000000000000000000000000000000000000000000000000000000QO=                                                                                                                       
0000000000000000000000000000000000000000000000000000000000000000000000000000000000000000000000000000000000000000000000O=                                                                                                                       
0000000000000000000000000000000000000000000000000000000000000000000000000000000000000000000000000000000000000000000000O=                                                                                                                       
000000000000000000000000000000000000000000000000000000000000000000000000000000000000000000000000000000000000000000000QA+                                                                                                                       
00000000000000000000000000000000000000000000000000000000000000000000000000000000000000000000000000000000000000000000R0A+                                                                                                                       
00000000000000000000000000000000000000000000000000000000000000000000000000000000000000000000000000000000000000000000R0A+                                                                                                                       
00000000000000000000000000000000000000000000000000000000000000000000000000000000000000000000000000000000000000000000R0A+                                                                                                                       
00000000000000000000000000000000000000000000000000000000000000000000000000000000000000000000000000000000000000000000R0A+                                                                                                                       
00000000000000000000000000000000000000000000000000000000000000000000000000000000000000000000000000000000000000000000R0A+                                                                                                                       
00000000000000000000000000000000000000000000000000000000000000000000000000000000000000000000000000000000000000000000R0A+                                                                                                                       
00000000000000000000000000000000000000000000000000000000000000000000000000000000000000000000000000000000000000000000R0A+                                                                                                                       
00000000000000000000000000000000000000000000000000000000000000000000000000000000000000000000000000000000000000000000R0A+                                                                                                                       
00000000000000000000000000000000000000000000000000000000000000000000000000000000000000000000000000000000000000000000R0A+                                                                                                                       
00000000000000000000000000000000000000000000000000000000000000000000000000000000000000000000000000000000000000000000R0A+                                                                                                                       
00000000000000000000000000000000000000000000000000000000000000000000000000000000000000000000000000000000000000000000R0A+                                                                                                                       
00000000000000000000000000000000000000000000000000000000000000000000000000000000000000000000000000000000000000000000R0A+                                                                                                                       
00000000000000000000000000000000000000000000000000000000000000000000000000000000000000000000000000000000000000000000R0A+                                                                                                                       
00000000000000000000000000000000000000000000000000000000000000000000000000000000000000000000000000000000000000000000R0A+                                                                                                                       
00000000000000000000000000000000000000000000000000000000000000000000000000000000000000000000000000000000000000000000R0A+                                                                                                                       
00000000000000000000000000000000000000000000000000000000000000000000000000000000000000000000000000000000000000000000R0A+                                                                                                                       