00000000000000000000000000000000000000000000000000000000QQQRRQQQ00000000
00000000000000000000000000000000000000000000000000000000@5?%sjhURQQ00000
0000000000000000000000000000000000000000000000000000QQQb{     -<jEDRQQQQ
000000000000000000000000000000000000000000000000QQQQN8hI:        ^\ic[yY
0000000000000000000000000000000000000000000000QQWPJ*|_                 =
00000000000000000000000000000000000000000000QQAj"                       
0000000000000000000000000000000000000000000QBj'                         
000000000000000000000000000000000000000000QRe                           
000000000000000000000000000000000000000000Mp_                           
000000000000000000000000000000000000000000DT_                           
000000000000000000000000000000000000000000QY*-                          
00000000000000000000000000000000000000000000KdLo,                       
00000000000000000000000000000000000000000000QQK7`                       
0000000000000000000000000000000000000000000000G1_                       
0000000000000000000000000000000000000000000000QWw^                      
00000000000000000000000000000000000000000000000QP,                      
00000000000000000000000000000000000000000000000Mj    'u[`               
00000000000000000000000000000000000000000000000M1-,  ]@Dv              `
0000000000000000000000000000000000000000000000QOl{_|3D0Y'              >
00000000000000000000000000000000000000000000000bn<IOQQQg               `
0000000000000000000000000000000000000000000000RPz6MQ000T                
0000000000000000000000000000000000000000000000W&BQQ000R]                
00000000000000000000000000000000000000000000000QQ00000Qt                
00000000000000000000000000000000000000000000000000000QMv                