000000000000000000000000000000000000000000QQ0000000000000000000000000000
000000000000000000000000000000000000QQQQQQD&RQ00000000000000000000000000
00000000000000000000000000000000QQQQKFt{cs*%xpQ0000000000000000000000000
00000000000000000000000000000000OLo7/        `GQQ00000000000000000000000
00000000000000000000000000000000W3:           :*X00000000000000000000000
00000000000000000000000000000000Qy_            )hR0000000000000000000000
0000000000000000000000000QQQQQQQ0Q&s         /VNQ00000000000000000000000
0000000000000000000000QQQBAqyTVWQQQF         \TyOQQQ00000000000000000000
0000000000000000000000WF{=`    \7]I)            -x3AR0000000000000000000
000000000000000000000QC                            tM0000000000000000000
0000000000000000000000@#l)""<leL^                .f000000000000000000000
0000000000000000000000QQQMWNRQQQ&fi               s@00000000000000000000
0000000000000000000000000QQQ0000QQ!.          'l,.:gQ0000000000000000000
0000000000000000000000000000000QB3'           :UKkKQ00000000000000000000
0000000000000000000000000000000KqDt            #QQQ000000000000000000000
0000000000000000000000000000000R0B<            )R00000000000000000000000
00000000000000000000000000000000Qbo.           _&Q0000000000000000000000
000000000000000000000000000000000WG             FQ0000000000000000000000
000000000000000000000000000000000Q$+            IQ0000000000000000000000
0000000000000000000000000000000000Q?            ,@Q000000000000000000000
000000000000000000000000000000000QW"             FQ000000000000000000000
000000000000000000000000000000000QP.             l0000000000000000000000
000000000000000000000000000000000Qu              _AQ00000000000000000000
000000000000000000000000000000000Ri               3Q00000000000000000000