000000000000000000000000QQQ000000000000000000000000000000000000000000000
000000000000000000000QQQW8WQQ0000000000000000000000000000000000000000000
000000000000000000QQMX3n[)"f8QQ00000000000000000000000000000000000000000
00000000000000000M$O!       :7A00000000000000000000000000000000000000000
00000000000000000@*.         -EQ0000000000000000000000000000000000000000
00000000000000000Q6<-        ^DQ0000000000000000000000000000000000000000
000000000000000000QRS         SRQQQ0000000000000000000000000000000000000
0000000000000000000Qk.        `)nGW0000000000000000000000000000000000000
0000000000000000000Nt             ]W000000000000000000000000000000000000
000000000000000000QX            .oK0000000000000000000000000000000000000
000000000000000000Qg             PQ0000000000000000000000000000000000000
00000000000000000QQ2           `lY00000000000000000000000000000000000000
0000000000000000QR#-           *WQ00000000000000000000000000000000000000
0000000000000000Ar             %0000000000000000000000000000000000000000
000000000000000Qp              |NQ00000000000000000000000000000000000000
00000000000000000Ji)v          ;HQ00000000000000000000000000000000000000
00000000000000000Q0Qw          `OQ00000000000000000000000000000000000000
000000000000000000Qk:           4Q00000000000000000000000000000000000000
000000000000000000W%            2Q00000000000000000000000000000000000000
00000000000000000QT             oQ00000000000000000000000000000000000000
0000000000000000Qk'             rQ00000000000000000000000000000000000000
00000000000000000!              |NQ0000000000000000000000000000000000000
000000000000000Qk_              :$Q0000000000000000000000000000000000000
000000000000000Q5               .bQ0000000000000000000000000000000000000