0000000000000000000000000000000QW1                                      
0000000000000000000000000000000QW1                                      
0000000000000000000000000000000QW1                                      
0000000000000000000000000000000QW1                                      
0000000000000000000000000000000QW1                                      
0000000000000000000000000000000QW1                                      
0000000000000000000000000000000QW1                                      
000000000QQQQ000000000000000000QW1                                      
000000QQQWKKBRQQ000000000000000QW1                                      
00000Q&Cr";:=iogMQ0000000000000QW1                 ;%[ojz])_            
0000RF^        `t@0000000000000QW1               ^5KQQQQQQRY[.          
000Qk)          .3Q000000000000QW1             sJAQQ0000000QMgwl        
000QUc          ;hQ000000000000QW1            .LXUQQ000000QQR$Xl        
0000QA]'      .ihRQ000000000000QW1               ,w8RQQQQQB4*_          
00000QQ&mu1[72ZNQ00000000000000QW1                 '>}]!Ic/             
0000000QQQQQQQQQ000000000000000QW1                                      
0000000000000000000000000000000QW1                                      
0000000000000000000000000000000QW1                                      
0000000000000000000000000000000QW1                                      
0000000000000000000000000000000QW1                                      
0000000000000000000000000000000QW1                                      
0000000000000000000000000000000QW1                                      
0000000000000000000000000000000QW1                                      
0000000000000000000000000000000QW1                                      