0000000000000000000000000000000000Q5                                    
00000000000000000000000000000000000Wi                                   
00000000000000000000000000000000000Qq                                   
00000000000000000000000000000000000QD/                                  
000000000000000000000000000000000000Q*                                  
000000000000000000000000000000000000Qa                                  
000000000000000000000000000000000000Qo                                  
000000000000QQQ000000000000000000000Qa                                  
000000000QQQNBBRQQQ00000000000000000R%                                  
0000000QQbul|=+<I2@Q000000000000000Q$,                 |?uJT1>.         
0000000No`        =gQ00000000000000Qf                /SWQQQQQRPv        
000000Qm           ,KQ000000000000QK/                dQQ000000QU:       
000000Q4           \B0000000000000QL                 3QQQ000QQQX_       
00000000m)       `{AQ000000000000Q@^                 -7bWQQQM&C;        
00000000QW4T]*Ia3k0Q0000000000000Q6                    ."xsl\_          
000000000QQQQQQQQQ000000000000000Qt                                     
0000000000000000000000000000000000c                                     
000000000000000000000000000000000Rx                                     
000000000000000000000000000000000Q?                                     
000000000000000000000000000000000QT                                     
000000000000000000000000000000000QE`                                    
000000000000000000000000000000000QBv                                    
0000000000000000000000000000000000Qm.                                   
00000000000000000000000000000000000M*                                   