000000000000000000000000000000000000000000000000000000000000000000000000
0000000000000QQQQQQQQQQ0000000000000000000000000000000000000000000000000
000000000000BXhgdG88GkWQ000000000000000000000000000000000000000000000000
000000000000RKkhT*"` _)SQQ0000000000000000000000000000000000000000000000
0000000000000QQQQQ@5>  '2BQQ00000000000000000000000000000000000000000000
000000000000000000QQM2,  "CK00QQQ00000000000000000000000000000000000000k
00000000000000000000QQS'   ^)xeSNQQ000000000000000000000000000000000000M
0000000000000000000000Q82/    ` I&MQQQQQQQQQQQQQQ00000000000000QQQQQQQQQ
00000000000000000000000QQKj,     _\{zFg26O8AA&@BMQQQQQQQQQQQQQRW@&kGGGGb
0000000000000000000000000QQU#<           `_``-:=)%Iun?rccr[#7{>/:-.    .
000000000000000000000000000QQMP%                                        
00000000000000000000000000000QQWh5mz'                                   
0000000000000000000000000000000QQQQQh`                                  
000000000000000000000000000000000000Qp                                  
0000000000000000000000000000000000000QF`                                
00000000000000000000000000000000000000Qh).                              
000000000000000000000000000000000000000QMx                              
0000000000000000000000000000000000000000M>                              
000000000000000000000000000000000000000QW/                              
00000000000000000000000000000000000000000x                              
0000000000000000000000000000000000000000Qe                              
0000000000000000000000000000000000000000Qw                              
0000000000000000000000000000000000000000Q5                             .
0000000000000000000000000000000000000000Q5.                            -