000000000000000000000000000QZi                                          
000000000000000000000000000QZv                                          
000000000000000000000000000QZv                                          
000000000000000000000000000QZv                                          
000000000000000000000000000QZv                                          
000000000000000000000000000QZv                                          
000000000000000000000000000QZv                                          
00000QQQQ000000000000000000QZv                                          
00QQ0BKKWQQQ000000000000000QZv                                          
QMX7%+,,"l#O0Q0000000000000QZv                 `<!7j7?\.                
@o_        ^yW0000000000000QZv                [YRQQQQQNXI`              
y:          \XQ000000000000QZv          '/rI!CQQ000000QQQZ6pSgE[_       
S/          lkQ000000000000QZv          /*f3FgMQQ00000QQQDUKBW8j-       
Mhx`      :]YQ0000000000000QZv                rgBQQQQQHZC+`_,;-         
0QMZ27[tLm&RQ00000000000000QZv                  +l!]I%^                 
00QQQQQQQQQ0000000000000000QZv                                          
000000000000000000000000000QZv                                          
000000000000000000000000000QZv                                          
000000000000000000000000000QZv                                          
000000000000000000000000000QZv                                          
000000000000000000000000000QZv                                          
000000000000000000000000000QZv                                          
000000000000000000000000000QZv                                          
000000000000000000000000000QZv                                          