00000000000000000000000000ko?[en5XHQQQQQQQQQQQQQQ00000000000000000000000
0000000000000000000000000Qo      .=a11Lg#]*{}1TSA00000000000000000000000
0000000000000000000000000QJ                     lM0000000000000000000000
0000000000000000000000000QZ'.`                 iU00000000000000000000000
00000000000000000000000000Qkg%              -`r@Q00000000000000000000000
000000000000000000000000000M*               1AMQ000000000000000000000000
000000000000000000000000000RA#             /4QQ0000000000000000000000000
0000000000000000000000000000Q$'            #Q000000000000000000000000000
0000000000000000000000000000Q&=            >R000000000000000000000000000
000000000000000000000000000QQU"            cM000000000000000000000000000
000000000000000000000000000@o"`            vUQ00000000000000000000000000
0000000000000000000000000QQ#                /PQQ000000000000000000000000
000000000000000000000000RH@c                 :FK000000000000000000000000
000000000000000000000000N?:                    ?Q00000000000000000000000
000000000000000000000000Qd                `    ,XQ0000000000000000000000
00000000000000000000000QQs               '1     )KQ000000000000000000000
0000000000000000000000QQ#                "F      1Q000000000000000000000
000000000000000000000QRz                 'w`     `hQ00000000000000000000
00000000000000000000QMt                   v'      _5R0000000000000000000
00000000000000000000H*                    /;       '$Q000000000000000000
00000000000000000000U*                    .`       /80000000000000000000
00000000000000000000QJ                              nQ000000000000000000
00000000000000000000QL                            \gW0000000000000000000
00000000000000000000Qg                            5QQ0000000000000000000