00000000000000000000000000000QD1                                        
00000000000000000000000000000QDt                                        
00000000000000000000000000000QDt                                        
00000000000000000000000000000QDt                                        
00000000000000000000000000000QDt                                        
00000000000000000000000000000QDt                                        
00000000000000000000000000000QDt                                        
0000000QQQQ000000000000000000QDt                                        
0000QQQWKKB0QQQ00000000000000QDt                                        
0000OJr";,+v7XMQ0000000000000QDt                 :v!7jz]>-              
00N2=        -e$0000000000000QDt               `n$0QQQQQMb[-            
0QP\          _20000000000000QDt            |]zVQQ000000QQRGypm}.       
0QOc          +hQ000000000000QDt           .{6gXQQQ00000QQQHH$b?.       
000Y!:      `xhR0000000000000QDt                1bWQQQQQDX[,'-          
000Q0&6u11z2ZNQ00000000000000QDt                 ."r!!Ic+               
00000QQQQQQQQQ000000000000000QDt                                        
00000000000000000000000000000QDt                                        
00000000000000000000000000000QDt                                        
00000000000000000000000000000QDt                                        
00000000000000000000000000000QDt                                        
00000000000000000000000000000QDt                                        
00000000000000000000000000000QDt                                        
00000000000000000000000000000QDt                                        
00000000000000000000000000000QDt                                        