0000000000000000000000000000000000000000000000000000QWC,                
0000000000000000000000000000000000000000000000000000M7                  
000000000000000000000000000000000000000000000000000QE'                  
0000000000000000000000000000000000000000000000000QQ8]                   
0000000000000000000000000000000000000000000QQQQQ0UL,                    
00000000000000000000000000000000000000000R0D$8pti:                      
00000000000000000000000000000000000000000Q$%''                          
00000000000000000000000000000000000000000QZ-                            
00000000000000000QQQQ000000000000000000000Be\ii                         
00000000000000000UjSDQQ0000000000000000000QQRQD1s"                      
00000000000000000N2<+7YQQQ000000000000000000000QQH7,'.                  
000000000000000000QMg%_%pHQQQ00000000000000000000QQ@$w_                 
0000000000000000000QQB6/ ^aPWQ000000000000000000000QQk"                 
000000000000000000QRn=^:    \GQ000000000000000000000Q@v                 
000000000000000000ki.        ,gQ00000000000000000000QWI                 
00000000000000000Qs           \NQ0000000000000000000QW1     -fI:        
000000000000000000pI*         -YQQ000000000000000000QMt      EQu.       
000000000000000000QQQg)        =j&QQ0000000000000000QW[      nRe        
000000000000000000000QDu_        :abQQ0000000000000QQ@l      ckc        
0000000000000000000000QQY!_        `?gQQQQQQQQQQQQQK5i`      .^`        
000000000000000000000000QQAz^         sdB$Z4EUWOqjr+                    
00000000000000000000000000QQ@T=         +:.  '"-                        
0000000000000000000000000000QQKT^                                       
000000000000000000000000000000QQ81`                                     