00000000000000000000000RPmgEODQQQQQQQQQQQQQ00000000000000000000000000000
0000000000000000000000Q4`   _/*66hAYSFFgP8W00000000000000000000000000000
0000000000000000000000QC          _`     `t00000000000000000000000000000
0000000000000000000000Q4,^`              )O00000000000000000000000000000
000000000000000000000000P?`            :rUQ00000000000000000000000000000
0000000000000000000000003c-            d0Q000000000000000000000000000000
000000000000000000000000QQr           JRQ0000000000000000000000000000000
0000000000000000000000000Qj           LQ00000000000000000000000000000000
000000000000000000000000QQY:          xR00000000000000000000000000000000
000000000000000000000000Bf%.          }R00000000000000000000000000000000
0000000000000000000000QQ3              3QQ000000000000000000000000000000
0000000000000000000000B8!              -{S000000000000000000000000000000
0000000000000000000000Y\                 mQ00000000000000000000000000000
00000000000000000000000v   )             lNQ0000000000000000000000000000
000000000000000000000QS    v              tQ0000000000000000000000000000
00000000000000000000QS'   .l               uQ000000000000000000000000000
0000000000000000000Qy`    :1                uR00000000000000000000000000
000000000000000000RL      `:                s000000000000000000000000000
0000000000000000000f                        ^8Q0000000000000000000000000
000000000000000000Qp                       _JD00000000000000000000000000
000000000000000000Qm.                      xQQ00000000000000000000000000
000000000000000000Qm                      ,hQ000000000000000000000000000
000000000000000000Qr  %/                  wQ0000000000000000000000000000
000000000000000000Qj^TS`                  +8Q000000000000000000000000000