000000000000000000000000000000000000000000000000000000000000000000000000
000000000000000QQQQQQ000000000000000000000000000000000000000000000000000
00000000000QQQQNBBKdYQQ0000000000000000000000000000000000000000000000000
0000000000Mkkka|===:-zMQ000000000000000000000000000000000000000000000000
0000000000Ww^.        cmM00000000000000000000000000000000000000000000000
0000000000Q@x_        `eW00000000000000000000000000000000000000000000000
00000000000Q0G'       hQQ00000000000000000000000000000000000000000000000
000000000000Qg.       {5&R0000000000000000000000000000000000000000000000
00000000000Qh+          _}H000000000000000000000000000000000000000000000
00000000000Wi           ,GQ000000000000000000000000000000000000000000000
0000000000QE.         .  v@000000000000000000000000000000000000000000000
000000000QBT          C6z5N000000000000000000000000000000000000000000000
00000000Qbv           rQQQ0000000000000000000000000000000000000000000000
0000000Ru.   ;`       -&Q00000000000000000000000000000000000000000000000
00000000E<. /7.        SQ00000000000000000000000000000000000000000000000
00000000QWkY8%         zQ00000000000000000000000000000000000000000000000
000000000QQQO`         %000000000000000000000000000000000000000000000000
00000000000QC          :$Q0000000000000000000000000000000000000000000000
000000000000l           SQ0000000000000000000000000000000000000000000000
0000000000Q$:           tQ0000000000000000000000000000000000000000000000
0000000000QV            )NQ000000000000000000000000000000000000000000000
0000000000QT            .YQ000000000000000000000000000000000000000000000
0000000000Q]             2Q000000000000000000000000000000000000000000000
0000000000Qc    .i)v:    {R000000000000000000000000000000000000000000000