000000000000000000000QQ0000000000000000000000000000000000000000000000000
000000000000000000QQQBMQQQ0QQQQQQ000000000000000000000000000000000000000
000000000000000000Kpr+vu?cixInE$MQQ0000000000000000000000000000000000000
00000000000000000Q]:           ')aKQ000000000000000000000000000000000000
0000000000000000Q2`               *8Q0000QQQQQQQQ00000000000000000000000
0000000000000000Q6                 ,yQ00QOm5hY8HMQQQQ0000000000000000000
00000000000000000Rs                  uRQ6_   ._;)*jJkQ000000000000000000
00000000000000000Q#                  -@Q1           .bQ00000000000000000
0000000000000000Qb_                 ,#QL           "[K000000000000000000
0000000000000000QC\"`          `)))[SNu            2QQ000000000000000000
00000000000000000MY@Yz_        -|"|><"             TQQQQ0000000000000000
000000000000000000QQQ&+                            /jmkBQQQ0000000000000
000000000000000000QD2{'            .=                 .+rnXM000000000000
0000000000000000QQ5/                ^             -        nQ00000000000
000000000000000Q&e                              .\YbEh62fCJX000000000000
00000000000000Q8,                               cARQQQQQQQQQ000000000000
000000000000000Kr_                             .uQ0000000000000000000000
000000000000000Q0UJ           s<               .PQ0000000000000000000000
00000000000000000Qg          xQF`               uRQ000000000000000000000
00000000000000000Q#         :kJ`                 l@000000000000000000000
000000000000000QQV^         r?                    LQ00000000000000000000
000000000000000BL.          .     -I`             !Q00000000000000000000
00000000000000QU-                /g2    [v        lQ00000000000000000000
000000000000000T                /kQ!    IZ;       "WQ0000000000000000000