0000000000000000000000000000000000000000Q0PI-           :tkQ000000000000
0000000000000000000000000000000000000000Do-               'FQ00000000000
0000000000000000000000000000000000000000Wl                 _&Q0000000000
0000000000000000000000000000000000000000QYi                 fQ0000000000
0000000000000000000000000000000000000000Wz/                 2Q0000000000
00000000000000000000000000000000000000000}                 xW00000000000
0000000000000000000000000000000000000000Q6                ;UQ00000000000
00000000000000000000000000000000000000000NZF?`            ,XQ00000000000
00000000000000000000000000000000000000000QQQ3`   .`        _dQ0000000000
000000000000000000000000000000000000000QQBd{      . ;^.   -vFR0000000000
00000000000000000000000000000000000000Q8j/          -LdJJ7PdN00000000000
00000000000000000000000000QQ000000000M5^             "MQQRQQ000000000000
0000000000000000000000QQQQMMQ00000000R1               pQ0000000000000000
000000000000000000000QV[xx\rB00000000n              .vnQ0000000000000000
00000000000000000000Q5      zQ00000QU-             *EDM00000000000000000
00000000000000000000M)    _J@000000QB"             TQQ000000000000000000
0000000000000000000Q4.    \WQ0000000Q2            #kM0000000000000000000
0000000000000000000B<     -gQQQQQQQQQ0|           bQ00000000000000000000
000000000000000000Qu       :v{]oLuL7t!;           4Q00000000000000000000
00000000000000000QN"                              ]R00000000000000000000
0000000000000000000)                               FQ0000000000000000000
000000000000000000QJ :       `jf#j1*v)`            ^gQQ00000000000000000
00000000000000000000C,        SQQQQQQ&'              eDQ0000000000000000
0000000000000000000QS.        iN0000Qw                v&0000000000000000