000000000000000000000000MVf36E8RQQQQQQQQQQQQ0000000000000000000000000000
00000000000000000000000QE.    :i#f5PPFff6EAW0000000000000000000000000000
00000000000000000000000Q2                 .rN000000000000000000000000000
00000000000000000000000Qb<<_              \b0000000000000000000000000000
000000000000000000000000Qb*`            ;?@Q0000000000000000000000000000
0000000000000000000000000pI:           .6QQ00000000000000000000000000000
0000000000000000000000000QQ%           wN0000000000000000000000000000000
00000000000000000000000000R*           eQ0000000000000000000000000000000
0000000000000000000000000QQt           *00000000000000000000000000000000
0000000000000000000000000&]:           oQ0000000000000000000000000000000
00000000000000000000000QQ?             .5QQ00000000000000000000000000000
0000000000000000000000RkX^              `7800000000000000000000000000000
00000000000000000000000#                  wQ0000000000000000000000000000
0000000000000000000000Qe   l)             ;OQ000000000000000000000000000
000000000000000000000Qh.   j%              xM000000000000000000000000000
00000000000000000000Qd'    C=               pQ00000000000000000000000000
0000000000000000000Qq_    'j.               +@Q0000000000000000000000000
0000000000000000000y.     `'                `hQ0000000000000000000000000
00000000000000000002.                       `5Q0000000000000000000000000
000000000000000000QZ.                       +T00000000000000000000000000
000000000000000000Q4                        dQ00000000000000000000000000
000000000000000000Qy                       _UQ00000000000000000000000000
000000000000000000Qr  "-                  :q0000000000000000000000000000
000000000000000000Qz_tu.                  `mQ000000000000000000000000000