0000000R>        |gR00000000000000000000000000Qk.                       
0000000Q[       )&QQ00000000000000000000000000Qk.                       
00000QQQG-      :LKH00000000000000000000000000Qk.                       
0000Q@hkR|   l[  `/200000000000000000000000000Qk.                       
000MC/  %'   3r    "$Q000000000000000000000000Qk.                       
000Me ?#'    .     ,DQ000000000000000000000000Qk.                       
00000z1W8e/.      :wR0000000000000000000000000Qk.                       
0000QQQQQQPi     "kQ00000000000000000000000000Qk.                       
000M3}?!]s:      !pVM0000000000000000000000000Qk.                       
000R4J|        |s[LmW0000000000000000000000000Qk.                       
0000QQMAX>    ;bB0QQ00000000000000000000000000Qk.                       
000000QQQAc.  -}5OR000000000000000000000000000Qk.                       
000000000QRb53PNQQ0000000000000000000000000000Qk.                       
00000000000QQQQ0000000000000000000000000000000Qk.                       
0000000000000000000000000000000000000000000000Qk.                       
0000000000000000000000000000000000000000000000Qk.              _orlri"_ 
0000000000000000000000000000000000000000000000Qk.               GQQQ0N8F
0000000000000000000000000000000000000000000000Qk.              \$Q000QQN
0000000000000000000000000000000000000000000000Qk.              oQ00000O[
0000000000000000000000000000000000000000000000Qk.              3Q00000OF
0000000000000000000000000000000000000000000000Qk.             aM000000QQ
0000000000000000000000000000000000000000000000Qk.            rRQ00000000
0000000000000000000000000000000000000000000000Qk.            *0000000000
0000000000000000000000000000000000000000000000Qk.            lR000000000