00000000000000000000Q000000000000000000000000000000000000000000000000000
000000000000000QQQQRMQQ0000000000000000000000000000000000000000000000000
000000000000QQQ@h52ur7KQQ00000000000000000000000000000000000000000000000
00000000000WVm3^      =w@R0000000000000000000000000000000000000000000000
00000000000Mp,          }W0000000000000000000000000000000000000000000000
00000000000QNu%`       ^8Q0000000000000000000000000000000000000000000000
0000000000000QR"       >0QQQ00000000000000000000000000000000000000000000
0000000000000QZ'       `vTGB00000000000000000000000000000000000000000000
000000000000Qg'           .uR0000000000000000000000000000000000000000000
000000000000Q[            1M00000000000000000000000000000000000000000000
00000000000QR)            -SQ0000000000000000000000000000000000000000000
0000000000Q0u   -      .#wy@00000000000000000000000000000000000000000000
000000000QD!   "-       eQQQ00000000000000000000000000000000000000000000
000000000b\   _a.       ^DQ000000000000000000000000000000000000000000000
000000000k)   *x         4Q000000000000000000000000000000000000000000000
000000000QUJJGp.         #Q000000000000000000000000000000000000000000000
0000000000QQQQl          IQ000000000000000000000000000000000000000000000
000000000000QP.          |NQ00000000000000000000000000000000000000000000
000000000000Q1           `kQ00000000000000000000000000000000000000000000
00000000000Q@,            FQ00000000000000000000000000000000000000000000
00000000000Q5             !Q00000000000000000000000000000000000000000000
000000000000r             "WQ0000000000000000000000000000000000000000000
0000000000Q$:             .YQ0000000000000000000000000000000000000000000
0000000000QV  :- .,-';.    CQ0000000000000000000000000000000000000000000