0000Q&_         !K0000000000000000000QV                                 
00000R)       r4RQ0000000000000000000Qh                                 
00000Q!     /VQQ000000000000000000000Qg                                 
0000QQT    'O@HQQQ0000000000000000000Qg                                 
000W6y!    s2\?jTY0000000000000000000Qg                                 
000W>%\   _1:   <80000000000000000000Qg                                 
000QPZz-  `    IHQ0000000000000000000Qg                                 
00QRRRMF,    xgQQ00000000000000000000Qg                                 
006v==";.    zkQ000000000000000000000Qg                                 
00HY3I    \#36k0000000000000000000000Qg                                 
00QQQQT_  v6AQQ0000000000000000000000Qg                                 
000000QAp2bBR000000000000000000000000Qg                                 
0000000QQQQ00000000000000000000000000Qg                                 
0000000000000000000000000000000000000Qg                                 
0000000000000000000000000000000000000Qg                        'ed6F{   
0000000000000000000000000000000000000Qg                       IAQQQQY_  
0000000000000000000000000000000000000Qg                     '?DQ008T%.  
0000000000000000000000000000000000000Qg                  -*F8QQ0QQAe. ,o
0000000000000000000000000000000000000Qg                 )YQQQ000UDQQb{}Q
0000000000000000000000000000000000000Qg                'JZWQ0000mB00QQR8
0000000000000000000000000000000000000Qg                  :wNQQQ0R000Po%'
0000000000000000000000000000000000000Qg                   .E$SyR000Qu   
0000000000000000000000000000000000000Qg                    _' f0000QS   
0000000000000000000000000000000000000Qg                      "WQ0000R]  