R0000000000000000000000000000RZ!-                                       
000000000000000000000000000000Q0G{                                      
00000000000000000000000000000000Q05'                                    
0000000000000000000000000000000000QE;                                   
00000000000000000000000000000000000Qg`                                  
000000000000000000000000000000000000QI                                  
000000000000000000000000000000000000Qg                                  
000000000000000000000000000000000000QO-                                 
00000000000QQQQQQ0000000000000000000QZ`                :)*?*)'          
000000000QQB8kk$NQQ00000000000000000QC               ^fURQQQR8C:        
0000000QRgI"_``:)1XQ000000000000000QK"              `EQQ00000QQg.       
0000000W?         .LR0000000000000QN}               -ZQQ00000QQE.       
000000QV            OQ000000000000MI                 "SBQQQQQD6+        
000000Q8+          iD000000000000Qu                    /*oLe{+          
0000000QA],      =o@Q00000000000Q&:                                     
00000000QQ@dyT#2EKQQ000000000000Qp                                      
0000000000QQQQQQQQ00000000000000Qf                                      
00000000000000000000000000000000Qg                                      
00000000000000000000000000000000QK"                                     
000000000000000000000000000000000QF                                     
00000000000000000000000000000000000u                                    
000000000000000000000000000000000000C-                                  
000000000000000000000000000000000000QXc                                 
0000000000000000000000000000000000000QMF<                               