0000000000000000000000000000000000000000000000QQD@QQQ0000000000000000000
000000000000000000000000Q0000000000000000000QQWm)nk&BQQQ0000000000000000
00000000000000000000000QBR0000000000000000QR&J)  -.-=rCbRQ00000000000000
0000000000000000000000RLx0QQ0000000000QQQQhI_          .v6RQ000000000000
000000000000000000000QK_.gY&QQ00000000XCuos,              }DQ00000000000
0000000000000000000000Rp) -:fWQQQQ0000S]<                  }M00000000000
00000000000000000000000QWF:  +v[5AQQQ0QQBc`                -$Q0000000000
000000000000000000000000Qb_      _rmBQQQQ8].              _6000000000000
000000000000000000000000Q[          "eS&RD)               )QQ00000000000
00000000000000000000000QM)             -\1)               )$000000000000
000000000000000000000000M*{TdZX2}=                        LR000000000000
0000000000000000000000000RQQQQQQQDG2[<_                   SQ000000000000
000000000000000000000000000000000QQQQR$1                  4Q000000000000
000000000000000000000000000000000000Q0w'                  gQ000000000000
000000000000000000000000000000000000DI                    ?Q000000000000
00000000000000000000000000000000000Qt                     .XQ00000000000
00000000000000000000000000000000000Q3`                     %M00000000000
00000000000000000000000000000000000QE_                      pQ0000000000
000000000000000000000000000000000Q06i.                      \N0000000000
000000000000000000000000000000000@o[\_                      .YQ000000000
000000000000000000000000000000000KYQK)                       3Q000000000
000000000000000000000000000000000QQQd                        LQ000000000
00000000000000000000000000000000000QS                        EQ000000000
00000000000000000000000000000000000QS                       `ZQ000000000