000000000000000000000000000000000000000000000000000000000000000000000000
000000000000000000QQ0000000000000000000000000000000000000000000000000000
0000000000QQQQQQQQBUQQ00000000000000000000000000000000000000000000000000
0000000000DUDkolcrl/}KQQ000000000000000000000000000000000000000000000000
0000000000k{^_       >4B000000000000000000000000000000000000000000000000
0000000000QT-         ^VQ00000000000000000000000000000000000000000000000
00000000000R&l       {$Q000000000000000000000000000000000000000000000000
00000000000QQc       xm80Q0000000000000000000000000000000000000000000000
00000000000Mo          'cb0000000000000000000000000000000000000000000000
00000000000p            nM0000000000000000000000000000000000000000000000
000000000QK^            +gQ000000000000000000000000000000000000000000000
00000000QQE'         IgzjA0000000000000000000000000000000000000000000000
0000000QN3_          =DQQQ0000000000000000000000000000000000000000000000
0000000A\             qQ000000000000000000000000000000000000000000000000
0000000Bu^`.%.        7Q000000000000000000000000000000000000000000000000
0000000QQHAk2         x0000000000000000000000000000000000000000000000000
000000000QQQ?         ,KQ00000000000000000000000000000000000000000000000
0000000000QD+          VQ00000000000000000000000000000000000000000000000
0000000000QG.          oQ00000000000000000000000000000000000000000000000
0000000000Qy           <M00000000000000000000000000000000000000000000000
0000000000Q]           `OQ0000000000000000000000000000000000000000000000
00000000000v            FQ0000000000000000000000000000000000000000000000
000000000QW"            1Q0000000000000000000000000000000000000000000000
000000000QH;    /]*)    "BQ000000000000000000000000000000000000000000000