00000000000000000000000000000QA'                    aQ00000000000000000W
000000000000000000000000000000Q[                 . %@000000000000000000N
000000000000000000000000000000Q4                  {DQ000000000000000000N
000000000000000000000000000000QA`                oMQQQQ0000000000000000N
0000000000000000000000000000000N)              .TQQ&J5&M000000000000000N
0000000000000000000000000000000Qy              -kQw'  jR000000000000000N
00000000000000000000000000000QQQJ               \%.  ^$Q000000000000000N
0000000000000000000000000000QDmr     -:             .SQ00000QQ000000000N
00000000000000000000000000QQm"    /#4&DJ           -3Q0000Q0YPR00000000N
0000000000000000000000000QNL     iUQQR6?           cBQQQQQhcl$000000000N
000000000000000000000000QPi    .[HQ00N"             /j&WGI  XQ000000000N
00000000000000000000000Mu-    rXQQ000QS|              '/.   ZQ000000000N
0000000000000000000000Q6    ,VQQ0000QQE^                    FQ000000000N
0000000000000000000000Qr    CQ00000QRw`                     SQ000000000N
000000000000000000000QY-   >W00000QRa        ;;.         =*gR0000000000N
000000000000000000000B%    pQ00000Dr   -c![ThKHbSJz1[eT6GDQQ00000000000N
000000000000000000QQQu    ,8Q0000Q$).<TkQQQQQQQQQQQQQQQQQQ0000000000000N
00000000000000000MKbj-  nG80000000QHZMQQ0000000000000000000000000000000N
0000000000000000R2)-  %FQQQ00000000QQQ000000000000000000000000000000000N
0000000000000000Rgutx5RQ00000000000000000000000000000000000000000000000N
00000000000000000QQUKQ0000000000000000000000000000000000000000000000000N
0000000000000000000QQ00000000000000000000000000000000000000000000000000N
00000000000000000000000000000000000000000000000000000000000000000000000N
00000000000000000000000000000000000000000000000000000000000000000000000N