000000000000000000000b[to%                          =bQ00000000000000000
000000000000000000000QQWJ^                         vOQ000000000000000000
000000000000000000000Qd/                         '5WQ0000000000000000000
000000000000000000000Qy%v/                       xQQ00000000000000000000
0000000000000000000000QQQ6                     )fbQ000000000000000000000
000000000000000000000000QJ                     20Q0000000000000000000000
000000000000000000000000Qh                     %DQ0000000000000000000000
000000000000000000000000QD"`            `.     'OQ0000000000000000000000
000000000000000000000000QQl_            ,c     .hQ0000000000000000000000
0000000000000000000000QQ8mx              -     =OQ0000000000000000000000
000000000000000000000QZ*'                      .7WQ000000000000000000000
00000000000000000000QO:                          vZQ00000000000000000000
00000000000000000000QL                            :mQ0000000000000000000
00000000000000000QQQW"                             .CR000000000000000000
0000000000000000Rgw5a                                L000000000000000000
00000000000000000y                                    6Q0000000000000000
0000000000000000QQi                         .         +8Q000000000000000
0000000000000000Qf.                        %:     .)   jQ000000000000000
000000000000000Qd`                        |3       s+  "HQ00000000000000
00000000000000Qk=                         pS       <*   hQ00000000000000
0000000000000Qb+                         `&S        :   wQ00000000000000
000000000000QX^                           XP            zQ00000000000000
00000000000QS'                            J@'           IQ00000000000000
000000000002`                             1R<           rQ00000000000000