0000000000000000000000000000000000000000QQQQQ000000000000000000000000000
00000000000000000000000000000000000000RNNWW&UQ00000000000000000000000000
0000000000000000000000000000000000000MOqfC?_:EQ0000000000000000000000000
0000000000000000000000000000000000000BXf[l`  IQ0000000000000000000000000
0000000000000000000000000000000000000WGy!)   xQ0000000000000000000000000
0000000000000000000000000000000000000ROFt|   v00000000000000000000000000
00000000000000000000000000000000000000U6t/   )R0000000000000000000000000
00000000000000000000000000000000000000HSa^   |NQ000000000000000000000000
00000000000000000000000000000000000000WVt,   ^DQ000000000000000000000000
000000000000000000000000000000000QQQQQQE]-   _8Q000000000000000000000000
00000000000000000000000000000QQQQBPp#J63l     4Q000000000000000000000000
0000000000000000000000000QQQQ@VJ7x.    .`     7MQ00000000000000000000000
000000000000000000000000Qke?!^                .\300000000000000000000000
00000000000000000000000QE^                      .AQ000000000000000000000
0000000000000000000000QUi                        VQ000000000000000000000
0000000000000000000000QEv:'                      dQ000000000000000000000
00000000000000000000000MK&4/                    .YQ000000000000000000000
000000000000000000000000QQRt                    iM0000000000000000000000
00000000000000000000000000Qb^                  /bQ0000000000000000000000
000000000000000000000000000QJ                 %KQ00000000000000000000000
000000000000000000000000000QWr                +n&QQ000000000000000000000
0000000000000000000000000000Q$>                 '?ERQQ000000000000000000
00000000000000000000000000000QUr                   %6BQ00000000000000000
000000000000000000000000000000QNw=                   \2B0000000000000000