00000000000Q4                                   .fR000000000000000000000
000000000000NFv.                                wQ0000000000000000000000
0000000000000QRGe=                             zQ00000000000000000000000
000000000000000QQKyi`                         1RQ00000000000000000000000
00000000000000000QQRbt.                      iWQ000000000000000000000000
00000000000000000000QS`                      mQ0000000000000000000000000
0000000000000000000Q&:                       \40Q00000000000000000000000
000000000000000000QQ1                          lEQQ000000000000000000000
00000000000000000QMT                            .IbQQ0000000000000000000
0000000000000000Qkc                               -1bQQ00000000000000000
000000000000000Q2'                                  -]YQ0000000000000000
000000000000000Qm^                                    ,&Q000000000000000
0000000000000000Q$7_                                   ZQ000000000000000
0000000000000000QQ8"                                  7N0000000000000000
00000000000000QQUz:                                 :5QQ0000000000000000
000000000000QQDn;                                   vBQ00000000000000000
0000000000QQKC/                                      "S0Q000000000000000
000000000RbL=                                          sYQ00000000000000
000000000M1                                             ,&Q0000000000000
0000000000RX]_                                          ?B00000000000000
00000000000QQO7^                                       jRQ00000000000000
0000000000000QQ@f<                                    uQQ000000000000000
000000000000000QQNS%                                _f000000000000000000
00000000000000000QQMj.                             :SQ000000000000000000