0000000000000QJ.                              hQ000000000000000000000000
0000000000000Ax                              _AQ000000000000000000000000
0000000000000Mz=`                            _&Q000000000000000000000000
00000000000000WL_                            .ZQ000000000000000000000000
00000000000000kj)                             dQ000000000000000000000000
00000000000000MWu"_                           FQ000000000000000000000000
000000000000000QQK)                           <HQ00000000000000000000000
00000000000000000&u:                           )GQ0000000000000000000000
00000000000000000QP:                            _yQ000000000000000000000
0000000000000000Q@/                               fQQ0000000000000000000
0000000000000000Qq                                 1W0000000000000000000
0000000000000000Q$+                                 mQ000000000000000000
00000000000000000QX%                                2Q000000000000000000
000000000000000000QX.                              :kQ000000000000000000
0000000000000000QQd/                              .2Q0000000000000000000
0000000000000000BT`                               %Q00000000000000000000
000000000000000W!-                                /kQ0000000000000000000
000000000000000RK$]                                +GQ000000000000000000
0000000000000000QQDv`                               |BQ00000000000000000
000000000000000000QNE`                              ,KQ00000000000000000
0000000000000000000QMdi                             e0000000000000000000
000000000000000000000Q2#o.                         )HQ000000000000000000
0000000000000000000000QQ@'                        /&Q0000000000000000000
00000000000000000000000QN<                       'EQ00000000000000000000