000000000000000000000000000UXGY8BQQQQQQQQQQQQQ00000000000000000000000000
0000000000000000000000000QZ^ .-:/cwPEPKUEhh4YKRQ000000000000000000000000
0000000000000000000000000Qh           ^:    .,\dQ00000000000000000000000
0000000000000000000000000Qb. .                }@000000000000000000000000
00000000000000000000000000RE6>              `LRQ000000000000000000000000
00000000000000000000000000QK%              !YQQ0000000000000000000000000
000000000000000000000000000WY1            vXQ000000000000000000000000000
000000000000000000000000000QQI            6Q0000000000000000000000000000
0000000000000000000000000000Ne            [Q0000000000000000000000000000
000000000000000000000000000QB!            wQ0000000000000000000000000000
00000000000000000000000000Qg/             iYQ000000000000000000000000000
0000000000000000000000000QQ?               ;hQ00000000000000000000000000
000000000000000000000000M2n'                `uR0000000000000000000000000
000000000000000000000000Qu                    fQ000000000000000000000000
00000000000000000000000QN%   `          -.    `4Q00000000000000000000000
0000000000000000000000Q0o    `          };     /KQ0000000000000000000000
000000000000000000000QMe                }^      #Q0000000000000000000000
00000000000000000000QW?                 ;:      ;UQ000000000000000000000
00000000000000000000U%                  -'       LQ000000000000000000000
00000000000000000000O\                           }R000000000000000000000
00000000000000000000Q!                           iB000000000000000000000
00000000000000000000Qs                          TH0000000000000000000000
00000000000000000000QI                         '@Q0000000000000000000000
0000000000000000000QW"                      .  1000000000000000000000000