000000000000000000000000000000000000000Q00000000000000000000000000000000
000000000000000000000000000000QQQQQQQQQHQQ000000000000000000000000000000
00000000000000000000000000000RDWMEL]]tj?IbQ00000000000000000000000000000
00000000000000000000000000000Mu<\        <BQ0000000000000000000000000000
00000000000000000000000000000QE`          +[B000000000000000000000000000
000000000000000000000000000000$o`        ,7YM000000000000000000000000000
000000000000000000000000000000QW^       \kK0QQ00000000000000000000000000
000000000000000000000000000000Q8'       |)_<ubN0000000000000000000000000
000000000000000000000000000000Qo              aM000000000000000000000000
000000000000000000000000000000Qr             lK0000000000000000000000000
000000000000000000000000000000Q[             mQ0000000000000000000000000
00000000000000000000000000000QRr        ^ci/i$Q0000000000000000000000000
00000000000000000000000000000Rd'         .tZRQ00000000000000000000000000
00000000000000000000000000000$p_        :iuHQ000000000000000000000000000
00000000000000000000000000000Q6         xMQQ0000000000000000000000000000
00000000000000000000000000000Q}         _OQ00000000000000000000000000000
0000000000000000000000000000QB/          tQ00000000000000000000000000000
0000000000000000000000000000QY.          _OQ0000000000000000000000000000
0000000000000000000000000000Q2            [Q0000000000000000000000000000
0000000000000000000000000000Q?            -bQ000000000000000000000000000
000000000000000000000000000QW|             !Q000000000000000000000000000
000000000000000000000000000Qk`             -YQ00000000000000000000000000
000000000000000000000000000Q6               1Q00000000000000000000000000
000000000000000000000000000Qj               ;@Q0000000000000000000000000