000000000000000000000Q00000000000000000000000000000000000000000000000000
000000000000000000QQQM0QQ00000000000000000000000000000000000000000000000
000000000000000QQQUPhTsJ@QQ000000000000000000000000000000000000000000000
00000000000000MDDj'     :IXR00000000000000000000000000000000000000000000
00000000000000Hv:         {R00000000000000000000000000000000000000000000
000000000000000J).        lM00000000000000000000000000000000000000000000
000000000000000QRe .      +NQQ000000000000000000000000000000000000000000
0000000000000000Qu.|      `ryAR00000000000000000000000000000000000000000
000000000000000QO"           .l$0000000000000000000000000000000000000000
000000000000000Q]            )PR0000000000000000000000000000000000000000
00000000000000QA'            )$00000000000000000000000000000000000000000
00000000000000QWi           `vY00000000000000000000000000000000000000000
0000000000000QWt`           [NQ00000000000000000000000000000000000000000
0000000000000O%             *Q000000000000000000000000000000000000000000
000000000000Qo              v0000000000000000000000000000000000000000000
0000000000000Uc=<<          v0000000000000000000000000000000000000000000
0000000000000Q0BR1          /WQ00000000000000000000000000000000000000000
000000000000000Qm.          'UQ00000000000000000000000000000000000000000
00000000000000Q8=            GQ00000000000000000000000000000000000000000
000000000000000}             6Q00000000000000000000000000000000000000000
0000000000000Qm              jQ00000000000000000000000000000000000000000
0000000000000D"              rQ00000000000000000000000000000000000000000
000000000000Qw               "WQ0000000000000000000000000000000000000000
000000000000Ri               -AQ0000000000000000000000000000000000000000