0000000000000000Rv                          ,GQ0000000000000000000000000
0000000000000000QF                         _dQ00000000000000000000000000
00000000000000000Rhga.                    'qQ000000000000000000000000000
00000000000000000QH]`                   c!GQ0000000000000000000000000000
000000000000000000Z{v.                  4QQ00000000000000000000000000000
000000000000000000QQQ{                :jM0000000000000000000000000000000
00000000000000000000Qp                iWQ0000000000000000000000000000000
00000000000000000000Qk`                6Q0000000000000000000000000000000
00000000000000000000QRI                aQ0000000000000000000000000000000
0000000000000000000QQUx                mQ0000000000000000000000000000000
000000000000000000R6%:                 ?H0000000000000000000000000000000
00000000000000000QA.                    eQQQ0000000000000000000000000000
0000000000000000QQG                     -TSAR000000000000000000000000000
000000000000000MOGj                        "HQ00000000000000000000000000
000000000000000Hs                          nQ000000000000000000000000000
000000000000000QW\    .'                   ^bQ00000000000000000000000000
000000000000000QO_    ./                    /&Q0000000000000000000000000
000000000000000Qu      :                     \@Q000000000000000000000000
0000000000000QQy_     ."                      i@Q00000000000000000000000
000000000000QRz       _1                       )UQ0000000000000000000000
00000000000QBI        >f                        \H0000000000000000000000
0000000000Q$%         xv                        IR0000000000000000000000
000000000QY"                                    %K0000000000000000000000
0000000000A1                                     oQ000000000000000000000