000000000000000000000000000000000QQ0000000000000000000000000000000000000
00000000000000000000000000000QQQQKHQQ00000000000000000000000000000000000
0000000000000000000000000QQQMG6fn?\}OQQQ00000000000000000000000000000000
0000000000000000000000000$Ybs       :n4@00000000000000000000000000000000
000000000000000000000000Rmr`          "b00000000000000000000000000000000
0000000000000000000000000QC:         `hQ00000000000000000000000000000000
00000000000000000000000000R@P|       /H0QQ000000000000000000000000000000
000000000000000000000000000QQI       `+)ubMQ0000000000000000000000000000
000000000000000000000000000Mo_           .)b0000000000000000000000000000
00000000000000000000000000Qd              fM0000000000000000000000000000
00000000000000000000000000Qg             xBQ0000000000000000000000000000
0000000000000000000000000QR#           :rDQ00000000000000000000000000000
000000000000000000000000Rhx            zMQ000000000000000000000000000000
00000000000000000000000QX.             iX0000000000000000000000000000000
00000000000000000000000QUv             ]R0000000000000000000000000000000
000000000000000000000000QBgF:         /SQ0000000000000000000000000000000
0000000000000000000000000QQG.         iM00000000000000000000000000000000
00000000000000000000000000Qa          ,KQ0000000000000000000000000000000
0000000000000000000000000QK^           XQ0000000000000000000000000000000
0000000000000000000000000Qm            wQ0000000000000000000000000000000
0000000000000000000000000Q}            IQ0000000000000000000000000000000
000000000000000000000000QK;            "WQ000000000000000000000000000000
000000000000000000000000Q4             `OQ000000000000000000000000000000
000000000000000000000000Q3              SQ000000000000000000000000000000