000000000000000000000000000000000000000000000000000000000000000000000000
000000000000000QQQQ0QQ00000000000000000000000000000000000000000000000000
00000000000QQQQ@Xhhw1SQQ000000000000000000000000000000000000000000000000
00000000000@hV#,      IA000000000000000000000000000000000000000000000000
00000000000@7          :J00000000000000000000000000000000000000000000000
00000000000Qk{+        *$00000000000000000000000000000000000000000000000
000000000000QQg        gQQQ000000000000000000000000000000000000000000000
0000000000000Q3        /ahKR00000000000000000000000000000000000000000000
0000000000000o`           <O00000000000000000000000000000000000000000000
00000000000QB=           'gQ00000000000000000000000000000000000000000000
00000000000Q&'         -  )K00000000000000000000000000000000000000000000
0000000000QK*  `       1hTgM00000000000000000000000000000000000000000000
000000000Q4|  -v       ;HQQ000000000000000000000000000000000000000000000
00000000Rj.   ci        5Q0000000000000000000000000000000000000000000000
00000000RF:  :u`        ?Q0000000000000000000000000000000000000000000000
000000000Qk2dAr         )MQ000000000000000000000000000000000000000000000
0000000000QQQb`         -AQ000000000000000000000000000000000000000000000
000000000000Qt           mQ000000000000000000000000000000000000000000000
00000000000QK^           tQ000000000000000000000000000000000000000000000
00000000000Qm            \M000000000000000000000000000000000000000000000
00000000000QI            `kQ00000000000000000000000000000000000000000000
0000000000QD^             2Q00000000000000000000000000000000000000000000
0000000000QX              *Q00000000000000000000000000000000000000000000
0000000000Qf  '` _=:^:    ;$Q0000000000000000000000000000000000000000000