000000000000000000000000000000000000000000000000000000000000di          
000000000000000000000000000000000000000000000000000000000000dv          
000000000000000000000000000000000000000000000000000000000000dv          
000000000000000000000000000000000000000000000000000000000000dv          
000000000000000000000000000000000000000000000000000000000000dv          
0000000000000000000000000000000000QQ000000000000000000000000dv          
00000000000000000000000000000000QQUAQQQQQQ000000000000000000dv          
00000000000000000000000000000QQQW$gs62FVbKQQ0000000000000000dv          
0000000000000000000000000000QB6}/'-      ,*bQ000000000000000dv          
0000000000000000000000000000Di             ^UQ00000000000000dv          
000000000000000000000000000QU-              mQ00000000000000dv          
00000000000000000000000000000e              4Q00000000000000dv          
00000000000000000000000000000W!            !M000000000000000dv          
00000000000000000000000000000QRp<       'ifMQ000000000000000dv          
0000000000000000000000000000000QNPy7[tuq80Q0000000000000000Rdv          
00000000000000000000000000000000QQQQQQQQQ000000000000000000Rdv          
00000000000000000000000000000000000000000000000000000000000Rdv          
00000000000000000000000000000000000000000000000000000000000Rdv          
00000000000000000000000000000000000000000000000000000000000Rdv          
00000000000000000000000000000000000000000000000000000000000Rdv          
00000000000000000000000000000000000000000000000000000000000Rdv          
00000000000000000000000000000000000000000000000000000000000Rdv          
00000000000000000000000000000000000000000000000000000000000Rdv          
00000000000000000000000000000000000000000000000000000000000Rdv          