000000000000QH\                               _YQ00000000000000000000000
000000000000Qd'                               s0000000000000000000000000
00000000000000w)`                             jQ000000000000000000000000
00000000000000Qq-                             yQ000000000000000000000000
000000000000000&*                             dQ000000000000000000000000
000000000000000QBCs`                         .YQ000000000000000000000000
0000000000000000QQS                           aMQ00000000000000000000000
0000000000000000008\                           %bQ0000000000000000000000
00000000000000000Qk+                            'w0Q00000000000000000000
0000000000000000QA+                               [HQ0000000000000000000
0000000000000000Q!                                 )4Q000000000000000000
0000000000000000QS                                  ^KQ00000000000000000
00000000000000000Q5\                                -8Q00000000000000000
00000000000000000QQy                                IM000000000000000000
0000000000000000QWj_                               iHQ000000000000000000
00000000000000QQXi                                .PQ0000000000000000000
00000000000000K!                                   eMQ000000000000000000
00000000000000@6u^                                  rK000000000000000000
00000000000000QQQZ:                                  }R00000000000000000
00000000000000000QXz`                                )R00000000000000000
000000000000000000QQj\                              .mQ00000000000000000
00000000000000000000Qd+/                            uQ000000000000000000
000000000000000000000MBK\                          100000000000000000000
0000000000000000000000QQn                         }NQ0000000000000000000