000000000000000000000000000000000000000000QQ0000000000000000000000000000
000000000000000000000000000000000000QQQQQQWBQQ00000000000000000000000000
00000000000000000000000000000000QQQQHqLt1ea*oAQ0000000000000000000000000
00000000000000000000000000000000bj7j/        >RQQ00000000000000000000000
00000000000000000000000000000000NC_           c3D00000000000000000000000
000000000000000000000000000000000u.            rG00000000000000000000000
0000000000000000000000000QQQQQQQQQg^         r4MQ00000000000000000000000
00000000000000000000000QQWO4pJTyUQQl        .1#SKQQQ00000000000000000000
00000000000000000000000Ko"`     ,r?^            ^]gK00000000000000000000
0000000000000000000000QP-                         ,4Q0000000000000000000
00000000000000000000000Q85e}{*t1.                /&Q00000000000000000000
000000000000000000000000QQQQQQQQP2i              .zN00000000000000000000
00000000000000000000000000000000QQ*           v*^'vD00000000000000000000
00000000000000000000000000000000N2_           1QD$M000000000000000000000
0000000000000000000000000000000RVS,           ,@QQ0000000000000000000000
000000000000000000000000000000000m.            SQ00000000000000000000000
00000000000000000000000000000000Rh>            eQ00000000000000000000000
00000000000000000000000000000000RM]            )NQ0000000000000000000000
000000000000000000000000000000000Q6:           .ZQ0000000000000000000000
000000000000000000000000000000000QN)            LQ0000000000000000000000
000000000000000000000000000000000Q&_            "W0000000000000000000000
000000000000000000000000000000000Qm              hQ000000000000000000000
000000000000000000000000000000000Qe              ?Q000000000000000000000
000000000000000000000000000000000Ri              ^HQ00000000000000000000