000000000000Q3                                 )K00000000000000000000000
000000000000Qy.                                6Q00000000000000000000000
0000000000000Qh]                              /BQ00000000000000000000000
00000000000000QM]                             tQ000000000000000000000000
000000000000000QWw/                          .4Q000000000000000000000000
0000000000000000QQB5_                        =WQ000000000000000000000000
000000000000000000Qh                         `fMQ00000000000000000000000
000000000000000000QS                           xGQQ000000000000000000000
00000000000000000QUv                            _jWQ00000000000000000000
0000000000000000Qk|                               iXQQ000000000000000000
000000000000000QD"                                 `eH000000000000000000
0000000000000000M7                                   oQ00000000000000000
0000000000000000002"                                 sQ00000000000000000
00000000000000000QQz                                -SQ00000000000000000
000000000000000QQO*.                               _mQ000000000000000000
0000000000000QQBw:                                 1QQ000000000000000000
0000000000000BF\                                   ,50Q00000000000000000
00000000000002/                                      !HQ0000000000000000
00000000000000B#:                                     sM0000000000000000
00000000000000QQYi                                    )N0000000000000000
0000000000000000QMh;                                 =YQ0000000000000000
00000000000000000QQ&C                               ^ZQ00000000000000000
0000000000000000000Q0hz_                           ;PQ000000000000000000
000000000000000000000QQn                          :4Q0000000000000000000