0000000000000000Q&'                         `gQ0000000000000000000000000
00000000000000000Mr                         JQ00000000000000000000000000
00000000000000000QAll)                     ]R000000000000000000000000000
000000000000000000QQ&l                  )%nMQ000000000000000000000000000
0000000000000000000Ki                   CQQQ0000000000000000000000000000
0000000000000000000R@p                 i&Q000000000000000000000000000000
00000000000000000000Qg                tNQ0000000000000000000000000000000
00000000000000000000Qm                fQ00000000000000000000000000000000
00000000000000000000Qb)               TQ00000000000000000000000000000000
00000000000000000000QQ#.              #RQ0000000000000000000000000000000
000000000000000000004!"               `)gQ000000000000000000000000000000
000000000000000000QA_                   _8QQ0000000000000000000000000000
00000000000000000QQG                     !SZM000000000000000000000000000
0000000000000000R&PL                       `4Q00000000000000000000000000
0000000000000000Mt.                        xM000000000000000000000000000
000000000000000000r                        `3Q00000000000000000000000000
0000000000000000QB/                         `SQ0000000000000000000000000
0000000000000000QF                           'EQ000000000000000000000000
00000000000000QQ3_                            :EQ00000000000000000000000
0000000000000QM7                               'g00000000000000000000000
000000000000QH*                                 '8Q000000000000000000000
000000000000k>                                  ?Q0000000000000000000000
00000000000Br                                   /OQ000000000000000000000
000000000000&^                                   FQ000000000000000000000