000000000000000000000000000000000000000000000000000000000000000000000000
000000000000000000000000000000000000000000000000000000000000000000000000
0000000000QQ0QQQQQRQQ000000000000000000000000000000000000000000000000000
000000000RDNQbwnnJ][OQ00000000000000000000000000000000000000000000000000
000000000Rfiv`      /PM0000000000000000000000000000000000000000000000000
000000000Qk;         .eM000000000000000000000000000000000000000000000000
0000000000RU7       ,wD0000000000000000000000000000000000000000000000000
00000000000QS       \dKQQ00000000000000000000000000000000000000000000000
0000000000QO\         ,rd00000000000000000000000000000000000000000000000
0000000000Dv           c@00000000000000000000000000000000000000000000000
000000000QC            :nR0000000000000000000000000000000000000000000000
00000000QQw         )qj!mR0000000000000000000000000000000000000000000000
0000000QUo_         -YQQQ00000000000000000000000000000000000000000000000
000000Qy'            jQ0000000000000000000000000000000000000000000000000
0000000Zl: /=        lQ0000000000000000000000000000000000000000000000000
0000000Q0$YO/        +BQ000000000000000000000000000000000000000000000000
000000000QQP          GQ000000000000000000000000000000000000000000000000
0000000000Qf          #Q000000000000000000000000000000000000000000000000
0000000000Q!          %0000000000000000000000000000000000000000000000000
0000000000R>          _8Q00000000000000000000000000000000000000000000000
000000000QH^           mQ00000000000000000000000000000000000000000000000
000000000QA-           aQ00000000000000000000000000000000000000000000000
000000000QY.           iR00000000000000000000000000000000000000000000000
000000000QE     IL*    _AQ0000000000000000000000000000000000000000000000