000000000000000000000000000000000000000000Q00000000000000000000000000000
000000000000000000000000000000000Q00QQQQQQM0Q000000000000000000000000000
00000000000000000000000000000000RBRQ@muo7#uehR00000000000000000000000000
00000000000000000000000000000000Bjs}^        wQQ000000000000000000000000
00000000000000000000000000000000Qg:          :ohM00000000000000000000000
00000000000000000000000000000000Qh`           ,wB00000000000000000000000
000000000000000000000000000000QQQQp.        _jBQQ00000000000000000000000
0000000000000000000000000000QQBX62u.        'IjXNQQ000000000000000000000
0000000000000000000000000000Ko=                 \zY000000000000000000000
0000000000000000000000000000&r^                  \P000000000000000000000
0000000000000000000000000000QQB5=,:             'PQ000000000000000000000
000000000000000000000000000000QQDHj              'GQ00000000000000000000
00000000000000000000000000000000QW)          rgL?j@000000000000000000000
00000000000000000000000000000000QG,          ^kQQQQ000000000000000000000
00000000000000000000000000000000QX.          -L&Q00000000000000000000000
00000000000000000000000000000000Qg.           qW000000000000000000000000
000000000000000000000000000000000A|           aQ000000000000000000000000
000000000000000000000000000000000Q]           )N000000000000000000000000
000000000000000000000000000000000Qg           .ZQ00000000000000000000000
000000000000000000000000000000000Qg            aQ00000000000000000000000
000000000000000000000000000000000QC            ;KQ0000000000000000000000
000000000000000000000000000000000Qt             5Q0000000000000000000000
000000000000000000000000000000000Ql             cR0000000000000000000000
00000000000000000000000000000000QN|             _8Q000000000000000000000