00000000000000000000000000000000000000000000000000B#I%+`                
00000000000000000000000000000000000000000000000000WT+                   
000000000000000000000000000000000000000000000000000Q&c                  
0000000000000000000000000000000000000000000000000000Qj                  
00000000000000000000000000000000000000000000000000000Wn/_.              
00000000000000000000000000000000000000000000000000000QQ&c               
0000000000000000000QQQQQQQ00000000000000000000000000000MGv              
000000000000000000MEVPA$Z@QQQ000000000000000000000000000QML- .'-        
00000000000000000Mms<)", ^7XDQQQQQQQ0000000000000000QQQQQQQbhgbx        
00000000000000000RPeI>'     =!pqdY$BRQQQQQQQQQQQQQQ0Zhhd4Eg&W&1.        
0000000000000000000MEwSSJx:      .:+)r]jwqEk@&b4myu{       .=;          
00000000000000000000QQQQQQ@ZV#_            `,_.                         
00000000000000000000000000QQQ0YXhpJ7Iv/'               `',,,.           
000000000000000000000000000000QQQQQQQQW$GqJnnn#Cf2pqVgbA$KKHy           
00000000000000000000000000000000000000QQQQQQQQQQQQQQQQQQQQQQM)          
000000000000000000000000000000000000000000000000000000000000Qy          
0000000000000000000000000000000000000000000000000000000000000Ra         
0000000000000000000000000000000000000000000000000000000000000Q06"       
000000000000000000000000000000000000000000000000000000000000000QD#:     
0000000000000000000000000000000000000000000000000000000000000000QQ%     
000000000000000000000000000000000000000000000000000000000000000000]     
00000000000000000000000000000000000000000000000000000000000000000Qk-    
00000000000000000000000000000000000000000000000000000000000000000QA:    
000000000000000000000000000000000000000000000000000000000000000008%     