000000000000000000000000000000000000000000000000000000000000000000000000
00000000000000000000000000000000000000000QQQQ000000000000000000000000000
00000000000000000000000000000000000000000KNWBR00000000000000000000000000
0000000000000000000000000000000000000000QLxy5ZR0000000000000000000000000
0000000000000000000000000000000000000000Q&_:rjPN000000000000000000000000
00000000000000000000000000000000000000000Q2 ./ePR00000000000000000000000
0000000000000000000000000000000000000000000]  ^oZ00000000000000000000000
000000000000000000000000000000000000000000QD)  ;eOQ000000000000000000000
0000000000000000000000000000000000000000000QA^  ,78Q00000000000000000000
00000000000000000000000000000000000000000000Qd-  '7KQ0000000000000000000
000000000000000000000000000000000000000000000Q2   _uWQ000000000000000000
0000000000000000000000000000000000000000000000Qj   'JRQ00000000000000000
00000000000000000000000000000000000000000000000R?   '3Q00000000000000000
00000000000000000000000000000000000000000000000QB%   'qQ0000000000000000
000000000000000000000000000000000000000000000000Q$)   ,4Q000000000000000
0000000000000000000000000000000000000000000000000QY;   ^YQ00000000000000
00000000000000000000000000000000000000000000000000Qd-   "8Q0000000000000
000000000000000000000000000000000000000000000000000Q5    >@Q000000000000
0000000000000000000000000000000000000000000000000000Qj    )@Q00000000000
0000000000000000000000000000000000000000000000000000QNx    i@Q0000000000
00000000000000000000000000000000000000000000000000000QA=    %KQ000000000
000000000000000000000000000000000000000000000000000000Qq`    xDQ00000000
00000000000000000000000000000000000000000000000000000000j.    rBQ0000000
0000000000000000000000000000000000000000000000000000000QHs     !M0000000