000000000000000000000000000000000000000000000000000000000000QQQQQQQXs.  
00000000000000000000000000000000000000000000000000000000QQQQW8G4ggdVo/  
00000000000000000000000000000000000000000000000000000QQQUmex/_     .`.  
0000000000000000000000000000000000000000000000000000QMg*:               
000000000000000000000000000000000000000000000000000Q8{                  
00000000000000000000000000000000000000000000000000RX>                   
0000000000000000000000000000000000000000000000000Q$!                    
00000000000000000000000000000000000000000000000000Bw`                   
00000000000000000000000000000000000000000000000000QAI"^                 
000000000000000000000000000000000000000000000000000QHE*                 
0000000000000000000000000000000000000000000000000000Hj-                 
0000000000000000000000000000000000000000000000000000QD].                
00000000000000000000000000000000000000000000000000000QHr                
00000000000000000000000000000000000000000000000000000QHv  zqc           
00000000000000000000000000000000000000000000000000000QX/ %HMe.          
00000000000000000000000000000000000000000000000000000QHx%@Nj=           
00000000000000000000000000000000000000000000000000000QK]hQT             
000000000000000000000000000000000000000000000000000000WXWN)             
0000000000000000000000000000000000000000000000000000000QQY`             
00000000000000000000000000000000000000000000000000000000Qp              
00000000000000000000000000000000000000000000000000000000Qg`             
00000000000000000000000000000000000000000000000000000000Qh.             
00000000000000000000000000000000000000000000000000000000D)              
0000000000000000000000000000000000000000000000000000000Qb.              