000000000000000000000000000000QQQQ00000000000000000000000000000000000000
00000000000000000000000000QQQRASgMQ0000000000000000000000000000000000000
00000000000000000000000QQQh[x<": %hMQ00000000000000000000000000000000000
0000000000000000000000Nmfj.        )uN0000000000000000000000000000000000
0000000000000000000000Mh"           S00000000000000000000000000000000000
00000000000000000000000R3{"        '$Q0000000000000000000000000000000000
000000000000000000000000QQg.       _EMQQQ0000000000000000000000000000000
0000000000000000000000000Qg`        `\jPB0000000000000000000000000000000
000000000000000000000000QZ/             tM000000000000000000000000000000
000000000000000000000000Q[             }D0000000000000000000000000000000
00000000000000000000000QQx            "OQ0000000000000000000000000000000
0000000000000000000000QNJ`           vAQ00000000000000000000000000000000
000000000000000000000Qgv             yQ000000000000000000000000000000000
00000000000000000000QT.              [Q000000000000000000000000000000000
00000000000000000000Q5'   ,          [Q000000000000000000000000000000000
000000000000000000000Q&634%          pQ000000000000000000000000000000000
0000000000000000000000QQQK,          4Q000000000000000000000000000000000
000000000000000000000000Q5           wQ000000000000000000000000000000000
000000000000000000000000Rl           !Q000000000000000000000000000000000
00000000000000000000000QO_           \M000000000000000000000000000000000
00000000000000000000000Qy            _8Q00000000000000000000000000000000
000000000000000000000000*             EQ00000000000000000000000000000000
0000000000000000000000QD/             pQ00000000000000000000000000000000
0000000000000000000000QA_             yQ00000000000000000000000000000000